FH202007281231560050061170ORDENDEPAGO20200728                                                                                                                                                                                                                                                                                                                                                                                                                                                                                                                                                                                                                                                                                                                                                                             
PR0040000000000000001000000005000000ARS2020072806500306010       CASTILLO MIRTA LAURA                                        06500306010                                                                                                                                                                          E:santafe@santafe.gov.ar                                                                                                                              0006500000000000000000000000000000000030CAARS0650030601000000237528                                              ARS59900200001448646ASISTENCIA ECONOMICA DE EMERGENCIA A COMERCIOS                                                                                                                                           NN               001
PR0040000000000000002000000002000000ARS2020072828507318300       ACEVEDO NIEVES DE FATIMA                                    28507318300                                                                                                                                                                          E:makam84@hotmail.com                                                                                                                                 0028500000000000000000000000000000000731CAARS2850731830094164875751                                              ARS59900200001448646ASISTENCIA ECONOMICA DE EMERGENCIA A COMERCIOS                                                                                                                                           NN               001
PR0040000000000000003000000002000000ARS2020072833005001250       ACOSTA MARIA SOLEDAD                                        33005001250                                                                                                                                                                          E:shole916@gmail.com                                                                                                                                  0033000000000000000000000000000000000500CAARS3300500125000245193058                                              ARS59900200001448646ASISTENCIA ECONOMICA DE EMERGENCIA A COMERCIOS                                                                                                                                           NN               001
PR0040000000000000004000000002000000ARS2020072800000031000       ALARCON GISELA SOLEDAD                                      00000031000                                                                                                                                                                          E:alarcongisela16@gmail.com                                                                                                                           0000000000000000000000000000000000000003CAARS0000003100017022033141                                              ARS59900200001448646ASISTENCIA ECONOMICA DE EMERGENCIA A COMERCIOS                                                                                                                                           NN               001
PR0040000000000000005000000002000000ARS2020072804400240400       ALDERETE HUGO DANTE                                         04400240400                                                                                                                                                                          E:hugoalderete222@hotmail.com                                                                                                                         0004400000000000000000000000000000000024CAARS0440024040000173166930                                              ARS59900200001448646ASISTENCIA ECONOMICA DE EMERGENCIA A COMERCIOS                                                                                                                                           NN               001
PR0040000000000000006000000002000000ARS2020072801702097400       AMAYA LUCRECIA                                              01702097400                                                                                                                                                                          E:Lucreamaya@hotmail.com                                                                                                                              0001700000000000000000000000000000000209CAARS0170209740000031345525                                              ARS59900200001448646ASISTENCIA ECONOMICA DE EMERGENCIA A COMERCIOS                                                                                                                                           NN               001
PR0040000000000000007000000004000000ARS2020072801704185400       ANDREU LAURA ALEJANDRA                                      01704185400                                                                                                                                                                          E:santafe@santafe.gov.ar                                                                                                                              0001700000000000000000000000000000000418CAARS0170418540000031869197                                              ARS59900200001448646ASISTENCIA ECONOMICA DE EMERGENCIA A COMERCIOS                                                                                                                                           NN               001
PR0040000000000000008000000002000000ARS2020072801105889300       ARANDA LEONARDO JAVIER                                      01105889300                                                                                                                                                                          E:javiervgg@hotmail.com                                                                                                                               0001100000000000000000000000000000000588CAARS0110588930058833740115                                              ARS59900200001448646ASISTENCIA ECONOMICA DE EMERGENCIA A COMERCIOS                                                                                                                                           NN               001
PR0040000000000000009000000003000000ARS2020072833005049250       ASSENZA JOSE FRANCISCO                                      33005049250                                                                                                                                                                          E:assenzajosef@gmail.com                                                                                                                              0033000000000000000000000000000000000504CAARS3300504925040227426042                                              ARS59900200001448646ASISTENCIA ECONOMICA DE EMERGENCIA A COMERCIOS                                                                                                                                           NN               001
PR0040000000000000010000000003000000ARS2020072842600026001       AVIGLIANO FRANCO                                            42600026001                                                                                                                                                                          E:francoamc@hotmail.com                                                                                                                               0042600000000000000000000000000000000002CAARS4260002600100003088002                                              ARS59900200001448646ASISTENCIA ECONOMICA DE EMERGENCIA A COMERCIOS                                                                                                                                           NN               001
PR0040000000000000011000000002000000ARS2020072833000051200       AVILA ROBERTO MARCELO                                       33000051200                                                                                                                                                                          E:marcelo.avila@hotmail.com.ar                                                                                                                        0033000000000000000000000000000000000005CAARS3300005120050118901049                                              ARS59900200001448646ASISTENCIA ECONOMICA DE EMERGENCIA A COMERCIOS                                                                                                                                           NN               001
PR0040000000000000012000000002000000ARS2020072833000013100       AYALA BRENDA NATALI                                         33000013100                                                                                                                                                                          E:deloredo@tower.com.ar                                                                                                                               0033000000000000000000000000000000000001CAARS3300001310010263335033                                              ARS59900200001448646ASISTENCIA ECONOMICA DE EMERGENCIA A COMERCIOS                                                                                                                                           NN               001
PR0040000000000000013000000002000000ARS2020072828507042400       BAEZ MARCELO DANIEL                                         28507042400                                                                                                                                                                          E:letrasmbaez737@gmail.com                                                                                                                            0028500000000000000000000000000000000704CAARS2850704240094884628058                                              ARS59900200001448646ASISTENCIA ECONOMICA DE EMERGENCIA A COMERCIOS                                                                                                                                           NN               001
PR0040000000000000014000000003000000ARS2020072828508434400       BALVERDI ADRIANA PATRICIA                                   28508434400                                                                                                                                                                          E:macanas60@hotmail.com                                                                                                                               0028500000000000000000000000000000000843CAARS2850843440000008613590                                              ARS59900200001448646ASISTENCIA ECONOMICA DE EMERGENCIA A COMERCIOS                                                                                                                                           NN               001
PR0040000000000000015000000005000000ARS2020072807204788880       BARBONA SANDRA BEATRIZ                                      07204788880                                                                                                                                                                          E:be.a642@hotmail.com                                                                                                                                 0007200000000000000000000000000000000478CAARS0720478888000035394604                                              ARS59900200001448646ASISTENCIA ECONOMICA DE EMERGENCIA A COMERCIOS                                                                                                                                           NN               001
PR0040000000000000016000000003000000ARS2020072800702203300       BARRILE ADRIAN OMAR                                         00702203300                                                                                                                                                                          E:barrileviajes@hotmail.com                                                                                                                           0000700000000000000000000000000000000220CAARS0070220330004004913114                                              ARS59900200001448646ASISTENCIA ECONOMICA DE EMERGENCIA A COMERCIOS                                                                                                                                           NN               001
PR0040000000000000017000000002000000ARS2020072801104916300       BARROSO MELINA GUADALUPE                                    01104916300                                                                                                                                                                          E:melinabarroso33@gmail.com                                                                                                                           0001100000000000000000000000000000000491CAARS0110491630049197429565                                              ARS59900200001448646ASISTENCIA ECONOMICA DE EMERGENCIA A COMERCIOS                                                                                                                                           NN               001
PR0040000000000000018000000002000000ARS2020072814300017130       BARUZZO BARBARA REGINA                                      14300017130                                                                                                                                                                          E:adabcapra@hotmail.com                                                                                                                               0014300000000000000000000000000000000001CAARS1430001713003499980011                                              ARS59900200001448646ASISTENCIA ECONOMICA DE EMERGENCIA A COMERCIOS                                                                                                                                           NN               001
PR0040000000000000019000000005000000ARS2020072803403400083       BAUDRACCO ALEJANDRO DANIEL                                  03403400083                                                                                                                                                                          E:plataformanorte.arg@gmail.com                                                                                                                       0003400000000000000000000000000000000340CAARS0340340008340004128002                                              ARS59900200001448646ASISTENCIA ECONOMICA DE EMERGENCIA A COMERCIOS                                                                                                                                           NN               001
PR0040000000000000020000000002000000ARS2020072833000464204       BELLO VANESA SOLEDAD                                        33000464204                                                                                                                                                                          E:vanesabello@gmail.com                                                                                                                               0033000000000000000000000000000000000046CAARS3300046420460964396025                                              ARS59900200001448646ASISTENCIA ECONOMICA DE EMERGENCIA A COMERCIOS                                                                                                                                           NN               001
PR0040000000000000021000000002000000ARS2020072801104916300       BENITEZ MARCELO DELMIRO                                     01104916300                                                                                                                                                                          E:marcheloelrojo@hotmail.com                                                                                                                          0001100000000000000000000000000000000491CAARS0110491630049198098997                                              ARS59900200001448646ASISTENCIA ECONOMICA DE EMERGENCIA A COMERCIOS                                                                                                                                           NN               001
PR0040000000000000022000000002000000ARS2020072819103437551       BENITEZ ADELAIDA                                            19103437551                                                                                                                                                                          E:benitezadelaida12@gmail.com                                                                                                                         0019100000000000000000000000000000000343CAARS1910343755134300774085                                              ARS59900200001448646ASISTENCIA ECONOMICA DE EMERGENCIA A COMERCIOS                                                                                                                                           NN               001
PR0040000000000000023000000002000000ARS2020072833005032250       BERGAMINI CLAUDIA                                           33005032250                                                                                                                                                                          E:cbergamini@hotmail.com                                                                                                                              0033000000000000000000000000000000000503CAARS3300503225030530405102                                              ARS59900200001448646ASISTENCIA ECONOMICA DE EMERGENCIA A COMERCIOS                                                                                                                                           NN               001
PR0040000000000000024000000002000000ARS2020072833005346253       BERRA ROBERTO                                               33005346253                                                                                                                                                                          E:robertocberra@hotmail.com                                                                                                                           0033000000000000000000000000000000000534CAARS3300534625340917453087                                              ARS59900200001448646ASISTENCIA ECONOMICA DE EMERGENCIA A COMERCIOS                                                                                                                                           NN               001
PR0040000000000000025000000002000000ARS2020072801102644300       BERTOLIO CRISTIAN OSCAR                                     01102644300                                                                                                                                                                          E:daniel_amprimo@hotmail.com                                                                                                                          0001100000000000000000000000000000000264CAARS0110264430026446884601                                              ARS59900200001448646ASISTENCIA ECONOMICA DE EMERGENCIA A COMERCIOS                                                                                                                                           NN               001
PR0040000000000000026000000005000000ARS2020072801104480300       BERTUNA JOSE VICTOR                                         01104480300                                                                                                                                                                          E:dbbertuna@hotmail.com                                                                                                                               0001100000000000000000000000000000000448CAARS0110448030044882895029                                              ARS59900200001448646ASISTENCIA ECONOMICA DE EMERGENCIA A COMERCIOS                                                                                                                                           NN               001
PR0040000000000000027000000005000000ARS2020072819102755550       BIGOGLIO ANALIA GABRIELA                                    19102755550                                                                                                                                                                          E:analiabigoglio05@gmail.com                                                                                                                          0019100000000000000000000000000000000275CAARS1910275555027501223846                                              ARS59900200001448646ASISTENCIA ECONOMICA DE EMERGENCIA A COMERCIOS                                                                                                                                           NN               001
PR0040000000000000028000000002000000ARS2020072807205439880       BLANCO DANIEL ALEJANDRO                                     07205439880                                                                                                                                                                          E:vablaturismo@gmail.com                                                                                                                              0007200000000000000000000000000000000543CAARS0720543988000035389936                                              ARS59900200001448646ASISTENCIA ECONOMICA DE EMERGENCIA A COMERCIOS                                                                                                                                           NN               001
PR0040000000000000029000000002000000ARS2020072828503460400       BOBADILLA ANIBAL ARIEL                                      28503460400                                                                                                                                                                          E:abobadilla@romeroasosciados.com.ar                                                                                                                  0028500000000000000000000000000000000346CAARS2850346040095259086978                                              ARS59900200001448646ASISTENCIA ECONOMICA DE EMERGENCIA A COMERCIOS                                                                                                                                           NN               001
PR0040000000000000030000000002000000ARS2020072833005568255       BORDA NANCI ALEJANDRA                                       33005568255                                                                                                                                                                          E:ruizmonican@gmail.com                                                                                                                               0033000000000000000000000000000000000556CAARS3300556825560447349009                                              ARS59900200001448646ASISTENCIA ECONOMICA DE EMERGENCIA A COMERCIOS                                                                                                                                           NN               001
PR0040000000000000031000000002000000ARS2020072833005995259       BORGO BARBARA LORENA                                        33005995259                                                                                                                                                                          E:adm@estudiogiabai.com.ar                                                                                                                            0033000000000000000000000000000000000599CAARS3300599525990748905105                                              ARS59900200001448646ASISTENCIA ECONOMICA DE EMERGENCIA A COMERCIOS                                                                                                                                           NN               001
PR0040000000000000032000000002000000ARS2020072833005346253       BOSIO SILVINA                                               33005346253                                                                                                                                                                          E:masino@estudiofecosur.com.ar                                                                                                                        0033000000000000000000000000000000000534CAARS3300534625340104861099                                              ARS59900200001448646ASISTENCIA ECONOMICA DE EMERGENCIA A COMERCIOS                                                                                                                                           NN               001
PR0040000000000000033000000003000000ARS2020072828503798400       BOUNOUS HAYDEE                                              28503798400                                                                                                                                                                          E:masino@estudiofecosur.com.ar                                                                                                                        0028500000000000000000000000000000000379CAARS2850379840094896420358                                              ARS59900200001448646ASISTENCIA ECONOMICA DE EMERGENCIA A COMERCIOS                                                                                                                                           NN               001
PR0040000000000000034000000003000000ARS2020072828507943400       BRAVETTI NATALIA VANINA                                     28507943400                                                                                                                                                                          E:natibravetti@gmail.com                                                                                                                              0028500000000000000000000000000000000794CAARS2850794340094524278368                                              ARS59900200001448646ASISTENCIA ECONOMICA DE EMERGENCIA A COMERCIOS                                                                                                                                           NN               001
PR0040000000000000035000000005000000ARS2020072833005001150       BUCHARA SERGIO                                              33005001150                                                                                                                                                                          E:secretariaclubregatas@gmail.com                                                                                                                     0033000000000000000000000000000000000500CAARS3300500115000206919047                                              ARS59900200001448646ASISTENCIA ECONOMICA DE EMERGENCIA A COMERCIOS                                                                                                                                           NN               001
PR0040000000000000036000000002000000ARS2020072801104442300       BUSTOS NADIA                                                01104442300                                                                                                                                                                          E:nadiasolbustos@gmail.com                                                                                                                            0001100000000000000000000000000000000444CAARS0110444230044430205847                                              ARS59900200001448646ASISTENCIA ECONOMICA DE EMERGENCIA A COMERCIOS                                                                                                                                           NN               001
PR0040000000000000037000000002000000ARS2020072801107335300       CABO MARIA LETICIA                                          01107335300                                                                                                                                                                          E:leticiacabo45@gmail.com                                                                                                                             0001100000000000000000000000000000000733CAARS0110733530073301557633                                              ARS59900200001448646ASISTENCIA ECONOMICA DE EMERGENCIA A COMERCIOS                                                                                                                                           NN               001
PR0040000000000000038000000002000000ARS2020072828503767400       CALLIGARO ALEJANDRO                                         28503767400                                                                                                                                                                          E:julia@estudiomyf.com                                                                                                                                0028500000000000000000000000000000000376CAARS2850376740094963395488                                              ARS59900200001448646ASISTENCIA ECONOMICA DE EMERGENCIA A COMERCIOS                                                                                                                                           NN               001
PR0040000000000000039000000002000000ARS2020072807204788880       CAMISCIA DENISE MARIA MONSERRAT                             07204788880                                                                                                                                                                          E:denisecamiscia@gmail.com                                                                                                                            0007200000000000000000000000000000000478CAARS0720478888000035250236                                              ARS59900200001448646ASISTENCIA ECONOMICA DE EMERGENCIA A COMERCIOS                                                                                                                                           NN               001
PR0040000000000000040000000004000000ARS2020072800701033300       CANTILLON ADRIAN PATRICIO                                   00701033300                                                                                                                                                                          E:estudioaronna@hotmail.com                                                                                                                           0000700000000000000000000000000000000103CAARS0070103330004146933964                                              ARS59900200001448646ASISTENCIA ECONOMICA DE EMERGENCIA A COMERCIOS                                                                                                                                           NN               001
PR0040000000000000041000000005000000ARS2020072833000044100       CARUBIA MARCELO FABIAN                                      33000044100                                                                                                                                                                          E:marcelo.carubia@hotmail.com                                                                                                                         0033000000000000000000000000000000000004CAARS3300004410040077156076                                              ARS59900200001448646ASISTENCIA ECONOMICA DE EMERGENCIA A COMERCIOS                                                                                                                                           NN               001
PR0040000000000000042000000002000000ARS2020072801101405300       CARUSO NORBERTO FABIAN                                      01101405300                                                                                                                                                                          E:carinasanalitro@hotmail.com                                                                                                                         0001100000000000000000000000000000000140CAARS0110140530014027559547                                              ARS59900200001448646ASISTENCIA ECONOMICA DE EMERGENCIA A COMERCIOS                                                                                                                                           NN               001
PR0040000000000000043000000002000000ARS2020072807204115880       CASTILLO GERMAN                                             07204115880                                                                                                                                                                          E:german_castillo77@hotmail.com                                                                                                                       0007200000000000000000000000000000000411CAARS0720411588000035313740                                              ARS59900200001448646ASISTENCIA ECONOMICA DE EMERGENCIA A COMERCIOS                                                                                                                                           NN               001
PR0040000000000000044000000003000000ARS2020072833000761207       CELIS GLORIA                                                33000761207                                                                                                                                                                          E:marinaoettel@hotmail.com                                                                                                                            0033000000000000000000000000000000000076CAARS3300076120760125400054                                              ARS59900200001448646ASISTENCIA ECONOMICA DE EMERGENCIA A COMERCIOS                                                                                                                                           NN               001
PR0040000000000000045000000002000000ARS2020072807203792880       CERUTI NICOLAS SEBASTIAN                                    07203792880                                                                                                                                                                          E:nicoceru9@gmail.com                                                                                                                                 0007200000000000000000000000000000000379CAARS0720379288000035901004                                              ARS59900200001448646ASISTENCIA ECONOMICA DE EMERGENCIA A COMERCIOS                                                                                                                                           NN               001
PR0040000000000000046000000005000000ARS2020072801106516300       CERVANTES LAUTARO DANIEL                                    01106516300                                                                                                                                                                          E:aleoviespo@yahoo.com.ar                                                                                                                             0001100000000000000000000000000000000651CAARS0110651630065103979883                                              ARS59900200001448646ASISTENCIA ECONOMICA DE EMERGENCIA A COMERCIOS                                                                                                                                           NN               001
PR0040000000000000047000000002000000ARS2020072807204634480       CESPED VIRGINIA PAOLA                                       07204634480                                                                                                                                                                          E:virginiacesped5@gmail.com                                                                                                                           0007200000000000000000000000000000000463CAARS0720463448000035440468                                              ARS59900200001448646ASISTENCIA ECONOMICA DE EMERGENCIA A COMERCIOS                                                                                                                                           NN               001
PR0040000000000000048000000002000000ARS2020072828508489400       CINALLI YAMILA                                              28508489400                                                                                                                                                                          E:yamilacinalli@hotmail.com                                                                                                                           0028500000000000000000000000000000000848CAARS2850848940094923382868                                              ARS59900200001448646ASISTENCIA ECONOMICA DE EMERGENCIA A COMERCIOS                                                                                                                                           NN               001
PR0040000000000000049000000005000000ARS2020072807201185200       COMPLEJO CAMPUS SRL DE FRENZA LUCAS NICOLAS                 07201185200                                                                                                                                                                          E:lucasdfrenza@gmail.com                                                                                                                              0007200000000000000000000000000000000118CAARS0720118520000001790490                                              ARS59900200001448646ASISTENCIA ECONOMICA DE EMERGENCIA A COMERCIOS                                                                                                                                           NN               001
PR0040000000000000050000000003000000ARS2020072800701033300       CORONEL NORMA ALICIA                                        00701033300                                                                                                                                                                          E:roldannahuelj@gmail.com                                                                                                                             0000700000000000000000000000000000000103CAARS0070103330004176180383                                              ARS59900200001448646ASISTENCIA ECONOMICA DE EMERGENCIA A COMERCIOS                                                                                                                                           NN               001
PR0040000000000000051000000003000000ARS2020072842600026002       CORTES CAROLINA ANDREA                                      42600026002                                                                                                                                                                          E:cesarvicino@hotmail.com                                                                                                                             0042600000000000000000000000000000000002CAARS4260002600200033140065                                              ARS59900200001448646ASISTENCIA ECONOMICA DE EMERGENCIA A COMERCIOS                                                                                                                                           NN               001
PR0040000000000000052000000002000000ARS2020072833000006200       CORVALAN VANESA BEATRIZ                                     33000006200                                                                                                                                                                          E:vanecorvalan@hotmail.com                                                                                                                            0033000000000000000000000000000000000000CAARS3300000620000782375067                                              ARS59900200001448646ASISTENCIA ECONOMICA DE EMERGENCIA A COMERCIOS                                                                                                                                           NN               001
PR0040000000000000053000000002000000ARS2020072801104916300       D ACUTE ARGENIO ANTONELA                                    01104916300                                                                                                                                                                          E:salon_avellino@hotmail.com                                                                                                                          0001100000000000000000000000000000000491CAARS0110491630049189648129                                              ARS59900200001448646ASISTENCIA ECONOMICA DE EMERGENCIA A COMERCIOS                                                                                                                                           NN               001
PR0040000000000000054000000003000000ARS2020072828508571400       DACARO ROBERTO ANTONIO                                      28508571400                                                                                                                                                                          E:robertodacaro@hotmail.com                                                                                                                           0028500000000000000000000000000000000857CAARS2850857140094906017378                                              ARS59900200001448646ASISTENCIA ECONOMICA DE EMERGENCIA A COMERCIOS                                                                                                                                           NN               001
PR0040000000000000055000000003000000ARS2020072807201567880       DE MAIO ROSENDO                                             07201567880                                                                                                                                                                          E:rosendodemaio@gmail.com                                                                                                                             0007200000000000000000000000000000000156CAARS0720156788000037902272                                              ARS59900200001448646ASISTENCIA ECONOMICA DE EMERGENCIA A COMERCIOS                                                                                                                                           NN               001
PR0040000000000000056000000002000000ARS2020072800702647310       DE OLIVEIRA MARIANELA ESTEFANIA                             00702647310                                                                                                                                                                          E:marianela.deoliveira@hotmail.com                                                                                                                    0000700000000000000000000000000000000264CAARS0070264731004003550519                                              ARS59900200001448646ASISTENCIA ECONOMICA DE EMERGENCIA A COMERCIOS                                                                                                                                           NN               001
PR0040000000000000057000000002000000ARS2020072833005001250       DEROTIER MARIO WILFREDO                                     33005001250                                                                                                                                                                          E:diegotrevi18@gmail.com                                                                                                                              0033000000000000000000000000000000000500CAARS3300500125000161193002                                              ARS59900200001448646ASISTENCIA ECONOMICA DE EMERGENCIA A COMERCIOS                                                                                                                                           NN               001
PR0040000000000000058000000002000000ARS2020072801102149300       DEVOTO JOSE MARIA                                           01102149300                                                                                                                                                                          E:santafe@santafe.gov.ar                                                                                                                              0001100000000000000000000000000000000214CAARS0110214930021471691851                                              ARS59900200001448646ASISTENCIA ECONOMICA DE EMERGENCIA A COMERCIOS                                                                                                                                           NN               001
PR0040000000000000059000000002000000ARS2020072828507905400       DI VIRGILIO GISELA NATALIA                                  28507905400                                                                                                                                                                          E:GISE-DV@HOTMAIL.COM                                                                                                                                 0028500000000000000000000000000000000790CAARS2850790540095182662148                                              ARS59900200001448646ASISTENCIA ECONOMICA DE EMERGENCIA A COMERCIOS                                                                                                                                           NN               001
PR0040000000000000060000000005000000ARS2020072819102861550       DIXI S A PASACALLE                                          19102861550                                                                                                                                                                          E:idearstafe@gmail.com                                                                                                                                0019100000000000000000000000000000000286CAARS1910286155028601829332                                              ARS59900200001448646ASISTENCIA ECONOMICA DE EMERGENCIA A COMERCIOS                                                                                                                                           NN               001
PR0040000000000000061000000003000000ARS2020072828503392400       DOMINGUEZ CARLOS MARIO                                      28503392400                                                                                                                                                                          E:carlosmd50@hotmail.com                                                                                                                              0028500000000000000000000000000000000339CAARS2850339240095185421878                                              ARS59900200001448646ASISTENCIA ECONOMICA DE EMERGENCIA A COMERCIOS                                                                                                                                           NN               001
PR0040000000000000062000000002000000ARS2020072833000310203       DORIA CLAUDIA MABEL LUCIA                                   33000310203                                                                                                                                                                          E:claudiadorialione@gmail.com                                                                                                                         0033000000000000000000000000000000000031CAARS3300031020310793143027                                              ARS59900200001448646ASISTENCIA ECONOMICA DE EMERGENCIA A COMERCIOS                                                                                                                                           NN               001
PR0040000000000000063000000002000000ARS2020072819103628551       DRUETTA SILVINA MARIA                                       19103628551                                                                                                                                                                          E:silvinatravaglino@hotmail.com                                                                                                                       0019100000000000000000000000000000000362CAARS1910362855136200468521                                              ARS59900200001448646ASISTENCIA ECONOMICA DE EMERGENCIA A COMERCIOS                                                                                                                                           NN               001
PR0040000000000000064000000003000000ARS2020072800703596300       ECHAVARRIA JUAN MIGUEL                                      00703596300                                                                                                                                                                          E:juanechavarria@icloud.com                                                                                                                           0000700000000000000000000000000000000359CAARS0070359630004000072811                                              ARS59900200001448646ASISTENCIA ECONOMICA DE EMERGENCIA A COMERCIOS                                                                                                                                           NN               001
PR0040000000000000065000000002000000ARS2020072833005049150       ESPINOSA SILVIA                                             33005049150                                                                                                                                                                          E:silviag_e@hotmail.com                                                                                                                               0033000000000000000000000000000000000504CAARS3300504915040001925021                                              ARS59900200001448646ASISTENCIA ECONOMICA DE EMERGENCIA A COMERCIOS                                                                                                                                           NN               001
PR0040000000000000066000000002000000ARS2020072833000006200       FELICIA ADRIANA LAURA                                       33000006200                                                                                                                                                                          E:adrianalfelicia@gmail.com                                                                                                                           0033000000000000000000000000000000000000CAARS3300000620000319297050                                              ARS59900200001448646ASISTENCIA ECONOMICA DE EMERGENCIA A COMERCIOS                                                                                                                                           NN               001
PR0040000000000000067000000002000000ARS2020072801105674300       FERNANDEZ MANUEL ALEJANDRO                                  01105674300                                                                                                                                                                          E:mafstudiovideo@yahoo.com.ar                                                                                                                         0001100000000000000000000000000000000567CAARS0110567430056710099233                                              ARS59900200001448646ASISTENCIA ECONOMICA DE EMERGENCIA A COMERCIOS                                                                                                                                           NN               001
PR0040000000000000068000000002000000ARS2020072828507011400       FERNANDEZ MORENO FEDERICO                                   28507011400                                                                                                                                                                          E:federicofm80@gmail.com                                                                                                                              0028500000000000000000000000000000000701CAARS2850701140095234683888                                              ARS59900200001448646ASISTENCIA ECONOMICA DE EMERGENCIA A COMERCIOS                                                                                                                                           NN               001
PR0040000000000000069000000002000000ARS2020072819100865551       FERREIRA MARCELA                                            19100865551                                                                                                                                                                          E:profemarcela13@hotmail.com                                                                                                                          0019100000000000000000000000000000000086CAARS1910086555108600133417                                              ARS59900200001448646ASISTENCIA ECONOMICA DE EMERGENCIA A COMERCIOS                                                                                                                                           NN               001
PR0040000000000000070000000002000000ARS2020072828508571400       FERTONANI THOMAS LAION                                      28508571400                                                                                                                                                                          E:laionfertonani@hotmail.com.ar                                                                                                                       0028500000000000000000000000000000000857CAARS2850857140094899978298                                              ARS59900200001448646ASISTENCIA ECONOMICA DE EMERGENCIA A COMERCIOS                                                                                                                                           NN               001
PR0040000000000000071000000002000000ARS2020072833005063250       FORCONI MIGUEL ANGEL                                        33005063250                                                                                                                                                                          E:miguelforconi39@gmail.com                                                                                                                           0033000000000000000000000000000000000506CAARS3300506325060698378024                                              ARS59900200001448646ASISTENCIA ECONOMICA DE EMERGENCIA A COMERCIOS                                                                                                                                           NN               001
PR0040000000000000072000000002000000ARS2020072801105025300       FREGA ANDREA                                                01105025300                                                                                                                                                                          E:fregaandrea@hotmail.com                                                                                                                             0001100000000000000000000000000000000502CAARS0110502530050241698851                                              ARS59900200001448646ASISTENCIA ECONOMICA DE EMERGENCIA A COMERCIOS                                                                                                                                           NN               001
PR0040000000000000073000000003000000ARS2020072833000051200       FROSASCO MARIA ELISA                                        33000051200                                                                                                                                                                          E:contadora@giselagerosa.com.ar                                                                                                                       0033000000000000000000000000000000000005CAARS3300005120050002923063                                              ARS59900200001448646ASISTENCIA ECONOMICA DE EMERGENCIA A COMERCIOS                                                                                                                                           NN               001
PR0040000000000000074000000005000000ARS2020072802700434100       GABETTA CARINA FLAVIA                                       02700434100                                                                                                                                                                          E:jardinkinder@gmail.com                                                                                                                              0002700000000000000000000000000000000043CAARS027004341000036806001                                              ARS59900200001448646ASISTENCIA ECONOMICA DE EMERGENCIA A COMERCIOS                                                                                                                                           NN               001
PR0040000000000000075000000002000000ARS2020072828508656400       GALEANO FABIANA                                             28508656400                                                                                                                                                                          E:maracamilletti@gmail.com                                                                                                                            0028500000000000000000000000000000000865CAARS2850865640095278034608                                              ARS59900200001448646ASISTENCIA ECONOMICA DE EMERGENCIA A COMERCIOS                                                                                                                                           NN               001
PR0040000000000000076000000005000000ARS2020072828503101400       GALIANO MARINA DEL ROSARIO                                  28503101400                                                                                                                                                                          E:estudiocarnevale@hotmail.com                                                                                                                        0028500000000000000000000000000000000310CAARS2850310140094962737548                                              ARS59900200001448646ASISTENCIA ECONOMICA DE EMERGENCIA A COMERCIOS                                                                                                                                           NN               001
PR0040000000000000077000000002000000ARS2020072833000570205       GIAGNORIO CRISTIAN                                          33000570205                                                                                                                                                                          E:paogiagnorio@hotmail.com                                                                                                                            0033000000000000000000000000000000000057CAARS3300057020570051216078                                              ARS59900200001448646ASISTENCIA ECONOMICA DE EMERGENCIA A COMERCIOS                                                                                                                                           NN               001
PR0040000000000000078000000002000000ARS2020072833000006200       GILIBERTO JULIETA SOLEDAD                                   33000006200                                                                                                                                                                          E:julietagiliberto1992@gmail.com                                                                                                                      0033000000000000000000000000000000000000CAARS3300000620000189392099                                              ARS59900200001448646ASISTENCIA ECONOMICA DE EMERGENCIA A COMERCIOS                                                                                                                                           NN               001
PR0040000000000000079000000002000000ARS2020072833000426204       GIMENEZ MARIA BELEN                                         33000426204                                                                                                                                                                          E:maribel_gime@hotmail.com                                                                                                                            0033000000000000000000000000000000000042CAARS3300042620420060399047                                              ARS59900200001448646ASISTENCIA ECONOMICA DE EMERGENCIA A COMERCIOS                                                                                                                                           NN               001
PR0040000000000000080000000003000000ARS2020072807204788880       GIORGIS LIANA MABEL                                         07204788880                                                                                                                                                                          E:lianagiorgis@hotmail.com.ar                                                                                                                         0007200000000000000000000000000000000478CAARS0720478888000040166922                                              ARS59900200001448646ASISTENCIA ECONOMICA DE EMERGENCIA A COMERCIOS                                                                                                                                           NN               001
PR0040000000000000081000000003000000ARS2020072800702647300       GIOVANINI LAURA IVANA                                       00702647300                                                                                                                                                                          E:manuelaspigare@hotmail.com                                                                                                                          0000700000000000000000000000000000000264CAARS0070264730004003613787                                              ARS59900200001448646ASISTENCIA ECONOMICA DE EMERGENCIA A COMERCIOS                                                                                                                                           NN               001
PR0040000000000000082000000003000000ARS2020072828503354400       GIUSTI MARCOS ALFREDO                                       28503354400                                                                                                                                                                          E:salondeeventosbarrilete@gmail.com                                                                                                                   0028500000000000000000000000000000000335CAARS2850335440094869089528                                              ARS59900200001448646ASISTENCIA ECONOMICA DE EMERGENCIA A COMERCIOS                                                                                                                                           NN               001
PR0040000000000000083000000005000000ARS2020072801700817440       GNASS NESTOR                                                01700817440                                                                                                                                                                          E:cpnborghini@hotmail.com                                                                                                                             0001700000000000000000000000000000000081CAARS0170081744000043961225                                              ARS59900200001448646ASISTENCIA ECONOMICA DE EMERGENCIA A COMERCIOS                                                                                                                                           NN               001
PR0040000000000000084000000003000000ARS2020072807201567880       GOICOURIA NATALIA                                           07201567880                                                                                                                                                                          E:nataliagoicouria@gmail.com                                                                                                                          0007200000000000000000000000000000000156CAARS0720156788000001727340                                              ARS59900200001448646ASISTENCIA ECONOMICA DE EMERGENCIA A COMERCIOS                                                                                                                                           NN               001
PR0040000000000000085000000005000000ARS2020072806500900020       GOMEZ JOSE ANTONIO                                          06500900020                                                                                                                                                                          E:oresanotour@hotmail.com                                                                                                                             0006500000000000000000000000000000000090CAARS0650090002000011748575                                              ARS59900200001448646ASISTENCIA ECONOMICA DE EMERGENCIA A COMERCIOS                                                                                                                                           NN               001
PR0040000000000000086000000002000000ARS2020072801401024034       GRECO EDUARDO GABRIEL                                       01401024034                                                                                                                                                                          E:riffanapaula@gmail.com                                                                                                                              0001400000000000000000000000000000000102CAARS0140102403402582717205                                              ARS59900200001448646ASISTENCIA ECONOMICA DE EMERGENCIA A COMERCIOS                                                                                                                                           NN               001
PR0040000000000000087000000002000000ARS2020072833000051200       GRIMANDELLA HERNAN PABLO                                    33000051200                                                                                                                                                                          E:estudiocontable@live.ca                                                                                                                             0033000000000000000000000000000000000005CAARS3300005120050099631074                                              ARS59900200001448646ASISTENCIA ECONOMICA DE EMERGENCIA A COMERCIOS                                                                                                                                           NN               001
PR0040000000000000088000000002000000ARS2020072833005452254       GROSSO MARCELA ALEJANDRA                                    33005452254                                                                                                                                                                          E:maalejandragrosso4@gmail.com                                                                                                                        0033000000000000000000000000000000000545CAARS3300545225450080127031                                              ARS59900200001448646ASISTENCIA ECONOMICA DE EMERGENCIA A COMERCIOS                                                                                                                                           NN               001
PR0040000000000000089000000002000000ARS2020072800703800300       GUTIERREZ DAVID JAVIER                                      00703800300                                                                                                                                                                          E:verlindariva@gmail.com                                                                                                                              0000700000000000000000000000000000000380CAARS0070380030004010461252                                              ARS59900200001448646ASISTENCIA ECONOMICA DE EMERGENCIA A COMERCIOS                                                                                                                                           NN               001
PR0040000000000000090000000002000000ARS2020072802702645200       GUTIERREZ DAVID ARIEL                                       02702645200                                                                                                                                                                          E:Gutierrezdavidariel@gmail.com                                                                                                                       0002700000000000000000000000000000000264CAARS0270264520039675650027                                              ARS59900200001448646ASISTENCIA ECONOMICA DE EMERGENCIA A COMERCIOS                                                                                                                                           NN               001
PR0040000000000000091000000002000000ARS2020072833005438254       HANG DIEGO                                                  33005438254                                                                                                                                                                          E:diego.11.93@hotmail.com                                                                                                                             0033000000000000000000000000000000000543CAARS3300543825430311411081                                              ARS59900200001448646ASISTENCIA ECONOMICA DE EMERGENCIA A COMERCIOS                                                                                                                                           NN               001
PR0040000000000000092000000002000000ARS2020072801101443300       HEIS FRANCISCO JAVIER                                       01101443300                                                                                                                                                                          E:franciscoheis3@gmail.com                                                                                                                            0001100000000000000000000000000000000144CAARS0110144330014475407600                                              ARS59900200001448646ASISTENCIA ECONOMICA DE EMERGENCIA A COMERCIOS                                                                                                                                           NN               001
PR0040000000000000093000000002000000ARS2020072828503699400       HERNANDEZ BIBIANA BEATRIZ                                   28503699400                                                                                                                                                                          E:bbh@live.com.ar                                                                                                                                     0028500000000000000000000000000000000369CAARS2850369940094824571828                                              ARS59900200001448646ASISTENCIA ECONOMICA DE EMERGENCIA A COMERCIOS                                                                                                                                           NN               001
PR0040000000000000094000000005000000ARS2020072807201567200       HISFREIN SRL HISKIN LEONARDO SANTIAGO                       07201567200                                                                                                                                                                          E:silvanafreinquel@hotmail.com.ar                                                                                                                     0007200000000000000000000000000000000156CAARS0720156720000001356304                                              ARS59900200001448646ASISTENCIA ECONOMICA DE EMERGENCIA A COMERCIOS                                                                                                                                           NN               001
PR0040000000000000095000000002000000ARS2020072833005995259       HUJA AGUSTIN MIGUEL                                         33005995259                                                                                                                                                                          E:agustinhuja@hotmail.com                                                                                                                             0033000000000000000000000000000000000599CAARS3300599525990751850054                                              ARS59900200001448646ASISTENCIA ECONOMICA DE EMERGENCIA A COMERCIOS                                                                                                                                           NN               001
PR0040000000000000096000000002000000ARS2020072828508489400       JALIL TRAVERSO NIEVES GRETEL                                28508489400                                                                                                                                                                          E:Greteljal@hotmail.es                                                                                                                                0028500000000000000000000000000000000848CAARS2850848940095235226578                                              ARS59900200001448646ASISTENCIA ECONOMICA DE EMERGENCIA A COMERCIOS                                                                                                                                           NN               001
PR0040000000000000097000000002000000ARS2020072819100865550       LASSIG SILVANA                                              19100865550                                                                                                                                                                          E:silvana_lassig@hotmail.com                                                                                                                          0019100000000000000000000000000000000086CAARS1910086555008601009350                                              ARS59900200001448646ASISTENCIA ECONOMICA DE EMERGENCIA A COMERCIOS                                                                                                                                           NN               001
PR0040000000000000098000000005000000ARS2020072828507950400       LAVENIA VERONICA                                            28507950400                                                                                                                                                                          E:vlavenia@live.com.ar                                                                                                                                0028500000000000000000000000000000000795CAARS2850795040094791279978                                              ARS59900200001448646ASISTENCIA ECONOMICA DE EMERGENCIA A COMERCIOS                                                                                                                                           NN               001
PR0040000000000000099000000002000000ARS2020072833005100251       LUENGO ALFREDO GUSTAVO                                      33005100251                                                                                                                                                                          E:alfredoluengo@gmail.com                                                                                                                             0033000000000000000000000000000000000510CAARS3300510025100048111069                                              ARS59900200001448646ASISTENCIA ECONOMICA DE EMERGENCIA A COMERCIOS                                                                                                                                           NN               001
PR0040000000000000100000000002000000ARS2020072819103406551       MALDONADO MIGUEL ALEJANDRO                                  19103406551                                                                                                                                                                          E:alemaldonado.sfc@gmail.com                                                                                                                          0019100000000000000000000000000000000340CAARS1910340655134008159535                                              ARS59900200001448646ASISTENCIA ECONOMICA DE EMERGENCIA A COMERCIOS                                                                                                                                           NN               001
PR0040000000000000101000000002000000ARS2020072833000006200       MANSILLA GABRIEL ALEJANDRO                                  33000006200                                                                                                                                                                          E:388manssi@gmail.com                                                                                                                                 0033000000000000000000000000000000000000CAARS3300000620000177102057                                              ARS59900200001448646ASISTENCIA ECONOMICA DE EMERGENCIA A COMERCIOS                                                                                                                                           NN               001
PR0040000000000000102000000005000000ARS2020072828508434400       MARCOS EVELYN NATALIA                                       28508434400                                                                                                                                                                          E:evelynmarcos@outlook.com.ar                                                                                                                         0028500000000000000000000000000000000843CAARS2850843440094873332188                                              ARS59900200001448646ASISTENCIA ECONOMICA DE EMERGENCIA A COMERCIOS                                                                                                                                           NN               001
PR0040000000000000103000000005000000ARS2020072828507943400       MARILUNGO MAURO JULIO                                       28507943400                                                                                                                                                                          E:mauromarilungo@gmail.com                                                                                                                            0028500000000000000000000000000000000794CAARS2850794340094829137478                                              ARS59900200001448646ASISTENCIA ECONOMICA DE EMERGENCIA A COMERCIOS                                                                                                                                           NN               001
PR0040000000000000104000000002000000ARS2020072801104770300       MARTINENGO LEONEL JESUS                                     01104770300                                                                                                                                                                          E:leonel.martinengos@gmail.com                                                                                                                        0001100000000000000000000000000000000477CAARS0110477030047716296551                                              ARS59900200001448646ASISTENCIA ECONOMICA DE EMERGENCIA A COMERCIOS                                                                                                                                           NN               001
PR0040000000000000105000000004000000ARS2020072801702073400       MARZIONI IBANEZ SILVANA ANDREA                              01702073400                                                                                                                                                                          E:paulo.castro@e3rafaela.com.ar                                                                                                                       0001700000000000000000000000000000000207CAARS0170207340000032293519                                              ARS59900200001448646ASISTENCIA ECONOMICA DE EMERGENCIA A COMERCIOS                                                                                                                                           NN               001
PR0040000000000000106000000002000000ARS2020072838401002000       MASSINI CARLOS ALBERTO                                      38401002000                                                                                                                                                                          E:massinicarlosa@gmail.com                                                                                                                            0038400000000000000000000000000000000100CAARS3840100200000003277276                                              ARS59900200001448646ASISTENCIA ECONOMICA DE EMERGENCIA A COMERCIOS                                                                                                                                           NN               001
PR0040000000000000107000000002000000ARS2020072828503101400       MAZZONI CARLOS MARTIN                                       28503101400                                                                                                                                                                          E:cesarvicino@hotmail.com                                                                                                                             0028500000000000000000000000000000000310CAARS2850310140017002225463                                              ARS59900200001448646ASISTENCIA ECONOMICA DE EMERGENCIA A COMERCIOS                                                                                                                                           NN               001
PR0040000000000000108000000003000000ARS2020072806500306020       MELANDONI JAVIER HERNAN                                     06500306020                                                                                                                                                                          E:javi382008@hotmail.com                                                                                                                              0006500000000000000000000000000000000030CAARS0650030602000074082836                                              ARS59900200001448646ASISTENCIA ECONOMICA DE EMERGENCIA A COMERCIOS                                                                                                                                           NN               001
PR0040000000000000109000000002000000ARS2020072828508434400       MENGA ELISABET LILIANA                                      28508434400                                                                                                                                                                          E:SALONHEROESYPRINCESAS@HOTMAIL.COM                                                                                                                   0028500000000000000000000000000000000843CAARS2850843440094937876658                                              ARS59900200001448646ASISTENCIA ECONOMICA DE EMERGENCIA A COMERCIOS                                                                                                                                           NN               001
PR0040000000000000110000000002000000ARS2020072807201567880       MERAYO MARIANA ESTELA                                       07201567880                                                                                                                                                                          E:merayomariana@hotmail.com                                                                                                                           0007200000000000000000000000000000000156CAARS0720156788000001396186                                              ARS59900200001448646ASISTENCIA ECONOMICA DE EMERGENCIA A COMERCIOS                                                                                                                                           NN               001
PR0040000000000000111000000005000000ARS2020072819100919551       MEYER LEANDRO                                               19100919551                                                                                                                                                                          E:silviampotenza@hotmail.com                                                                                                                          0019100000000000000000000000000000000091CAARS1910091955109101210599                                              ARS59900200001448646ASISTENCIA ECONOMICA DE EMERGENCIA A COMERCIOS                                                                                                                                           NN               001
PR0040000000000000112000000002000000ARS2020072833005308253       MONDINO NADIA MARIA                                         33005308253                                                                                                                                                                          E:nadia_luli@hotmail.com                                                                                                                              0033000000000000000000000000000000000530CAARS3300530825300089407064                                              ARS59900200001448646ASISTENCIA ECONOMICA DE EMERGENCIA A COMERCIOS                                                                                                                                           NN               001
PR0040000000000000113000000002000000ARS2020072833005063250       MONTORO JORGE ALBERTO                                       33005063250                                                                                                                                                                          E:monyo45@hotmail.com                                                                                                                                 0033000000000000000000000000000000000506CAARS3300506325060708911009                                              ARS59900200001448646ASISTENCIA ECONOMICA DE EMERGENCIA A COMERCIOS                                                                                                                                           NN               001
PR0040000000000000114000000002000000ARS2020072833000594205       MORALES NELSON ROBERTO                                      33000594205                                                                                                                                                                          E:francoh_86@hotmail.com                                                                                                                              0033000000000000000000000000000000000059CAARS3300059420590001959103                                              ARS59900200001448646ASISTENCIA ECONOMICA DE EMERGENCIA A COMERCIOS                                                                                                                                           NN               001
PR0040000000000000115000000005000000ARS2020072804400325400       MORELLO MARCELA GUADALUPE                                   04400325400                                                                                                                                                                          E:mmorello69@hotmail.com                                                                                                                              0004400000000000000000000000000000000032CAARS0440032540000216566945                                              ARS59900200001448646ASISTENCIA ECONOMICA DE EMERGENCIA A COMERCIOS                                                                                                                                           NN               001
PR0040000000000000116000000005000000ARS2020072800702678300       MORENO VERONICA GISELA                                      00702678300                                                                                                                                                                          E:marimoreno73@live.com.ar                                                                                                                            0000700000000000000000000000000000000267CAARS0070267830004040921900                                              ARS59900200001448646ASISTENCIA ECONOMICA DE EMERGENCIA A COMERCIOS                                                                                                                                           NN               001
PR0040000000000000117000000003000000ARS2020072833005186251       MUGNA OSVALDO                                               33005186251                                                                                                                                                                          E:valdorafaela@yahoo.com.ar                                                                                                                           0033000000000000000000000000000000000518CAARS3300518625180071557043                                              ARS59900200001448646ASISTENCIA ECONOMICA DE EMERGENCIA A COMERCIOS                                                                                                                                           NN               001
PR0040000000000000118000000002000000ARS2020072833000266202       MUNOZ SABRINA VERONICA                                      33000266202                                                                                                                                                                          E:sabri1985.m@gmail.com                                                                                                                               0033000000000000000000000000000000000026CAARS3300026620260921133014                                              ARS59900200001448646ASISTENCIA ECONOMICA DE EMERGENCIA A COMERCIOS                                                                                                                                           NN               001
PR0040000000000000119000000002000000ARS2020072828503415400       NAZOR DANIEL PEDRO                                          28503415400                                                                                                                                                                          E:danielnazor@hotmail.com                                                                                                                             0028500000000000000000000000000000000341CAARS2850341540094990604328                                              ARS59900200001448646ASISTENCIA ECONOMICA DE EMERGENCIA A COMERCIOS                                                                                                                                           NN               001
PR0040000000000000120000000005000000ARS2020072819102816550       NIEVAS JORGE MARCELO                                        19102816550                                                                                                                                                                          E:jmnievas62@hotmail.com                                                                                                                              0019100000000000000000000000000000000281CAARS1910281655028100376728                                              ARS59900200001448646ASISTENCIA ECONOMICA DE EMERGENCIA A COMERCIOS                                                                                                                                           NN               001
PR0040000000000000121000000002000000ARS2020072833000327203       NOCENTI VERONICA                                            33000327203                                                                                                                                                                          E:veritos84@live.com                                                                                                                                  0033000000000000000000000000000000000032CAARS3300032720320051860090                                              ARS59900200001448646ASISTENCIA ECONOMICA DE EMERGENCIA A COMERCIOS                                                                                                                                           NN               001
PR0040000000000000122000000004000000ARS2020072801702943400       NOVO TULIO                                                  01702943400                                                                                                                                                                          E:Tulionovo12@hotmail.com                                                                                                                             0001700000000000000000000000000000000294CAARS0170294340000031243119                                              ARS59900200001448646ASISTENCIA ECONOMICA DE EMERGENCIA A COMERCIOS                                                                                                                                           NN               001
PR0040000000000000123000000005000000ARS2020072833005568255       NUSS HERNAN PABLO                                           33005568255                                                                                                                                                                          E:cpnmartin@hotmail.com                                                                                                                               0033000000000000000000000000000000000556CAARS3300556825560159265062                                              ARS59900200001448646ASISTENCIA ECONOMICA DE EMERGENCIA A COMERCIOS                                                                                                                                           NN               001
PR0040000000000000124000000003000000ARS2020072801106516300       OLMEDO GUILLERMO DANIEL                                     01106516300                                                                                                                                                                          E:sashafabri@hotmail.com                                                                                                                              0001100000000000000000000000000000000651CAARS0110651630065102082447                                              ARS59900200001448646ASISTENCIA ECONOMICA DE EMERGENCIA A COMERCIOS                                                                                                                                           NN               001
