FH202007281210490040061170ORDENDEPAGO20200728                                                                                                                                                                                                                                                                                                                                                                                                                                                                                                                                                                                                                                                                                                                                                                             
PR0040000000000000001000000005000000ARS2020072820117368564       CASTILLO MIRTALAURA                                         20117368564                                                                                                                                                                          E:santafe@santafe.gov.ar                                                                                                                              0006500000000000000000000000000000000030CAARS0650030601000000237528                                              ARS59900200001448646ASISTENCIA ECONOMICA DE EMERGENCIA A COMERCIOS                                                                                                                                           NN               001
PR0040000000000000002000000002000000ARS2020072827319750075       ACEVEDO NIEVESDEFATIMA                                      27319750075                                                                                                                                                                          E:makam84@hotmail.com                                                                                                                                 0028500000000000000000000000000000000731CAARS2850731830094164875751                                              ARS59900200001448646ASISTENCIA ECONOMICA DE EMERGENCIA A COMERCIOS                                                                                                                                           NN               001
PR0040000000000000003000000002000000ARS2020072827295609163       ACOSTA MARIASOLEDAD                                         27295609163                                                                                                                                                                          E:shole916@gmail.com                                                                                                                                  0033000000000000000000000000000000000500CAARS3300500125000245193058                                              ARS59900200001448646ASISTENCIA ECONOMICA DE EMERGENCIA A COMERCIOS                                                                                                                                           NN               001
PR0040000000000000004000000002000000ARS2020072827348326495       ALARCON GISELASOLEDAD                                       27348326495                                                                                                                                                                          E:alarcongisela16@gmail.com                                                                                                                           0000000000000000000000000000000000000003CAARS0000003100017022033141                                              ARS59900200001448646ASISTENCIA ECONOMICA DE EMERGENCIA A COMERCIOS                                                                                                                                           NN               001
PR0040000000000000005000000002000000ARS2020072820275188752       ALDERETE HUGODANTE                                          20275188752                                                                                                                                                                          E:hugoalderete222@hotmail.com                                                                                                                         0004400000000000000000000000000000000024CAARS0440024040000173166930                                              ARS59900200001448646ASISTENCIA ECONOMICA DE EMERGENCIA A COMERCIOS                                                                                                                                           NN               001
PR0040000000000000006000000002000000ARS2020072827280880626       AMAYA LUCRECIA                                              27280880626                                                                                                                                                                          E:Lucreamaya@hotmail.com                                                                                                                              0001700000000000000000000000000000000209CAARS0170209740000031345525                                              ARS59900200001448646ASISTENCIA ECONOMICA DE EMERGENCIA A COMERCIOS                                                                                                                                           NN               001
PR0040000000000000007000000004000000ARS2020072827238958755       ANDREU LAURAALEJANDRA                                       27238958755                                                                                                                                                                          E:santafe@santafe.gov.ar                                                                                                                              0001700000000000000000000000000000000418CAARS0170418540000031869197                                              ARS59900200001448646ASISTENCIA ECONOMICA DE EMERGENCIA A COMERCIOS                                                                                                                                           NN               001
PR0040000000000000008000000002000000ARS2020072823280970999       ARANDA LEONARDOJAVIER                                       23280970999                                                                                                                                                                          E:javiervgg@hotmail.com                                                                                                                               0001100000000000000000000000000000000588CAARS0110588930058833740115                                              ARS59900200001448646ASISTENCIA ECONOMICA DE EMERGENCIA A COMERCIOS                                                                                                                                           NN               001
PR0040000000000000009000000003000000ARS2020072820315650462       ASSENZA JOSEFRANCISCO                                       20315650462                                                                                                                                                                          E:assenzajosef@gmail.com                                                                                                                              0033000000000000000000000000000000000504CAARS3300504925040227426042                                              ARS59900200001448646ASISTENCIA ECONOMICA DE EMERGENCIA A COMERCIOS                                                                                                                                           NN               001
PR0040000000000000010000000003000000ARS2020072820315651450       AVIGLIANO FRANCO                                            20315651450                                                                                                                                                                          E:francoamc@hotmail.com                                                                                                                               0042600000000000000000000000000000000002CAARS4260002600100003088002                                              ARS59900200001448646ASISTENCIA ECONOMICA DE EMERGENCIA A COMERCIOS                                                                                                                                           NN               001
PR0040000000000000011000000002000000ARS2020072820218106073       AVILA ROBERTOMARCELO                                        20218106073                                                                                                                                                                          E:marcelo.avila@hotmail.com.ar                                                                                                                        0033000000000000000000000000000000000005CAARS3300005120050118901049                                              ARS59900200001448646ASISTENCIA ECONOMICA DE EMERGENCIA A COMERCIOS                                                                                                                                           NN               001
PR0040000000000000012000000002000000ARS2020072827389001800       AYALA BRENDANATALI                                          27389001800                                                                                                                                                                          E:deloredo@tower.com.ar                                                                                                                               0033000000000000000000000000000000000001CAARS3300001310010263335033                                              ARS59900200001448646ASISTENCIA ECONOMICA DE EMERGENCIA A COMERCIOS                                                                                                                                           NN               001
PR0040000000000000013000000002000000ARS2020072827166303869       BAEZ MARCELODANIEL                                          27166303869                                                                                                                                                                          E:letrasmbaez737@gmail.com                                                                                                                            0028500000000000000000000000000000000704CAARS2850704240094884628058                                              ARS59900200001448646ASISTENCIA ECONOMICA DE EMERGENCIA A COMERCIOS                                                                                                                                           NN               001
PR0040000000000000014000000003000000ARS2020072827230242343       BALVERDI ADRIANAPATRICIA                                    27230242343                                                                                                                                                                          E:macanas60@hotmail.com                                                                                                                               0028500000000000000000000000000000000843CAARS2850843440000008613590                                              ARS59900200001448646ASISTENCIA ECONOMICA DE EMERGENCIA A COMERCIOS                                                                                                                                           NN               001
PR0040000000000000015000000005000000ARS2020072827185959134       BARBONA SANDRABEATRIZ                                       27185959134                                                                                                                                                                          E:be.a642@hotmail.com                                                                                                                                 0007200000000000000000000000000000000478CAARS0720478888000035394604                                              ARS59900200001448646ASISTENCIA ECONOMICA DE EMERGENCIA A COMERCIOS                                                                                                                                           NN               001
PR0040000000000000016000000003000000ARS2020072820162208781       BARRILE ADRIANOMAR                                          20162208781                                                                                                                                                                          E:barrileviajes@hotmail.com                                                                                                                           0000700000000000000000000000000000000220CAARS0070220330004004913114                                              ARS59900200001448646ASISTENCIA ECONOMICA DE EMERGENCIA A COMERCIOS                                                                                                                                           NN               001
PR0040000000000000017000000002000000ARS2020072827336870882       BARROSO MELINAGUADALUPE                                     27336870882                                                                                                                                                                          E:melinabarroso33@gmail.com                                                                                                                           0001100000000000000000000000000000000491CAARS0110491630049197429565                                              ARS59900200001448646ASISTENCIA ECONOMICA DE EMERGENCIA A COMERCIOS                                                                                                                                           NN               001
PR0040000000000000018000000002000000ARS2020072827401153697       BARUZZO BARBARAREGINA                                       27401153697                                                                                                                                                                          E:adabcapra@hotmail.com                                                                                                                               0014300000000000000000000000000000000001CAARS1430001713003499980011                                              ARS59900200001448646ASISTENCIA ECONOMICA DE EMERGENCIA A COMERCIOS                                                                                                                                           NN               001
PR0040000000000000019000000005000000ARS2020072820170750145       BAUDRACCO ALEJANDRODANIEL                                   20170750145                                                                                                                                                                          E:plataformanorte.arg@gmail.com                                                                                                                       0003400000000000000000000000000000000340CAARS0340340008340004128002                                              ARS59900200001448646ASISTENCIA ECONOMICA DE EMERGENCIA A COMERCIOS                                                                                                                                           NN               001
PR0040000000000000020000000002000000ARS202007282730468542        BELLO VANESASOLEDAD                                         02730468542                                                                                                                                                                          E:vanesabello@gmail.com                                                                                                                               0033000000000000000000000000000000000046CAARS3300046420460964396025                                              ARS59900200001448646ASISTENCIA ECONOMICA DE EMERGENCIA A COMERCIOS                                                                                                                                           NN               001
PR0040000000000000021000000002000000ARS2020072820226143387       BENITEZ MARCELODELMIRO                                      20226143387                                                                                                                                                                          E:marcheloelrojo@hotmail.com                                                                                                                          0001100000000000000000000000000000000491CAARS0110491630049198098997                                              ARS59900200001448646ASISTENCIA ECONOMICA DE EMERGENCIA A COMERCIOS                                                                                                                                           NN               001
PR0040000000000000022000000002000000ARS2020072827344603680       BENITEZ ADELAIDA                                            27344603680                                                                                                                                                                          E:benitezadelaida12@gmail.com                                                                                                                         0019100000000000000000000000000000000343CAARS1910343755134300774085                                              ARS59900200001448646ASISTENCIA ECONOMICA DE EMERGENCIA A COMERCIOS                                                                                                                                           NN               001
PR0040000000000000023000000002000000ARS2020072827248559182       BERGAMINI CLAUDIA                                           27248559182                                                                                                                                                                          E:cbergamini@hotmail.com                                                                                                                              0033000000000000000000000000000000000503CAARS3300503225030530405102                                              ARS59900200001448646ASISTENCIA ECONOMICA DE EMERGENCIA A COMERCIOS                                                                                                                                           NN               001
PR0040000000000000024000000002000000ARS2020072820230929689       BERRA ROBERTO                                               20230929689                                                                                                                                                                          E:robertocberra@hotmail.com                                                                                                                           0033000000000000000000000000000000000534CAARS3300534625340917453087                                              ARS59900200001448646ASISTENCIA ECONOMICA DE EMERGENCIA A COMERCIOS                                                                                                                                           NN               001
PR0040000000000000025000000002000000ARS2020072820309167326       BERTOLIO CRISTIANOSCAR                                      20309167326                                                                                                                                                                          E:daniel_amprimo@hotmail.com                                                                                                                          0001100000000000000000000000000000000264CAARS0110264430026446884601                                              ARS59900200001448646ASISTENCIA ECONOMICA DE EMERGENCIA A COMERCIOS                                                                                                                                           NN               001
PR0040000000000000026000000005000000ARS2020072820162717619       BERTUNA JOSEVICTOR                                          20162717619                                                                                                                                                                          E:dbbertuna@hotmail.com                                                                                                                               0001100000000000000000000000000000000448CAARS0110448030044882895029                                              ARS59900200001448646ASISTENCIA ECONOMICA DE EMERGENCIA A COMERCIOS                                                                                                                                           NN               001
PR0040000000000000027000000005000000ARS2020072827285665219       BIGOGLIO ANALIAGABRIELA                                     27285665219                                                                                                                                                                          E:analiabigoglio05@gmail.com                                                                                                                          0019100000000000000000000000000000000275CAARS1910275555027501223846                                              ARS59900200001448646ASISTENCIA ECONOMICA DE EMERGENCIA A COMERCIOS                                                                                                                                           NN               001
PR0040000000000000028000000002000000ARS2020072820391231681       BLANCO DANIELALEJANDRO                                      20391231681                                                                                                                                                                          E:vablaturismo@gmail.com                                                                                                                              0007200000000000000000000000000000000543CAARS0720543988000035389936                                              ARS59900200001448646ASISTENCIA ECONOMICA DE EMERGENCIA A COMERCIOS                                                                                                                                           NN               001
PR0040000000000000029000000002000000ARS2020072820298495067       BOBADILLA ANIBALARIEL                                       20298495067                                                                                                                                                                          E:abobadilla@romeroasosciados.com.ar                                                                                                                  0028500000000000000000000000000000000346CAARS2850346040095259086978                                              ARS59900200001448646ASISTENCIA ECONOMICA DE EMERGENCIA A COMERCIOS                                                                                                                                           NN               001
PR0040000000000000030000000002000000ARS2020072827274293255       BORDA NANCIALEJANDRA                                        27274293255                                                                                                                                                                          E:ruizmonican@gmail.com                                                                                                                               0033000000000000000000000000000000000556CAARS3300556825560447349009                                              ARS59900200001448646ASISTENCIA ECONOMICA DE EMERGENCIA A COMERCIOS                                                                                                                                           NN               001
PR0040000000000000031000000002000000ARS2020072827284199044       BORGO BARBARALORENA                                         27284199044                                                                                                                                                                          E:adm@estudiogiabai.com.ar                                                                                                                            0033000000000000000000000000000000000599CAARS3300599525990748905105                                              ARS59900200001448646ASISTENCIA ECONOMICA DE EMERGENCIA A COMERCIOS                                                                                                                                           NN               001
PR0040000000000000032000000002000000ARS2020072827347456913       BOSIO SILVINA                                               27347456913                                                                                                                                                                          E:masino@estudiofecosur.com.ar                                                                                                                        0033000000000000000000000000000000000534CAARS3300534625340104861099                                              ARS59900200001448646ASISTENCIA ECONOMICA DE EMERGENCIA A COMERCIOS                                                                                                                                           NN               001
PR0040000000000000033000000003000000ARS2020072827201940236       BOUNOUS HAYDEE                                              27201940236                                                                                                                                                                          E:masino@estudiofecosur.com.ar                                                                                                                        0028500000000000000000000000000000000379CAARS2850379840094896420358                                              ARS59900200001448646ASISTENCIA ECONOMICA DE EMERGENCIA A COMERCIOS                                                                                                                                           NN               001
PR0040000000000000034000000003000000ARS2020072827310687974       BRAVETTI NATALIAVANINA                                      27310687974                                                                                                                                                                          E:natibravetti@gmail.com                                                                                                                              0028500000000000000000000000000000000794CAARS2850794340094524278368                                              ARS59900200001448646ASISTENCIA ECONOMICA DE EMERGENCIA A COMERCIOS                                                                                                                                           NN               001
PR0040000000000000035000000005000000ARS2020072830506753445       BUCHARA SERGIO                                              30506753445                                                                                                                                                                          E:secretariaclubregatas@gmail.com                                                                                                                     0033000000000000000000000000000000000500CAARS3300500115000206919047                                              ARS59900200001448646ASISTENCIA ECONOMICA DE EMERGENCIA A COMERCIOS                                                                                                                                           NN               001
PR0040000000000000036000000002000000ARS2020072827322956385       BUSTOS NADIA                                                27322956385                                                                                                                                                                          E:nadiasolbustos@gmail.com                                                                                                                            0001100000000000000000000000000000000444CAARS0110444230044430205847                                              ARS59900200001448646ASISTENCIA ECONOMICA DE EMERGENCIA A COMERCIOS                                                                                                                                           NN               001
PR0040000000000000037000000002000000ARS2020072827281355274       CABO MARIALETICIA                                           27281355274                                                                                                                                                                          E:leticiacabo45@gmail.com                                                                                                                             0001100000000000000000000000000000000733CAARS0110733530073301557633                                              ARS59900200001448646ASISTENCIA ECONOMICA DE EMERGENCIA A COMERCIOS                                                                                                                                           NN               001
PR0040000000000000038000000002000000ARS2020072820306405447       CALLIGARO ALEJANDRO                                         20306405447                                                                                                                                                                          E:julia@estudiomyf.com                                                                                                                                0028500000000000000000000000000000000376CAARS2850376740094963395488                                              ARS59900200001448646ASISTENCIA ECONOMICA DE EMERGENCIA A COMERCIOS                                                                                                                                           NN               001
PR0040000000000000039000000002000000ARS2020072827337200368       CAMISCIA DENISEMARIAMONSERRAT                               27337200368                                                                                                                                                                          E:denisecamiscia@gmail.com                                                                                                                            0007200000000000000000000000000000000478CAARS0720478888000035250236                                              ARS59900200001448646ASISTENCIA ECONOMICA DE EMERGENCIA A COMERCIOS                                                                                                                                           NN               001
PR0040000000000000040000000004000000ARS2020072820218856625       CANTILLON ADRIANPATRICIO                                    20218856625                                                                                                                                                                          E:estudioaronna@hotmail.com                                                                                                                           0000700000000000000000000000000000000103CAARS0070103330004146933964                                              ARS59900200001448646ASISTENCIA ECONOMICA DE EMERGENCIA A COMERCIOS                                                                                                                                           NN               001
PR0040000000000000041000000005000000ARS2020072820202860886       CARUBIA MARCELOFABIAN                                       20202860886                                                                                                                                                                          E:marcelo.carubia@hotmail.com                                                                                                                         0033000000000000000000000000000000000004CAARS3300004410040077156076                                              ARS59900200001448646ASISTENCIA ECONOMICA DE EMERGENCIA A COMERCIOS                                                                                                                                           NN               001
PR0040000000000000042000000002000000ARS2020072820223295925       CARUSO NORBERTOFABIAN                                       20223295925                                                                                                                                                                          E:carinasanalitro@hotmail.com                                                                                                                         0001100000000000000000000000000000000140CAARS0110140530014027559547                                              ARS59900200001448646ASISTENCIA ECONOMICA DE EMERGENCIA A COMERCIOS                                                                                                                                           NN               001
PR0040000000000000043000000002000000ARS2020072820259909709       CASTILLO GERMAN                                             20259909709                                                                                                                                                                          E:german_castillo77@hotmail.com                                                                                                                       0007200000000000000000000000000000000411CAARS0720411588000035313740                                              ARS59900200001448646ASISTENCIA ECONOMICA DE EMERGENCIA A COMERCIOS                                                                                                                                           NN               001
PR0040000000000000044000000003000000ARS2020072823138689034       CELIS GLORIA                                                23138689034                                                                                                                                                                          E:marinaoettel@hotmail.com                                                                                                                            0033000000000000000000000000000000000076CAARS3300076120760125400054                                              ARS59900200001448646ASISTENCIA ECONOMICA DE EMERGENCIA A COMERCIOS                                                                                                                                           NN               001
PR0040000000000000045000000002000000ARS2020072820403116344       CERUTI NICOLASSEBASTIAN                                     20403116344                                                                                                                                                                          E:nicoceru9@gmail.com                                                                                                                                 0007200000000000000000000000000000000379CAARS0720379288000035901004                                              ARS59900200001448646ASISTENCIA ECONOMICA DE EMERGENCIA A COMERCIOS                                                                                                                                           NN               001
PR0040000000000000046000000005000000ARS2020072820360011675       CERVANTES LAUTARODANIEL                                     20360011675                                                                                                                                                                          E:aleoviespo@yahoo.com.ar                                                                                                                             0001100000000000000000000000000000000651CAARS0110651630065103979883                                              ARS59900200001448646ASISTENCIA ECONOMICA DE EMERGENCIA A COMERCIOS                                                                                                                                           NN               001
PR0040000000000000047000000002000000ARS2020072827316021420       CESPED VIRGINIAPAOLA                                        27316021420                                                                                                                                                                          E:virginiacesped5@gmail.com                                                                                                                           0007200000000000000000000000000000000463CAARS0720463448000035440468                                              ARS59900200001448646ASISTENCIA ECONOMICA DE EMERGENCIA A COMERCIOS                                                                                                                                           NN               001
PR0040000000000000048000000002000000ARS2020072827285722883       CINALLI YAMILA                                              27285722883                                                                                                                                                                          E:yamilacinalli@hotmail.com                                                                                                                           0028500000000000000000000000000000000848CAARS2850848940094923382868                                              ARS59900200001448646ASISTENCIA ECONOMICA DE EMERGENCIA A COMERCIOS                                                                                                                                           NN               001
PR0040000000000000049000000005000000ARS2020072830715438077       COMPLEJOCAMPUSSRL DEFRENZALUCASNICOLAS                      30715438077                                                                                                                                                                          E:lucasdfrenza@gmail.com                                                                                                                              0007200000000000000000000000000000000118CAARS0720118520000001790490                                              ARS59900200001448646ASISTENCIA ECONOMICA DE EMERGENCIA A COMERCIOS                                                                                                                                           NN               001
PR0040000000000000050000000003000000ARS2020072823217222524       CORONEL NORMAALICIA                                         23217222524                                                                                                                                                                          E:roldannahuelj@gmail.com                                                                                                                             0000700000000000000000000000000000000103CAARS0070103330004176180383                                              ARS59900200001448646ASISTENCIA ECONOMICA DE EMERGENCIA A COMERCIOS                                                                                                                                           NN               001
PR0040000000000000051000000003000000ARS2020072827251161203       CORTES CAROLINAANDREA                                       27251161203                                                                                                                                                                          E:cesarvicino@hotmail.com                                                                                                                             0042600000000000000000000000000000000002CAARS4260002600200033140065                                              ARS59900200001448646ASISTENCIA ECONOMICA DE EMERGENCIA A COMERCIOS                                                                                                                                           NN               001
PR0040000000000000052000000002000000ARS2020072827333818162       CORVALAN VANESABEATRIZ                                      27333818162                                                                                                                                                                          E:vanecorvalan@hotmail.com                                                                                                                            0033000000000000000000000000000000000000CAARS3300000620000782375067                                              ARS59900200001448646ASISTENCIA ECONOMICA DE EMERGENCIA A COMERCIOS                                                                                                                                           NN               001
PR0040000000000000053000000002000000ARS2020072823327333844       D ACUTE ARGENIO ANTONELA                                    23327333844                                                                                                                                                                          E:salon_avellino@hotmail.com                                                                                                                          0001100000000000000000000000000000000491CAARS0110491630049189648129                                              ARS59900200001448646ASISTENCIA ECONOMICA DE EMERGENCIA A COMERCIOS                                                                                                                                           NN               001
PR0040000000000000054000000003000000ARS2020072820126996919       DACARO ROBERTOANTONIO                                       20126996919                                                                                                                                                                          E:robertodacaro@hotmail.com                                                                                                                           0028500000000000000000000000000000000857CAARS2850857140094906017378                                              ARS59900200001448646ASISTENCIA ECONOMICA DE EMERGENCIA A COMERCIOS                                                                                                                                           NN               001
PR0040000000000000055000000003000000ARS2020072820222802327       DEMAIO ROSENDO                                              20222802327                                                                                                                                                                          E:rosendodemaio@gmail.com                                                                                                                             0007200000000000000000000000000000000156CAARS0720156788000037902272                                              ARS59900200001448646ASISTENCIA ECONOMICA DE EMERGENCIA A COMERCIOS                                                                                                                                           NN               001
PR0040000000000000056000000002000000ARS2020072827338958396       DEOLIVEIRA MARIANELAESTEFANIA                               27338958396                                                                                                                                                                          E:marianela.deoliveira@hotmail.com                                                                                                                    0000700000000000000000000000000000000264CAARS0070264731004003550519                                              ARS59900200001448646ASISTENCIA ECONOMICA DE EMERGENCIA A COMERCIOS                                                                                                                                           NN               001
PR0040000000000000057000000002000000ARS2020072820327182588       DEROTIER MARIOWILFREDO                                      20327182588                                                                                                                                                                          E:diegotrevi18@gmail.com                                                                                                                              0033000000000000000000000000000000000500CAARS3300500125000161193002                                              ARS59900200001448646ASISTENCIA ECONOMICA DE EMERGENCIA A COMERCIOS                                                                                                                                           NN               001
PR0040000000000000058000000002000000ARS2020072820238819211       DEVOTO JOSEMARIA                                            20238819211                                                                                                                                                                          E:santafe@santafe.gov.ar                                                                                                                              0001100000000000000000000000000000000214CAARS0110214930021471691851                                              ARS59900200001448646ASISTENCIA ECONOMICA DE EMERGENCIA A COMERCIOS                                                                                                                                           NN               001
PR0040000000000000059000000002000000ARS2020072827283936886       DIVIRGILIO GISELANATALIA                                    27283936886                                                                                                                                                                          E:GISE-DV@HOTMAIL.COM                                                                                                                                 0028500000000000000000000000000000000790CAARS2850790540095182662148                                              ARS59900200001448646ASISTENCIA ECONOMICA DE EMERGENCIA A COMERCIOS                                                                                                                                           NN               001
PR0040000000000000060000000005000000ARS2020072830648178804       DIXIS A PASACALLE                                           30648178804                                                                                                                                                                          E:idearstafe@gmail.com                                                                                                                                0019100000000000000000000000000000000286CAARS1910286155028601829332                                              ARS59900200001448646ASISTENCIA ECONOMICA DE EMERGENCIA A COMERCIOS                                                                                                                                           NN               001
PR0040000000000000061000000003000000ARS2020072823118732359       DOMINGUEZ CARLOSMARIO                                       23118732359                                                                                                                                                                          E:carlosmd50@hotmail.com                                                                                                                              0028500000000000000000000000000000000339CAARS2850339240095185421878                                              ARS59900200001448646ASISTENCIA ECONOMICA DE EMERGENCIA A COMERCIOS                                                                                                                                           NN               001
PR0040000000000000062000000002000000ARS2020072827201972472       DORIA CLAUDIAMABELLUCIA                                     27201972472                                                                                                                                                                          E:claudiadorialione@gmail.com                                                                                                                         0033000000000000000000000000000000000031CAARS3300031020310793143027                                              ARS59900200001448646ASISTENCIA ECONOMICA DE EMERGENCIA A COMERCIOS                                                                                                                                           NN               001
PR0040000000000000063000000002000000ARS2020072827214912797       DRUETTA SILVINAMARIA                                        27214912797                                                                                                                                                                          E:silvinatravaglino@hotmail.com                                                                                                                       0019100000000000000000000000000000000362CAARS1910362855136200468521                                              ARS59900200001448646ASISTENCIA ECONOMICA DE EMERGENCIA A COMERCIOS                                                                                                                                           NN               001
PR0040000000000000064000000003000000ARS2020072820209390613       ECHAVARRIA JUANMIGUEL                                       20209390613                                                                                                                                                                          E:juanechavarria@icloud.com                                                                                                                           0000700000000000000000000000000000000359CAARS0070359630004000072811                                              ARS59900200001448646ASISTENCIA ECONOMICA DE EMERGENCIA A COMERCIOS                                                                                                                                           NN               001
PR0040000000000000065000000002000000ARS2020072827143968842       ESPINOSA SILVIA                                             27143968842                                                                                                                                                                          E:silviag_e@hotmail.com                                                                                                                               0033000000000000000000000000000000000504CAARS3300504915040001925021                                              ARS59900200001448646ASISTENCIA ECONOMICA DE EMERGENCIA A COMERCIOS                                                                                                                                           NN               001
PR0040000000000000066000000002000000ARS2020072823171133424       FELICIA ADRIANALAURA                                        23171133424                                                                                                                                                                          E:adrianalfelicia@gmail.com                                                                                                                           0033000000000000000000000000000000000000CAARS3300000620000319297050                                              ARS59900200001448646ASISTENCIA ECONOMICA DE EMERGENCIA A COMERCIOS                                                                                                                                           NN               001
PR0040000000000000067000000002000000ARS2020072820225168815       FERNANDEZ MANUELALEJANDRO                                   20225168815                                                                                                                                                                          E:mafstudiovideo@yahoo.com.ar                                                                                                                         0001100000000000000000000000000000000567CAARS0110567430056710099233                                              ARS59900200001448646ASISTENCIA ECONOMICA DE EMERGENCIA A COMERCIOS                                                                                                                                           NN               001
PR0040000000000000068000000002000000ARS2020072820188128913       FERNANDEZMORENO FEDERICO                                    20188128913                                                                                                                                                                          E:federicofm80@gmail.com                                                                                                                              0028500000000000000000000000000000000701CAARS2850701140095234683888                                              ARS59900200001448646ASISTENCIA ECONOMICA DE EMERGENCIA A COMERCIOS                                                                                                                                           NN               001
PR0040000000000000069000000002000000ARS2020072827186169005       FERREIRA MARCELA                                            27186169005                                                                                                                                                                          E:profemarcela13@hotmail.com                                                                                                                          0019100000000000000000000000000000000086CAARS1910086555108600133417                                              ARS59900200001448646ASISTENCIA ECONOMICA DE EMERGENCIA A COMERCIOS                                                                                                                                           NN               001
PR0040000000000000070000000002000000ARS2020072820939666975       FERTONANI THOMASLAION                                       20939666975                                                                                                                                                                          E:laionfertonani@hotmail.com.ar                                                                                                                       0028500000000000000000000000000000000857CAARS2850857140094899978298                                              ARS59900200001448646ASISTENCIA ECONOMICA DE EMERGENCIA A COMERCIOS                                                                                                                                           NN               001
PR0040000000000000071000000002000000ARS2020072820111155527       FORCONI MIGUELANGEL                                         20111155527                                                                                                                                                                          E:miguelforconi39@gmail.com                                                                                                                           0033000000000000000000000000000000000506CAARS3300506325060698378024                                              ARS59900200001448646ASISTENCIA ECONOMICA DE EMERGENCIA A COMERCIOS                                                                                                                                           NN               001
PR0040000000000000072000000002000000ARS2020072827268166950       FREGA ANDREA                                                27268166950                                                                                                                                                                          E:fregaandrea@hotmail.com                                                                                                                             0001100000000000000000000000000000000502CAARS0110502530050241698851                                              ARS59900200001448646ASISTENCIA ECONOMICA DE EMERGENCIA A COMERCIOS                                                                                                                                           NN               001
PR0040000000000000073000000003000000ARS2020072827162015333       FROSASCO MARIAELISA                                         27162015333                                                                                                                                                                          E:contadora@giselagerosa.com.ar                                                                                                                       0033000000000000000000000000000000000005CAARS3300005120050002923063                                              ARS59900200001448646ASISTENCIA ECONOMICA DE EMERGENCIA A COMERCIOS                                                                                                                                           NN               001
PR0040000000000000074000000005000000ARS2020072827207041497       GABETTA CARINAFLAVIA                                        27207041497                                                                                                                                                                          E:jardinkinder@gmail.com                                                                                                                              0002700000000000000000000000000000000043CAARS027004341000036806001                                              ARS59900200001448646ASISTENCIA ECONOMICA DE EMERGENCIA A COMERCIOS                                                                                                                                           NN               001
PR0040000000000000075000000002000000ARS2020072827216513229       GALEANO FABIANA                                             27216513229                                                                                                                                                                          E:maracamilletti@gmail.com                                                                                                                            0028500000000000000000000000000000000865CAARS2850865640095278034608                                              ARS59900200001448646ASISTENCIA ECONOMICA DE EMERGENCIA A COMERCIOS                                                                                                                                           NN               001
PR0040000000000000076000000005000000ARS2020072827133339510       GALIANO MARINADELROSARIO                                    27133339510                                                                                                                                                                          E:estudiocarnevale@hotmail.com                                                                                                                        0028500000000000000000000000000000000310CAARS2850310140094962737548                                              ARS59900200001448646ASISTENCIA ECONOMICA DE EMERGENCIA A COMERCIOS                                                                                                                                           NN               001
PR0040000000000000077000000002000000ARS2020072820285711607       GIAGNORIO CRISTIAN                                          20285711607                                                                                                                                                                          E:paogiagnorio@hotmail.com                                                                                                                            0033000000000000000000000000000000000057CAARS3300057020570051216078                                              ARS59900200001448646ASISTENCIA ECONOMICA DE EMERGENCIA A COMERCIOS                                                                                                                                           NN               001
PR0040000000000000078000000002000000ARS2020072827366568668       GILIBERTO JULIETASOLEDAD                                    27366568668                                                                                                                                                                          E:julietagiliberto1992@gmail.com                                                                                                                      0033000000000000000000000000000000000000CAARS3300000620000189392099                                              ARS59900200001448646ASISTENCIA ECONOMICA DE EMERGENCIA A COMERCIOS                                                                                                                                           NN               001
PR0040000000000000079000000002000000ARS2020072827226984955       GIMENEZ MARIABELEN                                          27226984955                                                                                                                                                                          E:maribel_gime@hotmail.com                                                                                                                            0033000000000000000000000000000000000042CAARS3300042620420060399047                                              ARS59900200001448646ASISTENCIA ECONOMICA DE EMERGENCIA A COMERCIOS                                                                                                                                           NN               001
PR0040000000000000080000000003000000ARS2020072827215955104       GIORGIS LIANAMABEL                                          27215955104                                                                                                                                                                          E:lianagiorgis@hotmail.com.ar                                                                                                                         0007200000000000000000000000000000000478CAARS0720478888000040166922                                              ARS59900200001448646ASISTENCIA ECONOMICA DE EMERGENCIA A COMERCIOS                                                                                                                                           NN               001
PR0040000000000000081000000003000000ARS2020072827243521756       GIOVANINI LAURAIVANA                                        27243521756                                                                                                                                                                          E:manuelaspigare@hotmail.com                                                                                                                          0000700000000000000000000000000000000264CAARS0070264730004003613787                                              ARS59900200001448646ASISTENCIA ECONOMICA DE EMERGENCIA A COMERCIOS                                                                                                                                           NN               001
PR0040000000000000082000000003000000ARS2020072820360064647       GIUSTI MARCOSALFREDO                                        20360064647                                                                                                                                                                          E:salondeeventosbarrilete@gmail.com                                                                                                                   0028500000000000000000000000000000000335CAARS2850335440094869089528                                              ARS59900200001448646ASISTENCIA ECONOMICA DE EMERGENCIA A COMERCIOS                                                                                                                                           NN               001
PR0040000000000000083000000005000000ARS2020072823301552599       GNASS NESTOR                                                23301552599                                                                                                                                                                          E:cpnborghini@hotmail.com                                                                                                                             0001700000000000000000000000000000000081CAARS0170081744000043961225                                              ARS59900200001448646ASISTENCIA ECONOMICA DE EMERGENCIA A COMERCIOS                                                                                                                                           NN               001
PR0040000000000000084000000003000000ARS2020072827276736685       GOICOURIA NATALIA                                           27276736685                                                                                                                                                                          E:nataliagoicouria@gmail.com                                                                                                                          0007200000000000000000000000000000000156CAARS0720156788000001727340                                              ARS59900200001448646ASISTENCIA ECONOMICA DE EMERGENCIA A COMERCIOS                                                                                                                                           NN               001
PR0040000000000000085000000005000000ARS2020072820936758070       GOMEZ JOSEANTONIO                                           20936758070                                                                                                                                                                          E:oresanotour@hotmail.com                                                                                                                             0006500000000000000000000000000000000090CAARS0650090002000011748575                                              ARS59900200001448646ASISTENCIA ECONOMICA DE EMERGENCIA A COMERCIOS                                                                                                                                           NN               001
PR0040000000000000086000000002000000ARS2020072820164554962       GRECO EDUARDOGABRIEL                                        20164554962                                                                                                                                                                          E:riffanapaula@gmail.com                                                                                                                              0001400000000000000000000000000000000102CAARS0140102403402582717205                                              ARS59900200001448646ASISTENCIA ECONOMICA DE EMERGENCIA A COMERCIOS                                                                                                                                           NN               001
PR0040000000000000087000000002000000ARS2020072820203540478       GRIMANDELLA HERNANPABLO                                     20203540478                                                                                                                                                                          E:estudiocontable@live.ca                                                                                                                             0033000000000000000000000000000000000005CAARS3300005120050099631074                                              ARS59900200001448646ASISTENCIA ECONOMICA DE EMERGENCIA A COMERCIOS                                                                                                                                           NN               001
PR0040000000000000088000000002000000ARS2020072827274292127       GROSSO MARCELAALEJANDRA                                     27274292127                                                                                                                                                                          E:maalejandragrosso4@gmail.com                                                                                                                        0033000000000000000000000000000000000545CAARS3300545225450080127031                                              ARS59900200001448646ASISTENCIA ECONOMICA DE EMERGENCIA A COMERCIOS                                                                                                                                           NN               001
PR0040000000000000089000000002000000ARS2020072820231843575       GUTIERREZ DAVIDJAVIER                                       20231843575                                                                                                                                                                          E:verlindariva@gmail.com                                                                                                                              0000700000000000000000000000000000000380CAARS0070380030004010461252                                              ARS59900200001448646ASISTENCIA ECONOMICA DE EMERGENCIA A COMERCIOS                                                                                                                                           NN               001
PR0040000000000000090000000002000000ARS2020072820230120863       GUTIERREZ DAVIDARIEL                                        20230120863                                                                                                                                                                          E:Gutierrezdavidariel@gmail.com                                                                                                                       0002700000000000000000000000000000000264CAARS0270264520039675650027                                              ARS59900200001448646ASISTENCIA ECONOMICA DE EMERGENCIA A COMERCIOS                                                                                                                                           NN               001
PR0040000000000000091000000002000000ARS2020072820374723260       HANG DIEGO                                                  20374723260                                                                                                                                                                          E:diego.11.93@hotmail.com                                                                                                                             0033000000000000000000000000000000000543CAARS3300543825430311411081                                              ARS59900200001448646ASISTENCIA ECONOMICA DE EMERGENCIA A COMERCIOS                                                                                                                                           NN               001
PR0040000000000000092000000002000000ARS2020072820210413198       HEIS FRANCISCOJAVIER                                        20210413198                                                                                                                                                                          E:franciscoheis3@gmail.com                                                                                                                            0001100000000000000000000000000000000144CAARS0110144330014475407600                                              ARS59900200001448646ASISTENCIA ECONOMICA DE EMERGENCIA A COMERCIOS                                                                                                                                           NN               001
PR0040000000000000093000000002000000ARS2020072823174493464       HERNANDEZ BIBIANABEATRIZ                                    23174493464                                                                                                                                                                          E:bbh@live.com.ar                                                                                                                                     0028500000000000000000000000000000000369CAARS2850369940094824571828                                              ARS59900200001448646ASISTENCIA ECONOMICA DE EMERGENCIA A COMERCIOS                                                                                                                                           NN               001
PR0040000000000000094000000005000000ARS2020072830714625485       HISFREINSRL HISKINLEONARDOSANTIAGO                          30714625485                                                                                                                                                                          E:silvanafreinquel@hotmail.com.ar                                                                                                                     0007200000000000000000000000000000000156CAARS0720156720000001356304                                              ARS59900200001448646ASISTENCIA ECONOMICA DE EMERGENCIA A COMERCIOS                                                                                                                                           NN               001
PR0040000000000000095000000002000000ARS2020072820328958334       HUJA AGUSTINMIGUEL                                          20328958334                                                                                                                                                                          E:agustinhuja@hotmail.com                                                                                                                             0033000000000000000000000000000000000599CAARS3300599525990751850054                                              ARS59900200001448646ASISTENCIA ECONOMICA DE EMERGENCIA A COMERCIOS                                                                                                                                           NN               001
PR0040000000000000096000000002000000ARS2020072827293119223       JALILTRAVERSO NIEVESGRETEL                                  27293119223                                                                                                                                                                          E:Greteljal@hotmail.es                                                                                                                                0028500000000000000000000000000000000848CAARS2850848940095235226578                                              ARS59900200001448646ASISTENCIA ECONOMICA DE EMERGENCIA A COMERCIOS                                                                                                                                           NN               001
PR0040000000000000097000000002000000ARS2020072827247526841       LASSIG SILVANA                                              27247526841                                                                                                                                                                          E:silvana_lassig@hotmail.com                                                                                                                          0019100000000000000000000000000000000086CAARS1910086555008601009350                                              ARS59900200001448646ASISTENCIA ECONOMICA DE EMERGENCIA A COMERCIOS                                                                                                                                           NN               001
PR0040000000000000098000000005000000ARS2020072827228967950       LAVENIA VERONICA                                            27228967950                                                                                                                                                                          E:vlavenia@live.com.ar                                                                                                                                0028500000000000000000000000000000000795CAARS2850795040094791279978                                              ARS59900200001448646ASISTENCIA ECONOMICA DE EMERGENCIA A COMERCIOS                                                                                                                                           NN               001
PR0040000000000000099000000002000000ARS2020072820177903648       LUENGO ALFREDOGUSTAVO                                       20177903648                                                                                                                                                                          E:alfredoluengo@gmail.com                                                                                                                             0033000000000000000000000000000000000510CAARS3300510025100048111069                                              ARS59900200001448646ASISTENCIA ECONOMICA DE EMERGENCIA A COMERCIOS                                                                                                                                           NN               001
PR0040000000000000100000000002000000ARS2020072820246358827       MALDONADO MIGUELALEJANDRO                                   20246358827                                                                                                                                                                          E:alemaldonado.sfc@gmail.com                                                                                                                          0019100000000000000000000000000000000340CAARS1910340655134008159535                                              ARS59900200001448646ASISTENCIA ECONOMICA DE EMERGENCIA A COMERCIOS                                                                                                                                           NN               001
PR0040000000000000101000000002000000ARS2020072820334697224       MANSILLA GABRIELALEJANDRO                                   20334697224                                                                                                                                                                          E:388manssi@gmail.com                                                                                                                                 0033000000000000000000000000000000000000CAARS3300000620000177102057                                              ARS59900200001448646ASISTENCIA ECONOMICA DE EMERGENCIA A COMERCIOS                                                                                                                                           NN               001
PR0040000000000000102000000005000000ARS2020072827256374167       MARCOS EVELYNNATALIA                                        27256374167                                                                                                                                                                          E:evelynmarcos@outlook.com.ar                                                                                                                         0028500000000000000000000000000000000843CAARS2850843440094873332188                                              ARS59900200001448646ASISTENCIA ECONOMICA DE EMERGENCIA A COMERCIOS                                                                                                                                           NN               001
PR0040000000000000103000000005000000ARS2020072820337203699       MARILUNGO MAUROJULIO                                        20337203699                                                                                                                                                                          E:mauromarilungo@gmail.com                                                                                                                            0028500000000000000000000000000000000794CAARS2850794340094829137478                                              ARS59900200001448646ASISTENCIA ECONOMICA DE EMERGENCIA A COMERCIOS                                                                                                                                           NN               001
PR0040000000000000104000000002000000ARS2020072820335123086       MARTINENGO LEONELJESUS                                      20335123086                                                                                                                                                                          E:leonel.martinengos@gmail.com                                                                                                                        0001100000000000000000000000000000000477CAARS0110477030047716296551                                              ARS59900200001448646ASISTENCIA ECONOMICA DE EMERGENCIA A COMERCIOS                                                                                                                                           NN               001
PR0040000000000000105000000004000000ARS2020072827238013343       MARZIONIIBANEZ SILVANAANDREA                                27238013343                                                                                                                                                                          E:paulo.castro@e3rafaela.com.ar                                                                                                                       0001700000000000000000000000000000000207CAARS0170207340000032293519                                              ARS59900200001448646ASISTENCIA ECONOMICA DE EMERGENCIA A COMERCIOS                                                                                                                                           NN               001
PR0040000000000000106000000002000000ARS2020072820167779035       MASSINI CARLOSALBERTO                                       20167779035                                                                                                                                                                          E:massinicarlosa@gmail.com                                                                                                                            0038400000000000000000000000000000000100CAARS3840100200000003277276                                              ARS59900200001448646ASISTENCIA ECONOMICA DE EMERGENCIA A COMERCIOS                                                                                                                                           NN               001
PR0040000000000000107000000002000000ARS2020072820251160792       MAZZONI CARLOSMARTIN                                        20251160792                                                                                                                                                                          E:cesarvicino@hotmail.com                                                                                                                             0028500000000000000000000000000000000310CAARS2850310140017002225463                                              ARS59900200001448646ASISTENCIA ECONOMICA DE EMERGENCIA A COMERCIOS                                                                                                                                           NN               001
PR0040000000000000108000000003000000ARS2020072820216419015       MELANDONI JAVIERHERNAN                                      20216419015                                                                                                                                                                          E:javi382008@hotmail.com                                                                                                                              0006500000000000000000000000000000000030CAARS0650030602000074082836                                              ARS59900200001448646ASISTENCIA ECONOMICA DE EMERGENCIA A COMERCIOS                                                                                                                                           NN               001
PR0040000000000000109000000002000000ARS2020072827230611217       MENGA ELISABETLILIANA                                       27230611217                                                                                                                                                                          E:SALONHEROESYPRINCESAS@HOTMAIL.COM                                                                                                                   0028500000000000000000000000000000000843CAARS2850843440094937876658                                              ARS59900200001448646ASISTENCIA ECONOMICA DE EMERGENCIA A COMERCIOS                                                                                                                                           NN               001
PR0040000000000000110000000002000000ARS2020072827266175863       MERAYO MARIANAESTELA                                        27266175863                                                                                                                                                                          E:merayomariana@hotmail.com                                                                                                                           0007200000000000000000000000000000000156CAARS0720156788000001396186                                              ARS59900200001448646ASISTENCIA ECONOMICA DE EMERGENCIA A COMERCIOS                                                                                                                                           NN               001
PR0040000000000000111000000005000000ARS2020072820180938258       MEYER LEANDRO                                               20180938258                                                                                                                                                                          E:silviampotenza@hotmail.com                                                                                                                          0019100000000000000000000000000000000091CAARS1910091955109101210599                                              ARS59900200001448646ASISTENCIA ECONOMICA DE EMERGENCIA A COMERCIOS                                                                                                                                           NN               001
PR0040000000000000112000000002000000ARS2020072827350635349       MONDINO NADIAMARIA                                          27350635349                                                                                                                                                                          E:nadia_luli@hotmail.com                                                                                                                              0033000000000000000000000000000000000530CAARS3300530825300089407064                                              ARS59900200001448646ASISTENCIA ECONOMICA DE EMERGENCIA A COMERCIOS                                                                                                                                           NN               001
PR0040000000000000113000000002000000ARS2020072820146055851       MONTORO JORGEALBERTO                                        20146055851                                                                                                                                                                          E:monyo45@hotmail.com                                                                                                                                 0033000000000000000000000000000000000506CAARS3300506325060708911009                                              ARS59900200001448646ASISTENCIA ECONOMICA DE EMERGENCIA A COMERCIOS                                                                                                                                           NN               001
PR0040000000000000114000000002000000ARS2020072820230511609       MORALES NELSONROBERTO                                       20230511609                                                                                                                                                                          E:francoh_86@hotmail.com                                                                                                                              0033000000000000000000000000000000000059CAARS3300059420590001959103                                              ARS59900200001448646ASISTENCIA ECONOMICA DE EMERGENCIA A COMERCIOS                                                                                                                                           NN               001
PR0040000000000000115000000005000000ARS2020072820203194898       MORELLO MARCELAGUADALUPE                                    20203194898                                                                                                                                                                          E:mmorello69@hotmail.com                                                                                                                              0004400000000000000000000000000000000032CAARS0440032540000216566945                                              ARS59900200001448646ASISTENCIA ECONOMICA DE EMERGENCIA A COMERCIOS                                                                                                                                           NN               001
PR0040000000000000116000000005000000ARS2020072827271340155       MORENO VERONICAGISELA                                       27271340155                                                                                                                                                                          E:marimoreno73@live.com.ar                                                                                                                            0000700000000000000000000000000000000267CAARS0070267830004040921900                                              ARS59900200001448646ASISTENCIA ECONOMICA DE EMERGENCIA A COMERCIOS                                                                                                                                           NN               001
PR0040000000000000117000000003000000ARS2020072820201904545       MUGNA OSVALDO                                               20201904545                                                                                                                                                                          E:valdorafaela@yahoo.com.ar                                                                                                                           0033000000000000000000000000000000000518CAARS3300518625180071557043                                              ARS59900200001448646ASISTENCIA ECONOMICA DE EMERGENCIA A COMERCIOS                                                                                                                                           NN               001
PR0040000000000000118000000002000000ARS2020072827316723999       MUNOZ SABRINAVERONICA                                       27316723999                                                                                                                                                                          E:sabri1985.m@gmail.com                                                                                                                               0033000000000000000000000000000000000026CAARS3300026620260921133014                                              ARS59900200001448646ASISTENCIA ECONOMICA DE EMERGENCIA A COMERCIOS                                                                                                                                           NN               001
PR0040000000000000119000000002000000ARS2020072820221750625       NAZOR DANIELPEDRO                                           20221750625                                                                                                                                                                          E:danielnazor@hotmail.com                                                                                                                             0028500000000000000000000000000000000341CAARS2850341540094990604328                                              ARS59900200001448646ASISTENCIA ECONOMICA DE EMERGENCIA A COMERCIOS                                                                                                                                           NN               001
PR0040000000000000120000000005000000ARS2020072820162280385       NIEVAS JORGEMARCELO                                         20162280385                                                                                                                                                                          E:jmnievas62@hotmail.com                                                                                                                              0019100000000000000000000000000000000281CAARS1910281655028100376728                                              ARS59900200001448646ASISTENCIA ECONOMICA DE EMERGENCIA A COMERCIOS                                                                                                                                           NN               001
PR0040000000000000121000000002000000ARS2020072827311366543       NOCENTI VERONICA                                            27311366543                                                                                                                                                                          E:veritos84@live.com                                                                                                                                  0033000000000000000000000000000000000032CAARS3300032720320051860090                                              ARS59900200001448646ASISTENCIA ECONOMICA DE EMERGENCIA A COMERCIOS                                                                                                                                           NN               001
PR0040000000000000122000000004000000ARS2020072823285254159       NOVO TULIO                                                  23285254159                                                                                                                                                                          E:Tulionovo12@hotmail.com                                                                                                                             0001700000000000000000000000000000000294CAARS0170294340000031243119                                              ARS59900200001448646ASISTENCIA ECONOMICA DE EMERGENCIA A COMERCIOS                                                                                                                                           NN               001
PR0040000000000000123000000005000000ARS2020072830716171953       NUSS HERNANPABLO                                            30716171953                                                                                                                                                                          E:cpnmartin@hotmail.com                                                                                                                               0033000000000000000000000000000000000556CAARS3300556825560159265062                                              ARS59900200001448646ASISTENCIA ECONOMICA DE EMERGENCIA A COMERCIOS                                                                                                                                           NN               001
PR0040000000000000124000000003000000ARS2020072820251575674       OLMEDO GUILLERMODANIEL                                      20251575674                                                                                                                                                                          E:sashafabri@hotmail.com                                                                                                                              0001100000000000000000000000000000000651CAARS0110651630065102082447                                              ARS59900200001448646ASISTENCIA ECONOMICA DE EMERGENCIA A COMERCIOS                                                                                                                                           NN               001
