FH202008240849110020061170ORDENDEPAGO20200824                                                                                                                                                                                                                                                                                                                                                                                                                                                                                                                                                                                                                                                                                                                                                                             
PR0040000000000002222000000002000000ARS2020082420240509262       ACHINELLI GERARDO JAVIER                                    20240509262                                                                                                                                                                          E:infprodu@gmail.com                                                                                                                                  0019100000000000000000000000000000000340CAARS1910340655134002616717                                              ARS59900200001448646TEST                                                                                                                                                                                     NN               000
PR0040000000000002223000000003000000ARS2020082427101883200       AGUIRRE GRACIELA LILIANA                                    27101883200                                                                                                                                                                          E:infprodu@gmail.com                                                                                                                                  0000700000000000000000000000000000000220CAARS0070220330004043106034                                              ARS59900200001448646TEST                                                                                                                                                                                     NN               000
PR0040000000000002224000000002000000ARS2020082427373315740       AIRALDI ANTONELA                                            27373315740                                                                                                                                                                          E:infprodu@gmail.com                                                                                                                                  0001100000000000000000000000000000000264CAARS0110264430026446753479                                              ARS59900200001448646TEST                                                                                                                                                                                     NN               000
PR0040000000000002225000000002000000ARS2020082423318047014       ARACNE VERONICA                                             23318047014                                                                                                                                                                          E:infprodu@gmail.com                                                                                                                                  0019100000000000000000000000000000000343CAARS1910343755134301005753                                              ARS59900200001448646TEST                                                                                                                                                                                     NN               000
PR0040000000000002226000000002000000ARS2020082427283888180       ARDOLI JESICA                                               27283888180                                                                                                                                                                          E:infprodu@gmail.com                                                                                                                                  0006500000000000000000000000000000000045CAARS0650045002000004040057                                              ARS59900200001448646TEST                                                                                                                                                                                     NN               000
PR0040000000000002227000000002000000ARS2020082427403127367       ARGUTTI MAGALI BELEN                                        27403127367                                                                                                                                                                          E:infprodu@gmail.com                                                                                                                                  0001100000000000000000000000000000000121CAARS0110121430012162982251                                              ARS59900200001448646TEST                                                                                                                                                                                     NN               000
PR0040000000000002228000000002000000ARS2020082427286724243       BARTOLOME SABINA SOLEDAD                                    27286724243                                                                                                                                                                          E:infprodu@gmail.com                                                                                                                                  0028500000000000000000000000000000000732CAARS2850732540094743842238                                              ARS59900200001448646TEST                                                                                                                                                                                     NN               000
PR0040000000000002229000000003000000ARS2020082420217128952       BECERRA PABLO                                               20217128952                                                                                                                                                                          E:infprodu@gmail.com                                                                                                                                  0033000000000000000000000000000000000517CAARS3300517925170010888075                                              ARS59900200001448646TEST                                                                                                                                                                                     NN               000
PR0040000000000002230000000002000000ARS2020082427125254328       BENITEZ HERMINIA LUCIA                                      27125254328                                                                                                                                                                          E:infprodu@gmail.com                                                                                                                                  0033000000000000000000000000000000000001CAARS3300001320010245316095                                              ARS59900200001448646TEST                                                                                                                                                                                     NN               000
PR0040000000000002231000000002000000ARS2020082420248594056       BERLI CESAR OMAR                                            20248594056                                                                                                                                                                          E:infprodu@gmail.com                                                                                                                                  0001100000000000000000000000000000000541CAARS0110541430054172038629                                              ARS59900200001448646TEST                                                                                                                                                                                     NN               000
PR0040000000000002232000000003000000ARS2020082420375775493       BORDA MARCELO JULIAN                                        20375775493                                                                                                                                                                          E:infprodu@gmail.com                                                                                                                                  0000700000000000000000000000000000000079CAARS0070079530004065922393                                              ARS59900200001448646TEST                                                                                                                                                                                     NN               000
PR0040000000000002233000000005000000ARS2020082420185470025       BORGOBELLO FABIAN MARCELO                                   20185470025                                                                                                                                                                          E:infprodu@gmail.com                                                                                                                                  0001700000000000000000000000000000000210CAARS0170210340000006593241                                              ARS59900200001448646TEST                                                                                                                                                                                     NN               000
PR0040000000000002234000000003000000ARS2020082423039893924       BOVO ADRIANA ESTELA                                         23039893924                                                                                                                                                                          E:infprodu@gmail.com                                                                                                                                  0033000000000000000000000000000000000501CAARS3300501825010138394101                                              ARS59900200001448646TEST                                                                                                                                                                                     NN               000
PR0040000000000002235000000005000000ARS2020082427176689663       CAPPELLETTI MARICEL VIVIANA                                 27176689663                                                                                                                                                                          E:infprodu@gmail.com                                                                                                                                  0000700000000000000000000000000000000103CAARS0070103320000035721262                                              ARS59900200001448646TEST                                                                                                                                                                                     NN               000
PR0040000000000002236000000002000000ARS2020082427202991764       CARDONATTI SANDRA FABIANA                                   27202991764                                                                                                                                                                          E:infprodu@gmail.com                                                                                                                                  0001100000000000000000000000000000000170CAARS0110170230017071764365                                              ARS59900200001448646TEST                                                                                                                                                                                     NN               000
PR0040000000000002237000000005000000ARS2020082420373370003       CASTRO LUCAS EMANUEL                                        20373370003                                                                                                                                                                          E:infprodu@gmail.com                                                                                                                                  0003400000000000000000000000000000000296CAARS0340296400296014883001                                              ARS59900200001448646TEST                                                                                                                                                                                     NN               000
PR0040000000000002238000000002000000ARS2020082420259523835       CHANTIRI DIMAS                                              20259523835                                                                                                                                                                          E:infprodu@gmail.com                                                                                                                                  0033000000000000000000000000000000000000CAARS3300000620000368939109                                              ARS59900200001448646TEST                                                                                                                                                                                     NN               000
PR0040000000000002239000000002000000ARS2020082427229019584       CICARELLI PATRICIA ANALIA                                   27229019584                                                                                                                                                                          E:infprodu@gmail.com                                                                                                                                  0028500000000000000000000000000000000366CAARS2850366840094576492758                                              ARS59900200001448646TEST                                                                                                                                                                                     NN               000
PR0040000000000002240000000003000000ARS2020082420083747715       COLOME MIGUEL ANGEL                                         20083747715                                                                                                                                                                          E:infprodu@gmail.com                                                                                                                                  0007200000000000000000000000000000000332CAARS0720332788000035495468                                              ARS59900200001448646TEST                                                                                                                                                                                     NN               000
PR0040000000000002241000000003000000ARS2020082420111603554       CORDOBA JORGE LUCIANO                                       20111603554                                                                                                                                                                          E:infprodu@gmail.com                                                                                                                                  0033000000000000000000000000000000000599CAARS3300599525990969220070                                              ARS59900200001448646TEST                                                                                                                                                                                     NN               000
PR0040000000000002242000000002000000ARS2020082427283318333       CORDOBA NATALIA SOLEDAD                                     27283318333                                                                                                                                                                          E:infprodu@gmail.com                                                                                                                                  0033000000000000000000000000000000000554CAARS3300554425540075020015                                              ARS59900200001448646TEST                                                                                                                                                                                     NN               000
PR0040000000000002243000000005000000ARS2020082420214227534       COTTONE JUAN JOSE                                           20214227534                                                                                                                                                                          E:infprodu@gmail.com                                                                                                                                  0033000000000000000000000000000000000501CAARS3300501815010002597097                                              ARS59900200001448646TEST                                                                                                                                                                                     NN               000
PR0040000000000002244000000002000000ARS2020082427320599585       CRAVERO MELISA                                              27320599585                                                                                                                                                                          E:infprodu@gmail.com                                                                                                                                  0004400000000000000000000000000000000023CAARS0440023340000151134951                                              ARS59900200001448646TEST                                                                                                                                                                                     NN               000
PR0040000000000002245000000002000000ARS2020082423059972979       DALMASO RAUL LORENZO                                        23059972979                                                                                                                                                                          E:infprodu@gmail.com                                                                                                                                  0001700000000000000000000000000000000201CAARS0170201140000002200109                                              ARS59900200001448646TEST                                                                                                                                                                                     NN               000
PR0040000000000002246000000003000000ARS2020082420148033472       DALMASO SERGIO                                              20148033472                                                                                                                                                                          E:infprodu@gmail.com                                                                                                                                  0019100000000000000000000000000000000086CAARS1910086555008601152382                                              ARS59900200001448646TEST                                                                                                                                                                                     NN               000
PR0040000000000002247000000003000000ARS2020082420109863956       DE GREGORIO CARLOS ANTONIO                                  20109863956                                                                                                                                                                          E:infprodu@gmail.com                                                                                                                                  0038600000000000000000000000000000000057CAARS3860057705000046914601                                              ARS59900200001448646TEST                                                                                                                                                                                     NN               000
PR0040000000000002248000000002000000ARS2020082420327182588       DEROTIER MARIO WILFREDO                                     20327182588                                                                                                                                                                          E:infprodu@gmail.com                                                                                                                                  0033000000000000000000000000000000000500CAARS3300500125000161193002                                              ARS59900200001448646TEST                                                                                                                                                                                     NN               000
PR0040000000000002249000000003000000ARS2020082427302918045       ESCALANTE CLARISA GUADALUPE                                 27302918045                                                                                                                                                                          E:infprodu@gmail.com                                                                                                                                  0033000000000000000000000000000000000518CAARS3300518615180160295103                                              ARS59900200001448646TEST                                                                                                                                                                                     NN               000
PR0040000000000002250000000002000000ARS2020082427371994829       ESPINDOLA LARA                                              27371994829                                                                                                                                                                          E:infprodu@gmail.com                                                                                                                                  0001700000000000000000000000000000000253CAARS0170253040000002477842                                              ARS59900200001448646TEST                                                                                                                                                                                     NN               000
PR0040000000000002251000000002000000ARS2020082427182424760       FALCO ROSANA GABRIELA                                       27182424760                                                                                                                                                                          E:infprodu@gmail.com                                                                                                                                  0007200000000000000000000000000000000156CAARS0720156788000037799322                                              ARS59900200001448646TEST                                                                                                                                                                                     NN               000
PR0040000000000002252000000003000000ARS2020082427237165654       FARIAS PATRICIA RITA                                        27237165654                                                                                                                                                                          E:infprodu@gmail.com                                                                                                                                  0033000000000000000000000000000000000003CAARS3300003720030767720093                                              ARS59900200001448646TEST                                                                                                                                                                                     NN               000
PR0040000000000002253000000002000000ARS2020082420292881305       FERNANDEZ SERGIO ADRIAN                                     20292881305                                                                                                                                                                          E:infprodu@gmail.com                                                                                                                                  0001100000000000000000000000000000000650CAARS0110650930065001972401                                              ARS59900200001448646TEST                                                                                                                                                                                     NN               000
PR0040000000000002254000000002000000ARS2020082420175159771       FERNANDEZ SERGIO HUMBERTO                                   20175159771                                                                                                                                                                          E:infprodu@gmail.com                                                                                                                                  0033000000000000000000000000000000000504CAARS3300504925040283541109                                              ARS59900200001448646TEST                                                                                                                                                                                     NN               000
PR0040000000000002255000000002000000ARS2020082427313414847       FERNANDEZ VIRGINIA                                          27313414847                                                                                                                                                                          E:infprodu@gmail.com                                                                                                                                  0014300000000000000000000000000000000001CAARS1430001713005601910011                                              ARS59900200001448646TEST                                                                                                                                                                                     NN               000
PR0040000000000002256000000002000000ARS2020082420163287839       FLORES AMARO EDUARDO                                        20163287839                                                                                                                                                                          E:infprodu@gmail.com                                                                                                                                  0001100000000000000000000000000000000428CAARS0110428230042816400783                                              ARS59900200001448646TEST                                                                                                                                                                                     NN               000
PR0040000000000002257000000003000000ARS2020082427179434704       FONTANA MARIEL LUJAN                                        27179434704                                                                                                                                                                          E:infprodu@gmail.com                                                                                                                                  0003400000000000000000000000000000000379CAARS0340379008076788911003                                              ARS59900200001448646TEST                                                                                                                                                                                     NN               000
PR0040000000000002258000000002000000ARS2020082420290070962       FORT ALBERTO DANIEL                                         20290070962                                                                                                                                                                          E:infprodu@gmail.com                                                                                                                                  0000700000000000000000000000000000000103CAARS0070103330004162135117                                              ARS59900200001448646TEST                                                                                                                                                                                     NN               000
PR0040000000000002259000000005000000ARS2020082420263895976       FRASINELLI FERNANDO JORGE                                   20263895976                                                                                                                                                                          E:infprodu@gmail.com                                                                                                                                  0001500000000000000000000000000000000966CAARS0150966702000000732307                                              ARS59900200001448646TEST                                                                                                                                                                                     NN               000
PR0040000000000002260000000002000000ARS2020082420278588794       FUNES CRISTIAN MARTIN                                       20278588794                                                                                                                                                                          E:infprodu@gmail.com                                                                                                                                  0000000000000000000000000000000000000003CAARS0000003100074309964402                                              ARS59900200001448646TEST                                                                                                                                                                                     NN               000
PR0040000000000002261000000002000000ARS2020082420326772470       GAITAN EZEQUIEL MATIAS                                      20326772470                                                                                                                                                                          E:infprodu@gmail.com                                                                                                                                  0000700000000000000000000000000000000103CAARS0070103330004178026379                                              ARS59900200001448646TEST                                                                                                                                                                                     NN               000
PR0040000000000002262000000003000000ARS2020082420175145177       GAMBOA MARCELO                                              20175145177                                                                                                                                                                          E:infprodu@gmail.com                                                                                                                                  0004400000000000000000000000000000000051CAARS0440051640000131836622                                              ARS59900200001448646TEST                                                                                                                                                                                     NN               000
PR0040000000000002263000000005000000ARS2020082420173100346       GARCIA EDGARDO FABIAN                                       20173100346                                                                                                                                                                          E:infprodu@gmail.com                                                                                                                                  0001500000000000000000000000000000000966CAARS0150966701000003161233                                              ARS59900200001448646TEST                                                                                                                                                                                     NN               000
PR0040000000000002264000000003000000ARS2020082420214230187       GARCIA TROIANO JORGE                                        20214230187                                                                                                                                                                          E:infprodu@gmail.com                                                                                                                                  0028500000000000000000000000000000000375CAARS2850375030094071389631                                              ARS59900200001448646TEST                                                                                                                                                                                     NN               000
PR0040000000000002265000000002000000ARS2020082420259005699       GHELFI LEANDRO LUIS                                         20259005699                                                                                                                                                                          E:infprodu@gmail.com                                                                                                                                  0028500000000000000000000000000000000341CAARS2850341540095218205758                                              ARS59900200001448646TEST                                                                                                                                                                                     NN               000
PR0040000000000002266000000002000000ARS2020082427239738430       GIORGI LORENA GABRIELA                                      27239738430                                                                                                                                                                          E:infprodu@gmail.com                                                                                                                                  0019100000000000000000000000000000000285CAARS1910285455028500510500                                              ARS59900200001448646TEST                                                                                                                                                                                     NN               000
PR0040000000000002267000000003000000ARS2020082427332995222       GOMEZ LAURA MELINA                                          27332995222                                                                                                                                                                          E:infprodu@gmail.com                                                                                                                                  0033000000000000000000000000000000000006CAARS3300006810060084645095                                              ARS59900200001448646TEST                                                                                                                                                                                     NN               000
PR0040000000000002268000000003000000ARS2020082427310652542       GOMEZ CARLA NOELIA                                          27310652542                                                                                                                                                                          E:infprodu@gmail.com                                                                                                                                  0033000000000000000000000000000000000541CAARS3300541425410052990005                                              ARS59900200001448646TEST                                                                                                                                                                                     NN               000
PR0040000000000002269000000002000000ARS2020082420357327130       GONZALEZ FEDERICO                                           20357327130                                                                                                                                                                          E:infprodu@gmail.com                                                                                                                                  0028500000000000000000000000000000000341CAARS285034154009484787818                                               ARS59900200001448646TEST                                                                                                                                                                                     NN               000
PR0040000000000002270000000002000000ARS2020082420299260632       GRASSO MARTIN                                               20299260632                                                                                                                                                                          E:infprodu@gmail.com                                                                                                                                  0000700000000000000000000000000000000146CAARS0070146030004015215335                                              ARS59900200001448646TEST                                                                                                                                                                                     NN               000
PR0040000000000002271000000003000000ARS2020082427260995273       GUIBERT VERONICA                                            27260995273                                                                                                                                                                          E:infprodu@gmail.com                                                                                                                                  0001100000000000000000000000000000000470CAARS0110470130047071711283                                              ARS59900200001448646TEST                                                                                                                                                                                     NN               000
PR0040000000000002272000000002000000ARS2020082427247194563       ISLAN MARIELA SOLEDAD                                       27247194563                                                                                                                                                                          E:infprodu@gmail.com                                                                                                                                  0007200000000000000000000000000000000379CAARS0720379288000035834368                                              ARS59900200001448646TEST                                                                                                                                                                                     NN               000
PR0040000000000002273000000003000000ARS2020082420280738329       JANKOWICZ FEDERICO                                          20280738329                                                                                                                                                                          E:infprodu@gmail.com                                                                                                                                  0001100000000000000000000000000000000491CAARS0110491630049186498529                                              ARS59900200001448646TEST                                                                                                                                                                                     NN               000
PR0040000000000002274000000005000000ARS2020082430716346931       KARIBU SRL KARIBU SRL                                       30716346931                                                                                                                                                                          E:infprodu@gmail.com                                                                                                                                  0006500000000000000000000000000000000020CAARS0650020701000001130475                                              ARS59900200001448646TEST                                                                                                                                                                                     NN               000
PR0040000000000002275000000002000000ARS2020082420141990404       LAY CARLOS                                                  20141990404                                                                                                                                                                          E:infprodu@gmail.com                                                                                                                                  0001100000000000000000000000000000000477CAARS0110477030047715109883                                              ARS59900200001448646TEST                                                                                                                                                                                     NN               000
PR0040000000000002276000000002000000ARS2020082427123816043       LECRUIT MONICA GLORIA                                       27123816043                                                                                                                                                                          E:infprodu@gmail.com                                                                                                                                  0028500000000000000000000000000000000339CAARS2850339240095286314558                                              ARS59900200001448646TEST                                                                                                                                                                                     NN               000
PR0040000000000002277000000005000000ARS2020082430716288923       LOMBARDI NICOLAS Y ALTAMIRANO JOSE LOMBARDI NICOLAS FEDERICO30716288923                                                                                                                                                                          E:infprodu@gmail.com                                                                                                                                  0028500000000000000000000000000000000371CAARS2850371230094177853951                                              ARS59900200001448646TEST                                                                                                                                                                                     NN               000
PR0040000000000002278000000003000000ARS2020082427230499913       LOPEZ ANA MARIA                                             27230499913                                                                                                                                                                          E:infprodu@gmail.com                                                                                                                                  0033000000000000000000000000000000000000CAARS3300000620000024656056                                              ARS59900200001448646TEST                                                                                                                                                                                     NN               000
PR0040000000000002279000000002000000ARS2020082427237385247       LOPEZ SILVINA BEATRIZ                                       27237385247                                                                                                                                                                          E:infprodu@gmail.com                                                                                                                                  0001500000000000000000000000000000000544CAARS0150544301000137202516                                              ARS59900200001448646TEST                                                                                                                                                                                     NN               000
PR0040000000000002280000000002000000ARS2020082427251161009       MENDOZA NORA ANALIA                                         27251161009                                                                                                                                                                          E:infprodu@gmail.com                                                                                                                                  0001100000000000000000000000000000000501CAARS0110501830050175796115                                              ARS59900200001448646TEST                                                                                                                                                                                     NN               000
PR0040000000000002281000000002000000ARS2020082423140550574       MITSIS ELENA                                                23140550574                                                                                                                                                                          E:infprodu@gmail.com                                                                                                                                  0007200000000000000000000000000000000237CAARS0720237988000038456068                                              ARS59900200001448646TEST                                                                                                                                                                                     NN               000
PR0040000000000002282000000002000000ARS2020082420286843973       MONTEODORISIO JORGE                                         20286843973                                                                                                                                                                          E:infprodu@gmail.com                                                                                                                                  0033000000000000000000000000000000000504CAARS3300504925040988608044                                              ARS59900200001448646TEST                                                                                                                                                                                     NN               000
PR0040000000000002283000000005000000ARS2020082420171064741       MORALES GUSTAVO MARCELO                                     20171064741                                                                                                                                                                          E:infprodu@gmail.com                                                                                                                                  0007200000000000000000000000000000000718CAARS0720718388000035050386                                              ARS59900200001448646TEST                                                                                                                                                                                     NN               000
PR0040000000000002284000000002000000ARS2020082420346903172       MUNOZ IMANOL GABRIEL                                        20346903172                                                                                                                                                                          E:infprodu@gmail.com                                                                                                                                  0033000000000000000000000000000000000000CAARS3300000620000990563086                                              ARS59900200001448646TEST                                                                                                                                                                                     NN               000
PR0040000000000002285000000005000000ARS2020082420312727065       NEPOTE JUAN IGNACIO                                         20312727065                                                                                                                                                                          E:infprodu@gmail.com                                                                                                                                  0007200000000000000000000000000000000273CAARS0720273788000000648790                                              ARS59900200001448646TEST                                                                                                                                                                                     NN               000
PR0040000000000002286000000004000000ARS2020082427201479644       NUNEZ CRISTIAN RAMON                                        27201479644                                                                                                                                                                          E:infprodu@gmail.com                                                                                                                                  0001700000000000000000000000000000000210CAARS0170210340000007799341                                              ARS59900200001448646TEST                                                                                                                                                                                     NN               000
PR0040000000000002287000000002000000ARS2020082427326212836       OBREGON GRISELDA NOEMI                                      27326212836                                                                                                                                                                          E:infprodu@gmail.com                                                                                                                                  0033000000000000000000000000000000000545CAARS3300545225450083336016                                              ARS59900200001448646TEST                                                                                                                                                                                     NN               000
PR0040000000000002288000000002000000ARS2020082420316711627       ORTEGA JESUS                                                20316711627                                                                                                                                                                          E:infprodu@gmail.com                                                                                                                                  0000700000000000000000000000000000000380CAARS0070380030004002196216                                              ARS59900200001448646TEST                                                                                                                                                                                     NN               000
PR0040000000000002289000000003000000ARS2020082427329592338       PALLERO JESICA BELEN                                        27329592338                                                                                                                                                                          E:infprodu@gmail.com                                                                                                                                  0033000000000000000000000000000000000501CAARS3300501825010114688033                                              ARS59900200001448646TEST                                                                                                                                                                                     NN               000
PR0040000000000002290000000002000000ARS2020082420046202369       PONFERRANDA DANIEL ETEBAN                                   20046202369                                                                                                                                                                          E:infprodu@gmail.com                                                                                                                                  0028500000000000000000000000000000000364CAARS2850364440095287012048                                              ARS59900200001448646TEST                                                                                                                                                                                     NN               000
PR0040000000000002291000000002000000ARS2020082427238072897       QUINONES PAULA INES                                         27238072897                                                                                                                                                                          E:infprodu@gmail.com                                                                                                                                  0000700000000000000000000000000000000034CAARS0070034430004020338614                                              ARS59900200001448646TEST                                                                                                                                                                                     NN               000
PR0040000000000002292000000002000000ARS2020082423292916779       RAPONI JUAN PABLO                                           23292916779                                                                                                                                                                          E:infprodu@gmail.com                                                                                                                                  0001700000000000000000000000000000000237CAARS0170237040000005787810                                              ARS59900200001448646TEST                                                                                                                                                                                     NN               000
PR0040000000000002293000000005000000ARS2020082430714383236       RIVAROLA  CAROLINA   DURI  MARIA LAURA S H  RIVAROLA CAROLIN30714383236                                                                                                                                                                          E:infprodu@gmail.com                                                                                                                                  0033000000000000000000000000000000000000CAARS3300000620000291276032                                              ARS59900200001448646TEST                                                                                                                                                                                     NN               000
PR0040000000000002294000000002000000ARS2020082427310987935       RODRIGUEZ BRENDA                                            27310987935                                                                                                                                                                          E:infprodu@gmail.com                                                                                                                                  0001500000000000000000000000000000000544CAARS0150544311000110268044                                              ARS59900200001448646TEST                                                                                                                                                                                     NN               000
PR0040000000000002295000000005000000ARS2020082430711793980       SACHI LAURA                                                 30711793980                                                                                                                                                                          E:infprodu@gmail.com                                                                                                                                  0033000000000000000000000000000000000028CAARS3300028020280163731058                                              ARS59900200001448646TEST                                                                                                                                                                                     NN               000
PR0040000000000002296000000002000000ARS2020082420303899066       SARMIENTO EMILIANO                                          20303899066                                                                                                                                                                          E:infprodu@gmail.com                                                                                                                                  0007200000000000000000000000000000000156CAARS0720156788000038716454                                              ARS59900200001448646TEST                                                                                                                                                                                     NN               000
PR0040000000000002297000000005000000ARS2020082427220707887       SARTORI GABRIELA MARIA SUSANA                               27220707887                                                                                                                                                                          E:infprodu@gmail.com                                                                                                                                  0033000000000000000000000000000000000500CAARS3300500125000194967027                                              ARS59900200001448646TEST                                                                                                                                                                                     NN               000
PR0040000000000002298000000003000000ARS2020082423109864994       SILVA MARIA CECILIA                                         23109864994                                                                                                                                                                          E:infprodu@gmail.com                                                                                                                                  0002700000000000000000000000000000000264CAARS0270264520025214310024                                              ARS59900200001448646TEST                                                                                                                                                                                     NN               000
PR0040000000000002299000000002000000ARS2020082420338732393       TALARICO EXEQUIEL ANDRES                                    20338732393                                                                                                                                                                          E:infprodu@gmail.com                                                                                                                                  0033000000000000000000000000000000000548CAARS3300548325480221852014                                              ARS59900200001448646TEST                                                                                                                                                                                     NN               000
PR0040000000000002300000000005000000ARS2020082430715768824       TLK ROSARIO FITNESS SRL MATACIN IVAN                        30715768824                                                                                                                                                                          E:infprodu@gmail.com                                                                                                                                  0028500000000000000000000000000000000791CAARS2850791230094164933611                                              ARS59900200001448646TEST                                                                                                                                                                                     NN               000
PR0040000000000002301000000003000000ARS2020082423924015179       TRAVAGLIA MIGUENS SEBSATIAN PAULO                           23924015179                                                                                                                                                                          E:infprodu@gmail.com                                                                                                                                  0006500000000000000000000000000000000085CAARS0650085602000039393322                                              ARS59900200001448646TEST                                                                                                                                                                                     NN               000
PR0040000000000002302000000002000000ARS2020082420297015266       UGALDEA MAURICIO                                            20297015266                                                                                                                                                                          E:infprodu@gmail.com                                                                                                                                  0019100000000000000000000000000000000285CAARS1910285455128500442321                                              ARS59900200001448646TEST                                                                                                                                                                                     NN               000
PR0040000000000002303000000005000000ARS2020082423225196524       VERCELLI GABRIELA VIVIANA                                   23225196524                                                                                                                                                                          E:infprodu@gmail.com                                                                                                                                  0001100000000000000000000000000000000571CAARS0110571130057171711979                                              ARS59900200001448646TEST                                                                                                                                                                                     NN               000
PR0040000000000002304000000002000000ARS2020082423166752469       VILLARROYA DAVID                                            23166752469                                                                                                                                                                          E:infprodu@gmail.com                                                                                                                                  0033000000000000000000000000000000000560CAARS3300560515600032215014                                              ARS59900200001448646TEST                                                                                                                                                                                     NN               000
PR0040000000000002305000000002000000ARS2020082427295525326       ZABALA CLAUDIA MARCELA                                      27295525326                                                                                                                                                                          E:infprodu@gmail.com                                                                                                                                  0007200000000000000000000000000000000447CAARS0720447488000035775368                                              ARS59900200001448646TEST                                                                                                                                                                                     NN               000
PR0040000000000002306000000003000000ARS2020082420337122788       ZANCHETTA EMANUEL SERGIO                                    20337122788                                                                                                                                                                          E:infprodu@gmail.com                                                                                                                                  0015000000000000000000000000000000000021CAARS1500021300007162644578                                              ARS59900200001448646TEST                                                                                                                                                                                     NN               000
PR0040000000000002307000000002000000ARS2020082427268203414       ZILLI DANIELA ALEJANDRA                                     27268203414                                                                                                                                                                          E:infprodu@gmail.com                                                                                                                                  0033000000000000000000000000000000000031CAARS3300031020310160496013                                              ARS59900200001448646TEST                                                                                                                                                                                     NN               000
FT00000000000000002410000000000000088                                                                                                                                                                                                                                                                                                                                                                                                                                                                                                                                                                                                                                                                                                                                                                                     
