FH202008181352120010061170ORDENDEPAGO20200819                                                                                                                                                                                                                                                                                                                                                                                                                                                                                                                                                                                                                                                                                                                                                                             
PR0040000000000004000000000002000000ARS2020081920240509262       ACHINELLI GERARDO JAVIER                                    20240509262                                                                                                                                                                          E:infprodu@gmail.com                                                                                                                                  0019100000000000000000000000000000000340CAARS1910340655134002616717                                              ARS59900200001448646ASISTENCIA ECONOMICA DE EMERGENCIA A COMERCIOS                                                                                                                                           NN               000
PR0040000000000004001000000003000000ARS2020081927101883200       AGUIRRE GRACIELA LILIANA                                    27101883200                                                                                                                                                                          E:infprodu@gmail.com                                                                                                                                  0000700000000000000000000000000000000220CAARS0070220330004043106034                                              ARS59900200001448646ASISTENCIA ECONOMICA DE EMERGENCIA A COMERCIOS                                                                                                                                           NN               000
PR0040000000000004002000000002000000ARS2020081927373315740       AIRALDI ANTONELA                                            27373315740                                                                                                                                                                          E:infprodu@gmail.com                                                                                                                                  0001100000000000000000000000000000000264CAARS0110264430026446753479                                              ARS59900200001448646ASISTENCIA ECONOMICA DE EMERGENCIA A COMERCIOS                                                                                                                                           NN               000
PR0040000000000004003000000002000000ARS2020081923318047014       ARACNE VERONICA                                             23318047014                                                                                                                                                                          E:infprodu@gmail.com                                                                                                                                  0019100000000000000000000000000000000343CAARS1910343755134301005753                                              ARS59900200001448646ASISTENCIA ECONOMICA DE EMERGENCIA A COMERCIOS                                                                                                                                           NN               000
PR0040000000000004004000000002000000ARS2020081927283888180       ARDOLI JESICA                                               27283888180                                                                                                                                                                          E:infprodu@gmail.com                                                                                                                                  0006500000000000000000000000000000000045CAARS0650045002000004040057                                              ARS59900200001448646ASISTENCIA ECONOMICA DE EMERGENCIA A COMERCIOS                                                                                                                                           NN               000
PR0040000000000004005000000002000000ARS2020081927403127367       ARGUTTI MAGALI BELEN                                        27403127367                                                                                                                                                                          E:infprodu@gmail.com                                                                                                                                  0001100000000000000000000000000000000121CAARS0110121430012162982251                                              ARS59900200001448646ASISTENCIA ECONOMICA DE EMERGENCIA A COMERCIOS                                                                                                                                           NN               000
PR0040000000000004006000000002000000ARS2020081927286724243       BARTOLOME SABINA SOLEDAD                                    27286724243                                                                                                                                                                          E:infprodu@gmail.com                                                                                                                                  0028500000000000000000000000000000000732CAARS2850732540094743842238                                              ARS59900200001448646ASISTENCIA ECONOMICA DE EMERGENCIA A COMERCIOS                                                                                                                                           NN               000
PR0040000000000004007000000003000000ARS2020081920217128952       BECERRA PABLO                                               20217128952                                                                                                                                                                          E:infprodu@gmail.com                                                                                                                                  0033000000000000000000000000000000000517CAARS3300517925170010888075                                              ARS59900200001448646ASISTENCIA ECONOMICA DE EMERGENCIA A COMERCIOS                                                                                                                                           NN               000
PR0040000000000004008000000002000000ARS2020081927125254328       BENITEZ HERMINIA LUCIA                                      27125254328                                                                                                                                                                          E:infprodu@gmail.com                                                                                                                                  0033000000000000000000000000000000000001CAARS3300001320010245316095                                              ARS59900200001448646ASISTENCIA ECONOMICA DE EMERGENCIA A COMERCIOS                                                                                                                                           NN               000
PR0040000000000004009000000002000000ARS2020081920248594056       BERLI CESAR OMAR                                            20248594056                                                                                                                                                                          E:infprodu@gmail.com                                                                                                                                  0001100000000000000000000000000000000541CAARS0110541430054172038629                                              ARS59900200001448646ASISTENCIA ECONOMICA DE EMERGENCIA A COMERCIOS                                                                                                                                           NN               000
PR0040000000000004010000000003000000ARS2020081920375775493       BORDA MARCELO JULIAN                                        20375775493                                                                                                                                                                          E:infprodu@gmail.com                                                                                                                                  0000700000000000000000000000000000000079CAARS0070079530004065922393                                              ARS59900200001448646ASISTENCIA ECONOMICA DE EMERGENCIA A COMERCIOS                                                                                                                                           NN               000
PR0040000000000004011000000005000000ARS2020081920185470025       BORGOBELLO FABIAN MARCELO                                   20185470025                                                                                                                                                                          E:infprodu@gmail.com                                                                                                                                  0001700000000000000000000000000000000210CAARS0170210340000006593241                                              ARS59900200001448646ASISTENCIA ECONOMICA DE EMERGENCIA A COMERCIOS                                                                                                                                           NN               000
PR0040000000000004012000000003000000ARS2020081923039893924       BOVO ADRIANA ESTELA                                         23039893924                                                                                                                                                                          E:infprodu@gmail.com                                                                                                                                  0033000000000000000000000000000000000501CAARS3300501825010138394101                                              ARS59900200001448646ASISTENCIA ECONOMICA DE EMERGENCIA A COMERCIOS                                                                                                                                           NN               000
PR0040000000000004013000000005000000ARS2020081927176689663       CAPPELLETTI MARICEL VIVIANA                                 27176689663                                                                                                                                                                          E:infprodu@gmail.com                                                                                                                                  0000700000000000000000000000000000000103CAARS0070103320000035721262                                              ARS59900200001448646ASISTENCIA ECONOMICA DE EMERGENCIA A COMERCIOS                                                                                                                                           NN               000
PR0040000000000004014000000002000000ARS2020081927202991764       CARDONATTI SANDRA FABIANA                                   27202991764                                                                                                                                                                          E:infprodu@gmail.com                                                                                                                                  0001100000000000000000000000000000000170CAARS0110170230017071764365                                              ARS59900200001448646ASISTENCIA ECONOMICA DE EMERGENCIA A COMERCIOS                                                                                                                                           NN               000
PR0040000000000004015000000005000000ARS2020081920373370003       CASTRO LUCAS EMANUEL                                        20373370003                                                                                                                                                                          E:infprodu@gmail.com                                                                                                                                  0003400000000000000000000000000000000296CAARS0340296400296014883001                                              ARS59900200001448646ASISTENCIA ECONOMICA DE EMERGENCIA A COMERCIOS                                                                                                                                           NN               000
PR0040000000000004016000000002000000ARS2020081920259523835       CHANTIRI DIMAS                                              20259523835                                                                                                                                                                          E:infprodu@gmail.com                                                                                                                                  0033000000000000000000000000000000000000CAARS3300000620000368939109                                              ARS59900200001448646ASISTENCIA ECONOMICA DE EMERGENCIA A COMERCIOS                                                                                                                                           NN               000
PR0040000000000004017000000002000000ARS2020081927229019584       CICARELLI PATRICIA ANALIA                                   27229019584                                                                                                                                                                          E:infprodu@gmail.com                                                                                                                                  0028500000000000000000000000000000000366CAARS2850366840094576492758                                              ARS59900200001448646ASISTENCIA ECONOMICA DE EMERGENCIA A COMERCIOS                                                                                                                                           NN               000
PR0040000000000004018000000003000000ARS2020081920083747715       COLOME MIGUEL ANGEL                                         20083747715                                                                                                                                                                          E:infprodu@gmail.com                                                                                                                                  0007200000000000000000000000000000000332CAARS0720332788000035495468                                              ARS59900200001448646ASISTENCIA ECONOMICA DE EMERGENCIA A COMERCIOS                                                                                                                                           NN               000
PR0040000000000004019000000003000000ARS2020081920111603554       CORDOBA JORGE LUCIANO                                       20111603554                                                                                                                                                                          E:infprodu@gmail.com                                                                                                                                  0033000000000000000000000000000000000599CAARS3300599525990969220070                                              ARS59900200001448646ASISTENCIA ECONOMICA DE EMERGENCIA A COMERCIOS                                                                                                                                           NN               000
PR0040000000000004020000000002000000ARS2020081927283318333       CORDOBA NATALIA SOLEDAD                                     27283318333                                                                                                                                                                          E:infprodu@gmail.com                                                                                                                                  0033000000000000000000000000000000000554CAARS3300554425540075020015                                              ARS59900200001448646ASISTENCIA ECONOMICA DE EMERGENCIA A COMERCIOS                                                                                                                                           NN               000
PR0040000000000004021000000005000000ARS2020081920214227534       COTTONE JUAN JOSE                                           20214227534                                                                                                                                                                          E:infprodu@gmail.com                                                                                                                                  0033000000000000000000000000000000000501CAARS3300501815010002597097                                              ARS59900200001448646ASISTENCIA ECONOMICA DE EMERGENCIA A COMERCIOS                                                                                                                                           NN               000
PR0040000000000004022000000002000000ARS2020081927320599585       CRAVERO MELISA                                              27320599585                                                                                                                                                                          E:infprodu@gmail.com                                                                                                                                  0004400000000000000000000000000000000023CAARS0440023340000151134951                                              ARS59900200001448646ASISTENCIA ECONOMICA DE EMERGENCIA A COMERCIOS                                                                                                                                           NN               000
PR0040000000000004023000000002000000ARS2020081923059972979       DALMASO RAUL LORENZO                                        23059972979                                                                                                                                                                          E:infprodu@gmail.com                                                                                                                                  0001700000000000000000000000000000000201CAARS0170201140000002200109                                              ARS59900200001448646ASISTENCIA ECONOMICA DE EMERGENCIA A COMERCIOS                                                                                                                                           NN               000
PR0040000000000004024000000003000000ARS2020081920148033472       DALMASO SERGIO                                              20148033472                                                                                                                                                                          E:infprodu@gmail.com                                                                                                                                  0019100000000000000000000000000000000086CAARS1910086555008601152382                                              ARS59900200001448646ASISTENCIA ECONOMICA DE EMERGENCIA A COMERCIOS                                                                                                                                           NN               000
PR0040000000000004025000000003000000ARS2020081920109863956       DE GREGORIO CARLOS ANTONIO                                  20109863956                                                                                                                                                                          E:infprodu@gmail.com                                                                                                                                  0038600000000000000000000000000000000057CAARS3860057705000046914601                                              ARS59900200001448646ASISTENCIA ECONOMICA DE EMERGENCIA A COMERCIOS                                                                                                                                           NN               000
PR0040000000000004026000000002000000ARS2020081920327182588       DEROTIER MARIO WILFREDO                                     20327182588                                                                                                                                                                          E:infprodu@gmail.com                                                                                                                                  0033000000000000000000000000000000000500CAARS3300500125000161193002                                              ARS59900200001448646ASISTENCIA ECONOMICA DE EMERGENCIA A COMERCIOS                                                                                                                                           NN               000
PR0040000000000004027000000003000000ARS2020081927302918045       ESCALANTE CLARISA GUADALUPE                                 27302918045                                                                                                                                                                          E:infprodu@gmail.com                                                                                                                                  0033000000000000000000000000000000000518CAARS3300518615180160295103                                              ARS59900200001448646ASISTENCIA ECONOMICA DE EMERGENCIA A COMERCIOS                                                                                                                                           NN               000
PR0040000000000004028000000002000000ARS2020081927371994829       ESPINDOLA LARA                                              27371994829                                                                                                                                                                          E:infprodu@gmail.com                                                                                                                                  0001700000000000000000000000000000000253CAARS0170253040000002477842                                              ARS59900200001448646ASISTENCIA ECONOMICA DE EMERGENCIA A COMERCIOS                                                                                                                                           NN               000
PR0040000000000004029000000002000000ARS2020081927182424760       FALCO ROSANA GABRIELA                                       27182424760                                                                                                                                                                          E:infprodu@gmail.com                                                                                                                                  0007200000000000000000000000000000000156CAARS0720156788000037799322                                              ARS59900200001448646ASISTENCIA ECONOMICA DE EMERGENCIA A COMERCIOS                                                                                                                                           NN               000
PR0040000000000004030000000003000000ARS2020081927237165654       FARIAS PATRICIA RITA                                        27237165654                                                                                                                                                                          E:infprodu@gmail.com                                                                                                                                  0033000000000000000000000000000000000003CAARS3300003720030767720093                                              ARS59900200001448646ASISTENCIA ECONOMICA DE EMERGENCIA A COMERCIOS                                                                                                                                           NN               000
PR0040000000000004031000000002000000ARS2020081920292881305       FERNANDEZ SERGIO ADRIAN                                     20292881305                                                                                                                                                                          E:infprodu@gmail.com                                                                                                                                  0001100000000000000000000000000000000650CAARS0110650930065001972401                                              ARS59900200001448646ASISTENCIA ECONOMICA DE EMERGENCIA A COMERCIOS                                                                                                                                           NN               000
PR0040000000000004032000000002000000ARS2020081920175159771       FERNANDEZ SERGIO HUMBERTO                                   20175159771                                                                                                                                                                          E:infprodu@gmail.com                                                                                                                                  0033000000000000000000000000000000000504CAARS3300504925040283541109                                              ARS59900200001448646ASISTENCIA ECONOMICA DE EMERGENCIA A COMERCIOS                                                                                                                                           NN               000
PR0040000000000004033000000002000000ARS2020081927313414847       FERNANDEZ VIRGINIA                                          27313414847                                                                                                                                                                          E:infprodu@gmail.com                                                                                                                                  0014300000000000000000000000000000000001CAARS1430001713005601910011                                              ARS59900200001448646ASISTENCIA ECONOMICA DE EMERGENCIA A COMERCIOS                                                                                                                                           NN               000
PR0040000000000004034000000002000000ARS2020081920163287839       FLORES AMARO EDUARDO                                        20163287839                                                                                                                                                                          E:infprodu@gmail.com                                                                                                                                  0001100000000000000000000000000000000428CAARS0110428230042816400783                                              ARS59900200001448646ASISTENCIA ECONOMICA DE EMERGENCIA A COMERCIOS                                                                                                                                           NN               000
PR0040000000000004035000000003000000ARS2020081927179434704       FONTANA MARIEL LUJAN                                        27179434704                                                                                                                                                                          E:infprodu@gmail.com                                                                                                                                  0003400000000000000000000000000000000379CAARS0340379008076788911003                                              ARS59900200001448646ASISTENCIA ECONOMICA DE EMERGENCIA A COMERCIOS                                                                                                                                           NN               000
PR0040000000000004036000000002000000ARS2020081920290070962       FORT ALBERTO DANIEL                                         20290070962                                                                                                                                                                          E:infprodu@gmail.com                                                                                                                                  0000700000000000000000000000000000000103CAARS0070103330004162135117                                              ARS59900200001448646ASISTENCIA ECONOMICA DE EMERGENCIA A COMERCIOS                                                                                                                                           NN               000
PR0040000000000004037000000005000000ARS2020081920263895976       FRASINELLI FERNANDO JORGE                                   20263895976                                                                                                                                                                          E:infprodu@gmail.com                                                                                                                                  0001500000000000000000000000000000000966CAARS0150966702000000732307                                              ARS59900200001448646ASISTENCIA ECONOMICA DE EMERGENCIA A COMERCIOS                                                                                                                                           NN               000
PR0040000000000004038000000002000000ARS2020081920278588794       FUNES CRISTIAN MARTIN                                       20278588794                                                                                                                                                                          E:infprodu@gmail.com                                                                                                                                  0000000000000000000000000000000000000003CAARS0000003100074309964402                                              ARS59900200001448646ASISTENCIA ECONOMICA DE EMERGENCIA A COMERCIOS                                                                                                                                           NN               000
PR0040000000000004039000000002000000ARS2020081920326772470       GAITAN EZEQUIEL MATIAS                                      20326772470                                                                                                                                                                          E:infprodu@gmail.com                                                                                                                                  0000700000000000000000000000000000000103CAARS0070103330004178026379                                              ARS59900200001448646ASISTENCIA ECONOMICA DE EMERGENCIA A COMERCIOS                                                                                                                                           NN               000
PR0040000000000004040000000003000000ARS2020081920175145177       GAMBOA MARCELO                                              20175145177                                                                                                                                                                          E:infprodu@gmail.com                                                                                                                                  0004400000000000000000000000000000000051CAARS0440051640000131836622                                              ARS59900200001448646ASISTENCIA ECONOMICA DE EMERGENCIA A COMERCIOS                                                                                                                                           NN               000
PR0040000000000004041000000005000000ARS2020081920173100346       GARCIA EDGARDO FABIAN                                       20173100346                                                                                                                                                                          E:infprodu@gmail.com                                                                                                                                  0001500000000000000000000000000000000966CAARS0150966701000003161233                                              ARS59900200001448646ASISTENCIA ECONOMICA DE EMERGENCIA A COMERCIOS                                                                                                                                           NN               000
PR0040000000000004042000000003000000ARS2020081920214230187       GARCIA TROIANO JORGE                                        20214230187                                                                                                                                                                          E:infprodu@gmail.com                                                                                                                                  0028500000000000000000000000000000000375CAARS2850375030094071389631                                              ARS59900200001448646ASISTENCIA ECONOMICA DE EMERGENCIA A COMERCIOS                                                                                                                                           NN               000
PR0040000000000004043000000002000000ARS2020081920259005699       GHELFI LEANDRO LUIS                                         20259005699                                                                                                                                                                          E:infprodu@gmail.com                                                                                                                                  0028500000000000000000000000000000000341CAARS2850341540095218205758                                              ARS59900200001448646ASISTENCIA ECONOMICA DE EMERGENCIA A COMERCIOS                                                                                                                                           NN               000
PR0040000000000004044000000002000000ARS2020081927239738430       GIORGI LORENA GABRIELA                                      27239738430                                                                                                                                                                          E:infprodu@gmail.com                                                                                                                                  0019100000000000000000000000000000000285CAARS1910285455028500510500                                              ARS59900200001448646ASISTENCIA ECONOMICA DE EMERGENCIA A COMERCIOS                                                                                                                                           NN               000
PR0040000000000004045000000003000000ARS2020081927332995222       GOMEZ LAURA MELINA                                          27332995222                                                                                                                                                                          E:infprodu@gmail.com                                                                                                                                  0033000000000000000000000000000000000006CAARS3300006810060084645095                                              ARS59900200001448646ASISTENCIA ECONOMICA DE EMERGENCIA A COMERCIOS                                                                                                                                           NN               000
PR0040000000000004046000000003000000ARS2020081927310652542       GOMEZ CARLA NOELIA                                          27310652542                                                                                                                                                                          E:infprodu@gmail.com                                                                                                                                  0033000000000000000000000000000000000541CAARS3300541425410052990005                                              ARS59900200001448646ASISTENCIA ECONOMICA DE EMERGENCIA A COMERCIOS                                                                                                                                           NN               000
PR0040000000000004047000000002000000ARS2020081920357327130       GONZALEZ FEDERICO                                           20357327130                                                                                                                                                                          E:infprodu@gmail.com                                                                                                                                  0028500000000000000000000000000000000341CAARS285034154009484787818                                               ARS59900200001448646ASISTENCIA ECONOMICA DE EMERGENCIA A COMERCIOS                                                                                                                                           NN               000
PR0040000000000004048000000002000000ARS2020081920299260632       GRASSO MARTIN                                               20299260632                                                                                                                                                                          E:infprodu@gmail.com                                                                                                                                  0000700000000000000000000000000000000146CAARS0070146030004015215335                                              ARS59900200001448646ASISTENCIA ECONOMICA DE EMERGENCIA A COMERCIOS                                                                                                                                           NN               000
PR0040000000000004049000000003000000ARS2020081927260995273       GUIBERT VERONICA                                            27260995273                                                                                                                                                                          E:infprodu@gmail.com                                                                                                                                  0001100000000000000000000000000000000470CAARS0110470130047071711283                                              ARS59900200001448646ASISTENCIA ECONOMICA DE EMERGENCIA A COMERCIOS                                                                                                                                           NN               000
PR0040000000000004050000000002000000ARS2020081927247194563       ISLAN MARIELA SOLEDAD                                       27247194563                                                                                                                                                                          E:infprodu@gmail.com                                                                                                                                  0007200000000000000000000000000000000379CAARS0720379288000035834368                                              ARS59900200001448646ASISTENCIA ECONOMICA DE EMERGENCIA A COMERCIOS                                                                                                                                           NN               000
PR0040000000000004051000000003000000ARS2020081920280738329       JANKOWICZ FEDERICO                                          20280738329                                                                                                                                                                          E:infprodu@gmail.com                                                                                                                                  0001100000000000000000000000000000000491CAARS0110491630049186498529                                              ARS59900200001448646ASISTENCIA ECONOMICA DE EMERGENCIA A COMERCIOS                                                                                                                                           NN               000
PR0040000000000004052000000005000000ARS2020081930716346931       KARIBU SRL KARIBU SRL                                       30716346931                                                                                                                                                                          E:infprodu@gmail.com                                                                                                                                  0006500000000000000000000000000000000020CAARS0650020701000001130475                                              ARS59900200001448646ASISTENCIA ECONOMICA DE EMERGENCIA A COMERCIOS                                                                                                                                           NN               000
PR0040000000000004053000000002000000ARS2020081920141990404       LAY CARLOS                                                  20141990404                                                                                                                                                                          E:infprodu@gmail.com                                                                                                                                  0001100000000000000000000000000000000477CAARS0110477030047715109883                                              ARS59900200001448646ASISTENCIA ECONOMICA DE EMERGENCIA A COMERCIOS                                                                                                                                           NN               000
PR0040000000000004054000000002000000ARS2020081927123816043       LECRUIT MONICA GLORIA                                       27123816043                                                                                                                                                                          E:infprodu@gmail.com                                                                                                                                  0028500000000000000000000000000000000339CAARS2850339240095286314558                                              ARS59900200001448646ASISTENCIA ECONOMICA DE EMERGENCIA A COMERCIOS                                                                                                                                           NN               000
PR0040000000000004055000000005000000ARS2020081930716288923       LOMBARDI NICOLAS Y ALTAMIRANO JOSE LOMBARDI NICOLAS FEDERICO30716288923                                                                                                                                                                          E:infprodu@gmail.com                                                                                                                                  0028500000000000000000000000000000000371CAARS2850371230094177853951                                              ARS59900200001448646ASISTENCIA ECONOMICA DE EMERGENCIA A COMERCIOS                                                                                                                                           NN               000
PR0040000000000004056000000003000000ARS2020081927230499913       LOPEZ ANA MARIA                                             27230499913                                                                                                                                                                          E:infprodu@gmail.com                                                                                                                                  0033000000000000000000000000000000000000CAARS3300000620000024656056                                              ARS59900200001448646ASISTENCIA ECONOMICA DE EMERGENCIA A COMERCIOS                                                                                                                                           NN               000
PR0040000000000004057000000002000000ARS2020081927237385247       LOPEZ SILVINA BEATRIZ                                       27237385247                                                                                                                                                                          E:infprodu@gmail.com                                                                                                                                  0001500000000000000000000000000000000544CAARS0150544301000137202516                                              ARS59900200001448646ASISTENCIA ECONOMICA DE EMERGENCIA A COMERCIOS                                                                                                                                           NN               000
PR0040000000000004058000000002000000ARS2020081927251161009       MENDOZA NORA ANALIA                                         27251161009                                                                                                                                                                          E:infprodu@gmail.com                                                                                                                                  0001100000000000000000000000000000000501CAARS0110501830050175796115                                              ARS59900200001448646ASISTENCIA ECONOMICA DE EMERGENCIA A COMERCIOS                                                                                                                                           NN               000
PR0040000000000004059000000002000000ARS2020081923140550574       MITSIS ELENA                                                23140550574                                                                                                                                                                          E:infprodu@gmail.com                                                                                                                                  0007200000000000000000000000000000000237CAARS0720237988000038456068                                              ARS59900200001448646ASISTENCIA ECONOMICA DE EMERGENCIA A COMERCIOS                                                                                                                                           NN               000
PR0040000000000004060000000002000000ARS2020081920286843973       MONTEODORISIO JORGE                                         20286843973                                                                                                                                                                          E:infprodu@gmail.com                                                                                                                                  0033000000000000000000000000000000000504CAARS3300504925040988608044                                              ARS59900200001448646ASISTENCIA ECONOMICA DE EMERGENCIA A COMERCIOS                                                                                                                                           NN               000
PR0040000000000004061000000005000000ARS2020081920171064741       MORALES GUSTAVO MARCELO                                     20171064741                                                                                                                                                                          E:infprodu@gmail.com                                                                                                                                  0007200000000000000000000000000000000718CAARS0720718388000035050386                                              ARS59900200001448646ASISTENCIA ECONOMICA DE EMERGENCIA A COMERCIOS                                                                                                                                           NN               000
PR0040000000000004062000000002000000ARS2020081920346903172       MUNOZ IMANOL GABRIEL                                        20346903172                                                                                                                                                                          E:infprodu@gmail.com                                                                                                                                  0033000000000000000000000000000000000000CAARS3300000620000990563086                                              ARS59900200001448646ASISTENCIA ECONOMICA DE EMERGENCIA A COMERCIOS                                                                                                                                           NN               000
PR0040000000000004063000000005000000ARS2020081920312727065       NEPOTE JUAN IGNACIO                                         20312727065                                                                                                                                                                          E:infprodu@gmail.com                                                                                                                                  0007200000000000000000000000000000000273CAARS0720273788000000648790                                              ARS59900200001448646ASISTENCIA ECONOMICA DE EMERGENCIA A COMERCIOS                                                                                                                                           NN               000
PR0040000000000004064000000004000000ARS2020081927201479644       NUNEZ CRISTIAN RAMON                                        27201479644                                                                                                                                                                          E:infprodu@gmail.com                                                                                                                                  0001700000000000000000000000000000000210CAARS0170210340000007799341                                              ARS59900200001448646ASISTENCIA ECONOMICA DE EMERGENCIA A COMERCIOS                                                                                                                                           NN               000
PR0040000000000004065000000002000000ARS2020081927326212836       OBREGON GRISELDA NOEMI                                      27326212836                                                                                                                                                                          E:infprodu@gmail.com                                                                                                                                  0033000000000000000000000000000000000545CAARS3300545225450083336016                                              ARS59900200001448646ASISTENCIA ECONOMICA DE EMERGENCIA A COMERCIOS                                                                                                                                           NN               000
PR0040000000000004066000000002000000ARS2020081920316711627       ORTEGA JESUS                                                20316711627                                                                                                                                                                          E:infprodu@gmail.com                                                                                                                                  0000700000000000000000000000000000000380CAARS0070380030004002196216                                              ARS59900200001448646ASISTENCIA ECONOMICA DE EMERGENCIA A COMERCIOS                                                                                                                                           NN               000
PR0040000000000004067000000003000000ARS2020081927329592338       PALLERO JESICA BELEN                                        27329592338                                                                                                                                                                          E:infprodu@gmail.com                                                                                                                                  0033000000000000000000000000000000000501CAARS3300501825010114688033                                              ARS59900200001448646ASISTENCIA ECONOMICA DE EMERGENCIA A COMERCIOS                                                                                                                                           NN               000
PR0040000000000004068000000002000000ARS2020081920046202369       PONFERRANDA DANIEL ETEBAN                                   20046202369                                                                                                                                                                          E:infprodu@gmail.com                                                                                                                                  0028500000000000000000000000000000000364CAARS2850364440095287012048                                              ARS59900200001448646ASISTENCIA ECONOMICA DE EMERGENCIA A COMERCIOS                                                                                                                                           NN               000
PR0040000000000004069000000002000000ARS2020081927238072897       QUINONES PAULA INES                                         27238072897                                                                                                                                                                          E:infprodu@gmail.com                                                                                                                                  0000700000000000000000000000000000000034CAARS0070034430004020338614                                              ARS59900200001448646ASISTENCIA ECONOMICA DE EMERGENCIA A COMERCIOS                                                                                                                                           NN               000
PR0040000000000004070000000002000000ARS2020081923292916779       RAPONI JUAN PABLO                                           23292916779                                                                                                                                                                          E:infprodu@gmail.com                                                                                                                                  0001700000000000000000000000000000000237CAARS0170237040000005787810                                              ARS59900200001448646ASISTENCIA ECONOMICA DE EMERGENCIA A COMERCIOS                                                                                                                                           NN               000
PR0040000000000004071000000005000000ARS2020081930714383236       RIVAROLA  CAROLINA   DURI  MARIA LAURA S H  RIVAROLA CAROLIN30714383236                                                                                                                                                                          E:infprodu@gmail.com                                                                                                                                  0033000000000000000000000000000000000000CAARS3300000620000291276032                                              ARS59900200001448646ASISTENCIA ECONOMICA DE EMERGENCIA A COMERCIOS                                                                                                                                           NN               000
PR0040000000000004072000000002000000ARS2020081927310987935       RODRIGUEZ BRENDA                                            27310987935                                                                                                                                                                          E:infprodu@gmail.com                                                                                                                                  0001500000000000000000000000000000000544CAARS0150544311000110268044                                              ARS59900200001448646ASISTENCIA ECONOMICA DE EMERGENCIA A COMERCIOS                                                                                                                                           NN               000
PR0040000000000004073000000005000000ARS2020081930711793980       SACHI LAURA                                                 30711793980                                                                                                                                                                          E:infprodu@gmail.com                                                                                                                                  0033000000000000000000000000000000000028CAARS3300028020280163731058                                              ARS59900200001448646ASISTENCIA ECONOMICA DE EMERGENCIA A COMERCIOS                                                                                                                                           NN               000
PR0040000000000004074000000002000000ARS2020081920303899066       SARMIENTO EMILIANO                                          20303899066                                                                                                                                                                          E:infprodu@gmail.com                                                                                                                                  0007200000000000000000000000000000000156CAARS0720156788000038716454                                              ARS59900200001448646ASISTENCIA ECONOMICA DE EMERGENCIA A COMERCIOS                                                                                                                                           NN               000
PR0040000000000004075000000005000000ARS2020081927220707887       SARTORI GABRIELA MARIA SUSANA                               27220707887                                                                                                                                                                          E:infprodu@gmail.com                                                                                                                                  0033000000000000000000000000000000000500CAARS3300500125000194967027                                              ARS59900200001448646ASISTENCIA ECONOMICA DE EMERGENCIA A COMERCIOS                                                                                                                                           NN               000
PR0040000000000004076000000003000000ARS2020081923109864994       SILVA MARIA CECILIA                                         23109864994                                                                                                                                                                          E:infprodu@gmail.com                                                                                                                                  0002700000000000000000000000000000000264CAARS0270264520025214310024                                              ARS59900200001448646ASISTENCIA ECONOMICA DE EMERGENCIA A COMERCIOS                                                                                                                                           NN               000
PR0040000000000004077000000002000000ARS2020081920338732393       TALARICO EXEQUIEL ANDRES                                    20338732393                                                                                                                                                                          E:infprodu@gmail.com                                                                                                                                  0033000000000000000000000000000000000548CAARS3300548325480221852014                                              ARS59900200001448646ASISTENCIA ECONOMICA DE EMERGENCIA A COMERCIOS                                                                                                                                           NN               000
PR0040000000000004078000000005000000ARS2020081930715768824       TLK ROSARIO FITNESS SRL MATACIN IVAN                        30715768824                                                                                                                                                                          E:infprodu@gmail.com                                                                                                                                  0028500000000000000000000000000000000791CAARS2850791230094164933611                                              ARS59900200001448646ASISTENCIA ECONOMICA DE EMERGENCIA A COMERCIOS                                                                                                                                           NN               000
PR0040000000000004079000000003000000ARS2020081923924015179       TRAVAGLIA MIGUENS SEBSATIAN PAULO                           23924015179                                                                                                                                                                          E:infprodu@gmail.com                                                                                                                                  0006500000000000000000000000000000000085CAARS0650085602000039393322                                              ARS59900200001448646ASISTENCIA ECONOMICA DE EMERGENCIA A COMERCIOS                                                                                                                                           NN               000
PR0040000000000004080000000002000000ARS2020081920297015266       UGALDEA MAURICIO                                            20297015266                                                                                                                                                                          E:infprodu@gmail.com                                                                                                                                  0019100000000000000000000000000000000285CAARS1910285455128500442321                                              ARS59900200001448646ASISTENCIA ECONOMICA DE EMERGENCIA A COMERCIOS                                                                                                                                           NN               000
PR0040000000000004081000000005000000ARS2020081923225196524       VERCELLI GABRIELA VIVIANA                                   23225196524                                                                                                                                                                          E:infprodu@gmail.com                                                                                                                                  0001100000000000000000000000000000000571CAARS0110571130057171711979                                              ARS59900200001448646ASISTENCIA ECONOMICA DE EMERGENCIA A COMERCIOS                                                                                                                                           NN               000
PR0040000000000004082000000002000000ARS2020081923166752469       VILLARROYA DAVID                                            23166752469                                                                                                                                                                          E:infprodu@gmail.com                                                                                                                                  0033000000000000000000000000000000000560CAARS3300560515600032215014                                              ARS59900200001448646ASISTENCIA ECONOMICA DE EMERGENCIA A COMERCIOS                                                                                                                                           NN               000
PR0040000000000004083000000002000000ARS2020081927295525326       ZABALA CLAUDIA MARCELA                                      27295525326                                                                                                                                                                          E:infprodu@gmail.com                                                                                                                                  0007200000000000000000000000000000000447CAARS0720447488000035775368                                              ARS59900200001448646ASISTENCIA ECONOMICA DE EMERGENCIA A COMERCIOS                                                                                                                                           NN               000
PR0040000000000004084000000003000000ARS2020081920337122788       ZANCHETTA EMANUEL SERGIO                                    20337122788                                                                                                                                                                          E:infprodu@gmail.com                                                                                                                                  0015000000000000000000000000000000000021CAARS1500021300007162644578                                              ARS59900200001448646ASISTENCIA ECONOMICA DE EMERGENCIA A COMERCIOS                                                                                                                                           NN               000
PR0040000000000004085000000002000000ARS2020081927268203414       ZILLI DANIELA ALEJANDRA                                     27268203414                                                                                                                                                                          E:infprodu@gmail.com                                                                                                                                  0033000000000000000000000000000000000031CAARS3300031020310160496013                                              ARS59900200001448646ASISTENCIA ECONOMICA DE EMERGENCIA A COMERCIOS                                                                                                                                           NN               000
FT00000000000000002410000000000000088                                                                                                                                                                                                                                                                                                                                                                                                                                                                                                                                                                                                                                                                                                                                                                                     
