FH202008030938000020061170ORDENDEPAGO20200803                                                                                                                                                                                                                                                                                                                                                                                                                                                                                                                                                                                                                                                                                                                                                                             
PR0040000000000001234000000002000000ARS2020080327205819296       ACOSTA PATRICIA ISABEL                                      27205819296                                                                                                                                                                          E:estudiobyl@hotmail.com                                                                                                                              0007200000000000000000000000000000000396CAARS0720396988000035737704                                              ARS59900200001448646ASISTENCIA ECONOMICA TURISMO                                                                                                                                                             NN               001
PR0040000000000001235000000002000000ARS2020080320294498169       ALMIRON FEDERICO GABRIEL                                    20294498169                                                                                                                                                                          E:fedu20@hotmail.com                                                                                                                                  0001700000000000000000000000000000000282CAARS0170282040000032353710                                              ARS59900200001448646ASISTENCIA ECONOMICA TURISMO                                                                                                                                                             NN               001
PR0040000000000001236000000002000000ARS2020080320324302221       BARRERA GUILLERMO                                           20324302221                                                                                                                                                                          E:barreragj84@gmail.com                                                                                                                               0007200000000000000000000000000000000060CAARS0720060188000037299754                                              ARS59900200001448646ASISTENCIA ECONOMICA TURISMO                                                                                                                                                             NN               001
PR0040000000000001237000000002000000ARS2020080320170756852       BOUCHET PABLO GUSTAVO                                       20170756852                                                                                                                                                                          E:pablo_bouchet@hotmail.com                                                                                                                           0000700000000000000000000000000000000260CAARS0070260930004002965308                                              ARS59900200001448646ASISTENCIA ECONOMICA TURISMO                                                                                                                                                             NN               001
PR0040000000000001238000000002000000ARS2020080327149532604       BUSSOLOTTI ANABEL NIDIA                                     27149532604                                                                                                                                                                          E:quinteroselectromecanica@netcoop.com.ar                                                                                                             0028500000000000000000000000000000000745CAARS2850745540094595552598                                              ARS59900200001448646ASISTENCIA ECONOMICA TURISMO                                                                                                                                                             NN               001
PR0040000000000001239000000002000000ARS2020080327351284779       CACHIA VANESA GISEL                                         27351284779                                                                                                                                                                          E:vanesacachia@hotmail.com                                                                                                                            0000700000000000000000000000000000000233CAARS0070233330004013949195                                              ARS59900200001448646ASISTENCIA ECONOMICA TURISMO                                                                                                                                                             NN               001
PR0040000000000001240000000003000000ARS2020080327344922700       CALZAVARA EVELIN                                            27344922700                                                                                                                                                                          E:evelincalzavara@hotmail.com                                                                                                                         0000700000000000000000000000000000000267CAARS0070267830004023752385                                              ARS59900200001448646ASISTENCIA ECONOMICA TURISMO                                                                                                                                                             NN               001
PR0040000000000001241000000005000000ARS2020080330708723254       CHIARELLI ANA MARIA                                         30708723254                                                                                                                                                                          E:info@solaresdelalaguna.com.ar                                                                                                                       0028500000000000000000000000000000000373CAARS2850373630000060303481                                              ARS59900200001448646ASISTENCIA ECONOMICA TURISMO                                                                                                                                                             NN               001
PR0040000000000001242000000005000000ARS2020080330714344613       CHORT AGUSTIN                                               30714344613                                                                                                                                                                          E:maria_spitale@hotmail.com                                                                                                                           0033000000000000000000000000000000000000CAARS3300000620000162776050                                              ARS59900200001448646ASISTENCIA ECONOMICA TURISMO                                                                                                                                                             NN               001
PR0040000000000001243000000003000000ARS2020080327141808716       DIAZ MARIA CLAUDIA                                          27141808716                                                                                                                                                                          E:hotelmitre@hotmail.com                                                                                                                              0015000000000000000000000000000000000021CAARS1500021300007160501396                                              ARS59900200001448646ASISTENCIA ECONOMICA TURISMO                                                                                                                                                             NN               001
PR0040000000000001244000000005000000ARS2020080330714396885       FANTIN MATIAS                                               30714396885                                                                                                                                                                          E:admcarcaraes@gmail.com                                                                                                                              0007200000000000000000000000000000000277CAARS0720277520000001525968                                              ARS59900200001448646ASISTENCIA ECONOMICA TURISMO                                                                                                                                                             NN               001
PR0040000000000001245000000002000000ARS2020080323055314829       FORCHINO GERMAN ADOLFO                                      23055314829                                                                                                                                                                          E:FORCHINOFACUNDO@GMAIL.COM                                                                                                                           0033000000000000000000000000000000000028CAARS3300028020280883995060                                              ARS59900200001448646ASISTENCIA ECONOMICA TURISMO                                                                                                                                                             NN               001
PR0040000000000001246000000002000000ARS2020080320288218006       GABENARA LEANDRO                                            20288218006                                                                                                                                                                          E:hostelpoint@hotmail.com                                                                                                                             0001700000000000000000000000000000000081CAARS0170081740000045862461                                              ARS59900200001448646ASISTENCIA ECONOMICA TURISMO                                                                                                                                                             NN               001
PR0040000000000001247000000002000000ARS2020080320306271785       GAUNA GONZALEZ LEANDRO JAVIER                               20306271785                                                                                                                                                                          E:licgaunagonzalez@gmail.com                                                                                                                          0001100000000000000000000000000000000516CAARS0110516230051613209383                                              ARS59900200001448646ASISTENCIA ECONOMICA TURISMO                                                                                                                                                             NN               001
PR0040000000000001248000000003000000ARS2020080320304351447       GOMEZ MAURO ALBERTO                                         20304351447                                                                                                                                                                          E:estudiotentor_jose@hotmail.com                                                                                                                      0019100000000000000000000000000000000288CAARS1910288555028801932232                                              ARS59900200001448646ASISTENCIA ECONOMICA TURISMO                                                                                                                                                             NN               001
PR0040000000000001249000000005000000ARS2020080330716442345       GONCALVEZ GONZALEZ FERNANDO DEIVIS                          30716442345                                                                                                                                                                          E:romafe@Outlook.com.ar                                                                                                                               0002900000000000000000000000000000000058CAARS0290058210000000979189                                              ARS59900200001448646ASISTENCIA ECONOMICA TURISMO                                                                                                                                                             NN               001
PR0040000000000001250000000005000000ARS2020080330712165010       HAIMOVICH ALEJANDRA                                         30712165010                                                                                                                                                                          E:Gerencia@torrepotosi.com.ar                                                                                                                         0007200000000000000000000000000000000060CAARS0720060120000000470818                                              ARS59900200001448646ASISTENCIA ECONOMICA TURISMO                                                                                                                                                             NN               001
PR0040000000000001251000000002000000ARS2020080327205523133       HAKANSON ZULMA MARIA HAYDEE                                 27205523133                                                                                                                                                                          E:ivan-mussin@hotmail.com                                                                                                                             0001100000000000000000000000000000000567CAARS0110567430056713246629                                              ARS59900200001448646ASISTENCIA ECONOMICA TURISMO                                                                                                                                                             NN               001
PR0040000000000001252000000003000000ARS2020080327341159518       IBARRA JESICA                                               27341159518                                                                                                                                                                          E:jesi_ibarra89@hotmail.com                                                                                                                           0033000000000000000000000000000000000544CAARS3300544525440098251077                                              ARS59900200001448646ASISTENCIA ECONOMICA TURISMO                                                                                                                                                             NN               001
PR0040000000000001253000000002000000ARS2020080327284685933       IGLESIAS CECILIA                                            27284685933                                                                                                                                                                          E:estrella15qae@hotmail.com                                                                                                                           0015000000000000000000000000000000000044CAARS1500044200007262036800                                              ARS59900200001448646ASISTENCIA ECONOMICA TURISMO                                                                                                                                                             NN               001
PR0040000000000001254000000002000000ARS2020080320329089437       JONES BRIAN                                                 20329089437                                                                                                                                                                          E:Ocampoychoalay@hotmail.com                                                                                                                          0001100000000000000000000000000000000567CAARS0110567430056713090301                                              ARS59900200001448646ASISTENCIA ECONOMICA TURISMO                                                                                                                                                             NN               001
PR0040000000000001255000000002000000ARS2020080323205770534       JUAN SANDRA MARCELA                                         23205770534                                                                                                                                                                          E:sandra.marcela.juan@hotmail.com                                                                                                                     0028500000000000000000000000000000000760CAARS2850760840000002436081                                              ARS59900200001448646ASISTENCIA ECONOMICA TURISMO                                                                                                                                                             NN               001
PR0040000000000001256000000005000000ARS2020080323297652109       KEES MATIAS EMMANUEL                                        23297652109                                                                                                                                                                          E:correo.elmolino@gmail.com                                                                                                                           0033000000000000000000000000000000000500CAARS3300500125000155802095                                              ARS59900200001448646ASISTENCIA ECONOMICA TURISMO                                                                                                                                                             NN               001
PR0040000000000001257000000002000000ARS2020080327383745409       LURIG JULIETA BELEN                                         27383745409                                                                                                                                                                          E:julieta.lurig24@gmail.com                                                                                                                           0028500000000000000000000000000000000375CAARS2850375040094925376898                                              ARS59900200001448646ASISTENCIA ECONOMICA TURISMO                                                                                                                                                             NN               001
PR0040000000000001258000000004000000ARS2020080320416032670       MOBELLAN IGNACIO                                            20416032670                                                                                                                                                                          E:MARCELOAHANG@GMAIL.COM                                                                                                                              0007200000000000000000000000000000000537CAARS0720537888000035011422                                              ARS59900200001448646ASISTENCIA ECONOMICA TURISMO                                                                                                                                                             NN               001
PR0040000000000001259000000003000000ARS2020080323143971139       MORAN RICARDO FEDERICO                                      23143971139                                                                                                                                                                          E:nicolasbeltramino@hotmail.com                                                                                                                       0033000000000000000000000000000000000522CAARS3300522325220092190066                                              ARS59900200001448646ASISTENCIA ECONOMICA TURISMO                                                                                                                                                             NN               001
PR0040000000000001260000000003000000ARS2020080320114040208       NINI ROBERTO UBALDINO                                       20114040208                                                                                                                                                                          E:robertonini_sj@hotmail.com                                                                                                                          0033000000000000000000000000000000000541CAARS3300541425410063371068                                              ARS59900200001448646ASISTENCIA ECONOMICA TURISMO                                                                                                                                                             NN               001
PR0040000000000001261000000002000000ARS2020080320170962770       ORLANDO DANIEL HORACIO                                      20170962770                                                                                                                                                                          E:posadadonato@gmail.com                                                                                                                              0028500000000000000000000000000000000857CAARS2850857140094782240158                                              ARS59900200001448646ASISTENCIA ECONOMICA TURISMO                                                                                                                                                             NN               001
PR0040000000000001262000000005000000ARS2020080330714360392       PAREDES GARCIA IVAN                                         30714360392                                                                                                                                                                          E:ivan@paranasunrise.com                                                                                                                              0007200000000000000000000000000000000273CAARS0720273720000000579836                                              ARS59900200001448646ASISTENCIA ECONOMICA TURISMO                                                                                                                                                             NN               001
PR0040000000000001263000000002000000ARS2020080320265097236       PASCUAL MIGUEL ANGEL                                        20265097236                                                                                                                                                                          E:turismosanjavier.sf@gmail.com                                                                                                                       0033000000000000000000000000000000000541CAARS3300541425410393916080                                              ARS59900200001448646ASISTENCIA ECONOMICA TURISMO                                                                                                                                                             NN               001
PR0040000000000001264000000003000000ARS2020080320131184698       PATERNO JORGE GUILLERMO                                     20131184698                                                                                                                                                                          E:crv@romang.trcnet.com.ar                                                                                                                            0033000000000000000000000000000000000537CAARS3300537725370003924043                                              ARS59900200001448646ASISTENCIA ECONOMICA TURISMO                                                                                                                                                             NN               001
PR0040000000000001265000000002000000ARS2020080320307873037       PICCOLI ROJKIN MARTIN MAXIMILIANO                           20307873037                                                                                                                                                                          E:micaelacandido@hotmail.com                                                                                                                          0033000000000000000000000000000000000504CAARS3300504925040000323021                                              ARS59900200001448646ASISTENCIA ECONOMICA TURISMO                                                                                                                                                             NN               001
PR0040000000000001266000000003000000ARS2020080320273541927       ROBERTO CARLOS GABRIEL                                      20273541927                                                                                                                                                                          E:carlosgroberto79@hotmail.com                                                                                                                        0033000000000000000000000000000000000522CAARS3300522325220542476063                                              ARS59900200001448646ASISTENCIA ECONOMICA TURISMO                                                                                                                                                             NN               001
PR0040000000000001267000000003000000ARS2020080320162186397       ROJAS GUSTAVO ALBERTO                                       20162186397                                                                                                                                                                          E:rojasvgustavo@hotmail.com                                                                                                                           0007200000000000000000000000000000000362CAARS0720362488000032313354                                              ARS59900200001448646ASISTENCIA ECONOMICA TURISMO                                                                                                                                                             NN               001
PR0040000000000001268000000003000000ARS2020080320337203265       RUIZ JAVIER                                                 20337203265                                                                                                                                                                          E:jn_r88@hotmail.com                                                                                                                                  0000700000000000000000000000000000000267CAARS0070267830004021753014                                              ARS59900200001448646ASISTENCIA ECONOMICA TURISMO                                                                                                                                                             NN               001
PR0040000000000001269000000003000000ARS2020080320289957090       SANDOVAL MILTON UBALDO                                      20289957090                                                                                                                                                                          E:miltonsandoval36@gmail.com                                                                                                                          0033000000000000000000000000000000000537CAARS3300537715370088605021                                              ARS59900200001448646ASISTENCIA ECONOMICA TURISMO                                                                                                                                                             NN               001
PR0040000000000001270000000002000000ARS2020080320298459338       SANSEOVICH DAMIAN ANGEL                                     20298459338                                                                                                                                                                          E:damiansanseovich@hotmail.com                                                                                                                        0028500000000000000000000000000000000894CAARS2850894640094905730478                                              ARS59900200001448646ASISTENCIA ECONOMICA TURISMO                                                                                                                                                             NN               001
PR0040000000000001271000000003000000ARS2020080327185005009       TORRES ADRIANA NOEMI                                        27185005009                                                                                                                                                                          E:complejolaolla@yahoo.com.ar                                                                                                                         0028500000000000000000000000000000000860CAARS2850860140000080011075                                              ARS59900200001448646ASISTENCIA ECONOMICA TURISMO                                                                                                                                                             NN               001
PR0040000000000001272000000003000000ARS2020080320063089053       TSCHOPP RAUL                                                20063089053                                                                                                                                                                          E:losombu@gmail.com                                                                                                                                   0028500000000000000000000000000000000355CAARS2850355240094109497038                                              ARS59900200001448646ASISTENCIA ECONOMICA TURISMO                                                                                                                                                             NN               001
PR0040000000000001273000000002000000ARS2020080320220872573       VERGARA DIEGO                                               20220872573                                                                                                                                                                          E:diegotevergara@hotmail.com                                                                                                                          0033000000000000000000000000000000000500CAARS3300500125000026853030                                              ARS59900200001448646ASISTENCIA ECONOMICA TURISMO                                                                                                                                                             NN               001
PR0040000000000001274000000002000000ARS2020080320360062911       VIDOLETTI DANTE                                             20360062911                                                                                                                                                                          E:dante_vidoletti@hotmail.com                                                                                                                         0007200000000000000000000000000000000478CAARS0720478888000035363622                                              ARS59900200001448646ASISTENCIA ECONOMICA TURISMO                                                                                                                                                             NN               001
PR0040000000000001275000000003000000ARS2020080327162282498       WERMER NORMA BEATRIZ                                        27162282498                                                                                                                                                                          E:celegeese28@gmail.com                                                                                                                               0001100000000000000000000000000000000410CAARS0110410730041071032065                                              ARS59900200001448646ASISTENCIA ECONOMICA TURISMO                                                                                                                                                             NN               001
PR0040000000000001276000000002000000ARS2020080320372325918       ZAPATA LUCAS FEDERICO                                       20372325918                                                                                                                                                                          E:lucasfzapata@gmail.com                                                                                                                              0001100000000000000000000000000000000650CAARS0110650930065002240983                                              ARS59900200001448646ASISTENCIA ECONOMICA TURISMO                                                                                                                                                             NN               001
PR0040000000000001277000000003000000ARS2020080320251710997       ZYSMAN GABRIEL                                              20251710997                                                                                                                                                                          E:gabyzysman@gmail.com                                                                                                                                0019100000000000000000000000000000000274CAARS1910274855127406468921                                              ARS59900200001448646ASISTENCIA ECONOMICA TURISMO                                                                                                                                                             NN               001
FT00000000000000001260000000000000046                                                                                                                                                                                                                                                                                                                                                                                                                                                                                                                                                                                                                                                                                                                                                                                     
