FH2020081212260350000061170ORDENDEPAGO20200813                                                                                                                                                                                                                                                                                                                                                                                                                                                                                                                                                                                                                                                                                                                                                                            
PR0040000000000003236000000005000000ARS2020081320145349789       CAIRO CARLOS ALBERTO                                        20145349789                                                                                                                                                                          E:carlos.alberto.cairo@gmail.com                                                                                                                      0028500000000000000000000000000000000870CAARS2850870040000010161014                                              ARS59900200001448646ASISTENCIA ECONOMICA TURISMO                                                                                                                                                             NN               001
PR0040000000000003237000000002000000ARS2020081323222885779       LUNA ROBERTO EUGENIO                                        23222885779                                                                                                                                                                          E:robertoeluna@hotmail.com                                                                                                                            0001100000000000000000000000000000000470CAARS0110470130047071528915                                              ARS59900200001448646ASISTENCIA ECONOMICA TURISMO                                                                                                                                                             NN               001
FT00000000000000000070000000000000004                                                                                                                                                                                                                                                                                                                                                                                                                                                                                                                                                                                                                                                                                                                                                                                     
