FH202008031332050020061170ORDENDEPAGO20200803                                                                                                                                                                                                                                                                                                                                                                                                                                                                                                                                                                                                                                                                                                                                                                             
PR0040000000000002771000000002000000ARS2020080323206671289       ABBA SARMIENTO JUAN CARLOS                                  23206671289                                                                                                                                                                          E:infprodu@gmail.com                                                                                                                                  0033000000000000000000000000000000000520CAARS3300520925200051052062                                              ARS59900200001448646ASISTENCIA ECONOMICA DE EMERGENCIA A COMERCIOS                                                                                                                                           NN               001
PR0040000000000002772000000002000000ARS2020080327295609163       ACOSTA MARIA SOLEDAD                                        27295609163                                                                                                                                                                          E:shole916@gmail.com                                                                                                                                  0033000000000000000000000000000000000500CAARS3300500125000245193058                                              ARS59900200001448646ASISTENCIA ECONOMICA DE EMERGENCIA A COMERCIOS                                                                                                                                           NN               001
PR0040000000000002773000000003000000ARS2020080327147293785       AGUILAR STELLA MARIS                                        27147293785                                                                                                                                                                          E:Ste_llaguilar@hotmail.com                                                                                                                           0028500000000000000000000000000000000334CAARS2850334740095256012538                                              ARS59900200001448646ASISTENCIA ECONOMICA DE EMERGENCIA A COMERCIOS                                                                                                                                           NN               001
PR0040000000000002774000000002000000ARS2020080320249265838       ALTAMIRANO SERGIO EDUARDO                                   20249265838                                                                                                                                                                          E:marianabr_@hotmail.com                                                                                                                              0004400000000000000000000000000000000027CAARS0440027140000161479527                                              ARS59900200001448646ASISTENCIA ECONOMICA DE EMERGENCIA A COMERCIOS                                                                                                                                           NN               001
PR0040000000000002775000000003000000ARS2020080320224387025       ALVARO ARIEL SANTIAGO                                       20224387025                                                                                                                                                                          E:ginmasioarnold@outlook.com                                                                                                                          0033000000000000000000000000000000000076CAARS3300076120760714130098                                              ARS59900200001448646ASISTENCIA ECONOMICA DE EMERGENCIA A COMERCIOS                                                                                                                                           NN               001
PR0040000000000002776000000002000000ARS2020080327243735357       AMADO GABRIELA LUJAN                                        27243735357                                                                                                                                                                          E:estudiogpoli@gmail.com                                                                                                                              0033000000000000000000000000000000000059CAARS3300059410590062571066                                              ARS59900200001448646ASISTENCIA ECONOMICA DE EMERGENCIA A COMERCIOS                                                                                                                                           NN               001
PR0040000000000002777000000003000000ARS2020080327360079053       ANGELETTI GIULIANA                                          27360079053                                                                                                                                                                          E:giulianaangeletti@hotmail.com                                                                                                                       0001100000000000000000000000000000000183CAARS0110183230018311562947                                              ARS59900200001448646ASISTENCIA ECONOMICA DE EMERGENCIA A COMERCIOS                                                                                                                                           NN               001
PR0040000000000002778000000002000000ARS2020080320321034544       ARAUJO SANTIAGO                                             20321034544                                                                                                                                                                          E:araujovenado@gmail.com                                                                                                                              0033000000000000000000000000000000000022CAARS3300022820220077234001                                              ARS59900200001448646ASISTENCIA ECONOMICA DE EMERGENCIA A COMERCIOS                                                                                                                                           NN               001
PR0040000000000002779000000003000000ARS2020080320232821133       ARCANGIOLI GUSTAVO                                          20232821133                                                                                                                                                                          E:eikon_p@hotmail.com                                                                                                                                 0033000000000000000000000000000000000026CAARS3300026620260033922063                                              ARS59900200001448646ASISTENCIA ECONOMICA DE EMERGENCIA A COMERCIOS                                                                                                                                           NN               001
PR0040000000000002780000000002000000ARS2020080327219488098       ARMANDO CLAUDIA GRACIELA                                    27219488098                                                                                                                                                                          E:patriciaarriola0@gmail.com                                                                                                                          0001100000000000000000000000000000000283CAARS0110283530028370105315                                              ARS59900200001448646ASISTENCIA ECONOMICA DE EMERGENCIA A COMERCIOS                                                                                                                                           NN               001
PR0040000000000002781000000002000000ARS2020080327225272099       ARRIETA MARCELA VIVIANA                                     27225272099                                                                                                                                                                          E:maraarrieta@hotmail.com                                                                                                                             0007200000000000000000000000000000000117CAARS0720117888000035687054                                              ARS59900200001448646ASISTENCIA ECONOMICA DE EMERGENCIA A COMERCIOS                                                                                                                                           NN               001
PR0040000000000002782000000002000000ARS2020080320143923658       AZZIANI NELSO OMAR                                          20143923658                                                                                                                                                                          E:alvaro_azziani@hotmail.com                                                                                                                          0033000000000000000000000000000000000000CAARS3300000620000466514107                                              ARS59900200001448646ASISTENCIA ECONOMICA DE EMERGENCIA A COMERCIOS                                                                                                                                           NN               001
PR0040000000000002783000000002000000ARS2020080327148523156       BALDOMA MARISA                                              27148523156                                                                                                                                                                          E:marisabaldoma@gmail.com                                                                                                                             0001100000000000000000000000000000000264CAARS0110264430026445836047                                              ARS59900200001448646ASISTENCIA ECONOMICA DE EMERGENCIA A COMERCIOS                                                                                                                                           NN               001
PR0040000000000002784000000005000000ARS2020080330716411059       BARQUITO DE PAPEL SAS BELCASTRO LAURA                       30716411059                                                                                                                                                                          E:giuliana-05@hotmail.com                                                                                                                             0019100000000000000000000000000000000081CAARS1910081055008101252278                                              ARS59900200001448646ASISTENCIA ECONOMICA DE EMERGENCIA A COMERCIOS                                                                                                                                           NN               001
PR0040000000000002785000000002000000ARS2020080320115799275       BARRETO BRAULIO DOMINGO                                     20115799275                                                                                                                                                                          E:b.nairaldana@gmail.com                                                                                                                              0003400000000000000000000000000000000100CAARS0340100808710052474008                                              ARS59900200001448646ASISTENCIA ECONOMICA DE EMERGENCIA A COMERCIOS                                                                                                                                           NN               001
PR0040000000000002786000000005000000ARS2020080320220405207       BARRILE DIEGO RICARDO                                       20220405207                                                                                                                                                                          E:diegobarrile71@gmail.com                                                                                                                            0004400000000000000000000000000000000027CAARS0440027140000112988647                                              ARS59900200001448646ASISTENCIA ECONOMICA DE EMERGENCIA A COMERCIOS                                                                                                                                           NN               001
PR0040000000000002787000000005000000ARS2020080327230494156       BASTERI GABRIELA                                            27230494156                                                                                                                                                                          E:gbasteri@hotmail.com                                                                                                                                0007200000000000000000000000000000000478CAARS0720478820000000015154                                              ARS59900200001448646ASISTENCIA ECONOMICA DE EMERGENCIA A COMERCIOS                                                                                                                                           NN               001
PR0040000000000002788000000002000000ARS2020080320226143387       BENITEZ MARCELO DELMIRO                                     20226143387                                                                                                                                                                          E:marcheloelrojo@hotmail.com                                                                                                                          0001100000000000000000000000000000000491CAARS0110491630049198098997                                              ARS59900200001448646ASISTENCIA ECONOMICA DE EMERGENCIA A COMERCIOS                                                                                                                                           NN               001
PR0040000000000002789000000002000000ARS2020080327314377414       BERNAL FLAVIA SOLEDAD                                       27314377414                                                                                                                                                                          E:Flavia_nob1@hotmail.com                                                                                                                             0001100000000000000000000000000000000140CAARS0110140530014025860315                                              ARS59900200001448646ASISTENCIA ECONOMICA DE EMERGENCIA A COMERCIOS                                                                                                                                           NN               001
PR0040000000000002790000000002000000ARS2020080327203202224       BERTOIA CLAUDIA ISABEL                                      27203202224                                                                                                                                                                          E:Lencinacintia15@gmail.com                                                                                                                           0033000000000000000000000000000000000522CAARS3300522325220024882098                                              ARS59900200001448646ASISTENCIA ECONOMICA DE EMERGENCIA A COMERCIOS                                                                                                                                           NN               001
PR0040000000000002791000000003000000ARS2020080327243255304       BIAGINI ALEJANDRA                                           27243255304                                                                                                                                                                          E:biaginialita@gmail.com                                                                                                                              0033000000000000000000000000000000000024CAARS3300024220240267012037                                              ARS59900200001448646ASISTENCIA ECONOMICA DE EMERGENCIA A COMERCIOS                                                                                                                                           NN               001
PR0040000000000002792000000003000000ARS2020080320388152134       BIANCO LUCAS EMANUEL                                        20388152134                                                                                                                                                                          E:emanuel_1905@hotmail.com                                                                                                                            0033000000000000000000000000000000000504CAARS3300504915040185767059                                              ARS59900200001448646ASISTENCIA ECONOMICA DE EMERGENCIA A COMERCIOS                                                                                                                                           NN               001
PR0040000000000002793000000002000000ARS2020080320140939812       BIETTI OSVALDO DANIEL                                       20140939812                                                                                                                                                                          E:obietti@hotmail.com                                                                                                                                 0004400000000000000000000000000000000051CAARS0440051640000193729032                                              ARS59900200001448646ASISTENCIA ECONOMICA DE EMERGENCIA A COMERCIOS                                                                                                                                           NN               001
PR0040000000000002794000000002000000ARS2020080327369974683       BIETTI GIOVANA                                              27369974683                                                                                                                                                                          E:giovibietti@hotmail.com                                                                                                                             0033000000000000000000000000000000000030CAARS3300030320300599891028                                              ARS59900200001448646ASISTENCIA ECONOMICA DE EMERGENCIA A COMERCIOS                                                                                                                                           NN               001
PR0040000000000002795000000002000000ARS2020080323239593534       BLANCO MONICA GRACIELA                                      23239593534                                                                                                                                                                          E:monicablancooo0332@gmail.com                                                                                                                        0001100000000000000000000000000000000449CAARS0110449730044908024529                                              ARS59900200001448646ASISTENCIA ECONOMICA DE EMERGENCIA A COMERCIOS                                                                                                                                           NN               001
PR0040000000000002796000000002000000ARS2020080320391231681       BLANCO DANIEL ALEJANDRO                                     20391231681                                                                                                                                                                          E:vablaturismo@gmail.com                                                                                                                              0007200000000000000000000000000000000543CAARS0720543988000035389936                                              ARS59900200001448646ASISTENCIA ECONOMICA DE EMERGENCIA A COMERCIOS                                                                                                                                           NN               001
PR0040000000000002797000000002000000ARS2020080323304848049       BLANGINI PAZ LUCAS SEBASTIAN                                23304848049                                                                                                                                                                          E:gjbchevy@gmail.com                                                                                                                                  0000700000000000000000000000000000000233CAARS0070233330004009135906                                              ARS59900200001448646ASISTENCIA ECONOMICA DE EMERGENCIA A COMERCIOS                                                                                                                                           NN               001
PR0040000000000002798000000002000000ARS2020080327105247775       BLASER NORA LUISA                                           27105247775                                                                                                                                                                          E:noralui@live.com                                                                                                                                    0033000000000000000000000000000000000549CAARS3300549150400190191074                                              ARS59900200001448646ASISTENCIA ECONOMICA DE EMERGENCIA A COMERCIOS                                                                                                                                           NN               001
PR0040000000000002799000000002000000ARS2020080320298495067       BOBADILLA ANIBAL ARIEL                                      20298495067                                                                                                                                                                          E:abobadilla@romeroasociados.com.ar                                                                                                                   0028500000000000000000000000000000000346CAARS2850346040095259086978                                              ARS59900200001448646ASISTENCIA ECONOMICA DE EMERGENCIA A COMERCIOS                                                                                                                                           NN               001
PR0040000000000002800000000002000000ARS2020080327337880431       BOLATTI NATALIA                                             27337880431                                                                                                                                                                          E:paonati22@hotmail.com                                                                                                                               0033000000000000000000000000000000000003CAARS3300003720030780993089                                              ARS59900200001448646ASISTENCIA ECONOMICA DE EMERGENCIA A COMERCIOS                                                                                                                                           NN               001
PR0040000000000002801000000005000000ARS2020080320103169608       BONACCI EDGARD RAUL                                         20103169608                                                                                                                                                                          E:edgardbonacci@hotmail.com                                                                                                                           0042600000000000000000000000000000000007CAARS4260007100100034076065                                              ARS59900200001448646ASISTENCIA ECONOMICA DE EMERGENCIA A COMERCIOS                                                                                                                                           NN               001
PR0040000000000002802000000002000000ARS2020080320323014761       BONOMO EDUARDO ANDRES                                       20323014761                                                                                                                                                                          E:eventoscrsf@gmail.com                                                                                                                               0000700000000000000000000000000000000079CAARS0070079530004066678554                                              ARS59900200001448646ASISTENCIA ECONOMICA DE EMERGENCIA A COMERCIOS                                                                                                                                           NN               001
PR0040000000000002803000000005000000ARS2020080320259039666       BORGO DIEGO                                                 20259039666                                                                                                                                                                          E:diego.borgo@hotmail.com.ar                                                                                                                          0028500000000000000000000000000000000373CAARS2850373640094724394398                                              ARS59900200001448646ASISTENCIA ECONOMICA DE EMERGENCIA A COMERCIOS                                                                                                                                           NN               001
PR0040000000000002804000000002000000ARS2020080320240485169       BOURNISSENT ARIEL GUSTAVO                                   20240485169                                                                                                                                                                          E:absonidopro@hotmail.com                                                                                                                             0001100000000000000000000000000000000476CAARS0110476330047639980065                                              ARS59900200001448646ASISTENCIA ECONOMICA DE EMERGENCIA A COMERCIOS                                                                                                                                           NN               001
PR0040000000000002805000000003000000ARS2020080320302323004       BRAVO FEDERICO                                              20302323004                                                                                                                                                                          E:mphs_fede@hotmail.com                                                                                                                               0000700000000000000000000000000000000079CAARS0070079530004054928252                                              ARS59900200001448646ASISTENCIA ECONOMICA DE EMERGENCIA A COMERCIOS                                                                                                                                           NN               001
PR0040000000000002806000000004000000ARS2020080320306852664       BRAVO FERNANDO MANUEL                                       20306852664                                                                                                                                                                          E:lucasdfr@hotmail.com                                                                                                                                0001100000000000000000000000000000000882CAARS0110882630088200049965                                              ARS59900200001448646ASISTENCIA ECONOMICA DE EMERGENCIA A COMERCIOS                                                                                                                                           NN               001
PR0040000000000002807000000002000000ARS2020080320370201065       BRAVO RUBEN ALEJANDRO                                       20370201065                                                                                                                                                                          E:impositivo@estudiofgg.com                                                                                                                           0033000000000000000000000000000000000553CAARS3300553725530265617055                                              ARS59900200001448646ASISTENCIA ECONOMICA DE EMERGENCIA A COMERCIOS                                                                                                                                           NN               001
PR0040000000000002808000000005000000ARS2020080320084336050       BUIESE JORGE GUSTAVO                                        20084336050                                                                                                                                                                          E:lulibuiese@hotmail.com                                                                                                                              0038900000000000000000000000000000000143CAARS3890143440005247020248                                              ARS59900200001448646ASISTENCIA ECONOMICA DE EMERGENCIA A COMERCIOS                                                                                                                                           NN               001
PR0040000000000002809000000003000000ARS2020080327058625405       BULACIOS CAROLINA ROSA                                      27058625405                                                                                                                                                                          E:silvana_schneer@yahoo.com.ar                                                                                                                        0033000000000000000000000000000000000599CAARS3300599525990030130099                                              ARS59900200001448646ASISTENCIA ECONOMICA DE EMERGENCIA A COMERCIOS                                                                                                                                           NN               001
PR0040000000000002810000000004000000ARS2020080327135803826       BULLIAN NORA                                                27135803826                                                                                                                                                                          E:noraisabelbullian@hotmail.com                                                                                                                       0000700000000000000000000000000000000267CAARS0070267830004010813862                                              ARS59900200001448646ASISTENCIA ECONOMICA DE EMERGENCIA A COMERCIOS                                                                                                                                           NN               001
PR0040000000000002811000000003000000ARS2020080320360055605       CALVIN RODRIGO                                              20360055605                                                                                                                                                                          E:rodrigo gaston calvin                                                                                                                               0043100000000000000000000000000000000008CAARS4310008222000000007199                                              ARS59900200001448646ASISTENCIA ECONOMICA DE EMERGENCIA A COMERCIOS                                                                                                                                           NN               001
PR0040000000000002812000000002000000ARS2020080327125229455       CALVO MIRTA                                                 27125229455                                                                                                                                                                          E:mirta.calvo@hotmail.com                                                                                                                             0004400000000000000000000000000000000027CAARS0440027140000168814497                                              ARS59900200001448646ASISTENCIA ECONOMICA DE EMERGENCIA A COMERCIOS                                                                                                                                           NN               001
PR0040000000000002813000000002000000ARS2020080320327018885       CANDIOTI SANTIAGO                                           20327018885                                                                                                                                                                          E:gatocandioti@hotmail.com                                                                                                                            0001100000000000000000000000000000000491CAARS0110491630049197338733                                              ARS59900200001448646ASISTENCIA ECONOMICA DE EMERGENCIA A COMERCIOS                                                                                                                                           NN               001
PR0040000000000002814000000002000000ARS2020080320136762800       CANGIANO SERGIO VICTOR                                      20136762800                                                                                                                                                                          E:sergiocangianoargentino@hotmail.com                                                                                                                 0033000000000000000000000000000000000501CAARS3300501825010155089073                                              ARS59900200001448646ASISTENCIA ECONOMICA DE EMERGENCIA A COMERCIOS                                                                                                                                           NN               001
PR0040000000000002815000000002000000ARS2020080320373336816       CAPRIO PABLO IVAN                                           20373336816                                                                                                                                                                          E:pablocaprio1@gmail.com                                                                                                                              0033000000000000000000000000000000000548CAARS3300548325480240524006                                              ARS59900200001448646ASISTENCIA ECONOMICA DE EMERGENCIA A COMERCIOS                                                                                                                                           NN               001
PR0040000000000002816000000005000000ARS2020080323167384099       CARABALLO JUAN RODOLFO                                      23167384099                                                                                                                                                                          E:estudiombt@gmail.com                                                                                                                                0006500000000000000000000000000000000030CAARS0650030601000000218178                                              ARS59900200001448646ASISTENCIA ECONOMICA DE EMERGENCIA A COMERCIOS                                                                                                                                           NN               001
PR0040000000000002817000000002000000ARS2020080320228893669       CARBONARI ANDRES LISANDRO                                   20228893669                                                                                                                                                                          E:andres-474@hotmail.com                                                                                                                              0033000000000000000000000000000000000000CAARS3300000620000247975105                                              ARS59900200001448646ASISTENCIA ECONOMICA DE EMERGENCIA A COMERCIOS                                                                                                                                           NN               001
PR0040000000000002818000000003000000ARS2020080320173262990       CARRASCO VALENTIN GUSTAVO                                   20173262990                                                                                                                                                                          E:arqgustavocarrasco@capsf.org.ar                                                                                                                     0007200000000000000000000000000000000718CAARS0720718388000035081122                                              ARS59900200001448646ASISTENCIA ECONOMICA DE EMERGENCIA A COMERCIOS                                                                                                                                           NN               001
PR0040000000000002819000000004000000ARS2020080327345106044       CARRERA ESTEFANIA BELEN                                     27345106044                                                                                                                                                                          E:claudiofavre@hotmail.com                                                                                                                            0028500000000000000000000000000000000747CAARS2850747940094858756608                                              ARS59900200001448646ASISTENCIA ECONOMICA DE EMERGENCIA A COMERCIOS                                                                                                                                           NN               001
PR0040000000000002820000000005000000ARS2020080320223295925       CARUSO NORBERTO FABIAN                                      20223295925                                                                                                                                                                          E:carinasanalitro@hotmail.com                                                                                                                         0001100000000000000000000000000000000140CAARS0110140530014027559547                                              ARS59900200001448646ASISTENCIA ECONOMICA DE EMERGENCIA A COMERCIOS                                                                                                                                           NN               001
PR0040000000000002821000000002000000ARS2020080323296692859       CASALE CARLOS JAVIER                                        23296692859                                                                                                                                                                          E:casalejavier@hotmail.com                                                                                                                            0033000000000000000000000000000000000553CAARS3300553725530113214108                                              ARS59900200001448646ASISTENCIA ECONOMICA DE EMERGENCIA A COMERCIOS                                                                                                                                           NN               001
PR0040000000000002822000000002000000ARS2020080323336805929       CASTELL CARLOS ANDRES                                       23336805929                                                                                                                                                                          E:luciatoia_90@hotmail.com                                                                                                                            0028500000000000000000000000000000000769CAARS2850769140094976445138                                              ARS59900200001448646ASISTENCIA ECONOMICA DE EMERGENCIA A COMERCIOS                                                                                                                                           NN               001
PR0040000000000002823000000002000000ARS2020080320299971709       CASTOLDI MATIAS                                             20299971709                                                                                                                                                                          E:esperanzasonido@hotmail.com                                                                                                                         0033000000000000000000000000000000000533CAARS3300533925330021011097                                              ARS59900200001448646ASISTENCIA ECONOMICA DE EMERGENCIA A COMERCIOS                                                                                                                                           NN               001
PR0040000000000002824000000003000000ARS2020080327246774590       CATENACCIO ANA DELIA                                        27246774590                                                                                                                                                                          E:Luisalejandrofavaccio@gmail.com                                                                                                                     0001700000000000000000000000000000000081CAARS0170081740000044472175                                              ARS59900200001448646ASISTENCIA ECONOMICA DE EMERGENCIA A COMERCIOS                                                                                                                                           NN               001
PR0040000000000002825000000003000000ARS2020080320118328745       CAVALIERI CARLOS                                            20118328745                                                                                                                                                                          E:transportecavalieri@outlook.com                                                                                                                     0001100000000000000000000000000000000491CAARS0110491630049184387551                                              ARS59900200001448646ASISTENCIA ECONOMICA DE EMERGENCIA A COMERCIOS                                                                                                                                           NN               001
PR0040000000000002826000000002000000ARS2020080327312804552       CIGALINI ROMINA LORENA                                      27312804552                                                                                                                                                                          E:romiciga@gmail.com                                                                                                                                  0028500000000000000000000000000000000339CAARS2850339240094766345778                                              ARS59900200001448646ASISTENCIA ECONOMICA DE EMERGENCIA A COMERCIOS                                                                                                                                           NN               001
PR0040000000000002827000000003000000ARS2020080327320700979       CINGOLANI NATALIA ROMINA                                    27320700979                                                                                                                                                                          E:Naty.profesorado@hotmail.com                                                                                                                        0033000000000000000000000000000000000001CAARS3300001320010193540045                                              ARS59900200001448646ASISTENCIA ECONOMICA DE EMERGENCIA A COMERCIOS                                                                                                                                           NN               001
PR0040000000000002828000000002000000ARS2020080323377115244       CLEMENZ AGOSTINA NAHIR ANA                                  23377115244                                                                                                                                                                          E:comunasd@gmaill.com                                                                                                                                 0033000000000000000000000000000000000533CAARS3300533925330105132021                                              ARS59900200001448646ASISTENCIA ECONOMICA DE EMERGENCIA A COMERCIOS                                                                                                                                           NN               001
PR0040000000000002829000000002000000ARS2020080327374091846       COCCHIO VERONICA                                            27374091846                                                                                                                                                                          E:verococchio@hotmail.com                                                                                                                             0001100000000000000000000000000000000251CAARS0110251430025172059051                                              ARS59900200001448646ASISTENCIA ECONOMICA DE EMERGENCIA A COMERCIOS                                                                                                                                           NN               001
PR0040000000000002830000000003000000ARS2020080320177164373       CONTIGIANI OMAR RAUL                                        20177164373                                                                                                                                                                          E:ginocontigiani@gmail.com                                                                                                                            0001500000000000000000000000000000000969CAARS01509698000007363550                                                ARS59900200001448646ASISTENCIA ECONOMICA DE EMERGENCIA A COMERCIOS                                                                                                                                           NN               001
PR0040000000000002831000000005000000ARS2020080330715767348       COOPERATIVA DE TRABAJO LTDA  LA OSA GREGORIA MASTRANGELO LUC30715767348                                                                                                                                                                          E:lucremastrangelo@hotmail.com                                                                                                                        0024700000000000000000000000000000000001CAARS2470001810000001323848                                              ARS59900200001448646ASISTENCIA ECONOMICA DE EMERGENCIA A COMERCIOS                                                                                                                                           NN               001
PR0040000000000002832000000005000000ARS2020080320233174301       CORBACHO RE PABLO ESTEBAN                                   20233174301                                                                                                                                                                          E:pablo.corbacho@yahoo.com                                                                                                                            0033000000000000000000000000000000000000CAARS3300000620000450513046                                              ARS59900200001448646ASISTENCIA ECONOMICA DE EMERGENCIA A COMERCIOS                                                                                                                                           NN               001
PR0040000000000002833000000002000000ARS2020080320182452492       CORDOBA GABRIEL                                             20182452492                                                                                                                                                                          E:mariarosaorona@hotmail.com                                                                                                                          0007200000000000000000000000000000000506CAARS0720506488000035074090                                              ARS59900200001448646ASISTENCIA ECONOMICA DE EMERGENCIA A COMERCIOS                                                                                                                                           NN               001
PR0040000000000002834000000003000000ARS2020080320323272027       CORREA PABLO SEBASTIAN                                      20323272027                                                                                                                                                                          E:cpablo591@gmail.com                                                                                                                                 0007200000000000000000000000000000000273CAARS0720273788000000936886                                              ARS59900200001448646ASISTENCIA ECONOMICA DE EMERGENCIA A COMERCIOS                                                                                                                                           NN               001
PR0040000000000002835000000002000000ARS2020080327202079097       COTTU ADA GRACIELA                                          27202079097                                                                                                                                                                          E:laboratorio@elrayomisterioso.org.ar                                                                                                                 0000700000000000000000000000000000000075CAARS0070075730009750579517                                              ARS59900200001448646ASISTENCIA ECONOMICA DE EMERGENCIA A COMERCIOS                                                                                                                                           NN               001
PR0040000000000002836000000005000000ARS2020080333716746459       CUATROS ESTACIONES ROMANI MARA LUCIA                        33716746459                                                                                                                                                                          E:cp.martinsocca@gmail.com                                                                                                                            0007200000000000000000000000000000000478CAARS0720478820000000082954                                              ARS59900200001448646ASISTENCIA ECONOMICA DE EMERGENCIA A COMERCIOS                                                                                                                                           NN               001
PR0040000000000002837000000005000000ARS2020080320255246349       CUENCA LEANDRO MANUEL                                       20255246349                                                                                                                                                                          E:paulalabianca@hotmail.com                                                                                                                           0000700000000000000000000000000000000146CAARS0070146020000007027437                                              ARS59900200001448646ASISTENCIA ECONOMICA DE EMERGENCIA A COMERCIOS                                                                                                                                           NN               001
PR0040000000000002838000000002000000ARS2020080327325821502       CULLEN ANA LAURA                                            27325821502                                                                                                                                                                          E:infprodu@gmail.com                                                                                                                                  0019100000000000000000000000000000000340CAARS1910340655134000500867                                              ARS59900200001448646ASISTENCIA ECONOMICA DE EMERGENCIA A COMERCIOS                                                                                                                                           NN               001
PR0040000000000002839000000005000000ARS2020080330716284316       D ALOISIO LETICIA                                           30716284316                                                                                                                                                                          E:paocapucci@hotmail.com                                                                                                                              0001700000000000000000000000000000000282CAARS0170282020000001845374                                              ARS59900200001448646ASISTENCIA ECONOMICA DE EMERGENCIA A COMERCIOS                                                                                                                                           NN               001
PR0040000000000002840000000002000000ARS2020080320323711004       DERIEUL GONZALO                                             20323711004                                                                                                                                                                          E:gonza.1748@hotmail.com                                                                                                                              0033000000000000000000000000000000000599CAARS3300599525990736355022                                              ARS59900200001448646ASISTENCIA ECONOMICA DE EMERGENCIA A COMERCIOS                                                                                                                                           NN               001
PR0040000000000002841000000002000000ARS2020080327300756781       DI CONZA MELINA ALEJANDRA                                   27300756781                                                                                                                                                                          E:infprodu@gmail.com                                                                                                                                  0001100000000000000000000000000000000491CAARS0110491630049191426883                                              ARS59900200001448646ASISTENCIA ECONOMICA DE EMERGENCIA A COMERCIOS                                                                                                                                           NN               001
PR0040000000000002842000000005000000ARS2020080327283890339       DIAZ YAMILA                                                 27283890339                                                                                                                                                                          E:eijove2@hotmail.com                                                                                                                                 0000700000000000000000000000000000000267CAARS0070267830004021403506                                              ARS59900200001448646ASISTENCIA ECONOMICA DE EMERGENCIA A COMERCIOS                                                                                                                                           NN               001
PR0040000000000002843000000002000000ARS2020080320226918109       DIAZ ROBERTO CARLOS FABIAN                                  20226918109                                                                                                                                                                          E:cristianpazcontable@gmail.com                                                                                                                       0028500000000000000000000000000000000346CAARS2850346040094951496258                                              ARS59900200001448646ASISTENCIA ECONOMICA DE EMERGENCIA A COMERCIOS                                                                                                                                           NN               001
PR0040000000000002844000000003000000ARS2020080320256376904       DOMINGUEZ FABRICIO                                          20256376904                                                                                                                                                                          E:fsdominguez@hotmail.com                                                                                                                             0033000000000000000000000000000000000022CAARS3300022820220262177100                                              ARS59900200001448646ASISTENCIA ECONOMICA DE EMERGENCIA A COMERCIOS                                                                                                                                           NN               001
PR0040000000000002845000000005000000ARS2020080330710748558       EL PAJARO SRL GARBUGLIA MARTIN                              30710748558                                                                                                                                                                          E:martingarbuglia@hotmail.com                                                                                                                         0006500000000000000000000000000000000030CAARS0650030601000000216028                                              ARS59900200001448646ASISTENCIA ECONOMICA DE EMERGENCIA A COMERCIOS                                                                                                                                           NN               001
PR0040000000000002846000000003000000ARS2020080327116720553       ELORDI SILVIA NOEMI                                         27116720553                                                                                                                                                                          E:dolcicecilia@hotmail.com                                                                                                                            0033000000000000000000000000000000000000CAARS3300000620000246131012                                              ARS59900200001448646ASISTENCIA ECONOMICA DE EMERGENCIA A COMERCIOS                                                                                                                                           NN               001
PR0040000000000002847000000002000000ARS2020080327180319447       ENRIQUE MONICA MARISA                                       27180319447                                                                                                                                                                          E:Monicaenrique81@gmail.com                                                                                                                           0033000000000000000000000000000000000074CAARS3300074720740020978070                                              ARS59900200001448646ASISTENCIA ECONOMICA DE EMERGENCIA A COMERCIOS                                                                                                                                           NN               001
PR0040000000000002848000000002000000ARS2020080323100578409       EXNER LUIS ANDRES                                           23100578409                                                                                                                                                                          E:sdexner@yahoo.com.ar                                                                                                                                0001100000000000000000000000000000000491CAARS0110491630049197128233                                              ARS59900200001448646ASISTENCIA ECONOMICA DE EMERGENCIA A COMERCIOS                                                                                                                                           NN               001
PR0040000000000002849000000003000000ARS2020080327341718983       FALABELLA BIANCA                                            27341718983                                                                                                                                                                          E:biancafalabella_8@hotmail.com                                                                                                                       0033000000000000000000000000000000000006CAARS3300006820060269729052                                              ARS59900200001448646ASISTENCIA ECONOMICA DE EMERGENCIA A COMERCIOS                                                                                                                                           NN               001
PR0040000000000002850000000002000000ARS2020080327343397440       FALCONI WANDA                                               27343397440                                                                                                                                                                          E:Jmcorazondemelon@gmail.com                                                                                                                          0033000000000000000000000000000000000036CAARS3300036520360110627075                                              ARS59900200001448646ASISTENCIA ECONOMICA DE EMERGENCIA A COMERCIOS                                                                                                                                           NN               001
PR0040000000000002851000000002000000ARS2020080320253038439       FAVIT AMADO JAVIER                                          20253038439                                                                                                                                                                          E:gringoajf@hotmai.com                                                                                                                                0028500000000000000000000000000000000364CAARS2850364440094695737688                                              ARS59900200001448646ASISTENCIA ECONOMICA DE EMERGENCIA A COMERCIOS                                                                                                                                           NN               001
PR0040000000000002852000000003000000ARS2020080327306864381       FERNANDEZ MARIA VICTORIA                                    27306864381                                                                                                                                                                          E:fernandezmvictoria688@gmail.com                                                                                                                     0028500000000000000000000000000000000335CAARS2850335440095053977038                                              ARS59900200001448646ASISTENCIA ECONOMICA DE EMERGENCIA A COMERCIOS                                                                                                                                           NN               001
PR0040000000000002853000000002000000ARS2020080327277940871       FERREYRA VALENTINA                                          27277940871                                                                                                                                                                          E:vachihernandez@hotmail.com                                                                                                                          0033000000000000000000000000000000000506CAARS3300506325060174963023                                              ARS59900200001448646ASISTENCIA ECONOMICA DE EMERGENCIA A COMERCIOS                                                                                                                                           NN               001
PR0040000000000002854000000003000000ARS2020080323233560464       FIGUEREDO JULIO CESAR                                       23233560464                                                                                                                                                                          E:dtfigueredo@hotmail.com                                                                                                                             0000700000000000000000000000000000000075CAARS0070075730004078374910                                              ARS59900200001448646ASISTENCIA ECONOMICA DE EMERGENCIA A COMERCIOS                                                                                                                                           NN               001
PR0040000000000002855000000002000000ARS2020080323313392554       FISERES NATALIA                                             23313392554                                                                                                                                                                          E:grtransporteyencomiendas@gmail.com                                                                                                                  0028500000000000000000000000000000000334CAARS2850334740094711952888                                              ARS59900200001448646ASISTENCIA ECONOMICA DE EMERGENCIA A COMERCIOS                                                                                                                                           NN               001
PR0040000000000002856000000005000000ARS2020080320338477598       FLORIO ALEJANDRO NICOLAS                                    20338477598                                                                                                                                                                          E:aflorio2014@gmail.com                                                                                                                               0000700000000000000000000000000000000233CAARS0070233330004014253099                                              ARS59900200001448646ASISTENCIA ECONOMICA DE EMERGENCIA A COMERCIOS                                                                                                                                           NN               001
PR0040000000000002857000000002000000ARS2020080323334560384       FUX MARIA LAURA                                             23334560384                                                                                                                                                                          E:laurafux@gmail.com                                                                                                                                  0033000000000000000000000000000000000520CAARS3300520925200110954085                                              ARS59900200001448646ASISTENCIA ECONOMICA DE EMERGENCIA A COMERCIOS                                                                                                                                           NN               001
PR0040000000000002858000000002000000ARS2020080327248593313       GAIA SILVANA                                                27248593313                                                                                                                                                                          E:silgaia@hotmail.com                                                                                                                                 0033000000000000000000000000000000000024CAARS3300024220240192138082                                              ARS59900200001448646ASISTENCIA ECONOMICA DE EMERGENCIA A COMERCIOS                                                                                                                                           NN               001
PR0040000000000002859000000005000000ARS2020080330712486089       GARBUGLIA MARTIN                                            30712486089                                                                                                                                                                          E:martingarbuglia@hotmail.com                                                                                                                         0006500000000000000000000000000000000030CAARS0650030602000072152818                                              ARS59900200001448646ASISTENCIA ECONOMICA DE EMERGENCIA A COMERCIOS                                                                                                                                           NN               001
PR0040000000000002860000000002000000ARS2020080320214142067       GARCIA MONTERO JOAQUIN FRANCISCO                            20214142067                                                                                                                                                                          E:lamochilitaviajera@gmail.com                                                                                                                        0033000000000000000000000000000000000001CAARS3300001320010199847034                                              ARS59900200001448646ASISTENCIA ECONOMICA DE EMERGENCIA A COMERCIOS                                                                                                                                           NN               001
PR0040000000000002861000000005000000ARS2020080320127257036       GARRIDO SERGIO JOSE                                         20127257036                                                                                                                                                                          E:Sergiojgarrido@hotmail.com                                                                                                                          0028500000000000000000000000000000000339CAARS2850339240094760369068                                              ARS59900200001448646ASISTENCIA ECONOMICA DE EMERGENCIA A COMERCIOS                                                                                                                                           NN               001
PR0040000000000002862000000005000000ARS2020080320374507207       GAZITANO LUCAS LUIS                                         20374507207                                                                                                                                                                          E:infprodu@gmail.com                                                                                                                                  0007200000000000000000000000000000000118CAARS0720118588000038858390                                              ARS59900200001448646ASISTENCIA ECONOMICA DE EMERGENCIA A COMERCIOS                                                                                                                                           NN               001
PR0040000000000002863000000002000000ARS2020080320263735561       GENTILI MARCELO MATIAS                                      20263735561                                                                                                                                                                          E:marcelo.gentili78@gmail.com                                                                                                                         0033000000000000000000000000000000000024CAARS3300024220240052770104                                              ARS59900200001448646ASISTENCIA ECONOMICA DE EMERGENCIA A COMERCIOS                                                                                                                                           NN               001
PR0040000000000002864000000002000000ARS2020080327339976533       GHIBERTO ANDREA SUSANA                                      27339976533                                                                                                                                                                          E:impositivo@estudiofgg.com                                                                                                                           0033000000000000000000000000000000000553CAARS3300553725530096445030                                              ARS59900200001448646ASISTENCIA ECONOMICA DE EMERGENCIA A COMERCIOS                                                                                                                                           NN               001
PR0040000000000002865000000004000000ARS2020080327290988999       GIACOMETTI ANA BELEN                                        27290988999                                                                                                                                                                          E:ANA.GIACOMETTI81@Gmail.COM                                                                                                                          0019100000000000000000000000000000000331CAARS1910331455033100186514                                              ARS59900200001448646ASISTENCIA ECONOMICA DE EMERGENCIA A COMERCIOS                                                                                                                                           NN               001
PR0040000000000002866000000002000000ARS2020080327377124427       GIACONE DANISA                                              27377124427                                                                                                                                                                          E:Giaconedanisa@gmail.com                                                                                                                             0001100000000000000000000000000000000190CAARS0110190030019028152979                                              ARS59900200001448646ASISTENCIA ECONOMICA DE EMERGENCIA A COMERCIOS                                                                                                                                           NN               001
PR0040000000000002867000000002000000ARS2020080327177353421       GILI NANCI MARIA                                            27177353421                                                                                                                                                                          E:nancigili2011@hotmail.com                                                                                                                           0033000000000000000000000000000000000045CAARS3300045720450070386085                                              ARS59900200001448646ASISTENCIA ECONOMICA DE EMERGENCIA A COMERCIOS                                                                                                                                           NN               001
PR0040000000000002868000000003000000ARS2020080327215955104       GIORGIS LIANA MABEL                                         27215955104                                                                                                                                                                          E:lianagiorgis@hotmail.com.ar                                                                                                                         0007200000000000000000000000000000000478CAARS0720478888000040166922                                              ARS59900200001448646ASISTENCIA ECONOMICA DE EMERGENCIA A COMERCIOS                                                                                                                                           NN               001
PR0040000000000002869000000002000000ARS2020080320141107799       GIURLANI OMAR HUMBERTO                                      20141107799                                                                                                                                                                          E:omargiurlan@hotmail.com                                                                                                                             0019100000000000000000000000000000000091CAARS1910091955109102279317                                              ARS59900200001448646ASISTENCIA ECONOMICA DE EMERGENCIA A COMERCIOS                                                                                                                                           NN               001
PR0040000000000002870000000002000000ARS2020080320173907061       GOMEZ MARCELO JUAN                                          20173907061                                                                                                                                                                          E:info@comicanto.com.ar                                                                                                                               0019100000000000000000000000000000000369CAARS1910369755136901170967                                              ARS59900200001448646ASISTENCIA ECONOMICA DE EMERGENCIA A COMERCIOS                                                                                                                                           NN               001
PR0040000000000002871000000002000000ARS2020080320345870653       GOMEZ ELIAS EMMANUEL                                        20345870653                                                                                                                                                                          E:eg.gomez_89@hotmail.com                                                                                                                             0033000000000000000000000000000000000042CAARS3300042620420087326064                                              ARS59900200001448646ASISTENCIA ECONOMICA DE EMERGENCIA A COMERCIOS                                                                                                                                           NN               001
PR0040000000000002872000000002000000ARS2020080327249520565       GOMEZ CLAUDIA BETINA                                        27249520565                                                                                                                                                                          E:ernestoriestra@hotmail.com                                                                                                                          0033000000000000000000000000000000000506CAARS3300506325060710798043                                              ARS59900200001448646ASISTENCIA ECONOMICA DE EMERGENCIA A COMERCIOS                                                                                                                                           NN               001
PR0040000000000002873000000003000000ARS2020080324268774870       GOMEZ ROMINA VALERIA SUSANA                                 24268774870                                                                                                                                                                          E:laprofegomez@live.com.ar                                                                                                                            0033000000000000000000000000000000000003CAARS3300003720030777980102                                              ARS59900200001448646ASISTENCIA ECONOMICA DE EMERGENCIA A COMERCIOS                                                                                                                                           NN               001
PR0040000000000002874000000005000000ARS2020080320936758070       GOMEZ RAMOS JOSE ANTONIO                                    20936758070                                                                                                                                                                          E:orensanotour@hotmail.com                                                                                                                            0006500000000000000000000000000000000090CAARS0650090002000011748575                                              ARS59900200001448646ASISTENCIA ECONOMICA DE EMERGENCIA A COMERCIOS                                                                                                                                           NN               001
PR0040000000000002875000000002000000ARS2020080320241866468       GONZALEZ JORGE VICENTE                                      20241866468                                                                                                                                                                          E:jorgellavero@hotmail.com                                                                                                                            0006500000000000000000000000000000000030CAARS0650030601000000235850                                              ARS59900200001448646ASISTENCIA ECONOMICA DE EMERGENCIA A COMERCIOS                                                                                                                                           NN               001
PR0040000000000002876000000002000000ARS2020080320183129490       GONZALEZ ADRIAN MARIANO                                     20183129490                                                                                                                                                                          E:escolareslucas@hotmail.com                                                                                                                          0028500000000000000000000000000000000842CAARS2850842740000014074037                                              ARS59900200001448646ASISTENCIA ECONOMICA DE EMERGENCIA A COMERCIOS                                                                                                                                           NN               001
PR0040000000000002877000000002000000ARS2020080327136444188       GONZALEZ SARA GUADALUPE                                     27136444188                                                                                                                                                                          E:sarita-gonzalez@hotmail.com                                                                                                                         0033000000000000000000000000000000000536CAARS3300536025360651690027                                              ARS59900200001448646ASISTENCIA ECONOMICA DE EMERGENCIA A COMERCIOS                                                                                                                                           NN               001
PR0040000000000002878000000004000000ARS2020080327324309239       GONZALEZ MARIANELA                                          27324309239                                                                                                                                                                          E:jardinmaternalhuellasmagicas@hotmail.com                                                                                                            0042600000000000000000000000000000000001CAARS4260001900200039616083                                              ARS59900200001448646ASISTENCIA ECONOMICA DE EMERGENCIA A COMERCIOS                                                                                                                                           NN               001
PR0040000000000002879000000003000000ARS2020080327278044330       GORI CAROLINA                                               27278044330                                                                                                                                                                          E:carogori80@hotmail.com                                                                                                                              0001100000000000000000000000000000000553CAARS0110553730055315109365                                              ARS59900200001448646ASISTENCIA ECONOMICA DE EMERGENCIA A COMERCIOS                                                                                                                                           NN               001
PR0040000000000002880000000002000000ARS2020080323214162784       GRABICH MARIA CECILIA                                       23214162784                                                                                                                                                                          E:pablo@agostinisa.com.ar                                                                                                                             0019100000000000000000000000000000000381CAARS1910381955138100688117                                              ARS59900200001448646ASISTENCIA ECONOMICA DE EMERGENCIA A COMERCIOS                                                                                                                                           NN               001
PR0040000000000002881000000002000000ARS2020080320374069463       GRANDE JUAN AGUSTIN                                         20374069463                                                                                                                                                                          E:juanagustingrande@yahoo.com                                                                                                                         0033000000000000000000000000000000000040CAARS3300040220400189544027                                              ARS59900200001448646ASISTENCIA ECONOMICA DE EMERGENCIA A COMERCIOS                                                                                                                                           NN               001
PR0040000000000002882000000002000000ARS2020080327221229644       GRANDE MARILINA ANA                                         27221229644                                                                                                                                                                          E:gomez-paula@outlook.com                                                                                                                             0033000000000000000000000000000000000553CAARS3300553725530298448022                                              ARS59900200001448646ASISTENCIA ECONOMICA DE EMERGENCIA A COMERCIOS                                                                                                                                           NN               001
PR0040000000000002883000000003000000ARS2020080320201798214       GRAU LUIS FRANCISCO                                         20201798214                                                                                                                                                                          E:pipolaelo@gmail.com                                                                                                                                 0028500000000000000000000000000000000304CAARS2850304040094897678718                                              ARS59900200001448646ASISTENCIA ECONOMICA DE EMERGENCIA A COMERCIOS                                                                                                                                           NN               001
PR0040000000000002884000000002000000ARS2020080320203540478       GRIMANDELLA HERNAN PABLO                                    20203540478                                                                                                                                                                          E:estudiocontable@live.ca                                                                                                                             0033000000000000000000000000000000000005CAARS3300005120050099631074                                              ARS59900200001448646ASISTENCIA ECONOMICA DE EMERGENCIA A COMERCIOS                                                                                                                                           NN               001
PR0040000000000002885000000003000000ARS2020080320184787971       GRISOLIA EDGARDO JORGE                                      20184787971                                                                                                                                                                          E:gimnasioegrisolia@hotmail.com                                                                                                                       0033000000000000000000000000000000000000CAARS3300000620000336293057                                              ARS59900200001448646ASISTENCIA ECONOMICA DE EMERGENCIA A COMERCIOS                                                                                                                                           NN               001
PR0040000000000002886000000005000000ARS2020080320266693452       GUARDIA CESAR DANIEL                                        20266693452                                                                                                                                                                          E:GUARDIASONIDO@HOTMAIL.COM                                                                                                                           0033000000000000000000000000000000000531CAARS3300531515310001565036                                              ARS59900200001448646ASISTENCIA ECONOMICA DE EMERGENCIA A COMERCIOS                                                                                                                                           NN               001
PR0040000000000002887000000002000000ARS2020080320247843745       GUINAZU DIEGO ARIEL                                         20247843745                                                                                                                                                                          E:diego.g.totoras@gmail.com                                                                                                                           0033000000000000000000000000000000000056CAARS3300056320560035307030                                              ARS59900200001448646ASISTENCIA ECONOMICA DE EMERGENCIA A COMERCIOS                                                                                                                                           NN               001
PR0040000000000002888000000003000000ARS2020080320302919594       GUTIERREZ NICOLAS                                           20302919594                                                                                                                                                                          E:nicolas.franchetti@gmail.com                                                                                                                        0033000000000000000000000000000000000520CAARS3300520925200324884037                                              ARS59900200001448646ASISTENCIA ECONOMICA DE EMERGENCIA A COMERCIOS                                                                                                                                           NN               001
PR0040000000000002889000000003000000ARS2020080327175144310       HALEK SANDRA RAQUEL                                         27175144310                                                                                                                                                                          E:sandrahalek21@gmail.com                                                                                                                             0028500000000000000000000000000000000345CAARS2850345340095284022318                                              ARS59900200001448646ASISTENCIA ECONOMICA DE EMERGENCIA A COMERCIOS                                                                                                                                           NN               001
PR0040000000000002890000000003000000ARS2020080327257815337       HERNANDEZ ROSANA                                            27257815337                                                                                                                                                                          E:diego.borgo@hotmail.com.ar                                                                                                                          0028500000000000000000000000000000000373CAARS2850373640094795832308                                              ARS59900200001448646ASISTENCIA ECONOMICA DE EMERGENCIA A COMERCIOS                                                                                                                                           NN               001
PR0040000000000002891000000005000000ARS2020080330714625485       HISFREIN SRL HISKIN LEONARDO SANTIAGO                       30714625485                                                                                                                                                                          E:silvanafreinquel@hotmail.com.ar                                                                                                                     0007200000000000000000000000000000000156CAARS0720156720000001356304                                              ARS59900200001448646ASISTENCIA ECONOMICA DE EMERGENCIA A COMERCIOS                                                                                                                                           NN               001
PR0040000000000002892000000002000000ARS2020080327185693134       INGA MERCEDES DEL VALLE                                     27185693134                                                                                                                                                                          E:ingamersedes@gmail.com                                                                                                                              0001700000000000000000000000000000000201CAARS0170201140000004766113                                              ARS59900200001448646ASISTENCIA ECONOMICA DE EMERGENCIA A COMERCIOS                                                                                                                                           NN               001
PR0040000000000002893000000003000000ARS2020080320357507554       ITURRE CLAUDIO                                              20357507554                                                                                                                                                                          E:lapreviaceres@hotmail.com                                                                                                                           0001100000000000000000000000000000000195CAARS0110195530019571728447                                              ARS59900200001448646ASISTENCIA ECONOMICA DE EMERGENCIA A COMERCIOS                                                                                                                                           NN               001
PR0040000000000002894000000002000000ARS2020080320269727692       JAIME RAMOS MARCOS LIONEL                                   20269727692                                                                                                                                                                          E:remha.jaime@gmail.com                                                                                                                               0028500000000000000000000000000000000794CAARS2850794340094638343268                                              ARS59900200001448646ASISTENCIA ECONOMICA DE EMERGENCIA A COMERCIOS                                                                                                                                           NN               001
