FH202007281336480010061170ORDENDEPAGO20200728                                                                                                                                                                                                                                                                                                                                                                                                                                                                                                                                                                                                                                                                                                                                                                             
PR0040000000000000001000000005000000ARS2020072830710240473       CORTELLONI Y TRIMARCO MARIELA ALEJANDRA Y NATALIA           30710240473                                                                                                                                                                          E:pferran@gmail.com                                                                                                                                   0006500000000000000000000000000000000085CAARS0650085601000000145250                                              ARS59900200001448646ASISTENCIA ECONOMICA DE EMERGENCIA A COMERCIOS                                                                                                                                           NN               001
PR0040000000000000002000000003000000ARS2020072820210111302       MARTINEZ WALTER ALVARO                                      20210111302                                                                                                                                                                          E:magicwally@hotmail.com                                                                                                                              0001700000000000000000000000000000000209CAARS0170209740000031423593                                              ARS59900200001448646ASISTENCIA ECONOMICA DE EMERGENCIA A COMERCIOS                                                                                                                                           NN               001
PR0040000000000000003000000002000000ARS2020072827202831538       MELCHIORI SANDRA VERONICA                                   27202831538                                                                                                                                                                          E:sandra.melchiori@gmail.com                                                                                                                          0033000000000000000000000000000000000558CAARS3300558225580114250104                                              ARS59900200001448646ASISTENCIA ECONOMICA DE EMERGENCIA A COMERCIOS                                                                                                                                           NN               001
PR0040000000000000004000000002000000ARS2020072827203546330       PETRACCI SILVINA MARIANA                                    27203546330                                                                                                                                                                          E:Smpetra@Hotmail.com                                                                                                                                 0033000000000000000000000000000000000003CAARS3300003720030102549099                                              ARS59900200001448646ASISTENCIA ECONOMICA DE EMERGENCIA A COMERCIOS                                                                                                                                           NN               001
PR0040000000000000005000000003000000ARS2020072820246494909       RAMOS SALVUCCI GONZALO                                      20246494909                                                                                                                                                                          E:gonzaloramosok@gmail.com                                                                                                                            0007200000000000000000000000000000000117CAARS0720117888000036228168                                              ARS59900200001448646ASISTENCIA ECONOMICA DE EMERGENCIA A COMERCIOS                                                                                                                                           NN               001
PR0040000000000000006000000005000000ARS2020072820301034599       ABREGU LUCAS                                                20301034599                                                                                                                                                                          E:nancymarialuz@hotmail.com                                                                                                                           0028500000000000000000000000000000000795CAARS2850795040094777800288                                              ARS59900200001448646ASISTENCIA ECONOMICA DE EMERGENCIA A COMERCIOS                                                                                                                                           NN               001
PR0040000000000000007000000002000000ARS2020072827221043524       ACCETTA SILVINA                                             27221043524                                                                                                                                                                          E:creciendosilvi@gmail.com                                                                                                                            0000700000000000000000000000000000000399CAARS0070399230004003317092                                              ARS59900200001448646ASISTENCIA ECONOMICA DE EMERGENCIA A COMERCIOS                                                                                                                                           NN               001
PR0040000000000000008000000003000000ARS2020072823281531344       ACEVEDO CLAUDINA NATALIA                                    23281531344                                                                                                                                                                          E:acevedoclaudina36@gmail.com                                                                                                                         0001700000000000000000000000000000000209CAARS0170209740000031823393                                              ARS59900200001448646ASISTENCIA ECONOMICA DE EMERGENCIA A COMERCIOS                                                                                                                                           NN               001
PR0040000000000000009000000003000000ARS2020072827360028971       ACOSTA MANUELA GALA                                         27360028971                                                                                                                                                                          E:patonane@hotmail.com                                                                                                                                0007200000000000000000000000000000000156CAARS0720156788000001874190                                              ARS59900200001448646ASISTENCIA ECONOMICA DE EMERGENCIA A COMERCIOS                                                                                                                                           NN               001
PR0040000000000000010000000003000000ARS2020072820370716804       ACOSTA LEONEL EZEQUIEL                                      20370716804                                                                                                                                                                          E:leoeze09@hotmail.com                                                                                                                                0033000000000000000000000000000000000028CAARS3300028020280952277068                                              ARS59900200001448646ASISTENCIA ECONOMICA DE EMERGENCIA A COMERCIOS                                                                                                                                           NN               001
PR0040000000000000011000000002000000ARS2020072827295609163       ACOSTA MARIA SOLEDAD                                        27295609163                                                                                                                                                                          E:shole916@gmail.com                                                                                                                                  0033000000000000000000000000000000000500CAARS3300500125000245193058                                              ARS59900200001448646ASISTENCIA ECONOMICA DE EMERGENCIA A COMERCIOS                                                                                                                                           NN               001
PR0040000000000000012000000005000000ARS2020072830714740977       ACURSO MARTIN                                               30714740977                                                                                                                                                                          E:martin.acurso@gmail.com                                                                                                                             0000700000000000000000000000000000000233CAARS0070233330004017707548                                              ARS59900200001448646ASISTENCIA ECONOMICA DE EMERGENCIA A COMERCIOS                                                                                                                                           NN               001
PR0040000000000000013000000003000000ARS2020072827209470565       ADDINO ANA CLARA                                            27209470565                                                                                                                                                                          E:aluma01@hotmail.com                                                                                                                                 0033000000000000000000000000000000000028CAARS3300028020280072685051                                              ARS59900200001448646ASISTENCIA ECONOMICA DE EMERGENCIA A COMERCIOS                                                                                                                                           NN               001
PR0040000000000000014000000005000000ARS2020072830521142703       AGLIERI LEANDRO                                             30521142703                                                                                                                                                                          E:gerencia@cicae.org.ar                                                                                                                               0028500000000000000000000000000000000881CAARS2850881630000084301104                                              ARS59900200001448646ASISTENCIA ECONOMICA DE EMERGENCIA A COMERCIOS                                                                                                                                           NN               001
PR0040000000000000015000000003000000ARS2020072820180960075       AGOSTINELLI JORGE EDGARDO                                   20180960075                                                                                                                                                                          E:transporteescolarjorge@hotmail.com                                                                                                                  0001100000000000000000000000000000000651CAARS0110651630065104196797                                              ARS59900200001448646ASISTENCIA ECONOMICA DE EMERGENCIA A COMERCIOS                                                                                                                                           NN               001
PR0040000000000000016000000002000000ARS2020072827135441738       AGUERO ROBERTO ROGELIO                                      27135441738                                                                                                                                                                          E:aguero.roberto@hotmail.com                                                                                                                          0001500000000000000000000000000000000888CAARS0150888601000001651468                                              ARS59900200001448646ASISTENCIA ECONOMICA DE EMERGENCIA A COMERCIOS                                                                                                                                           NN               001
PR0040000000000000017000000003000000ARS2020072827250839230       AGUILAR EVANGELINA ROXANA                                   27250839230                                                                                                                                                                          E:eva_ary@hotmail.com                                                                                                                                 0000700000000000000000000000000000000704CAARS0070704830004000104169                                              ARS59900200001448646ASISTENCIA ECONOMICA DE EMERGENCIA A COMERCIOS                                                                                                                                           NN               001
PR0040000000000000018000000003000000ARS2020072827147293785       AGUILAR STELLA MARIS                                        27147293785                                                                                                                                                                          E:Ste_llaguilar@hotmail.com                                                                                                                           0028500000000000000000000000000000000334CAARS2850334740095256012538                                              ARS59900200001448646ASISTENCIA ECONOMICA DE EMERGENCIA A COMERCIOS                                                                                                                                           NN               001
PR0040000000000000019000000004000000ARS2020072827253281540       AGUILERA PATRICIA LAURA                                     27253281540                                                                                                                                                                          E:paguilera236@hotmail.com                                                                                                                            0028500000000000000000000000000000000798CAARS2850798140094872897598                                              ARS59900200001448646ASISTENCIA ECONOMICA DE EMERGENCIA A COMERCIOS                                                                                                                                           NN               001
PR0040000000000000020000000003000000ARS2020072820207252795       AGUIRRE OSCAR WALTER                                        20207252795                                                                                                                                                                          E:aguirrecacho@yahoo.com.ar                                                                                                                           0001100000000000000000000000000000000651CAARS0110651630065104535451                                              ARS59900200001448646ASISTENCIA ECONOMICA DE EMERGENCIA A COMERCIOS                                                                                                                                           NN               001
PR0040000000000000021000000005000000ARS2020072820109887073       AHUMADA RICARDO LUIS                                        20109887073                                                                                                                                                                          E:ricardoluisahumada@gmail.com                                                                                                                        0033000000000000000000000000000000000006CAARS3300006820060457572107                                              ARS59900200001448646ASISTENCIA ECONOMICA DE EMERGENCIA A COMERCIOS                                                                                                                                           NN               001
PR0040000000000000022000000002000000ARS2020072827298417729       AICARDI MARIELA SOLEDAD                                     27298417729                                                                                                                                                                          E:marielaaicardi@gmail.com                                                                                                                            0015000000000000000000000000000000000657CAARS1500657000065732547096                                              ARS59900200001448646ASISTENCIA ECONOMICA DE EMERGENCIA A COMERCIOS                                                                                                                                           NN               001
PR0040000000000000023000000005000000ARS2020072830714384593       AIMA SRL AIMA SRL                                           30714384593                                                                                                                                                                          E:marcelomedina1230@gmail.com                                                                                                                         0028500000000000000000000000000000000353CAARS2850353830094194848671                                              ARS59900200001448646ASISTENCIA ECONOMICA DE EMERGENCIA A COMERCIOS                                                                                                                                           NN               001
PR0040000000000000024000000002000000ARS2020072827338738930       ALAGI VALERIA                                               27338738930                                                                                                                                                                          E:Valeriaalagi@gmail.com                                                                                                                              0028500000000000000000000000000000000719CAARS2850719640094956922488                                              ARS59900200001448646ASISTENCIA ECONOMICA DE EMERGENCIA A COMERCIOS                                                                                                                                           NN               001
PR0040000000000000025000000002000000ARS2020072823317925794       ALANIS ROMINA                                               23317925794                                                                                                                                                                          E:rominaandreaalanis@hotmail.com                                                                                                                      0033000000000000000000000000000000000028CAARS3300028020280187274089                                              ARS59900200001448646ASISTENCIA ECONOMICA DE EMERGENCIA A COMERCIOS                                                                                                                                           NN               001
PR0040000000000000026000000002000000ARS2020072827186410039       ALARCON VILMA ESILDA                                        27186410039                                                                                                                                                                          E:esildavilma@gmail.com                                                                                                                               0001100000000000000000000000000000000214CAARS0110214930021472308929                                              ARS59900200001448646ASISTENCIA ECONOMICA DE EMERGENCIA A COMERCIOS                                                                                                                                           NN               001
PR0040000000000000027000000002000000ARS2020072827348326495       ALARCON GISELA SOLEDAD                                      27348326495                                                                                                                                                                          E:alarcongisela16@gmail.com                                                                                                                           0000000000000000000000000000000000000003CAARS0000003100017022033141                                              ARS59900200001448646ASISTENCIA ECONOMICA DE EMERGENCIA A COMERCIOS                                                                                                                                           NN               001
PR0040000000000000028000000002000000ARS2020072827249435908       ALBAMONTE KARINA VERONICA                                   27249435908                                                                                                                                                                          E:karialbamonte@hotmail.com                                                                                                                           0001700000000000000000000000000000000210CAARS0170210340000010176591                                              ARS59900200001448646ASISTENCIA ECONOMICA DE EMERGENCIA A COMERCIOS                                                                                                                                           NN               001
PR0040000000000000029000000005000000ARS2020072820375720222       ALBARRACIN MANUEL                                           20375720222                                                                                                                                                                          E:manu-albarracin1519@hotmail.com                                                                                                                     0041500000000000000000000000000000000999CAARS4150999718003471090023                                              ARS59900200001448646ASISTENCIA ECONOMICA DE EMERGENCIA A COMERCIOS                                                                                                                                           NN               001
PR0040000000000000030000000002000000ARS2020072823177777374       ALBINO VILMA BEATRIZ                                        23177777374                                                                                                                                                                          E:ayecatagnola09@hotmail.com                                                                                                                          0033000000000000000000000000000000000515CAARS3300515525150068967106                                              ARS59900200001448646ASISTENCIA ECONOMICA DE EMERGENCIA A COMERCIOS                                                                                                                                           NN               001
PR0040000000000000031000000005000000ARS2020072827290237713       ALBORNOZ ANDREA                                             27290237713                                                                                                                                                                          E:estudiocontablemendoza@gmail.com                                                                                                                    0028500000000000000000000000000000000865CAARS2850865640094926210858                                              ARS59900200001448646ASISTENCIA ECONOMICA DE EMERGENCIA A COMERCIOS                                                                                                                                           NN               001
PR0040000000000000032000000002000000ARS2020072827322290085       ALBRECHT CORINA INES                                        27322290085                                                                                                                                                                          E:corina_albrecht@yahoo.com.ar                                                                                                                        0033000000000000000000000000000000000519CAARS3300519325190201276072                                              ARS59900200001448646ASISTENCIA ECONOMICA DE EMERGENCIA A COMERCIOS                                                                                                                                           NN               001
PR0040000000000000033000000005000000ARS2020072820266033010       ALDAZ MARTIN CARLOS                                         20266033010                                                                                                                                                                          E:martinaldaz@hotmail.com                                                                                                                             0028500000000000000000000000000000000341CAARS2850341540094971676348                                              ARS59900200001448646ASISTENCIA ECONOMICA DE EMERGENCIA A COMERCIOS                                                                                                                                           NN               001
PR0040000000000000034000000002000000ARS2020072820275188752       ALDERETE HUGO DANTE                                         20275188752                                                                                                                                                                          E:hugoalderete222@hotmail.com                                                                                                                         0004400000000000000000000000000000000024CAARS0440024040000173166930                                              ARS59900200001448646ASISTENCIA ECONOMICA DE EMERGENCIA A COMERCIOS                                                                                                                                           NN               001
PR0040000000000000035000000005000000ARS2020072827282630163       ALFIERI PAMELA RITA                                         27282630163                                                                                                                                                                          E:eijove2@hotmail.com                                                                                                                                 0000700000000000000000000000000000000267CAARS0070267820000007590346                                              ARS59900200001448646ASISTENCIA ECONOMICA DE EMERGENCIA A COMERCIOS                                                                                                                                           NN               001
PR0040000000000000036000000005000000ARS2020072830715571540       ALFONSO MARCOS                                              30715571540                                                                                                                                                                          E:miradorlab@gmail.com                                                                                                                                0028500000000000000000000000000000000332CAARS2850332330094162211791                                              ARS59900200001448646ASISTENCIA ECONOMICA DE EMERGENCIA A COMERCIOS                                                                                                                                           NN               001
PR0040000000000000037000000005000000ARS2020072827299705868       ALMAZAN LORENA ANDREA                                       27299705868                                                                                                                                                                          E:lorealmazan@hotmail.com                                                                                                                             0000700000000000000000000000000000000220CAARS0070220320000003792920                                              ARS59900200001448646ASISTENCIA ECONOMICA DE EMERGENCIA A COMERCIOS                                                                                                                                           NN               001
PR0040000000000000038000000004000000ARS2020072827147065812       ALONSO LAURA AIDEE                                          27147065812                                                                                                                                                                          E:josemanzoni1896@yahoo.com.ar                                                                                                                        0033000000000000000000000000000000000550CAARS3300550625500000281023                                              ARS59900200001448646ASISTENCIA ECONOMICA DE EMERGENCIA A COMERCIOS                                                                                                                                           NN               001
PR0040000000000000039000000003000000ARS2020072820149819119       ALONSO OSVALDO LUIS                                         20149819119                                                                                                                                                                          E:brenalonso@hotmail.com                                                                                                                              0033000000000000000000000000000000000000CAARS3300000620000271013037                                              ARS59900200001448646ASISTENCIA ECONOMICA DE EMERGENCIA A COMERCIOS                                                                                                                                           NN               001
PR0040000000000000040000000005000000ARS2020072820201678723       ALONSO CESAR ALEJANDRO                                      20201678723                                                                                                                                                                          E:pachi39_07@yahoo.com.ar                                                                                                                             0001700000000000000000000000000000000201CAARS0170201140000005621963                                              ARS59900200001448646ASISTENCIA ECONOMICA DE EMERGENCIA A COMERCIOS                                                                                                                                           NN               001
PR0040000000000000041000000003000000ARS2020072827230615891       ALONSO MARIA MERCEDES                                       27230615891                                                                                                                                                                          E:susana_gaido@hotmail.com                                                                                                                            0033000000000000000000000000000000000000CAARS3300000620000241773088                                              ARS59900200001448646ASISTENCIA ECONOMICA DE EMERGENCIA A COMERCIOS                                                                                                                                           NN               001
PR0040000000000000042000000002000000ARS2020072820176693658       ALTAMIRANO RAMON OSVALDO                                    20176693658                                                                                                                                                                          E:contablespezzotta@hotmail.com                                                                                                                       0007200000000000000000000000000000000718CAARS0720718388000035079354                                              ARS59900200001448646ASISTENCIA ECONOMICA DE EMERGENCIA A COMERCIOS                                                                                                                                           NN               001
PR0040000000000000043000000005000000ARS2020072827268600839       ALTAMIRANO MARIA NOELIA                                     27268600839                                                                                                                                                                          E:noeseptiembre@hotmail.com                                                                                                                           0028500000000000000000000000000000000374CAARS2850374340094946155788                                              ARS59900200001448646ASISTENCIA ECONOMICA DE EMERGENCIA A COMERCIOS                                                                                                                                           NN               001
PR0040000000000000044000000005000000ARS2020072827244007495       ALVAREZ NANCI                                               27244007495                                                                                                                                                                          E:espacioeducativoamanecer@gmail.com                                                                                                                  0033000000000000000000000000000000000000CAARS3300000620000093368061                                              ARS59900200001448646ASISTENCIA ECONOMICA DE EMERGENCIA A COMERCIOS                                                                                                                                           NN               001
PR0040000000000000045000000003000000ARS2020072827236909625       ALVAREZ ADRIANA MONICA                                      27236909625                                                                                                                                                                          E:claudiaecabrera@hotmail.com                                                                                                                         0001100000000000000000000000000000000491CAARS0110491630049195405051                                              ARS59900200001448646ASISTENCIA ECONOMICA DE EMERGENCIA A COMERCIOS                                                                                                                                           NN               001
PR0040000000000000046000000005000000ARS2020072830716362430       AMEGLIO SUSANA MARCELA                                      30716362430                                                                                                                                                                          E:susanaameglio9@gmail.com                                                                                                                            0007200000000000000000000000000000000478CAARS0720478820000000068790                                              ARS59900200001448646ASISTENCIA ECONOMICA DE EMERGENCIA A COMERCIOS                                                                                                                                           NN               001
PR0040000000000000047000000003000000ARS2020072823391204349       AMENTA RODRIGO                                              23391204349                                                                                                                                                                          E:bogado.claudio@gmail.com                                                                                                                            0007200000000000000000000000000000000472CAARS0720472688000035803072                                              ARS59900200001448646ASISTENCIA ECONOMICA DE EMERGENCIA A COMERCIOS                                                                                                                                           NN               001
PR0040000000000000048000000003000000ARS2020072827240637818       ANANIA DANIELA LAURA                                        27240637818                                                                                                                                                                          E:ana_74@live.com.ar                                                                                                                                  0033000000000000000000000000000000000001CAARS3300001320010999862015                                              ARS59900200001448646ASISTENCIA ECONOMICA DE EMERGENCIA A COMERCIOS                                                                                                                                           NN               001
PR0040000000000000049000000004000000ARS2020072827238958755       ANDREU LAURA ALEJANDRA                                      27238958755                                                                                                                                                                          E:santafe@santafe.gov.ar                                                                                                                              0001700000000000000000000000000000000418CAARS0170418540000031869197                                              ARS59900200001448646ASISTENCIA ECONOMICA DE EMERGENCIA A COMERCIOS                                                                                                                                           NN               001
PR0040000000000000050000000005000000ARS2020072827249434707       ANDRUSZCZYSZYN NATALIA RITA                                 27249434707                                                                                                                                                                          E:claribruno@gmail.com                                                                                                                                0000700000000000000000000000000000000079CAARS0070079530004067316123                                              ARS59900200001448646ASISTENCIA ECONOMICA DE EMERGENCIA A COMERCIOS                                                                                                                                           NN               001
PR0040000000000000051000000002000000ARS2020072820234220633       AQUILANTI ARIEL                                             20234220633                                                                                                                                                                          E:arielaquilanti@gmail.com                                                                                                                            0001100000000000000000000000000000000671CAARS0110671430067101611833                                              ARS59900200001448646ASISTENCIA ECONOMICA DE EMERGENCIA A COMERCIOS                                                                                                                                           NN               001
PR0040000000000000052000000002000000ARS2020072827308945931       ARAGO ARAGO                                                 27308945931                                                                                                                                                                          E:vaninaarago@hotmail.com                                                                                                                             0033000000000000000000000000000000000500CAARS3300500125000215772070                                              ARS59900200001448646ASISTENCIA ECONOMICA DE EMERGENCIA A COMERCIOS                                                                                                                                           NN               001
PR0040000000000000053000000005000000ARS2020072827303133238       ARAIZ LUCIA                                                 27303133238                                                                                                                                                                          E:mairamolfino@gmail.com                                                                                                                              0028500000000000000000000000000000000345CAARS2850345340094969354928                                              ARS59900200001448646ASISTENCIA ECONOMICA DE EMERGENCIA A COMERCIOS                                                                                                                                           NN               001
PR0040000000000000054000000002000000ARS2020072820352510255       ARANDA FACUNDO EFRAIN                                       20352510255                                                                                                                                                                          E:facundoaranda@live.com                                                                                                                              0007200000000000000000000000000000000174CAARS0720174188000022820518                                              ARS59900200001448646ASISTENCIA ECONOMICA DE EMERGENCIA A COMERCIOS                                                                                                                                           NN               001
PR0040000000000000055000000002000000ARS2020072823280970999       ARANDA LEONARDO JAVIER                                      23280970999                                                                                                                                                                          E:javiervgg@hotmail.com                                                                                                                               0001100000000000000000000000000000000588CAARS0110588930058833740115                                              ARS59900200001448646ASISTENCIA ECONOMICA DE EMERGENCIA A COMERCIOS                                                                                                                                           NN               001
PR0040000000000000056000000003000000ARS2020072827217222376       ARATA ROXANA                                                27217222376                                                                                                                                                                          E:rockxana.70@hotmail.com                                                                                                                             0006500000000000000000000000000000000020CAARS0650020702000145616971                                              ARS59900200001448646ASISTENCIA ECONOMICA DE EMERGENCIA A COMERCIOS                                                                                                                                           NN               001
PR0040000000000000057000000003000000ARS2020072827182963467       ARATA VIVIANA ELSA                                          27182963467                                                                                                                                                                          E:viviarata@hotmail.com                                                                                                                               0001700000000000000000000000000000000201CAARS0170201140000005165995                                              ARS59900200001448646ASISTENCIA ECONOMICA DE EMERGENCIA A COMERCIOS                                                                                                                                           NN               001
PR0040000000000000058000000002000000ARS2020072827363261405       ARATA ANA CLAUDIA                                           27363261405                                                                                                                                                                          E:joanacrp@hotmail.com                                                                                                                                0006500000000000000000000000000000000035CAARS0650035101000000014691                                              ARS59900200001448646ASISTENCIA ECONOMICA DE EMERGENCIA A COMERCIOS                                                                                                                                           NN               001
PR0040000000000000059000000003000000ARS2020072827279596701       ARCE NATALIA DEL VALLE                                      27279596701                                                                                                                                                                          E:natalia_arce_03@yahoo.com.ar                                                                                                                        0033000000000000000000000000000000000076CAARS3300076120760153690065                                              ARS59900200001448646ASISTENCIA ECONOMICA DE EMERGENCIA A COMERCIOS                                                                                                                                           NN               001
PR0040000000000000060000000002000000ARS2020072827265144751       ARESU LILIANA                                               27265144751                                                                                                                                                                          E:liliana0978@hotmail.com                                                                                                                             0033000000000000000000000000000000000061CAARS3300061720610165752043                                              ARS59900200001448646ASISTENCIA ECONOMICA DE EMERGENCIA A COMERCIOS                                                                                                                                           NN               001
PR0040000000000000061000000002000000ARS2020072827425593183       ARGENTO ROMINA                                              27425593183                                                                                                                                                                          E:martin_argento@hotmail.com                                                                                                                          0033000000000000000000000000000000000500CAARS3300500125000212356037                                              ARS59900200001448646ASISTENCIA ECONOMICA DE EMERGENCIA A COMERCIOS                                                                                                                                           NN               001
PR0040000000000000062000000002000000ARS2020072820285334382       ARRECHEA JULIAN ALFREDO                                     20285334382                                                                                                                                                                          E:julian.arrechea1@gmail.com                                                                                                                          0001700000000000000000000000000000000253CAARS0170253040000001888142                                              ARS59900200001448646ASISTENCIA ECONOMICA DE EMERGENCIA A COMERCIOS                                                                                                                                           NN               001
PR0040000000000000063000000003000000ARS2020072820130572147       ARROYO DANTE OMAR                                           20130572147                                                                                                                                                                          E:Dante.arroyo@hotmail.com                                                                                                                            0043100000000000000000000000000000000008CAARS4310008222000000000792                                              ARS59900200001448646ASISTENCIA ECONOMICA DE EMERGENCIA A COMERCIOS                                                                                                                                           NN               001
PR0040000000000000064000000005000000ARS2020072827266031837       ARROYO PAULA BEATRIZ                                        27266031837                                                                                                                                                                          E:pasitos368@msn.com                                                                                                                                  0019100000000000000000000000000000000086CAARS1910086555108601134235                                              ARS59900200001448646ASISTENCIA ECONOMICA DE EMERGENCIA A COMERCIOS                                                                                                                                           NN               001
PR0040000000000000065000000003000000ARS2020072820110616210       ARTEAGA DIEGO ROGELIO                                       20110616210                                                                                                                                                                          E:arteagadiego687@gmail.com                                                                                                                           0028500000000000000000000000000000000353CAARS2850353840094097493928                                              ARS59900200001448646ASISTENCIA ECONOMICA DE EMERGENCIA A COMERCIOS                                                                                                                                           NN               001
PR0040000000000000066000000003000000ARS2020072820315650462       ASSENZA JOSE FRANCISCO                                      20315650462                                                                                                                                                                          E:assenzajosef@gmail.com                                                                                                                              0033000000000000000000000000000000000504CAARS3300504925040227426042                                              ARS59900200001448646ASISTENCIA ECONOMICA DE EMERGENCIA A COMERCIOS                                                                                                                                           NN               001
PR0040000000000000067000000003000000ARS2020072823268354859       ATARA JUAN MANUEL                                           23268354859                                                                                                                                                                          E:turcoatara@hotmail.com                                                                                                                              0007200000000000000000000000000000000060CAARS0720060188000036090822                                              ARS59900200001448646ASISTENCIA ECONOMICA DE EMERGENCIA A COMERCIOS                                                                                                                                           NN               001
PR0040000000000000068000000002000000ARS2020072827258341185       ATIE MARIA TERESA                                           27258341185                                                                                                                                                                          E:Cmeventos2012@gmail.com                                                                                                                             0007200000000000000000000000000000000101CAARS0720101788000036004122                                              ARS59900200001448646ASISTENCIA ECONOMICA DE EMERGENCIA A COMERCIOS                                                                                                                                           NN               001
PR0040000000000000069000000002000000ARS2020072820218106073       AVILA ROBERTO MARCELO                                       20218106073                                                                                                                                                                          E:marcelo.avila@hotmail.com.ar                                                                                                                        0041500000000000000000000000000000000999CAARS4150999718004030800046                                              ARS59900200001448646ASISTENCIA ECONOMICA DE EMERGENCIA A COMERCIOS                                                                                                                                           NN               001
PR0040000000000000070000000005000000ARS2020072820291424962       AYALA MARTIN EDUARDO                                        20291424962                                                                                                                                                                          E:coloncolon@fibertel.com.ar                                                                                                                          0015000000000000000000000000000000000044CAARS1500044200007232737346                                              ARS59900200001448646ASISTENCIA ECONOMICA DE EMERGENCIA A COMERCIOS                                                                                                                                           NN               001
PR0040000000000000071000000003000000ARS2020072820307633982       AYALA LUCAS IGNACIO                                         20307633982                                                                                                                                                                          E:Ayalalucas84@gmail.com                                                                                                                              0007200000000000000000000000000000000719CAARS0720719088000035747736                                              ARS59900200001448646ASISTENCIA ECONOMICA DE EMERGENCIA A COMERCIOS                                                                                                                                           NN               001
PR0040000000000000072000000002000000ARS2020072827389001800       AYALA BRENDA NATALI                                         27389001800                                                                                                                                                                          E:deloredo@tower.com.ar                                                                                                                               0033000000000000000000000000000000000001CAARS3300001310010263335033                                              ARS59900200001448646ASISTENCIA ECONOMICA DE EMERGENCIA A COMERCIOS                                                                                                                                           NN               001
PR0040000000000000073000000002000000ARS2020072827270930587       AZZA KARINA LORENA                                          27270930587                                                                                                                                                                          E:karinaazza@outlook.es                                                                                                                               0019100000000000000000000000000000000083CAARS1910083455108301213821                                              ARS59900200001448646ASISTENCIA ECONOMICA DE EMERGENCIA A COMERCIOS                                                                                                                                           NN               001
PR0040000000000000074000000005000000ARS2020072830715328417       B P M  SRL ROMA                                             30715328417                                                                                                                                                                          E:santafe@santafe.gov.ar                                                                                                                              0003400000000000000000000000000000000080CAARS0340080700800033791001                                              ARS59900200001448646ASISTENCIA ECONOMICA DE EMERGENCIA A COMERCIOS                                                                                                                                           NN               001
PR0040000000000000075000000003000000ARS2020072827178473900       BAELLA SANDRA CLAUDIA                                       27178473900                                                                                                                                                                          E:sandrabaella@uolsinectis.com.ar                                                                                                                     0000700000000000000000000000000000000146CAARS0070146030004034588162                                              ARS59900200001448646ASISTENCIA ECONOMICA DE EMERGENCIA A COMERCIOS                                                                                                                                           NN               001
PR0040000000000000076000000002000000ARS2020072823253240369       BAGNERA MARIANO MARCELO JESUS                               23253240369                                                                                                                                                                          E:marcelocreiscell2000@hotmail.com                                                                                                                    0003300000000000000000000000000000000028CAARS0330028020280197710089                                              ARS59900200001448646ASISTENCIA ECONOMICA DE EMERGENCIA A COMERCIOS                                                                                                                                           NN               001
PR0040000000000000077000000003000000ARS2020072820271967927       BAIGORRIA IVAN ARIEL                                        20271967927                                                                                                                                                                          E:baigorriaivan@hotmail.com.ar                                                                                                                        0028500000000000000000000000000000000376CAARS2850376740095025612608                                              ARS59900200001448646ASISTENCIA ECONOMICA DE EMERGENCIA A COMERCIOS                                                                                                                                           NN               001
PR0040000000000000078000000005000000ARS2020072827291130866       BALARINI NATALIA VERONICA                                   27291130866                                                                                                                                                                          E:natibalarini@hotmail.com                                                                                                                            0001100000000000000000000000000000000540CAARS0110540730054013530415                                              ARS59900200001448646ASISTENCIA ECONOMICA DE EMERGENCIA A COMERCIOS                                                                                                                                           NN               001
PR0040000000000000079000000004000000ARS2020072820257218016       BALBUENA VICTOR RAUL                                        20257218016                                                                                                                                                                          E:lgarciadebrahi@gmail.com                                                                                                                            0033000000000000000000000000000000000500CAARS3300500125000137399016                                              ARS59900200001448646ASISTENCIA ECONOMICA DE EMERGENCIA A COMERCIOS                                                                                                                                           NN               001
PR0040000000000000080000000003000000ARS2020072827234824843       BALDANI ERICA GUADALUPE                                     27234824843                                                                                                                                                                          E:luchimoretti_622@hotmail.com                                                                                                                        0033000000000000000000000000000000000028CAARS3300028020280071340007                                              ARS59900200001448646ASISTENCIA ECONOMICA DE EMERGENCIA A COMERCIOS                                                                                                                                           NN               001
PR0040000000000000081000000002000000ARS2020072820385994819       BALDELLOU JUAN CRUZ                                         20385994819                                                                                                                                                                          E:juancruzbaldellou@hotmail.com                                                                                                                       0000700000000000000000000000000000000233CAARS0070233330004033141412                                              ARS59900200001448646ASISTENCIA ECONOMICA DE EMERGENCIA A COMERCIOS                                                                                                                                           NN               001
PR0040000000000000082000000002000000ARS2020072827256601953       BALEANI GUSA PAMELA ALEJANDRA                               27256601953                                                                                                                                                                          E:pamelabaleani19@hotmail.com                                                                                                                         0001100000000000000000000000000000000261CAARS0110261330026147690015                                              ARS59900200001448646ASISTENCIA ECONOMICA DE EMERGENCIA A COMERCIOS                                                                                                                                           NN               001
PR0040000000000000083000000002000000ARS2020072827283987367       BALESTRAZZI PAMELA SABRINA                                  27283987367                                                                                                                                                                          E:pame.b0702@hotmail.com                                                                                                                              0033000000000000000000000000000000000001CAARS3300001320010002469088                                              ARS59900200001448646ASISTENCIA ECONOMICA DE EMERGENCIA A COMERCIOS                                                                                                                                           NN               001
PR0040000000000000084000000002000000ARS2020072827317846075       BALLINARI MARINA SOLEDAD                                    27317846075                                                                                                                                                                          E:bibiana894@hotmail.com                                                                                                                              0028500000000000000000000000000000000792CAARS2850792940095039466358                                              ARS59900200001448646ASISTENCIA ECONOMICA DE EMERGENCIA A COMERCIOS                                                                                                                                           NN               001
PR0040000000000000085000000002000000ARS2020072827230242343       BALVERDI ADRIANA PATRICIA                                   27230242343                                                                                                                                                                          E:macanas60@hotmail.com                                                                                                                               0028500000000000000000000000000000000843CAARS2850843440000008613590                                              ARS59900200001448646ASISTENCIA ECONOMICA DE EMERGENCIA A COMERCIOS                                                                                                                                           NN               001
PR0040000000000000086000000002000000ARS2020072827317903230       BANDIERA BARBARA                                            27317903230                                                                                                                                                                          E:barby343@hotmail.com                                                                                                                                0007200000000000000000000000000000000408CAARS0720408588000035354686                                              ARS59900200001448646ASISTENCIA ECONOMICA DE EMERGENCIA A COMERCIOS                                                                                                                                           NN               001
PR0040000000000000087000000003000000ARS2020072827143928239       BARATTI PATRICIA                                            27143928239                                                                                                                                                                          E:martalembo1970@gmail.com                                                                                                                            0001500000000000000000000000000000000888CAARS0150888601000002403693                                              ARS59900200001448646ASISTENCIA ECONOMICA DE EMERGENCIA A COMERCIOS                                                                                                                                           NN               001
PR0040000000000000088000000003000000ARS2020072820298507553       BARBA MAURO SEBASTIAN                                       20298507553                                                                                                                                                                          E:rob_barba@hotmail.com                                                                                                                               0001100000000000000000000000000000000466CAARS0110466700046672002247                                              ARS59900200001448646ASISTENCIA ECONOMICA DE EMERGENCIA A COMERCIOS                                                                                                                                           NN               001
PR0040000000000000089000000005000000ARS2020072820144032951       BARBARO RUBEN DARIO                                         20144032951                                                                                                                                                                          E:martinellioj@hotmail.com                                                                                                                            0001100000000000000000000000000000000553CAARS0110553730055312009897                                              ARS59900200001448646ASISTENCIA ECONOMICA DE EMERGENCIA A COMERCIOS                                                                                                                                           NN               001
PR0040000000000000090000000002000000ARS2020072820141390075       BARBEITO MARCELO CLAUDIO                                    20141390075                                                                                                                                                                          E:andrescarelli@hotmail.com                                                                                                                           0000700000000000000000000000000000000704CAARS0070704830004001888051                                              ARS59900200001448646ASISTENCIA ECONOMICA DE EMERGENCIA A COMERCIOS                                                                                                                                           NN               001
PR0040000000000000091000000003000000ARS2020072827338331296       BARBIERI JULIANA                                            27338331296                                                                                                                                                                          E:barbierijuliana@gmail.com                                                                                                                           0007200000000000000000000000000000000107CAARS0720107988000036834886                                              ARS59900200001448646ASISTENCIA ECONOMICA DE EMERGENCIA A COMERCIOS                                                                                                                                           NN               001
PR0040000000000000092000000005000000ARS2020072820106361526       BARBIERI RAUL ALFREDO                                       20106361526                                                                                                                                                                          E:germanbarbieriabogado@hotmail.com                                                                                                                   0033000000000000000000000000000000000520CAARS3300520925200132549061                                              ARS59900200001448646ASISTENCIA ECONOMICA DE EMERGENCIA A COMERCIOS                                                                                                                                           NN               001
PR0040000000000000093000000005000000ARS2020072827185959134       BARBONA SANDRA BEATRIZ                                      27185959134                                                                                                                                                                          E:be.a642@hotmail.com                                                                                                                                 0007200000000000000000000000000000000478CAARS0720478888000035394604                                              ARS59900200001448646ASISTENCIA ECONOMICA DE EMERGENCIA A COMERCIOS                                                                                                                                           NN               001
PR0040000000000000094000000002000000ARS2020072827356443646       BARBOSA VANESA                                              27356443646                                                                                                                                                                          E:vanesa.b23@gmail.com                                                                                                                                0033000000000000000000000000000000000078CAARS3300078520780325485057                                              ARS59900200001448646ASISTENCIA ECONOMICA DE EMERGENCIA A COMERCIOS                                                                                                                                           NN               001
PR0040000000000000095000000005000000ARS2020072827115269955       BARONI ESTELA GUADALUPE                                     27115269955                                                                                                                                                                          E:estelagbaroni@gmail.com                                                                                                                             0001100000000000000000000000000000000170CAARS0110170230017072013947                                              ARS59900200001448646ASISTENCIA ECONOMICA DE EMERGENCIA A COMERCIOS                                                                                                                                           NN               001
PR0040000000000000096000000002000000ARS2020072820115799275       BARRETO BRAULIO DOMINGO                                     20115799275                                                                                                                                                                          E:b.nairaldana@gmail.com                                                                                                                              0003400000000000000000000000000000000100CAARS0340100808710052474008                                              ARS59900200001448646ASISTENCIA ECONOMICA DE EMERGENCIA A COMERCIOS                                                                                                                                           NN               001
PR0040000000000000097000000005000000ARS2020072820220405207       BARRILE DIEGO RICARDO                                       20220405207                                                                                                                                                                          E:diegobarrile71@gmail.com                                                                                                                            0004400000000000000000000000000000000027CAARS0440027140000112988647                                              ARS59900200001448646ASISTENCIA ECONOMICA DE EMERGENCIA A COMERCIOS                                                                                                                                           NN               001
PR0040000000000000098000000005000000ARS2020072827223474980       BARRO ERICA SONIA                                           27223474980                                                                                                                                                                          E:CIELODELPARANA@GMAIL.COM                                                                                                                            0007200000000000000000000000000000000543CAARS0720543988000035194372                                              ARS59900200001448646ASISTENCIA ECONOMICA DE EMERGENCIA A COMERCIOS                                                                                                                                           NN               001
PR0040000000000000099000000003000000ARS2020072820347141136       BARTOLOMMEI HERNAN                                          20347141136                                                                                                                                                                          E:rominabartolommei@gmail.com                                                                                                                         0007200000000000000000000000000000000156CAARS0720156788000024691086                                              ARS59900200001448646ASISTENCIA ECONOMICA DE EMERGENCIA A COMERCIOS                                                                                                                                           NN               001
PR0040000000000000100000000003000000ARS2020072827239143208       BARZAGHI FLAVIA JESUS                                       27239143208                                                                                                                                                                          E:F220474@gmail.com                                                                                                                                   0001100000000000000000000000000000000444CAARS0110444230044436460433                                              ARS59900200001448646ASISTENCIA ECONOMICA DE EMERGENCIA A COMERCIOS                                                                                                                                           NN               001
PR0040000000000000101000000005000000ARS2020072820286452435       BASILIADES ULISES                                           20286452435                                                                                                                                                                          E:ulisesbasiliades@hotmail.com                                                                                                                        0000700000000000000000000000000000000399CAARS0070399230004000988165                                              ARS59900200001448646ASISTENCIA ECONOMICA DE EMERGENCIA A COMERCIOS                                                                                                                                           NN               001
PR0040000000000000102000000003000000ARS2020072820305060764       BASTERRA NICOLAS                                            20305060764                                                                                                                                                                          E:santafe@santafe.gov.ar                                                                                                                              0000700000000000000000000000000000000103CAARS0070103330004166938934                                              ARS59900200001448646ASISTENCIA ECONOMICA DE EMERGENCIA A COMERCIOS                                                                                                                                           NN               001
PR0040000000000000103000000002000000ARS2020072827265387522       BATTAGLIA HERNAN ARIEL                                      27265387522                                                                                                                                                                          E:hernanzeta@gmail.com                                                                                                                                0004400000000000000000000000000000000027CAARS0440027140000173706417                                              ARS59900200001448646ASISTENCIA ECONOMICA DE EMERGENCIA A COMERCIOS                                                                                                                                           NN               001
PR0040000000000000104000000002000000ARS2020072820281992415       BATTISTONI ARIEL LUIS                                       20281992415                                                                                                                                                                          E:aanty763@hotmail.com                                                                                                                                0001700000000000000000000000000000000081CAARS0170081740000047577389                                              ARS59900200001448646ASISTENCIA ECONOMICA DE EMERGENCIA A COMERCIOS                                                                                                                                           NN               001
PR0040000000000000105000000002000000ARS2020072820291276718       BAUMGARTNER GUSTAVO HERNAN                                  20291276718                                                                                                                                                                          E:estudiobyl@hotmail.com                                                                                                                              0033000000000000000000000000000000000522CAARS3300522325220122463087                                              ARS59900200001448646ASISTENCIA ECONOMICA DE EMERGENCIA A COMERCIOS                                                                                                                                           NN               001
PR0040000000000000106000000002000000ARS2020072820331236048       BAYOCHI MAURICIO ARIEL                                      20331236048                                                                                                                                                                          E:mauriciobayochi@hotmail.com                                                                                                                         0001100000000000000000000000000000000588CAARS0110588930058834189151                                              ARS59900200001448646ASISTENCIA ECONOMICA DE EMERGENCIA A COMERCIOS                                                                                                                                           NN               001
PR0040000000000000107000000002000000ARS2020072820170750145       BECARIA JORGE ALBERTO                                       20170750145                                                                                                                                                                          E:jorgebecaria@hotmail.com                                                                                                                            0001700000000000000000000000000000000209CAARS0170209740000031327857                                              ARS59900200001448646ASISTENCIA ECONOMICA DE EMERGENCIA A COMERCIOS                                                                                                                                           NN               001
PR0040000000000000108000000005000000ARS2020072827371024935       BELCASTRO LAURA ANAHI                                       27371024935                                                                                                                                                                          E:jardinbdepapel@gmail.com                                                                                                                            0019100000000000000000000000000000000081CAARS1910081055008101252278                                              ARS59900200001448646ASISTENCIA ECONOMICA DE EMERGENCIA A COMERCIOS                                                                                                                                           NN               001
PR0040000000000000109000000005000000ARS2020072827183895538       BELTRAME DANIELA                                            27183895538                                                                                                                                                                          E:beltramedaniela@hotmail.com                                                                                                                         0007200000000000000000000000000000000719CAARS0720719088000035679318                                              ARS59900200001448646ASISTENCIA ECONOMICA DE EMERGENCIA A COMERCIOS                                                                                                                                           NN               001
PR0040000000000000110000000002000000ARS2020072827233448082       BELTRAMINO CRISTINA VIRGINIA                                27233448082                                                                                                                                                                          E:cristinabeltramino@gmail.com                                                                                                                        0028500000000000000000000000000000000761CAARS2850761540000008154394                                              ARS59900200001448646ASISTENCIA ECONOMICA DE EMERGENCIA A COMERCIOS                                                                                                                                           NN               001
PR0040000000000000111000000005000000ARS2020072833699235089       BENITEZ LEONARDO GREGORIO                                   33699235089                                                                                                                                                                          E:cremonagraciela@hotmail.com                                                                                                                         0033000000000000000000000000000000000527CAARS3300527825270356452108                                              ARS59900200001448646ASISTENCIA ECONOMICA DE EMERGENCIA A COMERCIOS                                                                                                                                           NN               001
PR0040000000000000112000000003000000ARS2020072820294874632       BENITEZ FERNANDO                                            20294874632                                                                                                                                                                          E:ferbenitez@hotmail.com                                                                                                                              0007200000000000000000000000000000000478CAARS0720478888000035311768                                              ARS59900200001448646ASISTENCIA ECONOMICA DE EMERGENCIA A COMERCIOS                                                                                                                                           NN               001
PR0040000000000000113000000003000000ARS2020072820225846406       BENITEZ CESAR                                               20225846406                                                                                                                                                                          E:estudio-noelia@hotmail.com                                                                                                                          0001700000000000000000000000000000000210CAARS0170210340000008717087                                              ARS59900200001448646ASISTENCIA ECONOMICA DE EMERGENCIA A COMERCIOS                                                                                                                                           NN               001
PR0040000000000000114000000002000000ARS2020072820226143387       BENITEZ MARCELO DELMIRO                                     20226143387                                                                                                                                                                          E:marcheloelrojo@hotmail.com                                                                                                                          0001100000000000000000000000000000000491CAARS0110491630049198098997                                              ARS59900200001448646ASISTENCIA ECONOMICA DE EMERGENCIA A COMERCIOS                                                                                                                                           NN               001
PR0040000000000000115000000002000000ARS2020072827344603680       BENITEZ ADELAIDA                                            27344603680                                                                                                                                                                          E:benitezadelaida12@gmail.com                                                                                                                         0019100000000000000000000000000000000343CAARS1910343755134300774085                                              ARS59900200001448646ASISTENCIA ECONOMICA DE EMERGENCIA A COMERCIOS                                                                                                                                           NN               001
PR0040000000000000116000000005000000ARS2020072820281991451       BENJAMIN SOLER BAR DEL MAR                                  20281991451                                                                                                                                                                          E:santafe@santafe.gov.ar                                                                                                                              0014300000000000000000000000000000000001CAARS1430001713007212560010                                              ARS59900200001448646ASISTENCIA ECONOMICA DE EMERGENCIA A COMERCIOS                                                                                                                                           NN               001
PR0040000000000000117000000002000000ARS2020072823302541914       BENTANCOUR VANESA                                           23302541914                                                                                                                                                                          E:bentancourvanesa7@gmail.com                                                                                                                         0001500000000000000000000000000000000506CAARS0150506101000156616941                                              ARS59900200001448646ASISTENCIA ECONOMICA DE EMERGENCIA A COMERCIOS                                                                                                                                           NN               001
PR0040000000000000118000000002000000ARS2020072820217710422       BERCINI MARCELO HECTOR                                      20217710422                                                                                                                                                                          E:MARCELOBERCINI@HOTMAIL.COM                                                                                                                          0007200000000000000000000000000000000060CAARS0720060188000037221586                                              ARS59900200001448646ASISTENCIA ECONOMICA DE EMERGENCIA A COMERCIOS                                                                                                                                           NN               001
PR0040000000000000119000000005000000ARS2020072830711595186       BERECIARTUA LUCRECIA                                        30711595186                                                                                                                                                                          E:jardinlabrujamaruja@hotmail.com.ar                                                                                                                  0019100000000000000000000000000000000274CAARS1910274855027400562664                                              ARS59900200001448646ASISTENCIA ECONOMICA DE EMERGENCIA A COMERCIOS                                                                                                                                           NN               001
PR0040000000000000120000000002000000ARS2020072827248559182       BERGAMINI CLAUDIA                                           27248559182                                                                                                                                                                          E:cbergamini@hotmail.com                                                                                                                              0033000000000000000000000000000000000503CAARS3300503225030530405102                                              ARS59900200001448646ASISTENCIA ECONOMICA DE EMERGENCIA A COMERCIOS                                                                                                                                           NN               001
PR0040000000000000121000000002000000ARS2020072827260734593       BERGESE NADINA                                              27260734593                                                                                                                                                                          E:jardinpibitos@gmail.com                                                                                                                             0033000000000000000000000000000000000000CAARS3300000620000283805091                                              ARS59900200001448646ASISTENCIA ECONOMICA DE EMERGENCIA A COMERCIOS                                                                                                                                           NN               001
PR0040000000000000122000000003000000ARS2020072827330323391       BERNAL LUCIA                                                27330323391                                                                                                                                                                          E:marianorabellino@gmail.com                                                                                                                          0007200000000000000000000000000000000156CAARS0720156788000038773918                                              ARS59900200001448646ASISTENCIA ECONOMICA DE EMERGENCIA A COMERCIOS                                                                                                                                           NN               001
PR0040000000000000123000000005000000ARS2020072823326604054       BERNARDI AGOSTINA MARIA                                     23326604054                                                                                                                                                                          E:cpncesarrodriguez@hotmail.com                                                                                                                       0001700000000000000000000000000000000418CAARS0170418540000031495251                                              ARS59900200001448646ASISTENCIA ECONOMICA DE EMERGENCIA A COMERCIOS                                                                                                                                           NN               001
PR0040000000000000124000000002000000ARS2020072827322747166       BERNARDI CAMILA                                             27322747166                                                                                                                                                                          E:c_ami_716@hotmail.com                                                                                                                               0001100000000000000000000000000000000462CAARS0110462630046272107565                                              ARS59900200001448646ASISTENCIA ECONOMICA DE EMERGENCIA A COMERCIOS                                                                                                                                           NN               001
