FH202008040854330010061170ORDENDEPAGO20200805                                                                                                                                                                                                                                                                                                                                                                                                                                                                                                                                                                                                                                                                                                                                                                             
PR0040000000000005462000000002000000ARS2020080523177777374       ALBINO VILMA BEATRIZ                                        23177777374                                                                                                                                                                          E:ayecatagnola09@hotmail.com                                                                                                                          0033000000000000000000000000000000000515CAARS3300515525150423805050                                              ARS59900200001448646ASISTENCIA ECONOMICA DE EMERGENCIA A COMERCIOS                                                                                                                                           NN               001
PR0040000000000005463000000002000000ARS2020080520218106073       AVILA ROBERTO MARCELO                                       20218106073                                                                                                                                                                          E:marcelo.avila@hotmail.com.ar                                                                                                                        0033000000000000000000000000000000000005CAARS3300005120050118901049                                              ARS59900200001448646ASISTENCIA ECONOMICA DE EMERGENCIA A COMERCIOS                                                                                                                                           NN               001
PR0040000000000005464000000002000000ARS2020080523253240369       BAGNERA MARIANO MARCELO JESUS                               23253240369                                                                                                                                                                          E:marcelocreiscell2000@hotmail.com                                                                                                                    0033000000000000000000000000000000000028CAARS3300028020280197710089                                              ARS59900200001448646ASISTENCIA ECONOMICA DE EMERGENCIA A COMERCIOS                                                                                                                                           NN               001
PR0040000000000005465000000003000000ARS2020080520298507553       BARBA MAURO SEBASTIAN                                       20298507553                                                                                                                                                                          E:rob_barba@hotmail.com                                                                                                                               0001100000000000000000000000000000000466CAARS0110466730046572602247                                              ARS59900200001448646ASISTENCIA ECONOMICA DE EMERGENCIA A COMERCIOS                                                                                                                                           NN               001
PR0040000000000005466000000003000000ARS2020080523214144379       CALANNI MACCHIO CLAUDIO DANIEL                              23214144379                                                                                                                                                                          E:claucalanni@hotmail.com                                                                                                                             0028500000000000000000000000000000000337CAARS2850337840095065365948                                              ARS59900200001448646ASISTENCIA ECONOMICA DE EMERGENCIA A COMERCIOS                                                                                                                                           NN               001
PR0040000000000005467000000002000000ARS2020080520251577189       CANAL ADRIAN ALDO                                           20251577189                                                                                                                                                                          E:iva1623@yahoo.com.ar                                                                                                                                0033000000000000000000000000000000000500CAARS3300500125000106450069                                              ARS59900200001448646ASISTENCIA ECONOMICA DE EMERGENCIA A COMERCIOS                                                                                                                                           NN               001
PR0040000000000005468000000002000000ARS2020080527237907650       CASTANO ANDREA                                              27237907650                                                                                                                                                                          E:andrea_2974@hotmail.com                                                                                                                             0006500000000000000000000000000000000095CAARS0650095502000000080796                                              ARS59900200001448646ASISTENCIA ECONOMICA DE EMERGENCIA A COMERCIOS                                                                                                                                           NN               001
PR0040000000000005469000000004000000ARS2020080520082845624       CAVALIERI MIGUEL HUMBERTO                                   20082845624                                                                                                                                                                          E:erikawall@hotmail.com                                                                                                                               0033000000000000000000000000000000000002CAARS3300002020020138862088                                              ARS59900200001448646ASISTENCIA ECONOMICA DE EMERGENCIA A COMERCIOS                                                                                                                                           NN               001
PR0040000000000005470000000002000000ARS2020080527316021420       CESPED VIRGINIA PAOLA                                       27316021420                                                                                                                                                                          E:virginiacesped5@gmail.com                                                                                                                           0007200000000000000000000000000000000463CAARS0720463488000035440468                                              ARS59900200001448646ASISTENCIA ECONOMICA DE EMERGENCIA A COMERCIOS                                                                                                                                           NN               001
PR0040000000000005471000000005000000ARS2020080530715438077       COMPLEJO CAMPUS SRL DE FRENZA LUCAS NICOLAS                 30715438077                                                                                                                                                                          E:lucasdfrenza@gmail.com                                                                                                                              0007200000000000000000000000000000000118CAARS0720118520000001790490                                              ARS59900200001448646ASISTENCIA ECONOMICA DE EMERGENCIA A COMERCIOS                                                                                                                                           NN               001
PR0040000000000005472000000002000000ARS2020080520305545075       CORREA JOSE IGNACIO                                         20305545075                                                                                                                                                                          E:milagritos_79@hotmail.com                                                                                                                           0028500000000000000000000000000000000857CAARS2850857140095258969108                                              ARS59900200001448646ASISTENCIA ECONOMICA DE EMERGENCIA A COMERCIOS                                                                                                                                           NN               001
PR0040000000000005473000000002000000ARS2020080527333818162       CORVALAN VANESA BEATRIZ                                     27333818162                                                                                                                                                                          E:vanecorvalan@hotmail.com                                                                                                                            0033000000000000000000000000000000000000CAARS3300000620000782375067                                              ARS59900200001448646ASISTENCIA ECONOMICA DE EMERGENCIA A COMERCIOS                                                                                                                                           NN               001
PR0040000000000005474000000003000000ARS2020080527184162895       CUELLO ADRIANA LUCIA                                        27184162895                                                                                                                                                                          E:adri.estrellaazul@live.com                                                                                                                          0007200000000000000000000000000000000371CAARS0720371688000035973786                                              ARS59900200001448646ASISTENCIA ECONOMICA DE EMERGENCIA A COMERCIOS                                                                                                                                           NN               001
PR0040000000000005475000000002000000ARS2020080520203944617       DELFINO MARCOS EMILIANO                                     20203944617                                                                                                                                                                          E:marquitosdelfino@gmail.com                                                                                                                          0006500000000000000000000000000000000045CAARS0650045002000017630782                                              ARS59900200001448646ASISTENCIA ECONOMICA DE EMERGENCIA A COMERCIOS                                                                                                                                           NN               001
PR0040000000000005476000000005000000ARS2020080530714556297       DESARROLLOS DEPORTIVOS SRL FABRIS RAMIRO                    30714556297                                                                                                                                                                          E:sueldos@pomardilorenzo.com.ar                                                                                                                       0007200000000000000000000000000000000408CAARS0720408520000000097622                                              ARS59900200001448646ASISTENCIA ECONOMICA DE EMERGENCIA A COMERCIOS                                                                                                                                           NN               001
PR0040000000000005477000000005000000ARS2020080527207041497       GABETTA CARINA FLAVIA                                       27207041497                                                                                                                                                                          E:jardinkinder@gmail.com                                                                                                                              0002700000000000000000000000000000000043CAARS0270043410000368060013                                              ARS59900200001448646ASISTENCIA ECONOMICA DE EMERGENCIA A COMERCIOS                                                                                                                                           NN               001
PR0040000000000005478000000002000000ARS2020080520284343027       GAMBOA CRISTIAN DAVID                                       20284343027                                                                                                                                                                          E:Titigamboa4@gmail.com                                                                                                                               0001500000000000000000000000000000000544CAARS0150544301403082071000                                              ARS59900200001448646ASISTENCIA ECONOMICA DE EMERGENCIA A COMERCIOS                                                                                                                                           NN               001
PR0040000000000005479000000005000000ARS2020080527168636933       GAMUNDI ANALIA                                              27168636933                                                                                                                                                                          E:gamundianalia@gmail.com                                                                                                                             0000700000000000000000000000000000000380CAARS0070380030004005154367                                              ARS59900200001448646ASISTENCIA ECONOMICA DE EMERGENCIA A COMERCIOS                                                                                                                                           NN               001
PR0040000000000005480000000002000000ARS2020080527135026250       GAZZOLA VIVIANA ROSARIO                                     27135026250                                                                                                                                                                          E:vrg1314@hotmail.com                                                                                                                                 0030100000000000000000000000000000000008CAARS3010008250000084833416                                              ARS59900200001448646ASISTENCIA ECONOMICA DE EMERGENCIA A COMERCIOS                                                                                                                                           NN               001
PR0040000000000005481000000005000000ARS2020080527341188399       GENERO MARIA ALEJANDRA                                      27341188399                                                                                                                                                                          E:ale.genero1989@gmail.com                                                                                                                            0033000000000000000000000000000000000534CAARS3300534625340087223099                                              ARS59900200001448646ASISTENCIA ECONOMICA DE EMERGENCIA A COMERCIOS                                                                                                                                           NN               001
PR0040000000000005482000000003000000ARS2020080527175144310       HALEK SANDRA RAQUEL                                         27175144310                                                                                                                                                                          E:sandrahalek21@gmail.com                                                                                                                             0028500000000000000000000000000000000345CAARS2850345340095284022318                                              ARS59900200001448646ASISTENCIA ECONOMICA DE EMERGENCIA A COMERCIOS                                                                                                                                           NN               001
PR0040000000000005483000000002000000ARS2020080520210413198       HEIS FRANCISCO JAVIER                                       20210413198                                                                                                                                                                          E:franciscoheis3@gmail.com                                                                                                                            0001100000000000000000000000000000000144CAARS0110144330014475407601                                              ARS59900200001448646ASISTENCIA ECONOMICA DE EMERGENCIA A COMERCIOS                                                                                                                                           NN               001
PR0040000000000005484000000003000000ARS2020080520403173550       IZQUIERDO LUIS MARIA                                        20403173550                                                                                                                                                                          E:luismaizquierdo@gmail.com                                                                                                                           0028500000000000000000000000000000000791CAARS2850791240095242672018                                              ARS59900200001448646ASISTENCIA ECONOMICA DE EMERGENCIA A COMERCIOS                                                                                                                                           NN               001
PR0040000000000005485000000003000000ARS2020080520172762441       LANESE GUSTAVO MIGUEL                                       20172762441                                                                                                                                                                          E:cuatroestacionesfiestas@gmail.com                                                                                                                   0028500000000000000000000000000000000672CAARS2850672840094822337028                                              ARS59900200001448646ASISTENCIA ECONOMICA DE EMERGENCIA A COMERCIOS                                                                                                                                           NN               001
PR0040000000000005486000000002000000ARS2020080527145583549       LEBRON ADRIANA MONICA                                       27145583549                                                                                                                                                                          E:eladiabarraza@hotmail.com                                                                                                                           0028500000000000000000000000000000000357CAARS2850357630094195867921                                              ARS59900200001448646ASISTENCIA ECONOMICA DE EMERGENCIA A COMERCIOS                                                                                                                                           NN               001
PR0040000000000005487000000005000000ARS2020080527062426670       MACHA MARIA INES                                            27062426670                                                                                                                                                                          E:mariaimacha@hotmail.com.ar                                                                                                                          0033000000000000000000000000000000000527CAARS3300527825270001027086                                              ARS59900200001448646ASISTENCIA ECONOMICA DE EMERGENCIA A COMERCIOS                                                                                                                                           NN               001
PR0040000000000005488000000002000000ARS2020080520372638487       MARTINEZ ALEXIS EZEQUIEL RAMON                              20372638487                                                                                                                                                                          E:richardjaz1565@gmail.com                                                                                                                            0006500000000000000000000000000000000080CAARS0650080102000065872967                                              ARS59900200001448646ASISTENCIA ECONOMICA DE EMERGENCIA A COMERCIOS                                                                                                                                           NN               001
PR0040000000000005489000000003000000ARS2020080527239233509       MARTINEZ SUSANA MARIA                                       27239233509                                                                                                                                                                          E:susukiu0474@gmail.com                                                                                                                               0028500000000000000000000000000000000336CAARS2850336140095234432718                                              ARS59900200001448646ASISTENCIA ECONOMICA DE EMERGENCIA A COMERCIOS                                                                                                                                           NN               001
PR0040000000000005490000000002000000ARS2020080527203546330       MELCHIORI SANDRA VERONICA                                   27203546330                                                                                                                                                                          E:sandra.melchiori@gmail.com                                                                                                                          0033000000000000000000000000000000000500CAARS3300500125000917125008                                              ARS59900200001448646ASISTENCIA ECONOMICA DE EMERGENCIA A COMERCIOS                                                                                                                                           NN               001
PR0040000000000005491000000002000000ARS2020080527129073522       MENENDEZ MARCELA LILIANA                                    27129073522                                                                                                                                                                          E:gise0201@hotmail.com.ar                                                                                                                             0028500000000000000000000000000000000345CAARS2850345340094949221008                                              ARS59900200001448646ASISTENCIA ECONOMICA DE EMERGENCIA A COMERCIOS                                                                                                                                           NN               001
PR0040000000000005492000000002000000ARS2020080527298042296       MOLINA VANESA                                               27298042296                                                                                                                                                                          E:sprivadaindustrial@hotmail.com                                                                                                                      0033000000000000000000000000000000000520CAARS3300520925200162589095                                              ARS59900200001448646ASISTENCIA ECONOMICA DE EMERGENCIA A COMERCIOS                                                                                                                                           NN               001
PR0040000000000005493000000002000000ARS2020080527106302079       MULLONI ELIDA MARIA                                         27106302079                                                                                                                                                                          E:negriraulcesar@gmail.com                                                                                                                            0015000000000000000000000000000000000021CAARS1500021300007164187314                                              ARS59900200001448646ASISTENCIA ECONOMICA DE EMERGENCIA A COMERCIOS                                                                                                                                           NN               001
PR0040000000000005494000000002000000ARS2020080523317008619       MUNOZ LEANDRO NICOLAS                                       23317008619                                                                                                                                                                          E:nanomunoz08@gmail.com                                                                                                                               0033000000000000000000000000000000000504CAARS3300504925040988848066                                              ARS59900200001448646ASISTENCIA ECONOMICA DE EMERGENCIA A COMERCIOS                                                                                                                                           NN               001
PR0040000000000005495000000002000000ARS2020080527258408131       OLIVA CINTIA CECILIA                                        27258408131                                                                                                                                                                          E:olivacintia77@gmail.com                                                                                                                             0028500000000000000000000000000000000719CAARS2850719640095026364508                                              ARS59900200001448646ASISTENCIA ECONOMICA DE EMERGENCIA A COMERCIOS                                                                                                                                           NN               001
PR0040000000000005496000000002000000ARS2020080527219856992       PAULOCHENKA SILVIA ALEJANDRA                                27219856992                                                                                                                                                                          E:ivaroman78@gmail.com                                                                                                                                0043100000000000000000000000000000000002CAARS4310002022000000048455                                              ARS59900200001448646ASISTENCIA ECONOMICA DE EMERGENCIA A COMERCIOS                                                                                                                                           NN               001
PR0040000000000005497000000002000000ARS2020080520262204508       POLITANO JULIETA                                            20262204508                                                                                                                                                                          E:julietapolitano@hotmail.com                                                                                                                         0004400000000000000000000000000000000051CAARS0440051640000162658822                                              ARS59900200001448646ASISTENCIA ECONOMICA DE EMERGENCIA A COMERCIOS                                                                                                                                           NN               001
PR0040000000000005498000000005000000ARS2020080520202695583       RICCARDI NELSON                                             20202695583                                                                                                                                                                          E:Nelsonricardi@hotmail.com                                                                                                                           0007200000000000000000000000000000000464CAARS0720464188000035168654                                              ARS59900200001448646ASISTENCIA ECONOMICA DE EMERGENCIA A COMERCIOS                                                                                                                                           NN               001
PR0040000000000005499000000002000000ARS2020080520275149277       RIVOIRA MARTIN                                              20275149277                                                                                                                                                                          E:dimartinolore@gmail.com                                                                                                                             0019100000000000000000000000000000000372CAARS1910372755137200226449                                              ARS59900200001448646ASISTENCIA ECONOMICA DE EMERGENCIA A COMERCIOS                                                                                                                                           NN               001
PR0040000000000005500000000005000000ARS2020080523315406854       ROMERO SABRINA VANESA                                       23315406854                                                                                                                                                                          E:paynob@hotmail.com                                                                                                                                  0033000000000000000000000000000000000001CAARS3300001320010182508005                                              ARS59900200001448646ASISTENCIA ECONOMICA DE EMERGENCIA A COMERCIOS                                                                                                                                           NN               001
PR0040000000000005501000000002000000ARS2020080527220409274       SANALITRO CARINA ANDREA                                     27220409274                                                                                                                                                                          E:carinasanalitro@hotmail.com                                                                                                                         0000700000000000000000000000000000000267CAARS0070267830004035950599                                              ARS59900200001448646ASISTENCIA ECONOMICA DE EMERGENCIA A COMERCIOS                                                                                                                                           NN               001
PR0040000000000005502000000003000000ARS2020080520244799478       SEGOVIA CRISTIAN RAUL                                       20244799478                                                                                                                                                                          E:domiciliofiscal25@gmail.com                                                                                                                         0033000000000000000000000000000000000001CAARS3300001320010195931012                                              ARS59900200001448646ASISTENCIA ECONOMICA DE EMERGENCIA A COMERCIOS                                                                                                                                           NN               001
PR0040000000000005503000000004000000ARS2020080527229514380       SUAREZ MARIELA FERNANDA                                     27229514380                                                                                                                                                                          E:mariela--colores@hotmail.es                                                                                                                         0028500000000000000000000000000000000336CAARS2850336140094927669918                                              ARS59900200001448646ASISTENCIA ECONOMICA DE EMERGENCIA A COMERCIOS                                                                                                                                           NN               001
PR0040000000000005504000000002000000ARS2020080529231429379       TOZZI JULIO ALEJANDRO                                       29231429379                                                                                                                                                                          E:alelorenzon1@hotmail.com                                                                                                                            0033000000000000000000000000000000000536CAARS3300536025360226558091                                              ARS59900200001448646ASISTENCIA ECONOMICA DE EMERGENCIA A COMERCIOS                                                                                                                                           NN               001
PR0040000000000005505000000002000000ARS2020080527125302101       TRULLET SILVIA PILAR                                        27125302101                                                                                                                                                                          E:silvia_trullet@hotmail.com                                                                                                                          0033000000000000000000000000000000000558CAARS3300558225580090616080                                              ARS59900200001448646ASISTENCIA ECONOMICA DE EMERGENCIA A COMERCIOS                                                                                                                                           NN               001
PR0040000000000005506000000000000000ARS2020080523376865819       VALENZUELA JUAN IGNACIO                                     23376865819                                                                                                                                                                          E:juanignacio_leproso@hotmail.com                                                                                                                     0030100000000000000000000000000000000035CAARS3010035850000353384872                                              ARS59900200001448646ASISTENCIA ECONOMICA DE EMERGENCIA A COMERCIOS                                                                                                                                           NN               001
PR0040000000000005507000000005000000ARS2020080520140166341       VEGA JOSE                                                   20140166341                                                                                                                                                                          E:jose.vega98@hotmail.com                                                                                                                             0028500000000000000000000000000000000843CAARS2850843430094151371181                                              ARS59900200001448646ASISTENCIA ECONOMICA DE EMERGENCIA A COMERCIOS                                                                                                                                           NN               001
PR0040000000000005508000000005000000ARS2020080520125252762       YOCCO OSCAR ANTONIO                                         20125252762                                                                                                                                                                          E:emiyocco@hotmail.com                                                                                                                                0028500000000000000000000000000000000795CAARS2850795040095237259738                                              ARS59900200001448646ASISTENCIA ECONOMICA DE EMERGENCIA A COMERCIOS                                                                                                                                           NN               001
PR0040000000000005509000000003000000ARS2020080527220406321       YULIANI ERICA                                               27220406321                                                                                                                                                                          E:ericayuliani@gmail.com                                                                                                                              0028500000000000000000000000000000000795CAARS2850795040095258889738                                              ARS59900200001448646ASISTENCIA ECONOMICA DE EMERGENCIA A COMERCIOS                                                                                                                                           NN               001
FT00000000000000001370000000000000050                                                                                                                                                                                                                                                                                                                                                                                                                                                                                                                                                                                                                                                                                                                                                                                     
