PR0040000000000000001000000005000000ARS2020072120251760250       paynter-german-ariel                                        20251760250
PR0040000000000000002000000005000000ARS2020072130714810436       de-la-calle-lorena-gisela                                   30714810436
PR0040000000000000003000000003000000ARS2020072127326537379       barrionuevo-maira-yanina                                    27326537379
PR0040000000000000004000000002000000ARS2020072127301951111       ranieri-virginia                                            27301951111
PR0040000000000000005000000002000000ARS2020072120301678488       daddate-francisco                                           20301678488
PR0040000000000000006000000003000000ARS2020072127217186175       ramirez-mariela                                             27217186175
PR0040000000000000007000000005000000ARS2020072120311032748       falchini-nicolas-amadeo                                     20311032748
PR0040000000000000008000000002000000ARS2020072127307470301       diaz-aneley-estefania                                       27307470301
PR0040000000000000009000000002000000ARS2020072120267200913       poletta-alejandro-gabriel                                   20267200913
PR0040000000000000010000000002000000ARS2020072127292204669       pennisi-cecilia-beatriz                                     27292204669
PR0040000000000000011000000002000000ARS2020072127328606408       garcia-ileana-leticia                                       27328606408
PR0040000000000000012000000002000000ARS2020072123330682809       fernandez-luciano-jose                                      23330682809
PR0040000000000000013000000002000000ARS2020072127266141802       caceres-daniela                                             27266141802
PR0040000000000000014000000002000000ARS2020072127125302101       trullet-silvia-pilar                                        27125302101
PR0040000000000000015000000002000000ARS2020072127164555467       jortack-maria-alejandra                                     27164555467
PR0040000000000000016000000002000000ARS2020072127250632032       casalegno-carla                                             27250632032
PR0040000000000000017000000002000000ARS2020072127301664570       stinson-silvana-elizabeth                                   27301664570
PR0040000000000000018000000002000000ARS2020072127289472822       martinez-vanina-gisela                                      27289472822
PR0040000000000000019000000005000000ARS2020072120268600273       porretti-juan-pablo                                         20268600273
PR0040000000000000020000000002000000ARS2020072120330712598       canete-carlos-melciades                                     20330712598
PR0040000000000000021000000002000000ARS2020072127250774163       riva-fabiana-ines                                           27250774163
PR0040000000000000022000000002000000ARS2020072120122023142       pellegrino-edgardo-antonio-justino                          20122023142
PR0040000000000000023000000002000000ARS2020072120381340458       marquez-juan-cruz                                           20381340458
PR0040000000000000024000000004000000ARS2020072127147065812       alonso-laura-aidee                                          27147065812
PR0040000000000000025000000002000000ARS2020072120143972276       lascurain-roque-alfredo                                     20143972276
PR0040000000000000026000000002000000ARS2020072120209483794       escobar-daniel-roberto                                      20209483794
PR0040000000000000027000000002000000ARS2020072127341097644       lescano-cecilia                                             27341097644
PR0040000000000000028000000002000000ARS2020072120240485983       scatizza-fabian-andres                                      20240485983
PR0040000000000000029000000002000000ARS2020072127340380741       schvindt-gabriela                                           27340380741
PR0040000000000000030000000002000000ARS2020072127343795284       lopez-maria-camila                                          27343795284
PR0040000000000000031000000002000000ARS2020072123334963594       medina-maria-belen                                          23334963594
PR0040000000000000032000000002000000ARS2020072127241564067       leones-stella-maris                                         27241564067
PR0040000000000000033000000002000000ARS2020072120259758689       bertona-gustavo-emilio                                      20259758689
PR0040000000000000034000000002000000ARS2020072120336648751       ostta-matias-jesus                                          20336648751
PR0040000000000000035000000002000000ARS2020072120242497288       zurbriggen-andres-rodolfo                                   20242497288
PR0040000000000000036000000002000000ARS2020072120365455423       peresson-adrian                                             20365455423
PR0040000000000000037000000002000000ARS2020072127327137625       padron-lisi-loreley                                         27327137625
PR0040000000000000038000000003000000ARS2020072127241948507       calvo-rocio                                                 27241948507
PR0040000000000000039000000002000000ARS2020072120220772277       saucedo-ives-ramon-alejandro                                20220772277
PR0040000000000000040000000002000000ARS2020072127203641783       pochettino-marta                                            27203641783
PR0040000000000000041000000002000000ARS2020072127315367382       graff-valeria                                               27315367382
PR0040000000000000042000000003000000ARS2020072120179141494       righi-fabian-ariel                                          20179141494
PR0040000000000000043000000002000000ARS2020072120363029303       brarda-facundo                                              20363029303
PR0040000000000000044000000002000000ARS2020072120291482512       forlin-pablo-alberto                                        20291482512
PR0040000000000000045000000002000000ARS2020072127313646063       vaudagna-jesica-paula                                       27313646063
PR0040000000000000046000000002000000ARS2020072123201905834       festi-claudia-alejandra                                     23201905834
PR0040000000000000047000000002000000ARS2020072127303603528       balleis-carla                                               27303603528
PR0040000000000000048000000002000000ARS2020072127233507070       tomba-laura-ines                                            27233507070
PR0040000000000000049000000002000000ARS2020072123373298514       kloster-camila-andrea                                       23373298514
PR0040000000000000050000000002000000ARS2020072120270444513       kahlow-fernando                                             20270444513
PR0040000000000000051000000003000000ARS2020072120144553552       garcia-rene-norberto                                        20144553552
PR0040000000000000052000000002000000ARS2020072127321849119       villegas-pino-melisa-elisabet                               27321849119
PR0040000000000000053000000002000000ARS2020072127215447516       salinas-monica-isabel                                       27215447516
PR0040000000000000054000000002000000ARS2020072120341147906       acosta-joaquin-gabriel                                      20341147906
PR0040000000000000055000000003000000ARS2020072127245594645       diaz-adriana-alicia                                         27245594645
PR0040000000000000056000000002000000ARS2020072123336407354       liberatti-maria-lara                                        23336407354
PR0040000000000000057000000002000000ARS2020072127249520565       gomez-claudia-betina                                        27249520565
PR0040000000000000058000000002000000ARS2020072120388191997       lattuada-gabriel-gonzalo                                    20388191997
PR0040000000000000059000000002000000ARS2020072120062484498       rivera-julio-cesar                                          20062484498
PR0040000000000000060000000003000000ARS2020072120360014879       bianco-juan-ignacio                                         20360014879
PR0040000000000000061000000002000000ARS2020072127323711408       lucca-maria-florencia                                       27323711408
PR0040000000000000062000000002000000ARS2020072120117905862       blesa-jorge                                                 20117905862
PR0040000000000000063000000003000000ARS2020072127331614594       cicerchia-yamila-belen                                      27331614594
PR0040000000000000064000000002000000ARS2020072127105247775       blaser-nora-luisa                                           27105247775
PR0040000000000000065000000002000000ARS2020072127214114998       salas-gladis-margarita                                      27214114998
PR0040000000000000066000000002000000ARS2020072127182422407       siluk-viviana-guadalupe                                     27182422407
PR0040000000000000067000000003000000ARS2020072127267165098       mantaras-maria-soledad                                      27267165098
PR0040000000000000068000000003000000ARS2020072120262523161       trevisan-diego-ernesto                                      20262523161
PR0040000000000000069000000005000000ARS2020072120282171555       poletti-matias                                              20282171555
PR0040000000000000070000000003000000ARS2020072127138300183       decolatti-liliana                                           27138300183
PR0040000000000000071000000003000000ARS2020072127220708522       ferrero-nora-violeta                                        27220708522
PR0040000000000000072000000005000000ARS2020072130715679317       savignano-juan-pablo                                        30715679317
PR0040000000000000073000000003000000ARS2020072120221934777       descalzo-daniel-antonio                                     20221934777
PR0040000000000000074000000002000000ARS2020072120251577189       canal-adrian-aldo                                           20251577189
PR0040000000000000075000000002000000ARS2020072120139251890       doldan-ricardo-jorge                                        20139251890
PR0040000000000000076000000002000000ARS2020072127303795540       tuttolomondo-carolina-andrea                                27303795540
PR0040000000000000077000000003000000ARS2020072123278820424       matassa-maria-laura-lourdes                                 23278820424
PR0040000000000000078000000002000000ARS2020072127265028069       unrein-lorena-elisabet                                      27265028069
PR0040000000000000079000000002000000ARS2020072127323068645       santana-maria-emilia                                        27323068645
PR0040000000000000080000000002000000ARS2020072127256742735       mandolesi-maria-luz                                         27256742735
PR0040000000000000081000000002000000ARS2020072127265144751       aresu-liliana                                               27265144751
PR0040000000000000082000000002000000ARS2020072127318978684       tardini-luciana                                             27318978684
PR0040000000000000083000000002000000ARS2020072127352917147       moriena-ana                                                 27352917147
PR0040000000000000084000000002000000ARS2020072127283922397       pezzota-yanina-leila                                        27283922397
PR0040000000000000085000000002000000ARS2020072120308021352       fantoni-claudio                                             20308021352
PR0040000000000000086000000002000000ARS2020072127347164122       hoyos-flavia-betiana                                        27347164122
PR0040000000000000087000000002000000ARS2020072120296877949       buzzi-javier-horacio                                        20296877949
PR0040000000000000088000000002000000ARS2020072127343397440       falconi-wanda                                               27343397440
PR0040000000000000089000000002000000ARS2020072127339340922       rubinich-georgina-noelia                                    27339340922
PR0040000000000000090000000002000000ARS2020072127321888300       tordini-luciana                                             27321888300
PR0040000000000000091000000002000000ARS2020072123-28556904       taborda-veronica-analia                                     02328556904
PR0040000000000000092000000003000000ARS2020072127234824843       baldani-erica-guadalupe                                     27234824843
PR0040000000000000093000000002000000ARS2020072127356452858       gallisso-paula                                              27356452858
PR0040000000000000094000000002000000ARS2020072120307018714       colombini-gabriel                                           20307018714
PR0040000000000000095000000002000000ARS2020072127220399546       rangel-maria-jose                                           27220399546
PR0040000000000000096000000002000000ARS2020072127244113260       hernandez-veronica-maria                                    27244113260
PR0040000000000000097000000002000000ARS2020072127377120774       zilli-ornella-sofia                                         27377120774
PR0040000000000000098000000002000000ARS2020072127215836180       marinelli-milva                                             27215836180
PR0040000000000000099000000002000000ARS2020072120369136330       d-ostuni-agustin                                            20369136330
PR0040000000000000100000000002000000ARS2020072123292163304       gentili-maria-fernanda                                      23292163304
PR0040000000000000101000000002000000ARS2020072127271152839       moriconi-natalia-gisela                                     27271152839
PR0040000000000000102000000002000000ARS2020072127231582423       ledezma-silvana                                             27231582423
PR0040000000000000103000000002000000ARS2020072123171024064       moncada-maria-marcela-beatriz                               23171024064
PR0040000000000000104000000003000000ARS2020072127255249229       juarez-flavia-lorena                                        27255249229
PR0040000000000000105000000002000000ARS2020072120220913415       bustamante-angel-daniel                                     20220913415
PR0040000000000000106000000003000000ARS2020072120160765837       lopiccolo-horacio-ruben                                     20160765837
PR0040000000000000107000000002000000ARS2020072127181935990       musco-andrea                                                27181935990
PR0040000000000000108000000002000000ARS2020072120403123529       figgini-lucas-marcelo                                       20403123529
PR0040000000000000109000000005000000ARS2020072123125263704       carbone-adriana-mabel                                       23125263704
PR0040000000000000110000000002000000ARS2020072127276800197       colman-maria-lorena                                         27276800197
PR0040000000000000111000000005000000ARS2020072120243228795       morlupi-hernan                                              20243228795
PR0040000000000000112000000002000000ARS2020072127203546330       petracci-silvina-mariana                                    27203546330
PR0040000000000000113000000002000000ARS2020072120177164411       milioto-marcelo-sergio                                      20177164411
PR0040000000000000114000000002000000ARS2020072127343433420       salfi-angela-carolina                                       27343433420
PR0040000000000000115000000003000000ARS2020072127201749056       cribb-maria-alejandra                                       27201749056
PR0040000000000000116000000002000000ARS2020072127222449001       crocco-mariela-alejandra                                    27222449001
PR0040000000000000117000000003000000ARS2020072120125775404       ranciari-enzo                                               20125775404
PR0040000000000000118000000003000000ARS2020072127240637818       anania-daniela-laura                                        27240637818
PR0040000000000000119000000002000000ARS2020072127223003678       gallardo-gabriela-analia-fabriciana                         27223003678
PR0040000000000000120000000003000000ARS2020072127247329108       lugones-vilma-del-valle                                     27247329108
PR0040000000000000121000000002000000ARS2020072120214142067       garcia-montero-joaquin-francisco                            20214142067
PR0040000000000000122000000005000000ARS2020072130715313053       romero-sabrina-vanesa                                       30715313053
PR0040000000000000123000000002000000ARS2020072127283987367       balestrazzi-pamela-sabrina                                  27283987367
PR0040000000000000124000000002000000ARS2020072127281488568       nucifora-nerina                                             27281488568
PR0040000000000000125000000002000000ARS2020072127135881347       jaime-ana-maria                                             27135881347
PR0040000000000000126000000003000000ARS2020072120202075216       tuttolomondo-carlos-alejandro                               20202075216
PR0040000000000000127000000003000000ARS2020072120149819119       alonso-osvaldo-luis                                         20149819119
PR0040000000000000128000000005000000ARS2020072127343379264       clemente-vanesa                                             27343379264
PR0040000000000000129000000002000000ARS2020072127265647397       garnica-daniela-silvina                                     27265647397
PR0040000000000000130000000002000000ARS2020072120301680016       baque-mariano                                               20301680016
PR0040000000000000131000000005000000ARS2020072120268713264       corte-hernan                                                20268713264
PR0040000000000000132000000003000000ARS2020072120280354059       de-agostini-matias                                          20280354059
PR0040000000000000133000000003000000ARS2020072127124040928       heredia-liliana-edit                                        27124040928
PR0040000000000000134000000002000000ARS2020072127135026250       gazzola-viviana-rosario                                     27135026250
PR0040000000000000135000000002000000ARS2020072127343337707       lacour-gisel                                                27343337707
PR0040000000000000136000000002000000ARS2020072120271805099       ledda-guillermo-jose                                        20271805099
PR0040000000000000137000000005000000ARS2020072120179152259       stiefel-alexis                                              20179152259
PR0040000000000000138000000002000000ARS2020072120364901330       perez-gaston-alejandro                                      20364901330
PR0040000000000000139000000002000000ARS2020072127216368768       manassero-silvia-beatriz                                    27216368768
PR0040000000000000140000000003000000ARS2020072127246357981       serra-maria-lorena                                          27246357981
PR0040000000000000141000000005000000ARS2020072127290237713       albornoz-andrea                                             27290237713
PR0040000000000000142000000003000000ARS2020072127372098584       pividori-corina                                             27372098584
PR0040000000000000143000000002000000ARS2020072127372817033       benz-maria-de-los-milagros                                  27372817033
PR0040000000000000144000000002000000ARS2020072127205505887       mendicini-alba-alejandra                                    27205505887
PR0040000000000000145000000003000000ARS2020072120263766688       vessella-matias                                             20263766688
PR0040000000000000146000000002000000ARS2020072127218149710       de-martini-valeria                                          27218149710
PR0040000000000000147000000004000000ARS2020072127239360667       vaiana-maria-jose                                           27239360667
PR0040000000000000148000000005000000ARS2020072130715078445       hernandez-martinez-socio-gerente-hernandez-martinez-socio-ge30715078445
PR0040000000000000149000000005000000ARS2020072130714383236       rivarola-carolina                                           30714383236
PR0040000000000000150000000002000000ARS2020072127283344024       rivarola-mariana                                            27283344024
PR0040000000000000151000000003000000ARS2020072127201972650       luque-laura-noemi                                           27201972650
PR0040000000000000152000000002000000ARS2020072120296837602       jaime-juan-manuel                                           20296837602
PR0040000000000000153000000004000000ARS2020072120267396788       ventimiglia-guillermo-nestor                                20267396788
PR0040000000000000154000000003000000ARS2020072127294498848       figueredo-agustina                                          27294498848
PR0040000000000000155000000004000000ARS2020072120289126237       kerckhaert-carlos-german                                    20289126237
PR0040000000000000156000000005000000ARS2020072130715506609       retamar-claudia                                             30715506609
PR0040000000000000157000000003000000ARS2020072120287092629       montiel-sergio-omar                                         20287092629
PR0040000000000000158000000005000000ARS2020072127250074285       sanchez-lorena                                              27250074285
PR0040000000000000159000000002000000ARS2020072127320373412       valdez-natalia                                              27320373412
PR0040000000000000160000000002000000ARS2020072123322099754       lombardi-natali-paola                                       23322099754
PR0040000000000000161000000005000000ARS2020072130714243108       mignacco-juan-antonio                                       30714243108
PR0040000000000000162000000003000000ARS2020072127245528278       suarez-debora                                               27245528278
PR0040000000000000163000000003000000ARS2020072123167282024       diaz-cristina-rosa                                          23167282024
PR0040000000000000164000000002000000ARS2020072127306896739       peralta-carolina-anabel                                     27306896739
PR0040000000000000165000000003000000ARS2020072120242829531       cue-pablo-cristian                                          20242829531
PR0040000000000000166000000002000000ARS2020072123348316729       rodriguez-sergio-jesus                                      23348316729
PR0040000000000000167000000002000000ARS2020072127338738930       alagi-valeria                                               27338738930
PR0040000000000000168000000002000000ARS2020072120248631083       pijuan-dario-luciano                                        20248631083
PR0040000000000000169000000002000000ARS2020072127267895363       iocco-betiana-lorena                                        27267895363
PR0040000000000000170000000002000000ARS2020072127300710536       capponi-sandra-maria-de-lujan                               27300710536
PR0040000000000000171000000002000000ARS2020072120162869664       barro-orlando-santos                                        20162869664
PR0040000000000000172000000003000000ARS2020072120271967927       baigorria-ivan-ariel                                        20271967927
PR0040000000000000173000000005000000ARS2020072120330557908       bergese-hugo-damian                                         20330557908
PR0040000000000000174000000003000000ARS2020072123216918894       rizzotto-dias-susana-eugenia                                23216918894
PR0040000000000000175000000003000000ARS2020072120214230187       garcia-troiano-jorge                                        20214230187
PR0040000000000000176000000003000000ARS2020072120341734615       viciconte-sebastian                                         20341734615
PR0040000000000000177000000002000000ARS2020072127179660747       affranchino-maria-patricia                                  27179660747
PR0040000000000000178000000002000000ARS2020072120238147272       mufarrege-leonardo                                          20238147272
PR0040000000000000179000000005000000ARS2020072127225265475       lezcano-marisa                                              27225265475
PR0040000000000000180000000002000000ARS2020072127223579871       destefanis-maria-jose                                       27223579871
PR0040000000000000181000000003000000ARS2020072127216909629       kuhn-silvia-maria                                           27216909629
PR0040000000000000182000000005000000ARS2020072120175149393       guglielmone-claudio-alberto                                 20175149393
PR0040000000000000183000000002000000ARS2020072123169574359       flores-roberto                                              23169574359
PR0040000000000000184000000002000000ARS2020072127206740545       indaco-sandra-marcela                                       27206740545
PR0040000000000000185000000002000000ARS2020072127168802337       irigoyen-maria-eugenia                                      27168802337
PR0040000000000000186000000005000000ARS2020072127307861076       martinez-gabriela                                           27307861076
PR0040000000000000187000000002000000ARS2020072127202412292       mendoza-judith-rosalia                                      27202412292
PR0040000000000000188000000002000000ARS2020072123242149254       diaz-fernanda-belen                                         23242149254
PR0040000000000000189000000003000000ARS2020072127285715887       gagliardo-mariana-del-valle                                 27285715887
PR0040000000000000190000000005000000ARS2020072130716224356       centro-roma-srl-fernando-larrondo-soc-gte                   30716224356
PR0040000000000000191000000005000000ARS2020072130714595810       colombo-norma-andrea                                        30714595810
PR0040000000000000192000000002000000ARS2020072123176129409       coronel-fabian-eduardo                                      23176129409
PR0040000000000000193000000005000000ARS2020072130650116182       obieta-claudia                                              30650116182
PR0040000000000000194000000002000000ARS2020072123201800919       dominguez-fabian-alberto                                    23201800919
PR0040000000000000195000000005000000ARS2020072130714384593       aima-srl-aima-srl                                           30714384593
PR0040000000000000196000000003000000ARS2020072120267200417       liria-marcelo                                               20267200417
PR0040000000000000197000000003000000ARS2020072120345227769       braten-brian                                                20345227769
PR0040000000000000198000000002000000ARS2020072120303135422       testa-federico                                              20303135422
PR0040000000000000199000000002000000ARS2020072127285664387       espinosa-maria-emilia                                       27285664387
PR0040000000000000200000000002000000ARS2020072120312900603       marcuzzi-diego-matias                                       20312900603
PR0040000000000000201000000003000000ARS2020072127148034856       duran-adriana-rosa                                          27148034856
PR0040000000000000202000000003000000ARS2020072127306707952       virzi-triana-muriel                                         27306707952
PR0040000000000000203000000003000000ARS2020072123214144379       calanni-macchio-claudio-daniel                              23214144379
PR0040000000000000204000000002000000ARS2020072120334530222       guardia-leonel-hernan                                       20334530222
PR0040000000000000205000000003000000ARS2020072127109878540       escaparlenda-silvia-clara                                   27109878540
PR0040000000000000206000000002000000ARS2020072123335132459       de-soto-luis-alberto                                        23335132459
PR0040000000000000207000000003000000ARS2020072127306864381       fernandez-maria-victoria                                    27306864381
PR0040000000000000208000000002000000ARS2020072120175191896       scrivanich-ricardo-ramon                                    20175191896
PR0040000000000000209000000002000000ARS2020072123313392554       fiseres-natalia                                             23313392554
PR0040000000000000210000000002000000ARS2020072120179329108       castillo-ernesto-fabian                                     20179329108
PR0040000000000000211000000002000000ARS2020072120130706348       ricca-enzo-omar                                             20130706348
PR0040000000000000212000000002000000ARS2020072127114124384       gassmann-monica-beatriz                                     27114124384
PR0040000000000000213000000002000000ARS2020072120301673257       sacone-ariel                                                20301673257
PR0040000000000000214000000003000000ARS2020072127337306700       brassesco-mariana-graciela                                  27337306700
PR0040000000000000215000000002000000ARS2020072127274479588       feresin-natalia                                             27274479588
PR0040000000000000216000000002000000ARS2020072127299898194       franzoy-veronica                                            27299898194
PR0040000000000000217000000002000000ARS2020072120124719438       godoy-enrique-climaco-manuel                                20124719438
PR0040000000000000218000000002000000ARS2020072127313860138       guntern-melina                                              27313860138
PR0040000000000000219000000005000000ARS2020072127236952849       ignogna-roxana-veronica                                     27236952849
PR0040000000000000220000000002000000ARS2020072120278628052       ghione-maggio-gaston-ezequiel                               20278628052
PR0040000000000000221000000002000000ARS2020072127117910240       visca-liliana-beatriz                                       27117910240
PR0040000000000000222000000002000000ARS2020072123135106739       principe-roberto-luis                                       23135106739
PR0040000000000000223000000002000000ARS2020072127368880294       vagliente-noelia-maria                                      27368880294
PR0040000000000000224000000003000000ARS2020072120228164306       piancatelli-cristian-david                                  20228164306
PR0040000000000000225000000002000000ARS2020072127228910290       principi-monica-angelica                                    27228910290
PR0040000000000000226000000005000000ARS2020072130710747861       club-atletico-defensores-de-centeno-club-atletico-defensores30710747861
PR0040000000000000227000000002000000ARS2020072127141803536       lopez-gricelda-noemi                                        27141803536
PR0040000000000000228000000005000000ARS2020072127058191847       savoretti-dora-elena                                        27058191847
PR0040000000000000229000000002000000ARS2020072127249435908       albamonte-karina-veronica                                   27249435908
PR0040000000000000230000000002000000ARS2020072120368875482       imhoff-sebastian                                            20368875482
PR0040000000000000231000000005000000ARS2020072127335534579       bruera-laila                                                27335534579
PR0040000000000000232000000003000000ARS2020072127133533902       rabuffetti-maria-lujan                                      27133533902
PR0040000000000000233000000003000000ARS2020072120172222472       insinger-marcelo                                            20172222472
PR0040000000000000234000000005000000ARS2020072120291424962       ayala-martin-eduardo                                        20291424962
PR0040000000000000235000000002000000ARS2020072120206433060       civetta-fabian-claudio                                      20206433060
PR0040000000000000236000000002000000ARS2020072127366558077       cavallo-agustina                                            27366558077
PR0040000000000000237000000002000000ARS2020072120278644384       bozzoni-mariano-nelson                                      20278644384
PR0040000000000000238000000002000000ARS2020072127349378537       romina-chan                                                 27349378537
PR0040000000000000239000000003000000ARS2020072120307633982       ayala-lucas-ignacio                                         20307633982
PR0040000000000000240000000003000000ARS2020072120242522304       aquino-cristian-tomas                                       20242522304
PR0040000000000000241000000002000000ARS2020072127308023686       sierra-cecilia                                              27308023686
PR0040000000000000242000000002000000ARS2020072127296860234       gutierrez-dulcinea-alejandrina                              27296860234
PR0040000000000000243000000003000000ARS2020072120247918125       franceschi-marcelo                                          20247918125
PR0040000000000000244000000002000000ARS2020072127942543498       mustelier-aquinet-yinneris-esperanza                        27942543498
PR0040000000000000245000000005000000ARS2020072130712531637       lifsitz-pablo                                               30712531637
PR0040000000000000246000000002000000ARS2020072127125209357       taborda-lidia-lucia                                         27125209357
PR0040000000000000247000000002000000ARS2020072120306869095       lo-presti-sebastian                                         20306869095
PR0040000000000000248000000002000000ARS2020072127227777236       taffurelli-gabriela                                         27227777236
PR0040000000000000249000000005000000ARS2020072127225424352       formica-carina-veronica                                     27225424352
PR0040000000000000250000000002000000ARS2020072127316021420       cesped-virginia-paola                                       27316021420
PR0040000000000000251000000003000000ARS2020072127291404532       naveira-mariela                                             27291404532
PR0040000000000000252000000002000000ARS2020072120247204793       fernandez-hernan-ariel                                      20247204793
PR0040000000000000253000000002000000ARS2020072127333617329       fedele-ana                                                  27333617329
PR0040000000000000254000000005000000ARS2020072130711597820       marcato-lucas-martin                                        30711597820
PR0040000000000000255000000004000000ARS2020072120177334805       santoro-claudio-vicente-lujan                               20177334805
PR0040000000000000256000000003000000ARS2020072127184162895       cuello-adriana-lucia                                        27184162895
PR0040000000000000257000000003000000ARS2020072120251714216       st-mary-alejandro                                           20251714216
PR0040000000000000258000000002000000ARS2020072127319901782       del-giglio-romina-antonela                                  27319901782
PR0040000000000000259000000002000000ARS2020072127144448974       martinez-rosanna-asuncion                                   27144448974
PR0040000000000000260000000003000000ARS2020072127310281927       busnadiego-melisa                                           27310281927
PR0040000000000000261000000003000000ARS2020072120083444011       imperiale-hugo-roberto                                      20083444011
PR0040000000000000262000000005000000ARS2020072130710491484       varela-carina-alejandra                                     30710491484
PR0040000000000000263000000005000000ARS2020072130716329719       huidobro-orellana-solange-araceli                           30716329719
PR0040000000000000264000000005000000ARS2020072130714077984       zuliani-natalia                                             30714077984
PR0040000000000000265000000002000000ARS2020072123243206324       inostroza-dora-gabriela                                     23243206324
PR0040000000000000266000000003000000ARS2020072120141133641       cavalieri-mario-fernando                                    20141133641
PR0040000000000000267000000003000000ARS2020072127330323391       bernal-lucia                                                27330323391
PR0040000000000000268000000002000000ARS2020072120128843850       lozano-victor-manuel                                        20128843850
PR0040000000000000269000000003000000ARS2020072127312794387       pellegrini-jorgelina-nadia-pellegrini-jorgelina-nadia       27312794387
PR0040000000000000270000000002000000ARS2020072120923177621       villalba-osores-gustavo-javier                              20923177621
PR0040000000000000271000000003000000ARS2020072127338331296       barbieri-juliana                                            27338331296
PR0040000000000000272000000002000000ARS2020072120333864062       hervot-emiliano-alejandro                                   20333864062
PR0040000000000000273000000003000000ARS2020072127222188828       paulucci-cristina-laura                                     27222188828
PR0040000000000000274000000002000000ARS2020072127258341185       atie-maria-teresa                                           27258341185
PR0040000000000000275000000005000000ARS2020072130708909706       jaime-camilo                                                30708909706
PR0040000000000000276000000002000000ARS2020072127237907650       castano-andrea                                              27237907650
PR0040000000000000277000000002000000ARS2020072120372280841       lovey-kevin-ivan                                            20372280841
PR0040000000000000278000000002000000ARS2020072120140869210       dimarco-nestor-adelmo                                       20140869210
PR0040000000000000279000000002000000ARS2020072120203546670       micheli-diego-cesar                                         20203546670
PR0040000000000000280000000002000000ARS2020072127345574706       sapp-natalia                                                27345574706
PR0040000000000000281000000003000000ARS2020072127127369289       martini-monica-elena                                        27127369289
PR0040000000000000282000000003000000ARS2020072127245666298       giusto-zimmardo-mariela                                     27245666298
PR0040000000000000283000000002000000ARS2020072127206744222       intelisano-silvina-andrea                                   27206744222
PR0040000000000000284000000002000000ARS2020072127374035067       canas-maria-luz                                             27374035067
PR0040000000000000285000000002000000ARS2020072123239143334       codarin-maria-sabina                                        23239143334
PR0040000000000000286000000002000000ARS2020072120290466262       romero-juan-pablo-francisco                                 20290466262
PR0040000000000000287000000002000000ARS2020072120391231681       bracco-nicolas-atilio                                       20391231681
PR0040000000000000288000000003000000ARS2020072127217222376       arata-roxana                                                27217222376
PR0040000000000000289000000002000000ARS2020072121523357          prieto-alejandro                                            00021523357
PR0040000000000000290000000002000000ARS2020072120296805395       mendez-pablo                                                20296805395
PR0040000000000000291000000002000000ARS2020072120348278747       belart-matias-daniel                                        20348278747
PR0040000000000000292000000003000000ARS2020072120131634642       gonzalez-rodolfo-enrique                                    20131634642
PR0040000000000000293000000003000000ARS2020072123225703124       moran-diaz-vanesa-karina                                    23225703124
PR0040000000000000294000000002000000ARS2020072127125229455       calvo-mirta                                                 27125229455
PR0040000000000000295000000003000000ARS2020072120298325560       marchen-emilio-nicolas                                      20298325560
PR0040000000000000296000000005000000ARS2020072120220405207       barrile-diego-ricardo                                       20220405207
PR0040000000000000297000000002000000ARS2020072120354633710       corach-lucas                                                20354633710
PR0040000000000000298000000002000000ARS2020072127342061252       gazzera-victoria-maria-del-rosario                          27342061252
PR0040000000000000299000000002000000ARS2020072127178505780       destefanis-fernanda-marisa                                  27178505780
PR0040000000000000300000000002000000ARS2020072127294460301       prina-analia-carina                                         27294460301
PR0040000000000000301000000003000000ARS2020072120273301810       dotti-gonzalo-nazareno-javier                               20273301810
PR0040000000000000302000000003000000ARS2020072120289396668       wedertz-francisco-andres                                    20289396668
PR0040000000000000303000000002000000ARS2020072120115799275       barreto-braulio-domingo                                     20115799275
PR0040000000000000304000000005000000ARS2020072130711793980       gonzalez-maria-florencia                                    30711793980
PR0040000000000000305000000004000000ARS2020072127184379819       rosa-patricia-alejandra                                     27184379819
PR0040000000000000306000000003000000ARS2020072127173398951       guardia-marisa-esther                                       27173398951
PR0040000000000000307000000003000000ARS2020072120303414666       lopez-hayes-fernando-ramon                                  20303414666
PR0040000000000000308000000003000000ARS2020072127276600929       solari-luciana-evelyn                                       27276600929
PR0040000000000000309000000002000000ARS2020072123306152734       gaiardo-vanesa                                              23306152734
PR0040000000000000310000000003000000ARS2020072127256489274       fiscella-maria-florencia                                    27256489274
PR0040000000000000311000000003000000ARS2020072127360028971       acosta-manuela-gala                                         27360028971
PR0040000000000000312000000003000000ARS2020072127131635953       velozo-monica                                               27131635953
PR0040000000000000313000000003000000ARS2020072120223612203       cornut-miguel-eduardo                                       20223612203
PR0040000000000000314000000002000000ARS2020072120356522916       garcia-nicolas-exequiel                                     20356522916
PR0040000000000000315000000003000000ARS2020072120356497733       cifre-martin                                                20356497733
PR0040000000000000316000000003000000ARS2020072120346548844       cavalieri-rodrigo-fernando                                  20346548844
PR0040000000000000317000000004000000ARS2020072123239294669       nunez-cristian-ramon                                        23239294669
PR0040000000000000318000000004000000ARS2020072123254802859       pereyra-guillermo-alcides                                   23254802859
PR0040000000000000319000000002000000ARS2020072120289687514       bonaccorso-ignacio                                          20289687514
PR0040000000000000320000000002000000ARS2020072127206740189       maragliano-adela-mariela                                    27206740189
PR0040000000000000321000000003000000ARS2020072123281531344       acevedo-claudina-natalia                                    23281531344
PR0040000000000000322000000002000000ARS2020072127388961258       colsani-josefina                                            27388961258
PR0040000000000000323000000002000000ARS2020072130715968297       castro-abdalla-gustavo-pablo                                30715968297
PR0040000000000000324000000005000000ARS2020072120201678723       alonso-cesar-alejandro                                      20201678723
PR0040000000000000325000000002000000ARS2020072127337345722       dominguez-marilina                                          27337345722
PR0040000000000000326000000003000000ARS2020072127182963467       arata-viviana-elsa                                          27182963467
PR0040000000000000327000000002000000ARS2020072127185693134       inga-mercedes-del-valle                                     27185693134
PR0040000000000000328000000002000000ARS2020072120290004528       merlini-mauricio                                            20290004528
PR0040000000000000329000000003000000ARS2020072127246751531       castelli-luciana                                            27246751531
PR0040000000000000330000000003000000ARS2020072127301679020       martinez-maria-belen                                        27301679020
PR0040000000000000331000000002000000ARS2020072120281992415       battistoni-ariel-luis                                       20281992415
PR0040000000000000332000000005000000ARS2020072127167782200       de-miguel-monica-claudia                                    27167782200
PR0040000000000000333000000002000000ARS2020072127283989564       firpo-natalia                                               27283989564
PR0040000000000000334000000002000000ARS2020072120352903478       fernandez-nicolas                                           20352903478
PR0040000000000000335000000002000000ARS2020072120171524238       cuello-nestor-ruben                                         20171524238
PR0040000000000000336000000002000000ARS2020072123178178709       de-bonis-ernesto                                            23178178709
PR0040000000000000337000000002000000ARS2020072124276900974       gonzalez-spucches-milton                                    24276900974
PR0040000000000000338000000005000000ARS2020072127201920456       marino-norma                                                27201920456
PR0040000000000000339000000003000000ARS2020072120261596327       ojeda-amilcar-fabian                                        20261596327
PR0040000000000000340000000002000000ARS2020072120282374111       manassero-pablo-guillermo                                   20282374111
PR0040000000000000341000000002000000ARS2020072127336663410       gianasi-florencia                                           27336663410
PR0040000000000000342000000003000000ARS2020072120101872352       canas-maximo-pedro                                          20101872352
PR0040000000000000343000000003000000ARS2020072127229083428       grassi-laura-mariana                                        27229083428
PR0040000000000000344000000002000000ARS2020072127281355274       cabo-maria-leticia                                          27281355274
PR0040000000000000345000000002000000ARS2020072127311111006       nava-mercedes                                               27311111006
PR0040000000000000346000000003000000ARS2020072120207252795       aguirre-oscar-walter                                        20207252795
PR0040000000000000347000000002000000ARS2020072120263823630       giupponi-diego                                              20263823630
PR0040000000000000348000000002000000ARS2020072120165502486       mahfoud-ruben                                               20165502486
PR0040000000000000349000000003000000ARS2020072120180960075       agostinelli-jorge-edgardo                                   20180960075
PR0040000000000000350000000003000000ARS2020072127201667696       chiapello-patricia-guadalupe                                27201667696
PR0040000000000000351000000005000000ARS2020072127249434561       bonetti-claudia                                             27249434561
PR0040000000000000352000000005000000ARS2020072120293541834       sanchez-exequiel-alejandro                                  20293541834
PR0040000000000000353000000003000000ARS2020072127230297261       rivolta-vanina-isabel                                       27230297261
PR0040000000000000354000000002000000ARS2020072120246617806       monaco-antonio                                              20246617806
PR0040000000000000355000000003000000ARS2020072120128849883       talarico-salvador-luis                                      20128849883
PR0040000000000000356000000002000000ARS2020072127208083118       arriola-patricia-rosana                                     27208083118
PR0040000000000000357000000002000000ARS2020072120331236048       bayochi-mauricio-ariel                                      20331236048
PR0040000000000000358000000002000000ARS2020072127330209106       mezza-andrea                                                27330209106
PR0040000000000000359000000002000000ARS2020072120222077290       gomez-cristian-ivan                                         20222077290
PR0040000000000000360000000002000000ARS2020072127313841389       balestra-maria-laura                                        27313841389
PR0040000000000000361000000002000000ARS2020072120238374422       alarcon-victor-hugo                                         20238374422
PR0040000000000000362000000002000000ARS2020072127307015035       gonzalez-silvana-carolina                                   27307015035
PR0040000000000000363000000002000000ARS2020072127347807856       palle-daniela-anahi                                         27347807856
PR0040000000000000364000000003000000ARS2020072127277940340       santacruz-jesica-andrea                                     27277940340
PR0040000000000000365000000003000000ARS2020072123327026739       hurtado-rodrigo-carlos                                      23327026739
PR0040000000000000366000000002000000ARS2020072120222152187       vitullo-jose-luis                                           20222152187
PR0040000000000000367000000004000000ARS2020072127236887702       olsina-nuriel-soledad                                       27236887702
PR0040000000000000368000000002000000ARS2020072127186527084       zerbonia-adriana-del-valle                                  27186527084
PR0040000000000000369000000004000000ARS2020072120362654751       de-petre-facundo                                            20362654751
PR0040000000000000370000000002000000ARS2020072120272373311       fertonani-pablo-miguel                                      20272373311
PR0040000000000000371000000003000000ARS2020072127175161517       marino-maria-del-carmen                                     27175161517
PR0040000000000000372000000002000000ARS2020072120262560121       leclerc-gaston-andres                                       20262560121
PR0040000000000000373000000002000000ARS2020072127315921827       gossa-carolina-marisel                                      27315921827
PR0040000000000000374000000002000000ARS2020072127293881133       diaz-vanesa-alejandra                                       27293881133
PR0040000000000000375000000002000000ARS2020072127340834378       norando-magali-joana                                        27340834378
PR0040000000000000376000000002000000ARS2020072120060780588       platia-miguel-angel                                         20060780588
PR0040000000000000377000000002000000ARS2020072120247728997       cejas-raul-eduardo                                          20247728997
PR0040000000000000378000000003000000ARS2020072120230612987       calzia-daniel                                               20230612987
PR0040000000000000379000000002000000ARS2020072127313398698       italiano-maria-de-lourdes                                   27313398698
PR0040000000000000380000000003000000ARS2020072127239143208       barzaghi-flavia-jesus                                       27239143208
PR0040000000000000381000000003000000ARS2020072120303470515       golia-matias-marcelo                                        20303470515
PR0040000000000000382000000003000000ARS2020072120216000227       henzenn-ferrero-jose-luis                                   20216000227
PR0040000000000000383000000003000000ARS2020072120331720268       salcedo-matias                                              20331720268
PR0040000000000000384000000003000000ARS2020072127329859180       testa-alexandra-daniela                                     27329859180
PR0040000000000000385000000002000000ARS2020072120333637791       acuna-luis-ruben                                            20333637791
PR0040000000000000386000000002000000ARS2020072120143425577       berutti-carlos-miguel                                       20143425577
PR0040000000000000387000000002000000ARS2020072127245564177       milacher-daniela                                            27245564177
PR0040000000000000388000000002000000ARS2020072127124344900       riera-maria-susana                                          27124344900
PR0040000000000000389000000002000000ARS2020072127208899924       gonem-norma-carina                                          27208899924
PR0040000000000000390000000002000000ARS2020072127296253567       pioli-andrea                                                27296253567
PR0040000000000000391000000003000000ARS2020072127168303837       buttarelli-silvina-ana                                      27168303837
PR0040000000000000392000000002000000ARS2020072120265122389       nicolau-maximiliano                                         20265122389
PR0040000000000000393000000002000000ARS2020072120356424647       di-marco-nicolas                                            20356424647
PR0040000000000000394000000002000000ARS2020072123220953629       rizzuti-raul-guillermo                                      23220953629
PR0040000000000000395000000002000000ARS2020072120256612640       groh-alejandro                                              20256612640
PR0040000000000000396000000003000000ARS2020072123242392434       blanco-ligia-miriam                                         23242392434
PR0040000000000000397000000003000000ARS2020072127326518242       salvatierra-brenda                                          27326518242
PR0040000000000000398000000002000000ARS2020072127273186080       merlini-paola                                               27273186080
PR0040000000000000399000000002000000ARS2020072127268842794       lopez-analia-beatriz                                        27268842794
PR0040000000000000400000000003000000ARS2020072127250839230       aguilar-evangelina-roxana                                   27250839230
PR0040000000000000401000000002000000ARS2020072127221043524       accetta-silvina                                             27221043524
PR0040000000000000402000000005000000ARS2020072120286452435       basiliades-ulises                                           20286452435
PR0040000000000000403000000003000000ARS2020072120401213016       franco-alan-joel                                            20401213016
PR0040000000000000404000000003000000ARS2020072123274209054       dalla-fontana-silvia-analia                                 23274209054
PR0040000000000000405000000002000000ARS2020072120296107442       kern-nicolas                                                20296107442
PR0040000000000000406000000002000000ARS2020072120257078974       segovia-juan-pablo                                          20257078974
PR0040000000000000407000000003000000ARS2020072120215238262       otazu-gaston                                                20215238262
PR0040000000000000408000000002000000ARS2020072123304848049       blangini-paz-lucas-sebastian                                23304848049
PR0040000000000000409000000003000000ARS2020072127215285478       villegas-gabriela                                           27215285478
PR0040000000000000410000000002000000ARS2020072127230386655       simon-carina                                                27230386655
PR0040000000000000411000000005000000ARS2020072127299705868       almazan-lorena-andrea                                       27299705868
PR0040000000000000412000000002000000ARS2020072127203551458       cabiale-claudia-patricia                                    27203551458
PR0040000000000000413000000002000000ARS2020072127226794986       pendino-carina                                              27226794986
PR0040000000000000414000000002000000ARS2020072127279352144       ragaglia-maria-soledad                                      27279352144
PR0040000000000000415000000005000000ARS2020072123203543484       scrimin-maria-eugenia                                       23203543484
PR0040000000000000416000000002000000ARS2020072120176686767       gomez-fabian-roberto-emilio                                 20176686767
PR0040000000000000417000000002000000ARS2020072127146847124       rossi-graciela                                              27146847124
PR0040000000000000418000000003000000ARS2020072120305060764       basterra-nicolas                                            20305060764
PR0040000000000000419000000005000000ARS2020072120320593523       mendez-nicolas-matias                                       20320593523
PR0040000000000000420000000005000000ARS2020072127249434707       andruszczyszyn-natalia-rita                                 27249434707
PR0040000000000000421000000004000000ARS2020072127062878407       izquierdo-gladys-raquel                                     27062878407
PR0040000000000000422000000003000000ARS2020072127265506963       riveros-marina-cristina                                     27265506963
PR0040000000000000423000000002000000ARS2020072127360019867       gionotti-vargas-aime-giuliana                               27360019867
PR0040000000000000424000000003000000ARS2020072127332995222       gomez-laura-melina                                          27332995222
