PR0040000000000000001000000005000000ARS2020072120251760250       PAYNTER-GERMAN-ARIEL                                        20251760250
PR0040000000000000002000000005000000ARS2020072130714810436       DE-LA-CALLE-LORENA-GISELA                                   30714810436
PR0040000000000000003000000003000000ARS2020072127326537379       BARRIONUEVO-MAIRA-YANINA                                    27326537379
PR0040000000000000004000000002000000ARS2020072127301951111       RANIERI-VIRGINIA                                            27301951111
PR0040000000000000005000000002000000ARS2020072120301678488       DADDATE-FRANCISCO                                           20301678488
PR0040000000000000006000000003000000ARS2020072127217186175       RAMIREZ-MARIELA                                             27217186175
PR0040000000000000007000000005000000ARS2020072120311032748       FALCHINI-NICOLAS-AMADEO                                     20311032748
PR0040000000000000008000000002000000ARS2020072127307470301       DIAZ-ANELEY-ESTEFANIA                                       27307470301
PR0040000000000000009000000002000000ARS2020072120267200913       POLETTA-ALEJANDRO-GABRIEL                                   20267200913
PR0040000000000000010000000002000000ARS2020072127292204669       PENNISI-CECILIA-BEATRIZ                                     27292204669
PR0040000000000000011000000002000000ARS2020072127328606408       GARCIA-ILEANA-LETICIA                                       27328606408
PR0040000000000000012000000002000000ARS2020072123330682809       FERNANDEZ-LUCIANO-JOSE                                      23330682809
PR0040000000000000013000000002000000ARS2020072127266141802       CACERES-DANIELA                                             27266141802
PR0040000000000000014000000002000000ARS2020072127125302101       TRULLET-SILVIA-PILAR                                        27125302101
PR0040000000000000015000000002000000ARS2020072127164555467       JORTACK-MARIA-ALEJANDRA                                     27164555467
PR0040000000000000016000000002000000ARS2020072127250632032       CASALEGNO-CARLA                                             27250632032
PR0040000000000000017000000002000000ARS2020072127301664570       STINSON-SILVANA-ELIZABETH                                   27301664570
PR0040000000000000018000000002000000ARS2020072127289472822       MARTINEZ-VANINA-GISELA                                      27289472822
PR0040000000000000019000000005000000ARS2020072120268600273       PORRETTI-JUAN-PABLO                                         20268600273
PR0040000000000000020000000002000000ARS2020072120330712598       CANETE-CARLOS-MELCIADES                                     20330712598
PR0040000000000000021000000002000000ARS2020072127250774163       RIVA-FABIANA-INES                                           27250774163
PR0040000000000000022000000002000000ARS2020072120122023142       PELLEGRINO-EDGARDO-ANTONIO-JUSTINO                          20122023142
PR0040000000000000023000000002000000ARS2020072120381340458       MARQUEZ-JUAN-CRUZ                                           20381340458
PR0040000000000000024000000004000000ARS2020072127147065812       ALONSO-LAURA-AIDEE                                          27147065812
PR0040000000000000025000000002000000ARS2020072120143972276       LASCURAIN-ROQUE-ALFREDO                                     20143972276
PR0040000000000000026000000002000000ARS2020072120209483794       ESCOBAR-DANIEL-ROBERTO                                      20209483794
PR0040000000000000027000000002000000ARS2020072127341097644       LESCANO-CECILIA                                             27341097644
PR0040000000000000028000000002000000ARS2020072120240485983       SCATIZZA-FABIAN-ANDRES                                      20240485983
PR0040000000000000029000000002000000ARS2020072127340380741       SCHVINDT-GABRIELA                                           27340380741
PR0040000000000000030000000002000000ARS2020072127343795284       LOPEZ-MARIA-CAMILA                                          27343795284
PR0040000000000000031000000002000000ARS2020072123334963594       MEDINA-MARIA-BELEN                                          23334963594
PR0040000000000000032000000002000000ARS2020072127241564067       LEONES-STELLA-MARIS                                         27241564067
PR0040000000000000033000000002000000ARS2020072120259758689       BERTONA-GUSTAVO-EMILIO                                      20259758689
PR0040000000000000034000000002000000ARS2020072120336648751       OSTTA-MATIAS-JESUS                                          20336648751
PR0040000000000000035000000002000000ARS2020072120242497288       ZURBRIGGEN-ANDRES-RODOLFO                                   20242497288
PR0040000000000000036000000002000000ARS2020072120365455423       PERESSON-ADRIAN                                             20365455423
PR0040000000000000037000000002000000ARS2020072127327137625       PADRON-LISI-LORELEY                                         27327137625
PR0040000000000000038000000003000000ARS2020072127241948507       CALVO-ROCIO                                                 27241948507
PR0040000000000000039000000002000000ARS2020072120220772277       SAUCEDO-IVES-RAMON-ALEJANDRO                                20220772277
PR0040000000000000040000000002000000ARS2020072127203641783       POCHETTINO-MARTA                                            27203641783
PR0040000000000000041000000002000000ARS2020072127315367382       GRAFF-VALERIA                                               27315367382
PR0040000000000000042000000003000000ARS2020072120179141494       RIGHI-FABIAN-ARIEL                                          20179141494
PR0040000000000000043000000002000000ARS2020072120363029303       BRARDA-FACUNDO                                              20363029303
PR0040000000000000044000000002000000ARS2020072120291482512       FORLIN-PABLO-ALBERTO                                        20291482512
PR0040000000000000045000000002000000ARS2020072127313646063       VAUDAGNA-JESICA-PAULA                                       27313646063
PR0040000000000000046000000002000000ARS2020072123201905834       FESTI-CLAUDIA-ALEJANDRA                                     23201905834
PR0040000000000000047000000002000000ARS2020072127303603528       BALLEIS-CARLA                                               27303603528
PR0040000000000000048000000002000000ARS2020072127233507070       TOMBA-LAURA-INES                                            27233507070
PR0040000000000000049000000002000000ARS2020072123373298514       KLOSTER-CAMILA-ANDREA                                       23373298514
PR0040000000000000050000000002000000ARS2020072120270444513       KAHLOW-FERNANDO                                             20270444513
PR0040000000000000051000000003000000ARS2020072120144553552       GARCIA-RENE-NORBERTO                                        20144553552
PR0040000000000000052000000002000000ARS2020072127321849119       VILLEGAS-PINO-MELISA-ELISABET                               27321849119
PR0040000000000000053000000002000000ARS2020072127215447516       SALINAS-MONICA-ISABEL                                       27215447516
PR0040000000000000054000000002000000ARS2020072120341147906       ACOSTA-JOAQUIN-GABRIEL                                      20341147906
PR0040000000000000055000000003000000ARS2020072127245594645       DIAZ-ADRIANA-ALICIA                                         27245594645
PR0040000000000000056000000002000000ARS2020072123336407354       LIBERATTI-MARIA-LARA                                        23336407354
PR0040000000000000057000000002000000ARS2020072127249520565       GOMEZ-CLAUDIA-BETINA                                        27249520565
PR0040000000000000058000000002000000ARS2020072120388191997       LATTUADA-GABRIEL-GONZALO                                    20388191997
PR0040000000000000059000000002000000ARS2020072120062484498       RIVERA-JULIO-CESAR                                          20062484498
PR0040000000000000060000000003000000ARS2020072120360014879       BIANCO-JUAN-IGNACIO                                         20360014879
PR0040000000000000061000000002000000ARS2020072127323711408       LUCCA-MARIA-FLORENCIA                                       27323711408
PR0040000000000000062000000002000000ARS2020072120117905862       BLESA-JORGE                                                 20117905862
PR0040000000000000063000000003000000ARS2020072127331614594       CICERCHIA-YAMILA-BELEN                                      27331614594
PR0040000000000000064000000002000000ARS2020072127105247775       BLASER-NORA-LUISA                                           27105247775
PR0040000000000000065000000002000000ARS2020072127214114998       SALAS-GLADIS-MARGARITA                                      27214114998
PR0040000000000000066000000002000000ARS2020072127182422407       SILUK-VIVIANA-GUADALUPE                                     27182422407
PR0040000000000000067000000003000000ARS2020072127267165098       MANTARAS-MARIA-SOLEDAD                                      27267165098
PR0040000000000000068000000003000000ARS2020072120262523161       TREVISAN-DIEGO-ERNESTO                                      20262523161
PR0040000000000000069000000005000000ARS2020072120282171555       POLETTI-MATIAS                                              20282171555
PR0040000000000000070000000003000000ARS2020072127138300183       DECOLATTI-LILIANA                                           27138300183
PR0040000000000000071000000003000000ARS2020072127220708522       FERRERO-NORA-VIOLETA                                        27220708522
PR0040000000000000072000000005000000ARS2020072130715679317       SAVIGNANO-JUAN-PABLO                                        30715679317
PR0040000000000000073000000003000000ARS2020072120221934777       DESCALZO-DANIEL-ANTONIO                                     20221934777
PR0040000000000000074000000002000000ARS2020072120251577189       CANAL-ADRIAN-ALDO                                           20251577189
PR0040000000000000075000000002000000ARS2020072120139251890       DOLDAN-RICARDO-JORGE                                        20139251890
PR0040000000000000076000000002000000ARS2020072127303795540       TUTTOLOMONDO-CAROLINA-ANDREA                                27303795540
PR0040000000000000077000000003000000ARS2020072123278820424       MATASSA-MARIA-LAURA-LOURDES                                 23278820424
PR0040000000000000078000000002000000ARS2020072127265028069       UNREIN-LORENA-ELISABET                                      27265028069
PR0040000000000000079000000002000000ARS2020072127323068645       SANTANA-MARIA-EMILIA                                        27323068645
PR0040000000000000080000000002000000ARS2020072127256742735       MANDOLESI-MARIA-LUZ                                         27256742735
PR0040000000000000081000000002000000ARS2020072127265144751       ARESU-LILIANA                                               27265144751
PR0040000000000000082000000002000000ARS2020072127318978684       TARDINI-LUCIANA                                             27318978684
PR0040000000000000083000000002000000ARS2020072127352917147       MORIENA-ANA                                                 27352917147
PR0040000000000000084000000002000000ARS2020072127283922397       PEZZOTA-YANINA-LEILA                                        27283922397
PR0040000000000000085000000002000000ARS2020072120308021352       FANTONI-CLAUDIO                                             20308021352
PR0040000000000000086000000002000000ARS2020072127347164122       HOYOS-FLAVIA-BETIANA                                        27347164122
PR0040000000000000087000000002000000ARS2020072120296877949       BUZZI-JAVIER-HORACIO                                        20296877949
PR0040000000000000088000000002000000ARS2020072127343397440       FALCONI-WANDA                                               27343397440
PR0040000000000000089000000002000000ARS2020072127339340922       RUBINICH-GEORGINA-NOELIA                                    27339340922
PR0040000000000000090000000002000000ARS2020072127321888300       TORDINI-LUCIANA                                             27321888300
PR0040000000000000091000000002000000ARS2020072123-28556904       TABORDA-VERONICA-ANALIA                                     02328556904
PR0040000000000000092000000003000000ARS2020072127234824843       BALDANI-ERICA-GUADALUPE                                     27234824843
PR0040000000000000093000000002000000ARS2020072127356452858       GALLISSO-PAULA                                              27356452858
PR0040000000000000094000000002000000ARS2020072120307018714       COLOMBINI-GABRIEL                                           20307018714
PR0040000000000000095000000002000000ARS2020072127220399546       RANGEL-MARIA-JOSE                                           27220399546
PR0040000000000000096000000002000000ARS2020072127244113260       HERNANDEZ-VERONICA-MARIA                                    27244113260
PR0040000000000000097000000002000000ARS2020072127377120774       ZILLI-ORNELLA-SOFIA                                         27377120774
PR0040000000000000098000000002000000ARS2020072127215836180       MARINELLI-MILVA                                             27215836180
PR0040000000000000099000000002000000ARS2020072120369136330       D-OSTUNI-AGUSTIN                                            20369136330
PR0040000000000000100000000002000000ARS2020072123292163304       GENTILI-MARIA-FERNANDA                                      23292163304
PR0040000000000000101000000002000000ARS2020072127271152839       MORICONI-NATALIA-GISELA                                     27271152839
PR0040000000000000102000000002000000ARS2020072127231582423       LEDEZMA-SILVANA                                             27231582423
PR0040000000000000103000000002000000ARS2020072123171024064       MONCADA-MARIA-MARCELA-BEATRIZ                               23171024064
PR0040000000000000104000000003000000ARS2020072127255249229       JUAREZ-FLAVIA-LORENA                                        27255249229
PR0040000000000000105000000002000000ARS2020072120220913415       BUSTAMANTE-ANGEL-DANIEL                                     20220913415
PR0040000000000000106000000003000000ARS2020072120160765837       LOPICCOLO-HORACIO-RUBEN                                     20160765837
PR0040000000000000107000000002000000ARS2020072127181935990       MUSCO-ANDREA                                                27181935990
PR0040000000000000108000000002000000ARS2020072120403123529       FIGGINI-LUCAS-MARCELO                                       20403123529
PR0040000000000000109000000005000000ARS2020072123125263704       CARBONE-ADRIANA-MABEL                                       23125263704
PR0040000000000000110000000002000000ARS2020072127276800197       COLMAN-MARIA-LORENA                                         27276800197
PR0040000000000000111000000005000000ARS2020072120243228795       MORLUPI-HERNAN                                              20243228795
PR0040000000000000112000000002000000ARS2020072127203546330       PETRACCI-SILVINA-MARIANA                                    27203546330
PR0040000000000000113000000002000000ARS2020072120177164411       MILIOTO-MARCELO-SERGIO                                      20177164411
PR0040000000000000114000000002000000ARS2020072127343433420       SALFI-ANGELA-CAROLINA                                       27343433420
PR0040000000000000115000000003000000ARS2020072127201749056       CRIBB-MARIA-ALEJANDRA                                       27201749056
PR0040000000000000116000000002000000ARS2020072127222449001       CROCCO-MARIELA-ALEJANDRA                                    27222449001
PR0040000000000000117000000003000000ARS2020072120125775404       RANCIARI-ENZO                                               20125775404
PR0040000000000000118000000003000000ARS2020072127240637818       ANANIA-DANIELA-LAURA                                        27240637818
PR0040000000000000119000000002000000ARS2020072127223003678       GALLARDO-GABRIELA-ANALIA-FABRICIANA                         27223003678
PR0040000000000000120000000003000000ARS2020072127247329108       LUGONES-VILMA-DEL-VALLE                                     27247329108
PR0040000000000000121000000002000000ARS2020072120214142067       GARCIA-MONTERO-JOAQUIN-FRANCISCO                            20214142067
PR0040000000000000122000000005000000ARS2020072130715313053       ROMERO-SABRINA-VANESA                                       30715313053
PR0040000000000000123000000002000000ARS2020072127283987367       BALESTRAZZI-PAMELA-SABRINA                                  27283987367
PR0040000000000000124000000002000000ARS2020072127281488568       NUCIFORA-NERINA                                             27281488568
PR0040000000000000125000000002000000ARS2020072127135881347       JAIME-ANA-MARIA                                             27135881347
PR0040000000000000126000000003000000ARS2020072120202075216       TUTTOLOMONDO-CARLOS-ALEJANDRO                               20202075216
PR0040000000000000127000000003000000ARS2020072120149819119       ALONSO-OSVALDO-LUIS                                         20149819119
PR0040000000000000128000000005000000ARS2020072127343379264       CLEMENTE-VANESA                                             27343379264
PR0040000000000000129000000002000000ARS2020072127265647397       GARNICA-DANIELA-SILVINA                                     27265647397
PR0040000000000000130000000002000000ARS2020072120301680016       BAQUE-MARIANO                                               20301680016
PR0040000000000000131000000005000000ARS2020072120268713264       CORTE-HERNAN                                                20268713264
PR0040000000000000132000000003000000ARS2020072120280354059       DE-AGOSTINI-MATIAS                                          20280354059
PR0040000000000000133000000003000000ARS2020072127124040928       HEREDIA-LILIANA-EDIT                                        27124040928
PR0040000000000000134000000002000000ARS2020072127135026250       GAZZOLA-VIVIANA-ROSARIO                                     27135026250
PR0040000000000000135000000002000000ARS2020072127343337707       LACOUR-GISEL                                                27343337707
PR0040000000000000136000000002000000ARS2020072120271805099       LEDDA-GUILLERMO-JOSE                                        20271805099
PR0040000000000000137000000005000000ARS2020072120179152259       STIEFEL-ALEXIS                                              20179152259
PR0040000000000000138000000002000000ARS2020072120364901330       PEREZ-GASTON-ALEJANDRO                                      20364901330
PR0040000000000000139000000002000000ARS2020072127216368768       MANASSERO-SILVIA-BEATRIZ                                    27216368768
PR0040000000000000140000000003000000ARS2020072127246357981       SERRA-MARIA-LORENA                                          27246357981
PR0040000000000000141000000005000000ARS2020072127290237713       ALBORNOZ-ANDREA                                             27290237713
PR0040000000000000142000000003000000ARS2020072127372098584       PIVIDORI-CORINA                                             27372098584
PR0040000000000000143000000002000000ARS2020072127372817033       BENZ-MARIA-DE-LOS-MILAGROS                                  27372817033
PR0040000000000000144000000002000000ARS2020072127205505887       MENDICINI-ALBA-ALEJANDRA                                    27205505887
PR0040000000000000145000000003000000ARS2020072120263766688       VESSELLA-MATIAS                                             20263766688
PR0040000000000000146000000002000000ARS2020072127218149710       DE-MARTINI-VALERIA                                          27218149710
PR0040000000000000147000000004000000ARS2020072127239360667       VAIANA-MARIA-JOSE                                           27239360667
PR0040000000000000148000000005000000ARS2020072130715078445       HERNANDEZ-MARTINEZ-SOCIO-GERENTE-HERNANDEZ-MARTINEZ-SOCIO-GE30715078445
PR0040000000000000149000000005000000ARS2020072130714383236       RIVAROLA-CAROLINA                                           30714383236
PR0040000000000000150000000002000000ARS2020072127283344024       RIVAROLA-MARIANA                                            27283344024
PR0040000000000000151000000003000000ARS2020072127201972650       LUQUE-LAURA-NOEMI                                           27201972650
PR0040000000000000152000000002000000ARS2020072120296837602       JAIME-JUAN-MANUEL                                           20296837602
PR0040000000000000153000000004000000ARS2020072120267396788       VENTIMIGLIA-GUILLERMO-NESTOR                                20267396788
PR0040000000000000154000000003000000ARS2020072127294498848       FIGUEREDO-AGUSTINA                                          27294498848
PR0040000000000000155000000004000000ARS2020072120289126237       KERCKHAERT-CARLOS-GERMAN                                    20289126237
PR0040000000000000156000000005000000ARS2020072130715506609       RETAMAR-CLAUDIA                                             30715506609
PR0040000000000000157000000003000000ARS2020072120287092629       MONTIEL-SERGIO-OMAR                                         20287092629
PR0040000000000000158000000005000000ARS2020072127250074285       SANCHEZ-LORENA                                              27250074285
PR0040000000000000159000000002000000ARS2020072127320373412       VALDEZ-NATALIA                                              27320373412
PR0040000000000000160000000002000000ARS2020072123322099754       LOMBARDI-NATALI-PAOLA                                       23322099754
PR0040000000000000161000000005000000ARS2020072130714243108       MIGNACCO-JUAN-ANTONIO                                       30714243108
PR0040000000000000162000000003000000ARS2020072127245528278       SUAREZ-DEBORA                                               27245528278
PR0040000000000000163000000003000000ARS2020072123167282024       DIAZ-CRISTINA-ROSA                                          23167282024
PR0040000000000000164000000002000000ARS2020072127306896739       PERALTA-CAROLINA-ANABEL                                     27306896739
PR0040000000000000165000000003000000ARS2020072120242829531       CUE-PABLO-CRISTIAN                                          20242829531
PR0040000000000000166000000002000000ARS2020072123348316729       RODRIGUEZ-SERGIO-JESUS                                      23348316729
PR0040000000000000167000000002000000ARS2020072127338738930       ALAGI-VALERIA                                               27338738930
PR0040000000000000168000000002000000ARS2020072120248631083       PIJUAN-DARIO-LUCIANO                                        20248631083
PR0040000000000000169000000002000000ARS2020072127267895363       IOCCO-BETIANA-LORENA                                        27267895363
PR0040000000000000170000000002000000ARS2020072127300710536       CAPPONI-SANDRA-MARIA-DE-LUJAN                               27300710536
PR0040000000000000171000000002000000ARS2020072120162869664       BARRO-ORLANDO-SANTOS                                        20162869664
PR0040000000000000172000000003000000ARS2020072120271967927       BAIGORRIA-IVAN-ARIEL                                        20271967927
PR0040000000000000173000000005000000ARS2020072120330557908       BERGESE-HUGO-DAMIAN                                         20330557908
PR0040000000000000174000000003000000ARS2020072123216918894       RIZZOTTO-DIAS-SUSANA-EUGENIA                                23216918894
PR0040000000000000175000000003000000ARS2020072120214230187       GARCIA-TROIANO-JORGE                                        20214230187
PR0040000000000000176000000003000000ARS2020072120341734615       VICICONTE-SEBASTIAN                                         20341734615
PR0040000000000000177000000002000000ARS2020072127179660747       AFFRANCHINO-MARIA-PATRICIA                                  27179660747
PR0040000000000000178000000002000000ARS2020072120238147272       MUFARREGE-LEONARDO                                          20238147272
PR0040000000000000179000000005000000ARS2020072127225265475       LEZCANO-MARISA                                              27225265475
PR0040000000000000180000000002000000ARS2020072127223579871       DESTEFANIS-MARIA-JOSE                                       27223579871
PR0040000000000000181000000003000000ARS2020072127216909629       KUHN-SILVIA-MARIA                                           27216909629
PR0040000000000000182000000005000000ARS2020072120175149393       GUGLIELMONE-CLAUDIO-ALBERTO                                 20175149393
PR0040000000000000183000000002000000ARS2020072123169574359       FLORES-ROBERTO                                              23169574359
PR0040000000000000184000000002000000ARS2020072127206740545       INDACO-SANDRA-MARCELA                                       27206740545
PR0040000000000000185000000002000000ARS2020072127168802337       IRIGOYEN-MARIA-EUGENIA                                      27168802337
PR0040000000000000186000000005000000ARS2020072127307861076       MARTINEZ-GABRIELA                                           27307861076
PR0040000000000000187000000002000000ARS2020072127202412292       MENDOZA-JUDITH-ROSALIA                                      27202412292
PR0040000000000000188000000002000000ARS2020072123242149254       DIAZ-FERNANDA-BELEN                                         23242149254
PR0040000000000000189000000003000000ARS2020072127285715887       GAGLIARDO-MARIANA-DEL-VALLE                                 27285715887
PR0040000000000000190000000005000000ARS2020072130716224356       CENTRO-ROMA-SRL-FERNANDO-LARRONDO-SOC-GTE-                  30716224356
PR0040000000000000191000000005000000ARS2020072130714595810       COLOMBO-NORMA-ANDREA                                        30714595810
PR0040000000000000192000000002000000ARS2020072123176129409       CORONEL-FABIAN-EDUARDO                                      23176129409
PR0040000000000000193000000005000000ARS2020072130650116182       OBIETA-CLAUDIA                                              30650116182
PR0040000000000000194000000002000000ARS2020072123201800919       DOMINGUEZ-FABIAN-ALBERTO                                    23201800919
PR0040000000000000195000000005000000ARS2020072130714384593       AIMA-SRL-AIMA-SRL                                           30714384593
PR0040000000000000196000000003000000ARS2020072120267200417       LIRIA-MARCELO                                               20267200417
PR0040000000000000197000000003000000ARS2020072120345227769       BRATEN-BRIAN                                                20345227769
PR0040000000000000198000000002000000ARS2020072120303135422       TESTA-FEDERICO                                              20303135422
PR0040000000000000199000000002000000ARS2020072127285664387       ESPINOSA-MARIA-EMILIA                                       27285664387
PR0040000000000000200000000002000000ARS2020072120312900603       MARCUZZI-DIEGO-MATIAS                                       20312900603
PR0040000000000000201000000003000000ARS2020072127148034856       DURAN-ADRIANA-ROSA                                          27148034856
PR0040000000000000202000000003000000ARS2020072127306707952       VIRZI-TRIANA-MURIEL                                         27306707952
PR0040000000000000203000000003000000ARS2020072123214144379       CALANNI-MACCHIO-CLAUDIO-DANIEL                              23214144379
PR0040000000000000204000000002000000ARS2020072120334530222       GUARDIA-LEONEL-HERNAN                                       20334530222
PR0040000000000000205000000003000000ARS2020072127109878540       ESCAPARLENDA-SILVIA-CLARA                                   27109878540
PR0040000000000000206000000002000000ARS2020072123335132459       DE-SOTO-LUIS-ALBERTO                                        23335132459
PR0040000000000000207000000003000000ARS2020072127306864381       FERNANDEZ-MARIA-VICTORIA                                    27306864381
PR0040000000000000208000000002000000ARS2020072120175191896       SCRIVANICH-RICARDO-RAMON                                    20175191896
PR0040000000000000209000000002000000ARS2020072123313392554       FISERES-NATALIA                                             23313392554
PR0040000000000000210000000002000000ARS2020072120179329108       CASTILLO-ERNESTO-FABIAN                                     20179329108
PR0040000000000000211000000002000000ARS2020072120130706348       RICCA-ENZO-OMAR                                             20130706348
PR0040000000000000212000000002000000ARS2020072127114124384       GASSMANN-MONICA-BEATRIZ                                     27114124384
PR0040000000000000213000000002000000ARS2020072120301673257       SACONE-ARIEL                                                20301673257
PR0040000000000000214000000003000000ARS2020072127337306700       BRASSESCO-MARIANA-GRACIELA                                  27337306700
PR0040000000000000215000000002000000ARS2020072127274479588       FERESIN-NATALIA                                             27274479588
PR0040000000000000216000000002000000ARS2020072127299898194       FRANZOY-VERONICA                                            27299898194
PR0040000000000000217000000002000000ARS2020072120124719438       GODOY-ENRIQUE-CLIMACO-MANUEL                                20124719438
PR0040000000000000218000000002000000ARS2020072127313860138       GUNTERN-MELINA                                              27313860138
PR0040000000000000219000000005000000ARS2020072127236952849       IGNOGNA-ROXANA-VERONICA                                     27236952849
PR0040000000000000220000000002000000ARS2020072120278628052       GHIONE-MAGGIO-GASTON-EZEQUIEL                               20278628052
PR0040000000000000221000000002000000ARS2020072127117910240       VISCA-LILIANA-BEATRIZ                                       27117910240
PR0040000000000000222000000002000000ARS2020072123135106739       PRINCIPE-ROBERTO-LUIS                                       23135106739
PR0040000000000000223000000002000000ARS2020072127368880294       VAGLIENTE-NOELIA-MARIA                                      27368880294
PR0040000000000000224000000003000000ARS2020072120228164306       PIANCATELLI-CRISTIAN-DAVID                                  20228164306
PR0040000000000000225000000002000000ARS2020072127228910290       PRINCIPI-MONICA-ANGELICA                                    27228910290
PR0040000000000000226000000005000000ARS2020072130710747861       CLUB-ATLETICO-DEFENSORES-DE-CENTENO-CLUB-ATLETICO-DEFENSORES30710747861
PR0040000000000000227000000002000000ARS2020072127141803536       LOPEZ-GRICELDA-NOEMI                                        27141803536
PR0040000000000000228000000005000000ARS2020072127058191847       SAVORETTI-DORA-ELENA                                        27058191847
PR0040000000000000229000000002000000ARS2020072127249435908       ALBAMONTE-KARINA-VERONICA                                   27249435908
PR0040000000000000230000000002000000ARS2020072120368875482       IMHOFF-SEBASTIAN                                            20368875482
PR0040000000000000231000000005000000ARS2020072127335534579       BRUERA-LAILA                                                27335534579
PR0040000000000000232000000003000000ARS2020072127133533902       RABUFFETTI-MARIA-LUJAN                                      27133533902
PR0040000000000000233000000003000000ARS2020072120172222472       INSINGER-MARCELO                                            20172222472
PR0040000000000000234000000005000000ARS2020072120291424962       AYALA-MARTIN-EDUARDO                                        20291424962
PR0040000000000000235000000002000000ARS2020072120206433060       CIVETTA-FABIAN-CLAUDIO                                      20206433060
PR0040000000000000236000000002000000ARS2020072127366558077       CAVALLO-AGUSTINA                                            27366558077
PR0040000000000000237000000002000000ARS2020072120278644384       BOZZONI-MARIANO-NELSON                                      20278644384
PR0040000000000000238000000002000000ARS2020072127349378537       ROMINA-CHAN                                                 27349378537
PR0040000000000000239000000003000000ARS2020072120307633982       AYALA-LUCAS-IGNACIO                                         20307633982
PR0040000000000000240000000003000000ARS2020072120242522304       AQUINO-CRISTIAN-TOMAS                                       20242522304
PR0040000000000000241000000002000000ARS2020072127308023686       SIERRA-CECILIA                                              27308023686
PR0040000000000000242000000002000000ARS2020072127296860234       GUTIERREZ-DULCINEA-ALEJANDRINA                              27296860234
PR0040000000000000243000000003000000ARS2020072120247918125       FRANCESCHI-MARCELO                                          20247918125
PR0040000000000000244000000002000000ARS2020072127942543498       MUSTELIER-AQUINET-YINNERIS-ESPERANZA                        27942543498
PR0040000000000000245000000005000000ARS2020072130712531637       LIFSITZ-PABLO                                               30712531637
PR0040000000000000246000000002000000ARS2020072127125209357       TABORDA-LIDIA-LUCIA                                         27125209357
PR0040000000000000247000000002000000ARS2020072120306869095       LO-PRESTI-SEBASTIAN                                         20306869095
PR0040000000000000248000000002000000ARS2020072127227777236       TAFFURELLI-GABRIELA                                         27227777236
PR0040000000000000249000000005000000ARS2020072127225424352       FORMICA-CARINA-VERONICA                                     27225424352
PR0040000000000000250000000002000000ARS2020072127316021420       CESPED-VIRGINIA-PAOLA                                       27316021420
PR0040000000000000251000000003000000ARS2020072127291404532       NAVEIRA-MARIELA                                             27291404532
PR0040000000000000252000000002000000ARS2020072120247204793       FERNANDEZ-HERNAN-ARIEL                                      20247204793
PR0040000000000000253000000002000000ARS2020072127333617329       FEDELE-ANA                                                  27333617329
PR0040000000000000254000000005000000ARS2020072130711597820       MARCATO-LUCAS-MARTIN                                        30711597820
PR0040000000000000255000000004000000ARS2020072120177334805       SANTORO-CLAUDIO-VICENTE-LUJAN                               20177334805
PR0040000000000000256000000003000000ARS2020072127184162895       CUELLO-ADRIANA-LUCIA                                        27184162895
PR0040000000000000257000000003000000ARS2020072120251714216       ST-MARY-ALEJANDRO                                           20251714216
PR0040000000000000258000000002000000ARS2020072127319901782       DEL-GIGLIO-ROMINA-ANTONELA                                  27319901782
PR0040000000000000259000000002000000ARS2020072127144448974       MARTINEZ-ROSANNA-ASUNCION                                   27144448974
PR0040000000000000260000000003000000ARS2020072127310281927       BUSNADIEGO-MELISA                                           27310281927
PR0040000000000000261000000003000000ARS2020072120083444011       IMPERIALE-HUGO-ROBERTO                                      20083444011
PR0040000000000000262000000005000000ARS2020072130710491484       VARELA-CARINA-ALEJANDRA                                     30710491484
PR0040000000000000263000000005000000ARS2020072130716329719       HUIDOBRO-ORELLANA-SOLANGE-ARACELI                           30716329719
PR0040000000000000264000000005000000ARS2020072130714077984       ZULIANI-NATALIA                                             30714077984
PR0040000000000000265000000002000000ARS2020072123243206324       INOSTROZA-DORA-GABRIELA                                     23243206324
PR0040000000000000266000000003000000ARS2020072120141133641       CAVALIERI-MARIO-FERNANDO                                    20141133641
PR0040000000000000267000000003000000ARS2020072127330323391       BERNAL-LUCIA                                                27330323391
PR0040000000000000268000000002000000ARS2020072120128843850       LOZANO-VICTOR-MANUEL                                        20128843850
PR0040000000000000269000000003000000ARS2020072127312794387       PELLEGRINI-JORGELINA-NADIA-PELLEGRINI-JORGELINA-NADIA       27312794387
PR0040000000000000270000000002000000ARS2020072120923177621       VILLALBA-OSORES-GUSTAVO-JAVIER                              20923177621
PR0040000000000000271000000003000000ARS2020072127338331296       BARBIERI-JULIANA                                            27338331296
PR0040000000000000272000000002000000ARS2020072120333864062       HERVOT-EMILIANO-ALEJANDRO                                   20333864062
PR0040000000000000273000000003000000ARS2020072127222188828       PAULUCCI-CRISTINA-LAURA                                     27222188828
PR0040000000000000274000000002000000ARS2020072127258341185       ATIE-MARIA-TERESA                                           27258341185
PR0040000000000000275000000005000000ARS2020072130708909706       JAIME-CAMILO                                                30708909706
PR0040000000000000276000000002000000ARS2020072127237907650       CASTANO-ANDREA                                              27237907650
PR0040000000000000277000000002000000ARS2020072120372280841       LOVEY-KEVIN-IVAN                                            20372280841
PR0040000000000000278000000002000000ARS2020072120140869210       DIMARCO-NESTOR-ADELMO                                       20140869210
PR0040000000000000279000000002000000ARS2020072120203546670       MICHELI-DIEGO-CESAR                                         20203546670
PR0040000000000000280000000002000000ARS2020072127345574706       SAPP-NATALIA                                                27345574706
PR0040000000000000281000000003000000ARS2020072127127369289       MARTINI-MONICA-ELENA                                        27127369289
PR0040000000000000282000000003000000ARS2020072127245666298       GIUSTO-ZIMMARDO-MARIELA                                     27245666298
PR0040000000000000283000000002000000ARS2020072127206744222       INTELISANO-SILVINA-ANDREA                                   27206744222
PR0040000000000000284000000002000000ARS2020072127374035067       CANAS-MARIA-LUZ                                             27374035067
PR0040000000000000285000000002000000ARS2020072123239143334       CODARIN-MARIA-SABINA                                        23239143334
PR0040000000000000286000000002000000ARS2020072120290466262       ROMERO-JUAN-PABLO-FRANCISCO                                 20290466262
PR0040000000000000287000000002000000ARS2020072120391231681       BRACCO-NICOLAS-ATILIO                                       20391231681
PR0040000000000000288000000003000000ARS2020072127217222376       ARATA-ROXANA                                                27217222376
PR0040000000000000289000000002000000ARS2020072121523357          PRIETO-ALEJANDRO                                            00021523357
PR0040000000000000290000000002000000ARS2020072120296805395       MENDEZ-PABLO                                                20296805395
PR0040000000000000291000000002000000ARS2020072120348278747       BELART-MATIAS-DANIEL                                        20348278747
PR0040000000000000292000000003000000ARS2020072120131634642       GONZALEZ-RODOLFO-ENRIQUE                                    20131634642
PR0040000000000000293000000003000000ARS2020072123225703124       MORAN-DIAZ-VANESA-KARINA                                    23225703124
PR0040000000000000294000000002000000ARS2020072127125229455       CALVO-MIRTA                                                 27125229455
PR0040000000000000295000000003000000ARS2020072120298325560       MARCHEN-EMILIO-NICOLAS                                      20298325560
PR0040000000000000296000000005000000ARS2020072120220405207       BARRILE-DIEGO-RICARDO                                       20220405207
PR0040000000000000297000000002000000ARS2020072120354633710       CORACH-LUCAS                                                20354633710
PR0040000000000000298000000002000000ARS2020072127342061252       GAZZERA-VICTORIA-MARIA-DEL-ROSARIO                          27342061252
PR0040000000000000299000000002000000ARS2020072127178505780       DESTEFANIS-FERNANDA-MARISA                                  27178505780
PR0040000000000000300000000002000000ARS2020072127294460301       PRINA-ANALIA-CARINA                                         27294460301
PR0040000000000000301000000003000000ARS2020072120273301810       DOTTI-GONZALO-NAZARENO-JAVIER                               20273301810
PR0040000000000000302000000003000000ARS2020072120289396668       WEDERTZ-FRANCISCO-ANDRES                                    20289396668
PR0040000000000000303000000002000000ARS2020072120115799275       BARRETO-BRAULIO-DOMINGO                                     20115799275
PR0040000000000000304000000005000000ARS2020072130711793980       GONZALEZ-MARIA-FLORENCIA                                    30711793980
PR0040000000000000305000000004000000ARS2020072127184379819       ROSA-PATRICIA-ALEJANDRA                                     27184379819
PR0040000000000000306000000003000000ARS2020072127173398951       GUARDIA-MARISA-ESTHER                                       27173398951
PR0040000000000000307000000003000000ARS2020072120303414666       LOPEZ-HAYES-FERNANDO-RAMON                                  20303414666
PR0040000000000000308000000003000000ARS2020072127276600929       SOLARI-LUCIANA-EVELYN                                       27276600929
PR0040000000000000309000000002000000ARS2020072123306152734       GAIARDO-VANESA                                              23306152734
PR0040000000000000310000000003000000ARS2020072127256489274       FISCELLA-MARIA-FLORENCIA-                                   27256489274
PR0040000000000000311000000003000000ARS2020072127360028971       ACOSTA-MANUELA-GALA                                         27360028971
PR0040000000000000312000000003000000ARS2020072127131635953       VELOZO-MONICA                                               27131635953
PR0040000000000000313000000003000000ARS2020072120223612203       CORNUT-MIGUEL-EDUARDO                                       20223612203
PR0040000000000000314000000002000000ARS2020072120356522916       GARCIA-NICOLAS-EXEQUIEL                                     20356522916
PR0040000000000000315000000003000000ARS2020072120356497733       CIFRE-MARTIN                                                20356497733
PR0040000000000000316000000003000000ARS2020072120346548844       CAVALIERI-RODRIGO-FERNANDO                                  20346548844
PR0040000000000000317000000004000000ARS2020072123239294669       NUNEZ-CRISTIAN-RAMON                                        23239294669
PR0040000000000000318000000004000000ARS2020072123254802859       PEREYRA-GUILLERMO-ALCIDES                                   23254802859
PR0040000000000000319000000002000000ARS2020072120289687514       BONACCORSO-IGNACIO                                          20289687514
PR0040000000000000320000000002000000ARS2020072127206740189       MARAGLIANO-ADELA-MARIELA                                    27206740189
PR0040000000000000321000000003000000ARS2020072123281531344       ACEVEDO-CLAUDINA-NATALIA                                    23281531344
PR0040000000000000322000000002000000ARS2020072127388961258       COLSANI-JOSEFINA                                            27388961258
PR0040000000000000323000000002000000ARS2020072130715968297       CASTRO-ABDALLA-GUSTAVO-PABLO                                30715968297
PR0040000000000000324000000005000000ARS2020072120201678723       ALONSO-CESAR-ALEJANDRO                                      20201678723
PR0040000000000000325000000002000000ARS2020072127337345722       DOMINGUEZ-MARILINA                                          27337345722
PR0040000000000000326000000003000000ARS2020072127182963467       ARATA-VIVIANA-ELSA                                          27182963467
PR0040000000000000327000000002000000ARS2020072127185693134       INGA-MERCEDES-DEL-VALLE                                     27185693134
PR0040000000000000328000000002000000ARS2020072120290004528       MERLINI-MAURICIO                                            20290004528
PR0040000000000000329000000003000000ARS2020072127246751531       CASTELLI-LUCIANA                                            27246751531
PR0040000000000000330000000003000000ARS2020072127301679020       MARTINEZ-MARIA-BELEN                                        27301679020
PR0040000000000000331000000002000000ARS2020072120281992415       BATTISTONI-ARIEL-LUIS                                       20281992415
PR0040000000000000332000000005000000ARS2020072127167782200       DE-MIGUEL-MONICA-CLAUDIA                                    27167782200
PR0040000000000000333000000002000000ARS2020072127283989564       FIRPO-NATALIA                                               27283989564
PR0040000000000000334000000002000000ARS2020072120352903478       FERNANDEZ-NICOLAS                                           20352903478
PR0040000000000000335000000002000000ARS2020072120171524238       CUELLO-NESTOR-RUBEN                                         20171524238
PR0040000000000000336000000002000000ARS2020072123178178709       DE-BONIS-ERNESTO                                            23178178709
PR0040000000000000337000000002000000ARS2020072124276900974       GONZALEZ-SPUCCHES-MILTON                                    24276900974
PR0040000000000000338000000005000000ARS2020072127201920456       MARINO-NORMA                                                27201920456
PR0040000000000000339000000003000000ARS2020072120261596327       OJEDA-AMILCAR-FABIAN                                        20261596327
PR0040000000000000340000000002000000ARS2020072120282374111       MANASSERO-PABLO-GUILLERMO                                   20282374111
PR0040000000000000341000000002000000ARS2020072127336663410       GIANASI-FLORENCIA                                           27336663410
PR0040000000000000342000000003000000ARS2020072120101872352       CANAS-MAXIMO-PEDRO                                          20101872352
PR0040000000000000343000000003000000ARS2020072127229083428       GRASSI-LAURA-MARIANA                                        27229083428
PR0040000000000000344000000002000000ARS2020072127281355274       CABO-MARIA-LETICIA                                          27281355274
PR0040000000000000345000000002000000ARS2020072127311111006       NAVA-MERCEDES                                               27311111006
PR0040000000000000346000000003000000ARS2020072120207252795       AGUIRRE-OSCAR-WALTER                                        20207252795
PR0040000000000000347000000002000000ARS2020072120263823630       GIUPPONI-DIEGO                                              20263823630
PR0040000000000000348000000002000000ARS2020072120165502486       MAHFOUD-RUBEN                                               20165502486
PR0040000000000000349000000003000000ARS2020072120180960075       AGOSTINELLI-JORGE-EDGARDO                                   20180960075
PR0040000000000000350000000003000000ARS2020072127201667696       CHIAPELLO-PATRICIA-GUADALUPE                                27201667696
PR0040000000000000351000000005000000ARS2020072127249434561       BONETTI-CLAUDIA                                             27249434561
PR0040000000000000352000000005000000ARS2020072120293541834       SANCHEZ-EXEQUIEL-ALEJANDRO                                  20293541834
PR0040000000000000353000000003000000ARS2020072127230297261       RIVOLTA-VANINA-ISABEL                                       27230297261
PR0040000000000000354000000002000000ARS2020072120246617806       MONACO-ANTONIO                                              20246617806
PR0040000000000000355000000003000000ARS2020072120128849883       TALARICO-SALVADOR-LUIS                                      20128849883
PR0040000000000000356000000002000000ARS2020072127208083118       ARRIOLA-PATRICIA-ROSANA                                     27208083118
PR0040000000000000357000000002000000ARS2020072120331236048       BAYOCHI-MAURICIO-ARIEL                                      20331236048
PR0040000000000000358000000002000000ARS2020072127330209106       MEZZA-ANDREA                                                27330209106
PR0040000000000000359000000002000000ARS2020072120222077290       GOMEZ-CRISTIAN-IVAN                                         20222077290
PR0040000000000000360000000002000000ARS2020072127313841389       BALESTRA-MARIA-LAURA                                        27313841389
PR0040000000000000361000000002000000ARS2020072120238374422       ALARCON-VICTOR-HUGO                                         20238374422
PR0040000000000000362000000002000000ARS2020072127307015035       GONZALEZ-SILVANA-CAROLINA                                   27307015035
PR0040000000000000363000000002000000ARS2020072127347807856       PALLE-DANIELA-ANAHI                                         27347807856
PR0040000000000000364000000003000000ARS2020072127277940340       SANTACRUZ-JESICA-ANDREA                                     27277940340
PR0040000000000000365000000003000000ARS2020072123327026739       HURTADO-RODRIGO-CARLOS                                      23327026739
PR0040000000000000366000000002000000ARS2020072120222152187       VITULLO-JOSE-LUIS                                           20222152187
PR0040000000000000367000000004000000ARS2020072127236887702       OLSINA-NURIEL-SOLEDAD                                       27236887702
PR0040000000000000368000000002000000ARS2020072127186527084       ZERBONIA-ADRIANA-DEL-VALLE                                  27186527084
PR0040000000000000369000000004000000ARS2020072120362654751       DE-PETRE-FACUNDO                                            20362654751
PR0040000000000000370000000002000000ARS2020072120272373311       FERTONANI-PABLO-MIGUEL                                      20272373311
PR0040000000000000371000000003000000ARS2020072127175161517       MARINO-MARIA-DEL-CARMEN                                     27175161517
PR0040000000000000372000000002000000ARS2020072120262560121       LECLERC-GASTON-ANDRES                                       20262560121
PR0040000000000000373000000002000000ARS2020072127315921827       GOSSA-CAROLINA-MARISEL                                      27315921827
PR0040000000000000374000000002000000ARS2020072127293881133       DIAZ-VANESA-ALEJANDRA                                       27293881133
PR0040000000000000375000000002000000ARS2020072127340834378       NORANDO-MAGALI-JOANA                                        27340834378
PR0040000000000000376000000002000000ARS2020072120060780588       PLATIA-MIGUEL-ANGEL                                         20060780588
PR0040000000000000377000000002000000ARS2020072120247728997       CEJAS-RAUL-EDUARDO                                          20247728997
PR0040000000000000378000000003000000ARS2020072120230612987       CALZIA-DANIEL                                               20230612987
PR0040000000000000379000000002000000ARS2020072127313398698       ITALIANO-MARIA-DE-LOURDES                                   27313398698
PR0040000000000000380000000003000000ARS2020072127239143208       BARZAGHI-FLAVIA-JESUS                                       27239143208
PR0040000000000000381000000003000000ARS2020072120303470515       GOLIA-MATIAS-MARCELO                                        20303470515
PR0040000000000000382000000003000000ARS2020072120216000227       HENZENN-FERRERO-JOSE-LUIS                                   20216000227
PR0040000000000000383000000003000000ARS2020072120331720268       SALCEDO-MATIAS                                              20331720268
PR0040000000000000384000000003000000ARS2020072127329859180       TESTA-ALEXANDRA-DANIELA                                     27329859180
PR0040000000000000385000000002000000ARS2020072120333637791       ACUNA-LUIS-RUBEN                                            20333637791
PR0040000000000000386000000002000000ARS2020072120143425577       BERUTTI-CARLOS-MIGUEL                                       20143425577
PR0040000000000000387000000002000000ARS2020072127245564177       MILACHER-DANIELA                                            27245564177
PR0040000000000000388000000002000000ARS2020072127124344900       RIERA-MARIA-SUSANA                                          27124344900
PR0040000000000000389000000002000000ARS2020072127208899924       GONEM-NORMA-CARINA                                          27208899924
PR0040000000000000390000000002000000ARS2020072127296253567       PIOLI-ANDREA                                                27296253567
PR0040000000000000391000000003000000ARS2020072127168303837       BUTTARELLI-SILVINA-ANA                                      27168303837
PR0040000000000000392000000002000000ARS2020072120265122389       NICOLAU-MAXIMILIANO                                         20265122389
PR0040000000000000393000000002000000ARS2020072120356424647       DI-MARCO-NICOLAS                                            20356424647
PR0040000000000000394000000002000000ARS2020072123220953629       RIZZUTI-RAUL-GUILLERMO                                      23220953629
PR0040000000000000395000000002000000ARS2020072120256612640       GROH-ALEJANDRO                                              20256612640
PR0040000000000000396000000003000000ARS2020072123242392434       BLANCO-LIGIA-MIRIAM                                         23242392434
PR0040000000000000397000000003000000ARS2020072127326518242       SALVATIERRA-BRENDA                                          27326518242
PR0040000000000000398000000002000000ARS2020072127273186080       MERLINI-PAOLA                                               27273186080
PR0040000000000000399000000002000000ARS2020072127268842794       LOPEZ-ANALIA-BEATRIZ                                        27268842794
PR0040000000000000400000000003000000ARS2020072127250839230       AGUILAR-EVANGELINA-ROXANA                                   27250839230
PR0040000000000000401000000002000000ARS2020072127221043524       ACCETTA-SILVINA                                             27221043524
PR0040000000000000402000000005000000ARS2020072120286452435       BASILIADES-ULISES                                           20286452435
PR0040000000000000403000000003000000ARS2020072120401213016       FRANCO-ALAN-JOEL                                            20401213016
PR0040000000000000404000000003000000ARS2020072123274209054       DALLA-FONTANA-SILVIA-ANALIA                                 23274209054
PR0040000000000000405000000002000000ARS2020072120296107442       KERN-NICOLAS                                                20296107442
PR0040000000000000406000000002000000ARS2020072120257078974       SEGOVIA-JUAN-PABLO                                          20257078974
PR0040000000000000407000000003000000ARS2020072120215238262       OTAZU-GASTON                                                20215238262
PR0040000000000000408000000002000000ARS2020072123304848049       BLANGINI-PAZ-LUCAS-SEBASTIAN                                23304848049
PR0040000000000000409000000003000000ARS2020072127215285478       VILLEGAS-GABRIELA                                           27215285478
PR0040000000000000410000000002000000ARS2020072127230386655       SIMON-CARINA                                                27230386655
PR0040000000000000411000000005000000ARS2020072127299705868       ALMAZAN-LORENA-ANDREA                                       27299705868
PR0040000000000000412000000002000000ARS2020072127203551458       CABIALE-CLAUDIA-PATRICIA                                    27203551458
PR0040000000000000413000000002000000ARS2020072127226794986       PENDINO-CARINA                                              27226794986
PR0040000000000000414000000002000000ARS2020072127279352144       RAGAGLIA-MARIA-SOLEDAD                                      27279352144
PR0040000000000000415000000005000000ARS2020072123203543484       SCRIMIN-MARIA-EUGENIA                                       23203543484
PR0040000000000000416000000002000000ARS2020072120176686767       GOMEZ-FABIAN-ROBERTO-EMILIO                                 20176686767
PR0040000000000000417000000002000000ARS2020072127146847124       ROSSI-GRACIELA                                              27146847124
PR0040000000000000418000000003000000ARS2020072120305060764       BASTERRA-NICOLAS                                            20305060764
PR0040000000000000419000000005000000ARS2020072120320593523       MENDEZ-NICOLAS-MATIAS                                       20320593523
PR0040000000000000420000000005000000ARS2020072127249434707       ANDRUSZCZYSZYN-NATALIA-RITA                                 27249434707
PR0040000000000000421000000004000000ARS2020072127062878407       IZQUIERDO-GLADYS-RAQUEL                                     27062878407
PR0040000000000000422000000003000000ARS2020072127265506963       RIVEROS-MARINA-CRISTINA                                     27265506963
PR0040000000000000423000000002000000ARS2020072127360019867       GIONOTTI-VARGAS-AIME-GIULIANA                               27360019867
PR0040000000000000424000000003000000ARS2020072127332995222       GOMEZ-LAURA-MELINA                                          27332995222
