FH202007220834400011234567ORDENDEPAGO20200727
PR0040000000000000001000000005000000ARS2020072720251760250       PAYNTER GERMAN ARIEL                                        20251760250                                                                                                                                                      E:paulalabianca@hotmail.com                                                                                                                           0043100000000000000000000000000000000006CAARS           ARS12345678912345678                                                                                NN               001
PR0040000000000000002000000005000000ARS2020072730714810436       DE LA CALLE LORENA GISELA                                   30714810436                                                                                                                                                      E:c.p.nannini@live.com.ar                                                                                                                             0043100000000000000000000000000000000006CAARS           ARS12345678912345678                                                                                NN               001
PR0040000000000000003000000003000000ARS2020072727326537379       BARRIONUEVO MAIRA YANINA                                    27326537379                                                                                                                                                      E:estudiocontablevigna@outlook.com                                                                                                                    0043100000000000000000000000000000000005CAARS           ARS12345678912345678                                                                                NN               001
PR0040000000000000004000000002000000ARS2020072727301951111       RANIERI VIRGINIA                                            27301951111                                                                                                                                                      E:virgiranieri@hotmail.com                                                                                                                            0043100000000000000000000000000000000003CAARS           ARS12345678912345678                                                                                NN               001
PR0040000000000000005000000002000000ARS2020072720301678488       DADDATE FRANCISCO                                           20301678488                                                                                                                                                      E:chachidaddate@gmail.com                                                                                                                             0043100000000000000000000000000000000002CAARS           ARS12345678912345678                                                                                NN               001
PR0040000000000000006000000003000000ARS2020072727217186175       RAMIREZ MARIELA                                             27217186175                                                                                                                                                      E:ramirezmaru.13@gmail.com                                                                                                                            0042600000000000000000000000000000000007CAARS           ARS12345678912345678                                                                                NN               001
PR0040000000000000007000000005000000ARS2020072720311032748       FALCHINI NICOLAS  AMADEO                                    20311032748                                                                                                                                                      E:melinafalchini@gmail.com                                                                                                                            0042600000000000000000000000000000000002CAARS           ARS12345678912345678                                                                                NN               001
PR0040000000000000008000000002000000ARS2020072727307470301       DIAZ ANELEY ESTEFANIA                                       27307470301                                                                                                                                                      E:silvirobotti@hotmail.com                                                                                                                            0041500000000000000000000000000000000999CAARS           ARS12345678912345678                                                                                NN               001
PR0040000000000000009000000002000000ARS2020072720267200913       POLETTA ALEJANDRO GABRIEL                                   20267200913                                                                                                                                                      E:alepoletta@hotmail.com                                                                                                                              0033000000000000000000000000000000000599CAARS           ARS12345678912345678                                                                                NN               001
PR0040000000000000010000000002000000ARS2020072727292204669       PENNISI CECILIA BEATRIZ                                     27292204669                                                                                                                                                      E:ceciliapennisi2211@gmail.com                                                                                                                        0033000000000000000000000000000000000599CAARS           ARS12345678912345678                                                                                NN               001
PR0040000000000000011000000002000000ARS2020072727328606408       GARCIA ILEANA LETICIA                                       27328606408                                                                                                                                                      E:garciaileana87@gmail.com                                                                                                                            0033000000000000000000000000000000000599CAARS           ARS12345678912345678                                                                                NN               001
PR0040000000000000012000000002000000ARS2020072723330682809       FERNANDEZ LUCIANO JOSE                                      23330682809                                                                                                                                                      E:fernandezlucianoj@gmail.com                                                                                                                         0033000000000000000000000000000000000599CAARS           ARS12345678912345678                                                                                NN               001
PR0040000000000000013000000002000000ARS2020072727266141802       CACERES DANIELA                                             27266141802                                                                                                                                                      E:nat_c_17@hotmail.com                                                                                                                                0033000000000000000000000000000000000599CAARS           ARS12345678912345678                                                                                NN               001
PR0040000000000000014000000002000000ARS2020072727125302101       TRULLET SILVIA PILAR                                        27125302101                                                                                                                                                      E:silvia_trullet@hotmail.com                                                                                                                          0033000000000000000000000000000000000599CAARS           ARS12345678912345678                                                                                NN               001
PR0040000000000000015000000002000000ARS2020072727164555467       JORTACK MARIA ALEJANDRA                                     27164555467                                                                                                                                                      E:mariaalejandrajortack@gmail.com                                                                                                                     0033000000000000000000000000000000000599CAARS           ARS12345678912345678                                                                                NN               001
PR0040000000000000016000000002000000ARS2020072727250632032       CASALEGNO CARLA                                             27250632032                                                                                                                                                      E:cpcesar.ortiz@gmail.com                                                                                                                             0033000000000000000000000000000000000599CAARS           ARS12345678912345678                                                                                NN               001
PR0040000000000000017000000002000000ARS2020072727301664570       STINSON SILVANA ELIZABETH                                   27301664570                                                                                                                                                      E:silvanastinson83@gmail.com                                                                                                                          0033000000000000000000000000000000000558CAARS           ARS12345678912345678                                                                                NN               001
PR0040000000000000018000000002000000ARS2020072727289472822       MARTINEZ VANINA GISELA                                      27289472822                                                                                                                                                      E:vaninamartinez_21@hotmail.com                                                                                                                       0033000000000000000000000000000000000558CAARS           ARS12345678912345678                                                                                NN               001
PR0040000000000000019000000005000000ARS2020072720268600273       PORRETTI JUAN PABLO                                         20268600273                                                                                                                                                      E:juanpabloporretti@gmail.com                                                                                                                         0033000000000000000000000000000000000558CAARS           ARS12345678912345678                                                                                NN               001
PR0040000000000000020000000002000000ARS2020072720330712598       CANETE CARLOS MELCIADES                                     20330712598                                                                                                                                                      E:carloscarlosmelciades@gmail.com                                                                                                                     0033000000000000000000000000000000000555CAARS           ARS12345678912345678                                                                                NN               001
PR0040000000000000021000000002000000ARS2020072727250774163       RIVA FABIANA INES                                           27250774163                                                                                                                                                      E:fabiriva@hotmail.com.ar                                                                                                                             0033000000000000000000000000000000000555CAARS           ARS12345678912345678                                                                                NN               001
PR0040000000000000022000000002000000ARS2020072720122023142       PELLEGRINO EDGARDO ANTONIO JUSTINO                          20122023142                                                                                                                                                      E:impositivo@estudiofgg.com                                                                                                                           0033000000000000000000000000000000000553CAARS           ARS12345678912345678                                                                                NN               001
PR0040000000000000023000000002000000ARS2020072720381340458       MARQUEZ JUAN CRUZ                                           20381340458                                                                                                                                                      E:crackguerrero@hotmail.com                                                                                                                           0033000000000000000000000000000000000551CAARS           ARS12345678912345678                                                                                NN               001
PR0040000000000000024000000004000000ARS2020072727147065812       ALONSO LAURA AIDEE                                          27147065812                                                                                                                                                      E:josemanzoni1896@yahoo.com.ar                                                                                                                        0033000000000000000000000000000000000550CAARS           ARS12345678912345678                                                                                NN               001
PR0040000000000000025000000002000000ARS2020072720143972276       LASCURAIN ROQUE ALFREDO                                     20143972276                                                                                                                                                      E:roquelascurain@gmail.com                                                                                                                            0033000000000000000000000000000000000548CAARS           ARS12345678912345678                                                                                NN               001
PR0040000000000000026000000002000000ARS2020072720209483794       ESCOBAR DANIEL ROBERTO                                      20209483794                                                                                                                                                      E:pablozilli99@gmail.com                                                                                                                              0033000000000000000000000000000000000545CAARS           ARS12345678912345678                                                                                NN               001
PR0040000000000000027000000002000000ARS2020072727341097644       LESCANO CECILIA                                             27341097644                                                                                                                                                      E:ce.lescano@hotmail.com                                                                                                                              0033000000000000000000000000000000000545CAARS           ARS12345678912345678                                                                                NN               001
PR0040000000000000028000000002000000ARS2020072720240485983       SCATIZZA FABIAN ANDRES                                      20240485983                                                                                                                                                      E:fitotate1989@gmail.com                                                                                                                              0033000000000000000000000000000000000545CAARS           ARS12345678912345678                                                                                NN               001
PR0040000000000000029000000002000000ARS2020072727340380741       SCHVINDT GABRIELA                                           27340380741                                                                                                                                                      E:gabyschvindt@hotmail.com                                                                                                                            0033000000000000000000000000000000000544CAARS           ARS12345678912345678                                                                                NN               001
PR0040000000000000030000000002000000ARS2020072727343795284       LOPEZ MARIA CAMILA                                          27343795284                                                                                                                                                      E:jardinmaternalcuchuki@gmail.com                                                                                                                     0033000000000000000000000000000000000541CAARS           ARS12345678912345678                                                                                NN               001
PR0040000000000000031000000002000000ARS2020072723334963594       MEDINA MARIA BELEN                                          23334963594                                                                                                                                                      E:attitudeescueladedanza@gmail.com                                                                                                                    0033000000000000000000000000000000000541CAARS           ARS12345678912345678                                                                                NN               001
PR0040000000000000032000000002000000ARS2020072727241564067       LEONES STELLA MARIS                                         27241564067                                                                                                                                                      E:jmcreecer@gmail.com                                                                                                                                 0033000000000000000000000000000000000541CAARS           ARS12345678912345678                                                                                NN               001
PR0040000000000000033000000002000000ARS2020072720259758689       BERTONA GUSTAVO EMILIO                                      20259758689                                                                                                                                                      E:gustavo78bertona@gmail.com                                                                                                                          0033000000000000000000000000000000000540CAARS           ARS12345678912345678                                                                                NN               001
PR0040000000000000034000000002000000ARS2020072720336648751       OSTTA MATIAS JESUS                                          20336648751                                                                                                                                                      E:osttamatias@hotmail.com                                                                                                                             0033000000000000000000000000000000000538CAARS           ARS12345678912345678                                                                                NN               001
PR0040000000000000035000000002000000ARS2020072720242497288       ZURBRIGGEN ANDRES RODOLFO                                   20242497288                                                                                                                                                      E:hugo-2@wilnet.com.ar                                                                                                                                0033000000000000000000000000000000000538CAARS           ARS12345678912345678                                                                                NN               001
PR0040000000000000036000000002000000ARS2020072720365455423       PERESSON ADRIAN                                             20365455423                                                                                                                                                      E:adrianperesson@gmail.com                                                                                                                            0033000000000000000000000000000000000536CAARS           ARS12345678912345678                                                                                NN               001
PR0040000000000000037000000002000000ARS2020072727327137625       PADRON LISI LORELEY                                         27327137625                                                                                                                                                      E:daia.montiel@hotmail.com                                                                                                                            0033000000000000000000000000000000000536CAARS           ARS12345678912345678                                                                                NN               001
PR0040000000000000038000000003000000ARS2020072727241948507       CALVO ROCIO                                                 27241948507                                                                                                                                                      E:rociocalvo00@gmail.com                                                                                                                              0033000000000000000000000000000000000536CAARS           ARS12345678912345678                                                                                NN               001
PR0040000000000000039000000002000000ARS2020072720220772277       SAUCEDO IVES RAMON ALEJANDRO                                20220772277                                                                                                                                                      E:analiatrombetti@hotmail.com                                                                                                                         0033000000000000000000000000000000000536CAARS           ARS12345678912345678                                                                                NN               001
PR0040000000000000040000000002000000ARS2020072727203641783       POCHETTINO MARTA                                            27203641783                                                                                                                                                      E:martapochettino@gmail.com                                                                                                                           0033000000000000000000000000000000000536CAARS           ARS12345678912345678                                                                                NN               001
PR0040000000000000041000000002000000ARS2020072727315367382       GRAFF VALERIA                                               27315367382                                                                                                                                                      E:cpcesar.ortiz@gmail.com                                                                                                                             0033000000000000000000000000000000000534CAARS           ARS12345678912345678                                                                                NN               001
PR0040000000000000042000000003000000ARS2020072720179141494       RIGHI FABIAN ARIEL                                          20179141494                                                                                                                                                      E:tatabosco68@hotmail.com                                                                                                                             0033000000000000000000000000000000000534CAARS           ARS12345678912345678                                                                                NN               001
PR0040000000000000043000000002000000ARS2020072720363029303       BRARDA FACUNDO                                              20363029303                                                                                                                                                      E:facundo_brarda@hotmail.com                                                                                                                          0033000000000000000000000000000000000532CAARS           ARS12345678912345678                                                                                NN               001
PR0040000000000000044000000002000000ARS2020072720291482512       FORLIN PABLO ALBERTO                                        20291482512                                                                                                                                                      E:forlipab82@gmail.com                                                                                                                                0033000000000000000000000000000000000527CAARS           ARS12345678912345678                                                                                NN               001
PR0040000000000000045000000002000000ARS2020072727313646063       VAUDAGNA JESICA PAULA                                       27313646063                                                                                                                                                      E:jesicavaudagna@gmail.com                                                                                                                            0033000000000000000000000000000000000520CAARS           ARS12345678912345678                                                                                NN               001
PR0040000000000000046000000002000000ARS2020072723201905834       FESTI CLAUDIA ALEJANDRA                                     23201905834                                                                                                                                                      E:alezurdt@gmail.com                                                                                                                                  0033000000000000000000000000000000000520CAARS           ARS12345678912345678                                                                                NN               001
PR0040000000000000047000000002000000ARS2020072727303603528       BALLEIS CARLA                                               27303603528                                                                                                                                                      E:tresballeis@hotmail.com                                                                                                                             0033000000000000000000000000000000000519CAARS           ARS12345678912345678                                                                                NN               001
PR0040000000000000048000000002000000ARS2020072727233507070       TOMBA LAURA INES                                            27233507070                                                                                                                                                      E:micaelarenk@hotmail.com                                                                                                                             0033000000000000000000000000000000000519CAARS           ARS12345678912345678                                                                                NN               001
PR0040000000000000049000000002000000ARS2020072723373298514       KLOSTER CAMILA ANDREA                                       23373298514                                                                                                                                                      E:klostercamila@hotmail.com                                                                                                                           0033000000000000000000000000000000000518CAARS           ARS12345678912345678                                                                                NN               001
PR0040000000000000050000000002000000ARS2020072720270444513       KAHLOW FERNANDO                                             20270444513                                                                                                                                                      E:kahlow196@hotmail.com                                                                                                                               0033000000000000000000000000000000000518CAARS           ARS12345678912345678                                                                                NN               001
PR0040000000000000051000000003000000ARS2020072720144553552       GARCIA RENE NORBERTO                                        20144553552                                                                                                                                                      E:renegar61@gmail.com                                                                                                                                 0033000000000000000000000000000000000518CAARS           ARS12345678912345678                                                                                NN               001
PR0040000000000000052000000002000000ARS2020072727321849119       VILLEGAS PINO MELISA ELISABET                               27321849119                                                                                                                                                      E:meli.villegas@hotmail.com                                                                                                                           0033000000000000000000000000000000000516CAARS           ARS12345678912345678                                                                                NN               001
PR0040000000000000053000000002000000ARS2020072727215447516       SALINAS MONICA ISABEL                                       27215447516                                                                                                                                                      E:monicasalinas580@gmail.com                                                                                                                          0033000000000000000000000000000000000515CAARS           ARS12345678912345678                                                                                NN               001
PR0040000000000000054000000002000000ARS2020072720341147906       ACOSTA JOAQUIN GABRIEL                                      20341147906                                                                                                                                                      E:Joaquingacosta@gmail.com                                                                                                                            0033000000000000000000000000000000000515CAARS           ARS12345678912345678                                                                                NN               001
PR0040000000000000055000000003000000ARS2020072727245594645       DIAZ ADRIANA ALICIA                                         27245594645                                                                                                                                                      E:adridiaz75@yahoo.com                                                                                                                                0033000000000000000000000000000000000514CAARS           ARS12345678912345678                                                                                NN               001
PR0040000000000000056000000002000000ARS2020072723336407354       LIBERATTI MARIA LARA                                        23336407354                                                                                                                                                      E:laritaliberattidea@gmail.com                                                                                                                        0033000000000000000000000000000000000511CAARS           ARS12345678912345678                                                                                NN               001
PR0040000000000000057000000002000000ARS2020072727249520565       GOMEZ CLAUDIA BETINA                                        27249520565                                                                                                                                                      E:ernestoriestra@hotmail.com                                                                                                                          0033000000000000000000000000000000000506CAARS           ARS12345678912345678                                                                                NN               001
PR0040000000000000058000000002000000ARS2020072720388191997       LATTUADA GABRIEL GONZALO                                    20388191997                                                                                                                                                      E:gabi95_lattu@hotmail.com                                                                                                                            0033000000000000000000000000000000000506CAARS           ARS12345678912345678                                                                                NN               001
PR0040000000000000059000000002000000ARS2020072720062484498       RIVERA JULIO CESAR                                          20062484498                                                                                                                                                      E:giselaerivera@gmail.com                                                                                                                             0033000000000000000000000000000000000506CAARS           ARS12345678912345678                                                                                NN               001
PR0040000000000000060000000003000000ARS2020072720360014879       BIANCO JUAN IGNACIO                                         20360014879                                                                                                                                                      E:Juanibianco25@gmail.com                                                                                                                             0033000000000000000000000000000000000505CAARS           ARS12345678912345678                                                                                NN               001
PR0040000000000000061000000002000000ARS2020072727323711408       LUCCA MARIA FLORENCIA                                       27323711408                                                                                                                                                      E:florlucca@gmail.com                                                                                                                                 0033000000000000000000000000000000000505CAARS           ARS12345678912345678                                                                                NN               001
PR0040000000000000062000000002000000ARS2020072720117905862       BLESA JORGE                                                 20117905862                                                                                                                                                      E:desirelomello@gmail.com                                                                                                                             0033000000000000000000000000000000000504CAARS           ARS12345678912345678                                                                                NN               001
PR0040000000000000063000000003000000ARS2020072727331614594       CICERCHIA YAMILA BELEN                                      27331614594                                                                                                                                                      E:belu_na15@hotmail.com                                                                                                                               0033000000000000000000000000000000000504CAARS           ARS12345678912345678                                                                                NN               001
PR0040000000000000064000000002000000ARS2020072727105247775       BLASER NORA LUISA                                           27105247775                                                                                                                                                      E:noralui@live.com                                                                                                                                    0033000000000000000000000000000000000504CAARS           ARS12345678912345678                                                                                NN               001
PR0040000000000000065000000002000000ARS2020072727214114998       SALAS GLADIS MARGARITA                                      27214114998                                                                                                                                                      E:artfive2011@hotmail.com                                                                                                                             0033000000000000000000000000000000000503CAARS           ARS12345678912345678                                                                                NN               001
PR0040000000000000066000000002000000ARS2020072727182422407       SILUK VIVIANA GUADALUPE                                     27182422407                                                                                                                                                      E:vivisiluk@hotmail.com                                                                                                                               0033000000000000000000000000000000000503CAARS           ARS12345678912345678                                                                                NN               001
PR0040000000000000067000000003000000ARS2020072727267165098       MANTARAS MARIA SOLEDAD                                      27267165098                                                                                                                                                      E:mariasoledadmantaras@gmail.com                                                                                                                      0033000000000000000000000000000000000500CAARS           ARS12345678912345678                                                                                NN               001
PR0040000000000000068000000003000000ARS2020072720262523161       TREVISAN DIEGO ERNESTO                                      20262523161                                                                                                                                                      E:diegotrevi18@gmail.com                                                                                                                              0033000000000000000000000000000000000500CAARS           ARS12345678912345678                                                                                NN               001
PR0040000000000000069000000005000000ARS2020072720282171555       POLETTI MATIAS                                              20282171555                                                                                                                                                      E:matiasivanpoletti@hotmail.com                                                                                                                       0033000000000000000000000000000000000500CAARS           ARS12345678912345678                                                                                NN               001
PR0040000000000000070000000003000000ARS2020072727138300183       DECOLATTI LILIANA                                           27138300183                                                                                                                                                      E:decolatti@gmail.com                                                                                                                                 0033000000000000000000000000000000000500CAARS           ARS12345678912345678                                                                                NN               001
PR0040000000000000071000000003000000ARS2020072727220708522       FERRERO NORA VIOLETA                                        27220708522                                                                                                                                                      E:violetanfe@gmail.com                                                                                                                                0033000000000000000000000000000000000500CAARS           ARS12345678912345678                                                                                NN               001
PR0040000000000000072000000005000000ARS2020072730715679317       SAVIGNANO JUAN PABLO                                        30715679317                                                                                                                                                      E:savignanojuanpablo@hotmail.com                                                                                                                      0033000000000000000000000000000000000500CAARS           ARS12345678912345678                                                                                NN               001
PR0040000000000000073000000003000000ARS2020072720221934777       DESCALZO DANIEL ANTONIO                                     20221934777                                                                                                                                                      E:danieldescalzo73@gmail.com                                                                                                                          0033000000000000000000000000000000000500CAARS           ARS12345678912345678                                                                                NN               001
PR0040000000000000074000000002000000ARS2020072720251577189       CANAL ADRIAN ALDO                                           20251577189                                                                                                                                                      E:iva1623@yahoo.com.ar                                                                                                                                0033000000000000000000000000000000000500CAARS           ARS12345678912345678                                                                                NN               001
PR0040000000000000075000000002000000ARS2020072720139251890       DOLDAN RICARDO JORGE                                        20139251890                                                                                                                                                      E:rixdoldan@yahoo.com.ar                                                                                                                              0033000000000000000000000000000000000500CAARS           ARS12345678912345678                                                                                NN               001
PR0040000000000000076000000002000000ARS2020072727303795540       TUTTOLOMONDO CAROLINA ANDREA                                27303795540                                                                                                                                                      E:carotutto@gmail.com                                                                                                                                 0033000000000000000000000000000000000076CAARS           ARS12345678912345678                                                                                NN               001
PR0040000000000000077000000003000000ARS2020072723278820424       MATASSA MARIA LAURA LOURDES                                 23278820424                                                                                                                                                      E:marialauramatassa@gmail.com                                                                                                                         0033000000000000000000000000000000000076CAARS           ARS12345678912345678                                                                                NN               001
PR0040000000000000078000000002000000ARS2020072727265028069       UNREIN LORENA ELISABET                                      27265028069                                                                                                                                                      E:lorenaeunrein@gmail.com                                                                                                                             0033000000000000000000000000000000000071CAARS           ARS12345678912345678                                                                                NN               001
PR0040000000000000079000000002000000ARS2020072727323068645       SANTANA MARIA EMILIA                                        27323068645                                                                                                                                                      E:mesantana18@gmail.com                                                                                                                               0033000000000000000000000000000000000071CAARS           ARS12345678912345678                                                                                NN               001
PR0040000000000000080000000002000000ARS2020072727256742735       MANDOLESI MARIA LUZ                                         27256742735                                                                                                                                                      E:mluzmandolesi@hotmail.com                                                                                                                           0033000000000000000000000000000000000071CAARS           ARS12345678912345678                                                                                NN               001
PR0040000000000000081000000002000000ARS2020072727265144751       ARESU LILIANA                                               27265144751                                                                                                                                                      E:liliana0978@hotmail.com                                                                                                                             0033000000000000000000000000000000000061CAARS           ARS12345678912345678                                                                                NN               001
PR0040000000000000082000000002000000ARS2020072727318978684       TARDINI LUCIANA                                             27318978684                                                                                                                                                      E:lucitardini@hotmail.com                                                                                                                             0033000000000000000000000000000000000058CAARS           ARS12345678912345678                                                                                NN               001
PR0040000000000000083000000002000000ARS2020072727352917147       MORIENA ANA                                                 27352917147                                                                                                                                                      E:anamoriena@hotmail.com                                                                                                                              0033000000000000000000000000000000000056CAARS           ARS12345678912345678                                                                                NN               001
PR0040000000000000084000000002000000ARS2020072727283922397       PEZZOTA YANINA LEILA                                        27283922397                                                                                                                                                      E:yanipezzota@hotmail.com                                                                                                                             0033000000000000000000000000000000000056CAARS           ARS12345678912345678                                                                                NN               001
PR0040000000000000085000000002000000ARS2020072720308021352       FANTONI CLAUDIO                                             20308021352                                                                                                                                                      E:claudiolfantoni@hotmail.com                                                                                                                         0033000000000000000000000000000000000056CAARS           ARS12345678912345678                                                                                NN               001
PR0040000000000000086000000002000000ARS2020072727347164122       HOYOS FLAVIA BETIANA                                        27347164122                                                                                                                                                      E:silvirobotti@hotmail.com                                                                                                                            0033000000000000000000000000000000000043CAARS           ARS12345678912345678                                                                                NN               001
PR0040000000000000087000000002000000ARS2020072720296877949       BUZZI JAVIER HORACIO                                        20296877949                                                                                                                                                      E:jbuzzi10@hotmail.com                                                                                                                                0033000000000000000000000000000000000042CAARS           ARS12345678912345678                                                                                NN               001
PR0040000000000000088000000002000000ARS2020072727343397440       FALCONI WANDA                                               27343397440                                                                                                                                                      E:Jmcorazondemelon@gmail.com                                                                                                                          0033000000000000000000000000000000000036CAARS           ARS12345678912345678                                                                                NN               001
PR0040000000000000089000000002000000ARS2020072727339340922       RUBINICH GEORGINA NOELIA                                    27339340922                                                                                                                                                      E:georgina.rubinich@hotmail.com.ar                                                                                                                    0033000000000000000000000000000000000034CAARS           ARS12345678912345678                                                                                NN               001
PR0040000000000000090000000002000000ARS2020072727321888300       TORDINI LUCIANA                                             27321888300                                                                                                                                                      E:Lucit17@hotmail.com                                                                                                                                 0033000000000000000000000000000000000028CAARS           ARS12345678912345678                                                                                NN               001
PR0040000000000000091000000002000000ARS2020072723-28556904       TABORDA VERONICA ANALIA                                     02328556904                                                                                                                                                      E:verotaborda37@gmail.com                                                                                                                             0033000000000000000000000000000000000028CAARS           ARS12345678912345678                                                                                NN               001
PR0040000000000000092000000003000000ARS2020072727234824843       BALDANI ERICA GUADALUPE                                     27234824843                                                                                                                                                      E:luchimoretti_622@hotmail.com                                                                                                                        0033000000000000000000000000000000000028CAARS           ARS12345678912345678                                                                                NN               001
PR0040000000000000093000000002000000ARS2020072727356452858       GALLISSO PAULA                                              27356452858                                                                                                                                                      E:martin_rebora@hotmail.com                                                                                                                           0033000000000000000000000000000000000026CAARS           ARS12345678912345678                                                                                NN               001
PR0040000000000000094000000002000000ARS2020072720307018714       COLOMBINI GABRIEL                                           20307018714                                                                                                                                                      E:gabrielcolombini@gmail.com                                                                                                                          0033000000000000000000000000000000000025CAARS           ARS12345678912345678                                                                                NN               001
PR0040000000000000095000000002000000ARS2020072727220399546       RANGEL MARIA JOSE                                           27220399546                                                                                                                                                      E:marijo1971@gmail.com                                                                                                                                0033000000000000000000000000000000000025CAARS           ARS12345678912345678                                                                                NN               001
PR0040000000000000096000000002000000ARS2020072727244113260       HERNANDEZ VERONICA MARIA                                    27244113260                                                                                                                                                      E:riodulce165@gmail.com                                                                                                                               0033000000000000000000000000000000000025CAARS           ARS12345678912345678                                                                                NN               001
PR0040000000000000097000000002000000ARS2020072727377120774       ZILLI ORNELLA SOFIA                                         27377120774                                                                                                                                                      E:ornellazilli1@gmail.com                                                                                                                             0033000000000000000000000000000000000024CAARS           ARS12345678912345678                                                                                NN               001
PR0040000000000000098000000002000000ARS2020072727215836180       MARINELLI MILVA                                             27215836180                                                                                                                                                      E:milvavmarinelli@gmail.com                                                                                                                           0033000000000000000000000000000000000024CAARS           ARS12345678912345678                                                                                NN               001
PR0040000000000000099000000002000000ARS2020072720369136330       D OSTUNI AGUSTIN                                            20369136330                                                                                                                                                      E:agu_borro@hotmail.com                                                                                                                               0033000000000000000000000000000000000024CAARS           ARS12345678912345678                                                                                NN               001
PR0040000000000000100000000002000000ARS2020072723292163304       GENTILI MARIA FERNANDA                                      23292163304                                                                                                                                                      E:fefidance@gmail.com                                                                                                                                 0033000000000000000000000000000000000024CAARS           ARS12345678912345678                                                                                NN               001
PR0040000000000000101000000002000000ARS2020072727271152839       MORICONI NATALIA GISELA                                     27271152839                                                                                                                                                      E:gisel1979@gmail.com                                                                                                                                 0033000000000000000000000000000000000024CAARS           ARS12345678912345678                                                                                NN               001
PR0040000000000000102000000002000000ARS2020072727231582423       LEDEZMA SILVANA                                             27231582423                                                                                                                                                      E:silvanaledezma2015@gmail.com                                                                                                                        0033000000000000000000000000000000000023CAARS           ARS12345678912345678                                                                                NN               001
PR0040000000000000103000000002000000ARS2020072723171024064       MONCADA MARIA MARCELA BEATRIZ                               23171024064                                                                                                                                                      E:mabmarcela.moncada.5@gmail.com                                                                                                                      0033000000000000000000000000000000000023CAARS           ARS12345678912345678                                                                                NN               001
PR0040000000000000104000000003000000ARS2020072727255249229       JUAREZ FLAVIA LORENA                                        27255249229                                                                                                                                                      E:flajuz@hotmail.com                                                                                                                                  0033000000000000000000000000000000000006CAARS           ARS12345678912345678                                                                                NN               001
PR0040000000000000105000000002000000ARS2020072720220913415       BUSTAMANTE ANGEL DANIEL                                     20220913415                                                                                                                                                      E:angeldanielbustamante9@gmail.com                                                                                                                    0033000000000000000000000000000000000006CAARS           ARS12345678912345678                                                                                NN               001
PR0040000000000000106000000003000000ARS2020072720160765837       LOPICCOLO HORACIO RUBEN                                     20160765837                                                                                                                                                      E:horaciolopiccolo@gmail.com                                                                                                                          0033000000000000000000000000000000000006CAARS           ARS12345678912345678                                                                                NN               001
PR0040000000000000107000000002000000ARS2020072727181935990       MUSCO ANDREA                                                27181935990                                                                                                                                                      E:Andresu67@hotmail.com                                                                                                                               0033000000000000000000000000000000000006CAARS           ARS12345678912345678                                                                                NN               001
PR0040000000000000108000000002000000ARS2020072720403123529       FIGGINI LUCAS MARCELO                                       20403123529                                                                                                                                                      E:Torredecubos2017@gmailcom                                                                                                                           0033000000000000000000000000000000000006CAARS           ARS12345678912345678                                                                                NN               001
PR0040000000000000109000000005000000ARS2020072723125263704       CARBONE ADRIANA MABEL                                       23125263704                                                                                                                                                      E:transporte.naty@hotmail.com                                                                                                                         0033000000000000000000000000000000000006CAARS           ARS12345678912345678                                                                                NN               001
PR0040000000000000110000000002000000ARS2020072727276800197       COLMAN MARIA LORENA                                         27276800197                                                                                                                                                      E:lolycolman2018@gmail.com                                                                                                                            0033000000000000000000000000000000000004CAARS           ARS12345678912345678                                                                                NN               001
PR0040000000000000111000000005000000ARS2020072720243228795       MORLUPI HERNAN                                              20243228795                                                                                                                                                      E:citroturturismo@gmail.com                                                                                                                           0033000000000000000000000000000000000004CAARS           ARS12345678912345678                                                                                NN               001
PR0040000000000000112000000002000000ARS2020072727203546330       PETRACCI SILVINA MARIANA                                    27203546330                                                                                                                                                      E:Smpetra@Hotmail.com                                                                                                                                 0033000000000000000000000000000000000003CAARS           ARS12345678912345678                                                                                NN               001
PR0040000000000000113000000002000000ARS2020072720177164411       MILIOTO MARCELO SERGIO                                      20177164411                                                                                                                                                      E:marcelo_sm25@hotmail.com                                                                                                                            0033000000000000000000000000000000000002CAARS           ARS12345678912345678                                                                                NN               001
PR0040000000000000114000000002000000ARS2020072727343433420       SALFI ANGELA CAROLINA                                       27343433420                                                                                                                                                      E:a.c.salfi@hotmail.com                                                                                                                               0033000000000000000000000000000000000002CAARS           ARS12345678912345678                                                                                NN               001
PR0040000000000000115000000003000000ARS2020072727201749056       CRIBB MARIA ALEJANDRA                                       27201749056                                                                                                                                                      E:elisabetmarcelafernandez@yahoo.com.ar                                                                                                               0033000000000000000000000000000000000002CAARS           ARS12345678912345678                                                                                NN               001
PR0040000000000000116000000002000000ARS2020072727222449001       CROCCO MARIELA ALEJANDRA                                    27222449001                                                                                                                                                      E:rodolfo_tomas@hotmail.com                                                                                                                           0033000000000000000000000000000000000002CAARS           ARS12345678912345678                                                                                NN               001
PR0040000000000000117000000003000000ARS2020072720125775404       RANCIARI ENZO                                               20125775404                                                                                                                                                      E:liaranciari@hotmail.com                                                                                                                             0033000000000000000000000000000000000002CAARS           ARS12345678912345678                                                                                NN               001
PR0040000000000000118000000003000000ARS2020072727240637818       ANANIA DANIELA LAURA                                        27240637818                                                                                                                                                      E:ana_74@live.com.ar                                                                                                                                  0033000000000000000000000000000000000001CAARS           ARS12345678912345678                                                                                NN               001
PR0040000000000000119000000002000000ARS2020072727223003678       GALLARDO GABRIELA ANALIA FABRICIANA                         27223003678                                                                                                                                                      E:gabrielaanalia2020@gmail.com                                                                                                                        0033000000000000000000000000000000000001CAARS           ARS12345678912345678                                                                                NN               001
PR0040000000000000120000000003000000ARS2020072727247329108       LUGONES VILMA DEL VALLE                                     27247329108                                                                                                                                                      E:vilma_lugones@hotmail.com                                                                                                                           0033000000000000000000000000000000000001CAARS           ARS12345678912345678                                                                                NN               001
PR0040000000000000121000000002000000ARS2020072720214142067       GARCIA MONTERO JOAQUIN FRANCISCO                            20214142067                                                                                                                                                      E:lamochilitaviajera@gmail.com                                                                                                                        0033000000000000000000000000000000000001CAARS           ARS12345678912345678                                                                                NN               001
PR0040000000000000122000000005000000ARS2020072730715313053       ROMERO SABRINA VANESA                                       30715313053                                                                                                                                                      E:paynob@hotmail.com                                                                                                                                  0033000000000000000000000000000000000001CAARS           ARS12345678912345678                                                                                NN               001
PR0040000000000000123000000002000000ARS2020072727283987367       BALESTRAZZI PAMELA SABRINA                                  27283987367                                                                                                                                                      E:pame.b0702@hotmail.com                                                                                                                              0033000000000000000000000000000000000001CAARS           ARS12345678912345678                                                                                NN               001
PR0040000000000000124000000002000000ARS2020072727281488568       NUCIFORA NERINA                                             27281488568                                                                                                                                                      E:nerinuci@hotmail.com                                                                                                                                0033000000000000000000000000000000000000CAARS           ARS12345678912345678                                                                                NN               001
PR0040000000000000125000000002000000ARS2020072727135881347       JAIME ANA MARIA                                             27135881347                                                                                                                                                      E:cienvolandoespacio@gmail.com                                                                                                                        0033000000000000000000000000000000000000CAARS           ARS12345678912345678                                                                                NN               001
PR0040000000000000126000000003000000ARS2020072720202075216       TUTTOLOMONDO CARLOS ALEJANDRO                               20202075216                                                                                                                                                      E:carlostuttolomondo@hotmail.com                                                                                                                      0033000000000000000000000000000000000000CAARS           ARS12345678912345678                                                                                NN               001
PR0040000000000000127000000003000000ARS2020072720149819119       ALONSO OSVALDO LUIS                                         20149819119                                                                                                                                                      E:brenalonso@hotmail.com                                                                                                                              0033000000000000000000000000000000000000CAARS           ARS12345678912345678                                                                                NN               001
PR0040000000000000128000000005000000ARS2020072727343379264       CLEMENTE VANESA                                             27343379264                                                                                                                                                      E:vanesa.clemente@hotmail.com                                                                                                                         0033000000000000000000000000000000000000CAARS           ARS12345678912345678                                                                                NN               001
PR0040000000000000129000000002000000ARS2020072727265647397       GARNICA DANIELA SILVINA                                     27265647397                                                                                                                                                      E:danielagarnica197870@gmail.com                                                                                                                      0033000000000000000000000000000000000000CAARS           ARS12345678912345678                                                                                NN               001
PR0040000000000000130000000002000000ARS2020072720301680016       BAQUE MARIANO                                               20301680016                                                                                                                                                      E:JESICA_AZZARA@HOTMAIL.COM                                                                                                                           0033000000000000000000000000000000000000CAARS           ARS12345678912345678                                                                                NN               001
PR0040000000000000131000000005000000ARS2020072720268713264       CORTE HERNAN                                                20268713264                                                                                                                                                      E:hernanimanol@hotmail.,com                                                                                                                           0033000000000000000000000000000000000000CAARS           ARS12345678912345678                                                                                NN               001
PR0040000000000000132000000003000000ARS2020072720280354059       DE AGOSTINI MATIAS                                          20280354059                                                                                                                                                      E:evelincriolani@yahoo.com.ar                                                                                                                         0033000000000000000000000000000000000000CAARS           ARS12345678912345678                                                                                NN               001
PR0040000000000000133000000003000000ARS2020072727124040928       HEREDIA LILIANA EDIT                                        27124040928                                                                                                                                                      E:estudiocontablevigna@outlook.com                                                                                                                    0033000000000000000000000000000000000000CAARS           ARS12345678912345678                                                                                NN               001
PR0040000000000000134000000002000000ARS2020072727135026250       GAZZOLA VIVIANA ROSARIO                                     27135026250                                                                                                                                                      E:vrg1314@hotmail.com                                                                                                                                 0030100000000000000000000000000000000008CAARS           ARS12345678912345678                                                                                NN               001
PR0040000000000000135000000002000000ARS2020072727343337707       LACOUR GISEL                                                27343337707                                                                                                                                                      E:gisellacour@gmail.com                                                                                                                               0028500000000000000000000000000000000883CAARS           ARS12345678912345678                                                                                NN               001
PR0040000000000000136000000002000000ARS2020072720271805099       LEDDA GUILLERMO JOSE                                        20271805099                                                                                                                                                      E:guillermoledda0@gmail.com                                                                                                                           0028500000000000000000000000000000000881CAARS           ARS12345678912345678                                                                                NN               001
PR0040000000000000137000000005000000ARS2020072720179152259       STIEFEL ALEXIS                                              20179152259                                                                                                                                                      E:busesnt@hotmail.com                                                                                                                                 0028500000000000000000000000000000000874CAARS           ARS12345678912345678                                                                                NN               001
PR0040000000000000138000000002000000ARS2020072720364901330       PEREZ GASTON ALEJANDRO                                      20364901330                                                                                                                                                      E:perezgaston5@hotmail.com                                                                                                                            0028500000000000000000000000000000000866CAARS           ARS12345678912345678                                                                                NN               001
PR0040000000000000139000000002000000ARS2020072727216368768       MANASSERO SILVIA BEATRIZ                                    27216368768                                                                                                                                                      E:silviamanassero09@gmail.com                                                                                                                         0028500000000000000000000000000000000865CAARS           ARS12345678912345678                                                                                NN               001
PR0040000000000000140000000003000000ARS2020072727246357981       SERRA MARIA LORENA                                          27246357981                                                                                                                                                      E:loreley145@hotmail.com                                                                                                                              0028500000000000000000000000000000000865CAARS           ARS12345678912345678                                                                                NN               001
PR0040000000000000141000000005000000ARS2020072727290237713       ALBORNOZ ANDREA                                             27290237713                                                                                                                                                      E:estudiocontablemendoza@gmail.com                                                                                                                    0028500000000000000000000000000000000865CAARS           ARS12345678912345678                                                                                NN               001
PR0040000000000000142000000003000000ARS2020072727372098584       PIVIDORI CORINA                                             27372098584                                                                                                                                                      E:corina_pividori@hotmail.com                                                                                                                         0028500000000000000000000000000000000860CAARS           ARS12345678912345678                                                                                NN               001
PR0040000000000000143000000002000000ARS2020072727372817033       BENZ MARIA DE LOS MILAGROS                                  27372817033                                                                                                                                                      E:mbenz536@gmail.com                                                                                                                                  0028500000000000000000000000000000000857CAARS           ARS12345678912345678                                                                                NN               001
PR0040000000000000144000000002000000ARS2020072727205505887       MENDICINI ALBA ALEJANDRA                                    27205505887                                                                                                                                                      E:deliaamayaa@hotmail.com                                                                                                                             0028500000000000000000000000000000000857CAARS           ARS12345678912345678                                                                                NN               001
PR0040000000000000145000000003000000ARS2020072720263766688       VESSELLA MATIAS                                             20263766688                                                                                                                                                      E:matiasves@hotmail.com                                                                                                                               0028500000000000000000000000000000000857CAARS           ARS12345678912345678                                                                                NN               001
PR0040000000000000146000000002000000ARS2020072727218149710       DE MARTINI VALERIA                                          27218149710                                                                                                                                                      E:sandrademartini16@gmail.com                                                                                                                         0028500000000000000000000000000000000843CAARS           ARS12345678912345678                                                                                NN               001
PR0040000000000000147000000004000000ARS2020072727239360667       VAIANA MARIA JOSE                                           27239360667                                                                                                                                                      E:judithbulian@fibertel.com.ar                                                                                                                        0028500000000000000000000000000000000841CAARS           ARS12345678912345678                                                                                NN               001
PR0040000000000000148000000005000000ARS2020072730715078445       HERNANDEZ MARTINEZ  SOCIO GERENTE  HERNANDEZ MARTINEZ  SOCIO30715078445                                                                                                                                                      E:cpmaceroni@hotmail.com                                                                                                                              0028500000000000000000000000000000000797CAARS           ARS12345678912345678                                                                                NN               001
PR0040000000000000149000000005000000ARS2020072730714383236       RIVAROLA CAROLINA                                           30714383236                                                                                                                                                      E:estudiobajac@hotmail.com                                                                                                                            0028500000000000000000000000000000000792CAARS           ARS12345678912345678                                                                                NN               001
PR0040000000000000150000000002000000ARS2020072727283344024       RIVAROLA MARIANA                                            27283344024                                                                                                                                                      E:facmari@hotmail.com                                                                                                                                 0028500000000000000000000000000000000792CAARS           ARS12345678912345678                                                                                NN               001
PR0040000000000000151000000003000000ARS2020072727201972650       LUQUE LAURA NOEMI                                           27201972650                                                                                                                                                      E:escolar_laura@hotmail.com                                                                                                                           0028500000000000000000000000000000000792CAARS           ARS12345678912345678                                                                                NN               001
PR0040000000000000152000000002000000ARS2020072720296837602       JAIME JUAN MANUEL                                           20296837602                                                                                                                                                      E:jaime.juanmanuel1982@gmail.com                                                                                                                      0028500000000000000000000000000000000791CAARS           ARS12345678912345678                                                                                NN               001
PR0040000000000000153000000004000000ARS2020072720267396788       VENTIMIGLIA GUILLERMO NESTOR                                20267396788                                                                                                                                                      E:cecilia_aimone@hotmail.com                                                                                                                          0028500000000000000000000000000000000791CAARS           ARS12345678912345678                                                                                NN               001
PR0040000000000000154000000003000000ARS2020072727294498848       FIGUEREDO AGUSTINA                                          27294498848                                                                                                                                                      E:jesilva82@gmail.com                                                                                                                                 0028500000000000000000000000000000000790CAARS           ARS12345678912345678                                                                                NN               001
PR0040000000000000155000000004000000ARS2020072720289126237       KERCKHAERT CARLOS GERMAN                                    20289126237                                                                                                                                                      E:Tangofutbol2909@gmail.com                                                                                                                           0028500000000000000000000000000000000771CAARS           ARS12345678912345678                                                                                NN               001
PR0040000000000000156000000005000000ARS2020072730715506609       RETAMAR CLAUDIA                                             30715506609                                                                                                                                                      E:administracion@frasesores.com.ar                                                                                                                    0028500000000000000000000000000000000771CAARS           ARS12345678912345678                                                                                NN               001
PR0040000000000000157000000003000000ARS2020072720287092629       MONTIEL SERGIO OMAR                                         20287092629                                                                                                                                                      E:sergio_web174@hotmail.com                                                                                                                           0028500000000000000000000000000000000756CAARS           ARS12345678912345678                                                                                NN               001
PR0040000000000000158000000005000000ARS2020072727250074285       SANCHEZ LORENA                                              27250074285                                                                                                                                                      E:mirtaemanuele@yahoo.com.ar                                                                                                                          0028500000000000000000000000000000000747CAARS           ARS12345678912345678                                                                                NN               001
PR0040000000000000159000000002000000ARS2020072727320373412       VALDEZ NATALIA                                              27320373412                                                                                                                                                      E:naty-valdez@hotmail.com                                                                                                                             0028500000000000000000000000000000000745CAARS           ARS12345678912345678                                                                                NN               001
PR0040000000000000160000000002000000ARS2020072723322099754       LOMBARDI NATALI PAOLA                                       23322099754                                                                                                                                                      E:gimnasiobodylife@hotmail.com                                                                                                                        0028500000000000000000000000000000000731CAARS           ARS12345678912345678                                                                                NN               001
PR0040000000000000161000000005000000ARS2020072730714243108       MIGNACCO JUAN ANTONIO                                       30714243108                                                                                                                                                      E:juanamignacco@gmail.com                                                                                                                             0028500000000000000000000000000000000726CAARS           ARS12345678912345678                                                                                NN               001
PR0040000000000000162000000003000000ARS2020072727245528278       SUAREZ DEBORA                                               27245528278                                                                                                                                                      E:jardincolores.maternal@gmail.com                                                                                                                    0028500000000000000000000000000000000722CAARS           ARS12345678912345678                                                                                NN               001
PR0040000000000000163000000003000000ARS2020072723167282024       DIAZ CRISTINA ROSA                                          23167282024                                                                                                                                                      E:burbujitas1989@hotmail.com                                                                                                                          0028500000000000000000000000000000000722CAARS           ARS12345678912345678                                                                                NN               001
