FH202007221328250011234567ORDENDEPAGO20200722
PR0040000000000000001000000005000000ARS2020072220117368564       CASTILLO MIRTA LAURA                                        20117368564                                                                                                                                                      E:                                                                                                                                                    0006500000000000000000000000000000000030CAARS           ARS12345678912345678                                                                                NN               001
PR0040000000000000002000000002000000ARS2020072227319750075       ACEVEDO NIEVES DE FATIMA                                    27319750075                                                                                                                                                      E:makam84@hotmail.com                                                                                                                                 0028500000000000000000000000000000000731CAARS           ARS12345678912345678                                                                                NN               001
PR0040000000000000003000000002000000ARS2020072227295609163       ACOSTA MARIA SOLEDAD                                        27295609163                                                                                                                                                      E:shole916@gmail.com                                                                                                                                  0033000000000000000000000000000000000500CAARS           ARS12345678912345678                                                                                NN               001
PR0040000000000000004000000002000000ARS2020072227348326495       ALARCON GISELA SOLEDAD                                      27348326495                                                                                                                                                      E:alarcongisela16@gmail.com                                                                                                                           0000000000000000000000000000000000000003CAARS           ARS12345678912345678                                                                                NN               001
PR0040000000000000005000000002000000ARS2020072220275188752       ALDERETE HUGO DANTE                                         20275188752                                                                                                                                                      E:hugoalderete222@hotmail.com                                                                                                                         0004400000000000000000000000000000000024CAARS           ARS12345678912345678                                                                                NN               001
PR0040000000000000006000000002000000ARS2020072227280880626       AMAYA LUCRECIA                                              27280880626                                                                                                                                                      E:Lucreamaya@hotmail.com                                                                                                                              0001700000000000000000000000000000000209CAARS           ARS12345678912345678                                                                                NN               001
PR0040000000000000007000000004000000ARS2020072227238958755       ANDREU LAURA ALEJANDRA                                      27238958755                                                                                                                                                      E:                                                                                                                                                    0001700000000000000000000000000000000418CAARS           ARS12345678912345678                                                                                NN               001
PR0040000000000000008000000002000000ARS2020072223280970999       ARANDA LEONARDO JAVIER                                      23280970999                                                                                                                                                      E:javiervgg@hotmail.com                                                                                                                               0001100000000000000000000000000000000588CAARS           ARS12345678912345678                                                                                NN               001
PR0040000000000000009000000003000000ARS2020072220315650462       ASSENZA JOSE FRANCISCO                                      20315650462                                                                                                                                                      E:assenzajosef@gmail.com                                                                                                                              0033000000000000000000000000000000000504CAARS           ARS12345678912345678                                                                                NN               001
PR0040000000000000010000000003000000ARS2020072220315651450       AVIGLIANO FRANCO                                            20315651450                                                                                                                                                      E:francoamc@hotmail.com                                                                                                                               0042600000000000000000000000000000000002CAARS           ARS12345678912345678                                                                                NN               001
PR0040000000000000011000000002000000ARS2020072220218106073       AVILA ROBERTO MARCELO                                       20218106073                                                                                                                                                      E:marcelo.avila@hotmail.com.ar                                                                                                                        0033000000000000000000000000000000000005CAARS           ARS12345678912345678                                                                                NN               001
PR0040000000000000012000000002000000ARS2020072227389001800       AYALA BRENDA NATALI                                         27389001800                                                                                                                                                      E:deloredo@tower.com.ar                                                                                                                               0033000000000000000000000000000000000001CAARS           ARS12345678912345678                                                                                NN               001
PR0040000000000000013000000002000000ARS2020072227166303869       BAEZ MARCELO DANIEL                                         27166303869                                                                                                                                                      E:letrasmbaez737@gmail.com                                                                                                                            0028500000000000000000000000000000000704CAARS           ARS12345678912345678                                                                                NN               001
PR0040000000000000014000000003000000ARS2020072227230242343       BALVERDI ADRIANA PATRICIA                                   27230242343                                                                                                                                                      E:macanas60@hotmail.com                                                                                                                               0028500000000000000000000000000000000843CAARS           ARS12345678912345678                                                                                NN               001
PR0040000000000000015000000005000000ARS2020072227185959134       BARBONA SANDRA BEATRIZ                                      27185959134                                                                                                                                                      E:be.a642@hotmail.com                                                                                                                                 0007200000000000000000000000000000000478CAARS           ARS12345678912345678                                                                                NN               001
PR0040000000000000016000000003000000ARS2020072220162208781       BARRILE ADRIAN OMAR                                         20162208781                                                                                                                                                      E:barrileviajes@hotmail.com                                                                                                                           0000700000000000000000000000000000000220CAARS           ARS12345678912345678                                                                                NN               001
PR0040000000000000017000000002000000ARS2020072227336870882       BARROSO MELINA GUADALUPE                                    27336870882                                                                                                                                                      E:melinabarroso33@gmail.com                                                                                                                           0001100000000000000000000000000000000491CAARS           ARS12345678912345678                                                                                NN               001
PR0040000000000000018000000002000000ARS2020072227401153697       BARUZZO BARBARA REGINA                                      27401153697                                                                                                                                                      E:adabcapra@hotmail.com                                                                                                                               0014300000000000000000000000000000000001CAARS           ARS12345678912345678                                                                                NN               001
PR0040000000000000019000000005000000ARS2020072220-17075014       BAUDRACCO ALEJANDRO DANIEL                                  02017075014                                                                                                                                                      E:plataformanorte.arg@gmail.com                                                                                                                       0003400000000000000000000000000000000340CAARS           ARS12345678912345678                                                                                NN               001
PR0040000000000000020000000002000000ARS202007222730468542        BELLO VANESA SOLEDAD                                        02730468542                                                                                                                                                      E:vanesabello@gmail.com                                                                                                                               0033000000000000000000000000000000000046CAARS           ARS12345678912345678                                                                                NN               001
PR0040000000000000021000000002000000ARS2020072220226143387       BENITEZ MARCELO DELMIRO                                     20226143387                                                                                                                                                      E:marcheloelrojo@hotmail.com                                                                                                                          0001100000000000000000000000000000000491CAARS           ARS12345678912345678                                                                                NN               001
PR0040000000000000022000000002000000ARS2020072227344603680       BENITEZ ADELAIDA                                            27344603680                                                                                                                                                      E:benitezadelaida12@gmail.com                                                                                                                         0019100000000000000000000000000000000343CAARS           ARS12345678912345678                                                                                NN               001
PR0040000000000000023000000002000000ARS2020072227248559182       BERGAMINI CLAUDIA                                           27248559182                                                                                                                                                      E:cbergamini@hotmail.com                                                                                                                              0033000000000000000000000000000000000503CAARS           ARS12345678912345678                                                                                NN               001
PR0040000000000000024000000002000000ARS2020072220230929689       BERRA ROBERTO                                               20230929689                                                                                                                                                      E:robertocberra@hotmail.com                                                                                                                           0033000000000000000000000000000000000534CAARS           ARS12345678912345678                                                                                NN               001
PR0040000000000000025000000002000000ARS2020072220309167326       BERTOLIO CRISTIAN OSCAR                                     20309167326                                                                                                                                                      E:daniel_amprimo@hotmail.com                                                                                                                          0001100000000000000000000000000000000264CAARS           ARS12345678912345678                                                                                NN               001
PR0040000000000000026000000005000000ARS2020072220162717619       BERTUNA JOSE VICTOR                                         20162717619                                                                                                                                                      E:dbbertuna@hotmail.com                                                                                                                               0001100000000000000000000000000000000448CAARS           ARS12345678912345678                                                                                NN               001
PR0040000000000000027000000005000000ARS2020072227285665219       BIGOGLIO ANALIA GABRIELA                                    27285665219                                                                                                                                                      E:analiabigoglio05@gmail.com                                                                                                                          0019100000000000000000000000000000000275CAARS           ARS12345678912345678                                                                                NN               001
PR0040000000000000028000000002000000ARS2020072220391231681       BLANCO DANIEL ALEJANDRO                                     20391231681                                                                                                                                                      E:vablaturismo@gmail.com                                                                                                                              0007200000000000000000000000000000000543CAARS           ARS12345678912345678                                                                                NN               001
PR0040000000000000029000000002000000ARS2020072220298495067       BOBADILLA ANIBAL ARIEL                                      20298495067                                                                                                                                                      E:abobadilla@romeroasosciados.com.ar                                                                                                                  0028500000000000000000000000000000000346CAARS           ARS12345678912345678                                                                                NN               001
PR0040000000000000030000000002000000ARS2020072227-27429325       BORDA NANCI ALEJANDRA                                       02727429325                                                                                                                                                      E:ruizmonican@gmail.com                                                                                                                               0033000000000000000000000000000000000556CAARS           ARS12345678912345678                                                                                NN               001
PR0040000000000000031000000002000000ARS2020072227284199044       BORGO BARBARA LORENA                                        27284199044                                                                                                                                                      E:adm@estudiogiabai.com.ar                                                                                                                            0033000000000000000000000000000000000599CAARS           ARS12345678912345678                                                                                NN               001
PR0040000000000000032000000002000000ARS2020072227347456913       BOSIO SILVINA                                               27347456913                                                                                                                                                      E:masino@estudiofecosur.com.ar                                                                                                                        0033000000000000000000000000000000000534CAARS           ARS12345678912345678                                                                                NN               001
PR0040000000000000033000000003000000ARS2020072227201940236       BOUNOUS HAYDEE                                              27201940236                                                                                                                                                      E:masino@estudiofecosur.com.ar                                                                                                                        0028500000000000000000000000000000000379CAARS           ARS12345678912345678                                                                                NN               001
PR0040000000000000034000000003000000ARS2020072227310687974       BRAVETTI NATALIA VANINA                                     27310687974                                                                                                                                                      E:natibravetti@gmail.com                                                                                                                              0028500000000000000000000000000000000794CAARS           ARS12345678912345678                                                                                NN               001
PR0040000000000000035000000005000000ARS2020072230506753445       BUCHARA SERGIO                                              30506753445                                                                                                                                                      E:secretariaclubregatas@gmail.com                                                                                                                     0033000000000000000000000000000000000500CAARS           ARS12345678912345678                                                                                NN               001
PR0040000000000000036000000002000000ARS2020072227322956385       BUSTOS NADIA                                                27322956385                                                                                                                                                      E:nadiasolbustos@gmail.com                                                                                                                            0001100000000000000000000000000000000444CAARS           ARS12345678912345678                                                                                NN               001
PR0040000000000000037000000002000000ARS2020072227-28135527       CABO MARIA LETICIA                                          02728135527                                                                                                                                                      E:leticiacabo45@gmail.com                                                                                                                             0001100000000000000000000000000000000733CAARS           ARS12345678912345678                                                                                NN               001
PR0040000000000000038000000002000000ARS2020072220306405447       CALLIGARO ALEJANDRO                                         20306405447                                                                                                                                                      E:julia@estudiomyf.com                                                                                                                                0028500000000000000000000000000000000376CAARS           ARS12345678912345678                                                                                NN               001
PR0040000000000000039000000002000000ARS2020072227337200368       CAMISCIA DENISE MARIA MONSERRAT                             27337200368                                                                                                                                                      E:denisecamiscia@gmail.com                                                                                                                            0007200000000000000000000000000000000478CAARS           ARS12345678912345678                                                                                NN               001
PR0040000000000000040000000004000000ARS2020072220218856625       CANTILLON ADRIAN PATRICIO                                   20218856625                                                                                                                                                      E:estudioaronna@hotmail.com                                                                                                                           0000700000000000000000000000000000000103CAARS           ARS12345678912345678                                                                                NN               001
PR0040000000000000041000000005000000ARS2020072220202860886       CARUBIA MARCELO FABIAN                                      20202860886                                                                                                                                                      E:marcelo.carubia@hotmail.com                                                                                                                         0033000000000000000000000000000000000004CAARS           ARS12345678912345678                                                                                NN               001
PR0040000000000000042000000002000000ARS2020072220223295925       CARUSO NORBERTO FABIAN                                      20223295925                                                                                                                                                      E:carinasanalitro@hotmail.com                                                                                                                         0001100000000000000000000000000000000140CAARS           ARS12345678912345678                                                                                NN               001
PR0040000000000000043000000002000000ARS2020072220259909709       CASTILLO GERMAN                                             20259909709                                                                                                                                                      E:german_castillo77@hotmail.com                                                                                                                       0007200000000000000000000000000000000411CAARS           ARS12345678912345678                                                                                NN               001
PR0040000000000000044000000003000000ARS2020072223138689034       CELIS GLORIA                                                23138689034                                                                                                                                                      E:marinaoettel@hotmail.com                                                                                                                            0033000000000000000000000000000000000076CAARS           ARS12345678912345678                                                                                NN               001
PR0040000000000000045000000002000000ARS2020072220403116344       CERUTI NICOLAS SEBASTIAN                                    20403116344                                                                                                                                                      E:nicoceru9@gmail.com                                                                                                                                 0007200000000000000000000000000000000379CAARS           ARS12345678912345678                                                                                NN               001
PR0040000000000000046000000005000000ARS2020072220360011675       CERVANTES LAUTARO DANIEL                                    20360011675                                                                                                                                                      E:aleoviespo@yahoo.com.ar                                                                                                                             0001100000000000000000000000000000000651CAARS           ARS12345678912345678                                                                                NN               001
PR0040000000000000047000000002000000ARS2020072227316021420       CESPED VIRGINIA PAOLA                                       27316021420                                                                                                                                                      E:virginiacesped5@gmail.com                                                                                                                           0007200000000000000000000000000000000463CAARS           ARS12345678912345678                                                                                NN               001
PR0040000000000000048000000002000000ARS2020072227285722883       CINALLI YAMILA                                              27285722883                                                                                                                                                      E:yamilacinalli@hotmail.com                                                                                                                           0028500000000000000000000000000000000848CAARS           ARS12345678912345678                                                                                NN               001
PR0040000000000000049000000005000000ARS2020072230-71543807       COMPLEJO CAMPUS SRL DE FRENZA LUCAS NICOLAS                 03071543807                                                                                                                                                      E:lucasdfrenza@gmail.com                                                                                                                              0007200000000000000000000000000000000118CAARS           ARS12345678912345678                                                                                NN               001
PR0040000000000000050000000003000000ARS2020072223217222524       CORONEL NORMA ALICIA                                        23217222524                                                                                                                                                      E:roldannahuelj@gmail.com                                                                                                                             0000700000000000000000000000000000000103CAARS           ARS12345678912345678                                                                                NN               001
PR0040000000000000051000000003000000ARS2020072227251161203       CORTES CAROLINA ANDREA                                      27251161203                                                                                                                                                      E:cesarvicino@hotmail.com                                                                                                                             0042600000000000000000000000000000000002CAARS           ARS12345678912345678                                                                                NN               001
PR0040000000000000052000000002000000ARS2020072227333818162       CORVALAN VANESA BEATRIZ                                     27333818162                                                                                                                                                      E:vanecorvalan@hotmail.com                                                                                                                            0033000000000000000000000000000000000000CAARS           ARS12345678912345678                                                                                NN               001
PR0040000000000000053000000002000000ARS2020072223327333844       D ACUTE ARGENIO ANTONELA                                    23327333844                                                                                                                                                      E:salon_avellino@hotmail.com                                                                                                                          0001100000000000000000000000000000000491CAARS           ARS12345678912345678                                                                                NN               001
PR0040000000000000054000000003000000ARS2020072220126996919       DACARO ROBERTO ANTONIO                                      20126996919                                                                                                                                                      E:robertodacaro@hotmail.com                                                                                                                           0028500000000000000000000000000000000857CAARS           ARS12345678912345678                                                                                NN               001
PR0040000000000000055000000003000000ARS2020072220222802327       DE MAIO ROSENDO                                             20222802327                                                                                                                                                      E:rosendodemaio@gmail.com                                                                                                                             0007200000000000000000000000000000000156CAARS           ARS12345678912345678                                                                                NN               001
PR0040000000000000056000000002000000ARS2020072227338958396       DE OLIVEIRA MARIANELA ESTEFANIA                             27338958396                                                                                                                                                      E:marianela.deoliveira@hotmail.com                                                                                                                    0000700000000000000000000000000000000264CAARS           ARS12345678912345678                                                                                NN               001
PR0040000000000000057000000002000000ARS2020072220327182588       DEROTIER MARIO WILFREDO                                     20327182588                                                                                                                                                      E:diegotrevi18@gmail.com                                                                                                                              0033000000000000000000000000000000000500CAARS           ARS12345678912345678                                                                                NN               001
PR0040000000000000058000000002000000ARS2020072220238819211       DEVOTO JOSE MARIA                                           20238819211                                                                                                                                                      E:                                                                                                                                                    0001100000000000000000000000000000000214CAARS           ARS12345678912345678                                                                                NN               001
PR0040000000000000059000000002000000ARS2020072227283936886       DI VIRGILIO GISELA NATALIA                                  27283936886                                                                                                                                                      E:GISE-DV@HOTMAIL.COM                                                                                                                                 0028500000000000000000000000000000000790CAARS           ARS12345678912345678                                                                                NN               001
PR0040000000000000060000000005000000ARS2020072230648178804       DIXI S A PASACALLE                                          30648178804                                                                                                                                                      E:idearstafe@gmail.com                                                                                                                                0019100000000000000000000000000000000286CAARS           ARS12345678912345678                                                                                NN               001
PR0040000000000000061000000003000000ARS2020072223118732359       DOMINGUEZ CARLOS MARIO                                      23118732359                                                                                                                                                      E:carlosmd50@hotmail.com                                                                                                                              0028500000000000000000000000000000000339CAARS           ARS12345678912345678                                                                                NN               001
PR0040000000000000062000000002000000ARS2020072227201972472       DORIA CLAUDIA MABEL LUCIA                                   27201972472                                                                                                                                                      E:claudiadorialione@gmail.com                                                                                                                         0033000000000000000000000000000000000031CAARS           ARS12345678912345678                                                                                NN               001
PR0040000000000000063000000002000000ARS2020072227214912797       DRUETTA SILVINA MARIA                                       27214912797                                                                                                                                                      E:silvinatravaglino@hotmail.com                                                                                                                       0019100000000000000000000000000000000362CAARS           ARS12345678912345678                                                                                NN               001
PR0040000000000000064000000003000000ARS2020072220209390613       ECHAVARRIA JUAN MIGUEL                                      20209390613                                                                                                                                                      E:juanechavarria@icloud.com                                                                                                                           0000700000000000000000000000000000000359CAARS           ARS12345678912345678                                                                                NN               001
PR0040000000000000065000000002000000ARS2020072227143968842       ESPINOSA SILVIA                                             27143968842                                                                                                                                                      E:silviag_e@hotmail.com                                                                                                                               0033000000000000000000000000000000000504CAARS           ARS12345678912345678                                                                                NN               001
PR0040000000000000066000000002000000ARS2020072223171133424       FELICIA ADRIANA LAURA                                       23171133424                                                                                                                                                      E:adrianalfelicia@gmail.com                                                                                                                           0033000000000000000000000000000000000000CAARS           ARS12345678912345678                                                                                NN               001
PR0040000000000000067000000002000000ARS2020072220225168815       FERNANDEZ MANUEL ALEJANDRO                                  20225168815                                                                                                                                                      E:mafstudiovideo@yahoo.com.ar                                                                                                                         0001100000000000000000000000000000000567CAARS           ARS12345678912345678                                                                                NN               001
PR0040000000000000068000000002000000ARS2020072220188128913       FERNANDEZ MORENO FEDERICO                                   20188128913                                                                                                                                                      E:federicofm80@gmail.com                                                                                                                              0028500000000000000000000000000000000701CAARS           ARS12345678912345678                                                                                NN               001
PR0040000000000000069000000002000000ARS2020072227186169005       FERREIRA MARCELA                                            27186169005                                                                                                                                                      E:profemarcela13@hotmail.com                                                                                                                          0019100000000000000000000000000000000086CAARS           ARS12345678912345678                                                                                NN               001
PR0040000000000000070000000002000000ARS2020072220939666975       FERTONANI THOMAS LAION                                      20939666975                                                                                                                                                      E:laionfertonani@hotmail.com.ar                                                                                                                       0028500000000000000000000000000000000857CAARS           ARS12345678912345678                                                                                NN               001
PR0040000000000000071000000002000000ARS2020072220111155527       FORCONI MIGUEL ANGEL                                        20111155527                                                                                                                                                      E:miguelforconi39@gmail.com                                                                                                                           0033000000000000000000000000000000000506CAARS           ARS12345678912345678                                                                                NN               001
PR0040000000000000072000000002000000ARS2020072227268166950       FREGA ANDREA                                                27268166950                                                                                                                                                      E:fregaandrea@hotmail.com                                                                                                                             0001100000000000000000000000000000000502CAARS           ARS12345678912345678                                                                                NN               001
PR0040000000000000073000000003000000ARS2020072227162015333       FROSASCO MARIA ELISA                                        27162015333                                                                                                                                                      E:contadora@giselagerosa.com.ar                                                                                                                       0033000000000000000000000000000000000005CAARS           ARS12345678912345678                                                                                NN               001
PR0040000000000000074000000005000000ARS2020072227207041497       GABETTA CARINA FLAVIA                                       27207041497                                                                                                                                                      E:jardinkinder@gmail.com                                                                                                                              0002700000000000000000000000000000000043CAARS           ARS12345678912345678                                                                                NN               001
PR0040000000000000075000000002000000ARS2020072227216513229       GALEANO FABIANA                                             27216513229                                                                                                                                                      E:maracamilletti@gmail.com                                                                                                                            0028500000000000000000000000000000000865CAARS           ARS12345678912345678                                                                                NN               001
PR0040000000000000076000000005000000ARS2020072227133339510       GALIANO MARINA DEL ROSARIO                                  27133339510                                                                                                                                                      E:estudiocarnevale@hotmail.com                                                                                                                        0028500000000000000000000000000000000310CAARS           ARS12345678912345678                                                                                NN               001
PR0040000000000000077000000002000000ARS2020072220285711607       GIAGNORIO CRISTIAN                                          20285711607                                                                                                                                                      E:paogiagnorio@hotmail.com                                                                                                                            0033000000000000000000000000000000000057CAARS           ARS12345678912345678                                                                                NN               001
PR0040000000000000078000000002000000ARS2020072227366568668       GILIBERTO JULIETA SOLEDAD                                   27366568668                                                                                                                                                      E:julietagiliberto1992@gmail.com                                                                                                                      0033000000000000000000000000000000000000CAARS           ARS12345678912345678                                                                                NN               001
PR0040000000000000079000000002000000ARS2020072227226984955       GIMENEZ MARIA BELEN                                         27226984955                                                                                                                                                      E:maribel_gime@hotmail.com                                                                                                                            0033000000000000000000000000000000000042CAARS           ARS12345678912345678                                                                                NN               001
PR0040000000000000080000000003000000ARS2020072227215955104       GIORGIS LIANA MABEL                                         27215955104                                                                                                                                                      E:lianagiorgis@hotmail.com.ar                                                                                                                         0007200000000000000000000000000000000478CAARS           ARS12345678912345678                                                                                NN               001
PR0040000000000000081000000003000000ARS2020072227243521756       GIOVANINI LAURA IVANA                                       27243521756                                                                                                                                                      E:manuelaspigare@hotmail.com                                                                                                                          0000700000000000000000000000000000000264CAARS           ARS12345678912345678                                                                                NN               001
PR0040000000000000082000000003000000ARS2020072220360064647       GIUSTI MARCOS ALFREDO                                       20360064647                                                                                                                                                      E:salondeeventosbarrilete@gmail.com                                                                                                                   0028500000000000000000000000000000000335CAARS           ARS12345678912345678                                                                                NN               001
PR0040000000000000083000000005000000ARS2020072223301552599       GNASS NESTOR                                                23301552599                                                                                                                                                      E:cpnborghini@hotmail.com                                                                                                                             0001700000000000000000000000000000000081CAARS           ARS12345678912345678                                                                                NN               001
PR0040000000000000084000000003000000ARS2020072227276736685       GOICOURIA NATALIA                                           27276736685                                                                                                                                                      E:nataliagoicouria@gmail.com                                                                                                                          0007200000000000000000000000000000000156CAARS           ARS12345678912345678                                                                                NN               001
PR0040000000000000085000000005000000ARS2020072220936758070       GOMEZ JOSE ANTONIO                                          20936758070                                                                                                                                                      E:oresanotour@hotmail.com                                                                                                                             0006500000000000000000000000000000000090CAARS           ARS12345678912345678                                                                                NN               001
PR0040000000000000086000000002000000ARS2020072220164554962       GRECO EDUARDO GABRIEL                                       20164554962                                                                                                                                                      E:riffanapaula@gmail.com                                                                                                                              0001400000000000000000000000000000000102CAARS           ARS12345678912345678                                                                                NN               001
PR0040000000000000087000000002000000ARS2020072220203540478       GRIMANDELLA HERNAN PABLO                                    20203540478                                                                                                                                                      E:estudiocontable@live.ca                                                                                                                             0033000000000000000000000000000000000005CAARS           ARS12345678912345678                                                                                NN               001
PR0040000000000000088000000002000000ARS2020072227274292127       GROSSO MARCELA ALEJANDRA                                    27274292127                                                                                                                                                      E:maalejandragrosso4@gmail.com                                                                                                                        0033000000000000000000000000000000000545CAARS           ARS12345678912345678                                                                                NN               001
PR0040000000000000089000000002000000ARS2020072220231843575       GUTIERREZ DAVID JAVIER                                      20231843575                                                                                                                                                      E:verlindariva@gmail.com                                                                                                                              0000700000000000000000000000000000000380CAARS           ARS12345678912345678                                                                                NN               001
PR0040000000000000090000000002000000ARS2020072220230120863       GUTIERREZ DAVID ARIEL                                       20230120863                                                                                                                                                      E:Gutierrezdavidariel@gmail.com                                                                                                                       0002700000000000000000000000000000000264CAARS           ARS12345678912345678                                                                                NN               001
PR0040000000000000091000000002000000ARS2020072220374723260       HANG DIEGO                                                  20374723260                                                                                                                                                      E:diego.11.93@hotmail.com                                                                                                                             0033000000000000000000000000000000000543CAARS           ARS12345678912345678                                                                                NN               001
PR0040000000000000092000000002000000ARS2020072220210413198       HEIS FRANCISCO JAVIER                                       20210413198                                                                                                                                                      E:franciscoheis3@gmail.com                                                                                                                            0001100000000000000000000000000000000144CAARS           ARS12345678912345678                                                                                NN               001
PR0040000000000000093000000002000000ARS2020072223174493464       HERNANDEZ BIBIANA BEATRIZ                                   23174493464                                                                                                                                                      E:bbh@live.com.ar                                                                                                                                     0028500000000000000000000000000000000369CAARS           ARS12345678912345678                                                                                NN               001
PR0040000000000000094000000005000000ARS2020072230714625485       HISFREIN SRL HISKIN LEONARDO SANTIAGO                       30714625485                                                                                                                                                      E:silvanafreinquel@hotmail.com.ar                                                                                                                     0007200000000000000000000000000000000156CAARS           ARS12345678912345678                                                                                NN               001
PR0040000000000000095000000002000000ARS2020072220328958334       HUJA AGUSTIN MIGUEL                                         20328958334                                                                                                                                                      E:agustinhuja@hotmail.com                                                                                                                             0033000000000000000000000000000000000599CAARS           ARS12345678912345678                                                                                NN               001
PR0040000000000000096000000002000000ARS2020072227293119223       JALIL TRAVERSO NIEVES GRETEL                                27293119223                                                                                                                                                      E:Greteljal@hotmail.es                                                                                                                                0028500000000000000000000000000000000848CAARS           ARS12345678912345678                                                                                NN               001
PR0040000000000000097000000002000000ARS2020072227247526841       LASSIG SILVANA                                              27247526841                                                                                                                                                      E:silvana_lassig@hotmail.com                                                                                                                          0019100000000000000000000000000000000086CAARS           ARS12345678912345678                                                                                NN               001
PR0040000000000000098000000005000000ARS2020072227228967950       LAVENIA VERONICA                                            27228967950                                                                                                                                                      E:vlavenia@live.com.ar                                                                                                                                0028500000000000000000000000000000000795CAARS           ARS12345678912345678                                                                                NN               001
PR0040000000000000099000000002000000ARS2020072220177903648       LUENGO ALFREDO GUSTAVO                                      20177903648                                                                                                                                                      E:alfredoluengo@gmail.com                                                                                                                             0033000000000000000000000000000000000510CAARS           ARS12345678912345678                                                                                NN               001
PR0040000000000000100000000002000000ARS2020072220246358827       MALDONADO MIGUEL ALEJANDRO                                  20246358827                                                                                                                                                      E:alemaldonado.sfc@gmail.com                                                                                                                          0019100000000000000000000000000000000340CAARS           ARS12345678912345678                                                                                NN               001
PR0040000000000000101000000002000000ARS2020072220334697224       MANSILLA GABRIEL ALEJANDRO                                  20334697224                                                                                                                                                      E:388manssi@gmail.com                                                                                                                                 0033000000000000000000000000000000000000CAARS           ARS12345678912345678                                                                                NN               001
PR0040000000000000102000000005000000ARS2020072227256374167       MARCOS EVELYN NATALIA                                       27256374167                                                                                                                                                      E:evelynmarcos@outlook.com.ar                                                                                                                         0028500000000000000000000000000000000843CAARS           ARS12345678912345678                                                                                NN               001
PR0040000000000000103000000005000000ARS2020072220337203699       MARILUNGO MAURO JULIO                                       20337203699                                                                                                                                                      E:mauromarilungo@gmail.com                                                                                                                            0028500000000000000000000000000000000794CAARS           ARS12345678912345678                                                                                NN               001
PR0040000000000000104000000002000000ARS2020072220335123086       MARTINENGO LEONEL JESUS                                     20335123086                                                                                                                                                      E:leonel.martinengos@gmail.com                                                                                                                        0001100000000000000000000000000000000477CAARS           ARS12345678912345678                                                                                NN               001
PR0040000000000000105000000004000000ARS2020072227238013343       MARZIONI IBANEZ SILVANA ANDREA                              27238013343                                                                                                                                                      E:paulo.castro@e3rafaela.com.ar                                                                                                                       0001700000000000000000000000000000000207CAARS           ARS12345678912345678                                                                                NN               001
PR0040000000000000106000000002000000ARS2020072220167779035       MASSINI CARLOS ALBERTO                                      20167779035                                                                                                                                                      E:massinicarlosa@gmail.com                                                                                                                            0038400000000000000000000000000000000100CAARS           ARS12345678912345678                                                                                NN               001
PR0040000000000000107000000002000000ARS2020072220251160792       MAZZONI CARLOS MARTIN                                       20251160792                                                                                                                                                      E:cesarvicino@hotmail.com                                                                                                                             0028500000000000000000000000000000000310CAARS           ARS12345678912345678                                                                                NN               001
PR0040000000000000108000000003000000ARS2020072220216419015       MELANDONI JAVIER HERNAN                                     20216419015                                                                                                                                                      E:javi382008@hotmail.com                                                                                                                              0006500000000000000000000000000000000030CAARS           ARS12345678912345678                                                                                NN               001
PR0040000000000000109000000002000000ARS2020072227230611217       MENGA ELISABET LILIANA                                      27230611217                                                                                                                                                      E:SALONHEROESYPRINCESAS@HOTMAIL.COM                                                                                                                   0028500000000000000000000000000000000843CAARS           ARS12345678912345678                                                                                NN               001
PR0040000000000000110000000002000000ARS2020072227266175863       MERAYO MARIANA ESTELA                                       27266175863                                                                                                                                                      E:merayomariana@hotmail.com                                                                                                                           0007200000000000000000000000000000000156CAARS           ARS12345678912345678                                                                                NN               001
PR0040000000000000111000000005000000ARS2020072220180938258       MEYER LEANDRO                                               20180938258                                                                                                                                                      E:silviampotenza@hotmail.com                                                                                                                          0019100000000000000000000000000000000091CAARS           ARS12345678912345678                                                                                NN               001
PR0040000000000000112000000002000000ARS2020072227350635349       MONDINO NADIA MARIA                                         27350635349                                                                                                                                                      E:nadia_luli@hotmail.com                                                                                                                              0033000000000000000000000000000000000530CAARS           ARS12345678912345678                                                                                NN               001
PR0040000000000000113000000002000000ARS2020072220146055851       MONTORO JORGE ALBERTO                                       20146055851                                                                                                                                                      E:monyo45@hotmail.com                                                                                                                                 0033000000000000000000000000000000000506CAARS           ARS12345678912345678                                                                                NN               001
PR0040000000000000114000000002000000ARS2020072220230511609       MORALES NELSON ROBERTO                                      20230511609                                                                                                                                                      E:francoh_86@hotmail.com                                                                                                                              0033000000000000000000000000000000000059CAARS           ARS12345678912345678                                                                                NN               001
PR0040000000000000115000000005000000ARS2020072220203194898       MORELLO MARCELA GUADALUPE                                   20203194898                                                                                                                                                      E:mmorello69@hotmail.com                                                                                                                              0004400000000000000000000000000000000032CAARS           ARS12345678912345678                                                                                NN               001
PR0040000000000000116000000005000000ARS2020072227271340155       MORENO VERONICA GISELA                                      27271340155                                                                                                                                                      E:marimoreno73@live.com.ar                                                                                                                            0000700000000000000000000000000000000267CAARS           ARS12345678912345678                                                                                NN               001
PR0040000000000000117000000003000000ARS2020072220201904545       MUGNA OSVALDO                                               20201904545                                                                                                                                                      E:valdorafaela@yahoo.com.ar                                                                                                                           0033000000000000000000000000000000000518CAARS           ARS12345678912345678                                                                                NN               001
PR0040000000000000118000000002000000ARS2020072227316723999       MUNOZ SABRINA VERONICA                                      27316723999                                                                                                                                                      E:sabri1985.m@gmail.com                                                                                                                               0033000000000000000000000000000000000026CAARS           ARS12345678912345678                                                                                NN               001
PR0040000000000000119000000002000000ARS2020072220221750625       NAZOR DANIEL PEDRO                                          20221750625                                                                                                                                                      E:danielnazor@hotmail.com                                                                                                                             0028500000000000000000000000000000000341CAARS           ARS12345678912345678                                                                                NN               001
PR0040000000000000120000000005000000ARS2020072220162280385       NIEVAS JORGE MARCELO                                        20162280385                                                                                                                                                      E:jmnievas62@hotmail.com                                                                                                                              0019100000000000000000000000000000000281CAARS           ARS12345678912345678                                                                                NN               001
PR0040000000000000121000000002000000ARS2020072227311366543       NOCENTI VERONICA                                            27311366543                                                                                                                                                      E:veritos84@live.com                                                                                                                                  0033000000000000000000000000000000000032CAARS           ARS12345678912345678                                                                                NN               001
PR0040000000000000122000000004000000ARS2020072223285254159       NOVO TULIO                                                  23285254159                                                                                                                                                      E:Tulionovo12@hotmail.com                                                                                                                             0001700000000000000000000000000000000294CAARS           ARS12345678912345678                                                                                NN               001
PR0040000000000000123000000005000000ARS2020072230716171953       NUSS HERNAN PABLO                                           30716171953                                                                                                                                                      E:cpnmartin@hotmail.com                                                                                                                               0033000000000000000000000000000000000556CAARS           ARS12345678912345678                                                                                NN               001
PR0040000000000000124000000003000000ARS2020072220251575674       OLMEDO  GUILLERMO DANIEL                                    20251575674                                                                                                                                                      E:sashafabri@hotmail.com                                                                                                                              0001100000000000000000000000000000000651CAARS           ARS12345678912345678                                                                                NN               001
PR0040000000000000125000000003000000ARS2020072227-25157153       ORONO MARIA VANINA                                          02725157153                                                                                                                                                      E:vaninaoronio@gmail.com                                                                                                                              0033000000000000000000000000000000000599CAARS           ARS12345678912345678                                                                                NN               001
PR0040000000000000126000000003000000ARS2020072220278652778       ORTIGUELA OMAR                                              20278652778                                                                                                                                                      E:omar.ortiguela@gmail.com                                                                                                                            0001100000000000000000000000000000000175CAARS           ARS12345678912345678                                                                                NN               001
PR0040000000000000127000000005000000ARS2020072227202638622       OSANO MYRIAM EDITH                                          27202638622                                                                                                                                                      E:leonardoghione@gmail.com                                                                                                                            0019100000000000000000000000000000000276CAARS           ARS12345678912345678                                                                                NN               001
PR0040000000000000128000000005000000ARS2020072230715916696       PAKALOLA RIO S A S DI SANTO  MARCIA SABRINA                 30715916696                                                                                                                                                      E:elisabetmarcelafernandez@yahoo.com.ar                                                                                                               0028500000000000000000000000000000000791CAARS           ARS12345678912345678                                                                                NN               001
PR0040000000000000129000000005000000ARS2020072227201412949       PALUMBO KARINA EDITH                                        27201412949                                                                                                                                                      E:dr_karinap@hotmail.com                                                                                                                              0033000000000000000000000000000000000000CAARS           ARS12345678912345678                                                                                NN               001
PR0040000000000000130000000004000000ARS2020072227293115988       PAVON  LAURA                                                27293115988                                                                                                                                                      E:elisabetmarcelafernandez@yahoo.com.ar                                                                                                               0028500000000000000000000000000000000797CAARS           ARS12345678912345678                                                                                NN               001
PR0040000000000000131000000005000000ARS2020072227313412283       PEROCHE LUCILA                                              27313412283                                                                                                                                                      E:nochoteco@gigared.com                                                                                                                               0001700000000000000000000000000000000418CAARS           ARS12345678912345678                                                                                NN               001
PR0040000000000000132000000003000000ARS2020072220120513576       PERRET RAUL OSCAR                                           20120513576                                                                                                                                                      E:                                                                                                                                                    0001700000000000000000000000000000000418CAARS           ARS12345678912345678                                                                                NN               001
PR0040000000000000133000000002000000ARS2020072220137948576       PIAGGIO LAZARO EDUARDO                                      20137948576                                                                                                                                                      E:Julianpiaggio@hotmail.com.ar                                                                                                                        0000700000000000000000000000000000000075CAARS           ARS12345678912345678                                                                                NN               001
PR0040000000000000134000000003000000ARS2020072227259597574       PIAZZA  VERONICA MARCELA                                    27259597574                                                                                                                                                      E:Nico_guido_1132@hotmail.com                                                                                                                         0001700000000000000000000000000000000066CAARS           ARS12345678912345678                                                                                NN               001
PR0040000000000000135000000002000000ARS2020072220346516489       PINZONE FABIAN EZEQUIEL                                     20346516489                                                                                                                                                      E:marconiestudiocontable@netcoop.com.ar                                                                                                               0006500000000000000000000000000000000055CAARS           ARS12345678912345678                                                                                NN               001
PR0040000000000000136000000002000000ARS2020072220139198418       PLAINI CLAUDIO NORBERTO                                     20139198418                                                                                                                                                      E:claudioplaini@hotmail.com                                                                                                                           0028500000000000000000000000000000000719CAARS           ARS12345678912345678                                                                                NN               001
PR0040000000000000137000000002000000ARS2020072227310659067       POCOVI MARIA SILVANA                                        27310659067                                                                                                                                                      E:estudiocarnevale@hotmail.com                                                                                                                        0042600000000000000000000000000000000007CAARS           ARS12345678912345678                                                                                NN               001
PR0040000000000000138000000002000000ARS2020072220262204508       POLITANO JULIETA                                            20262204508                                                                                                                                                      E:julietapolitano@hotmail.com                                                                                                                         0004400000000000000000000000000000000051CAARS           ARS12345678912345678                                                                                NN               001
PR0040000000000000139000000005000000ARS2020072220220709540       POQUET FABIAN ANDRES                                        20220709540                                                                                                                                                      E:andrespoquet@yahoo.com.ar                                                                                                                           0028500000000000000000000000000000000365CAARS           ARS12345678912345678                                                                                NN               001
PR0040000000000000140000000002000000ARS2020072220229779746       PRIMON FRANCO GABRIEL                                       20229779746                                                                                                                                                      E:                                                                                                                                                    0000700000000000000000000000000000000264CAARS           ARS12345678912345678                                                                                NN               001
PR0040000000000000141000000003000000ARS2020072220276268482       RAMBAUDI FABRICIO JOSE                                      20276268482                                                                                                                                                      E:fabriciorambaudi@gmail.com                                                                                                                          0001700000000000000000000000000000000207CAARS           ARS12345678912345678                                                                                NN               001
PR0040000000000000142000000003000000ARS2020072220149371800       RAMSEYER GERMAN                                             20149371800                                                                                                                                                      E:estudio22@hotmail.com                                                                                                                               0001700000000000000000000000000000000210CAARS           ARS12345678912345678                                                                                NN               001
PR0040000000000000143000000005000000ARS202007222017293192      RAMSEYER  ALEJANDRO                                         2017293192                                                                                                                                                      E:alramseyer@hotmail.com                                                                                                                              0001100000000000000000000000000000000491CAARS           ARS12345678912345678                                                                                NN               001
PR0040000000000000144000000003000000ARS2020072227289223016       RANGO CAROLINA SOLEDAD                                      27289223016                                                                                                                                                      E:cesar_csm@hotmail.com.ar                                                                                                                            0000700000000000000000000000000000000264CAARS           ARS12345678912345678                                                                                NN               001
PR0040000000000000145000000002000000ARS2020072227234965781       RANURE  ELIZABETH ANDREA                                    27234965781                                                                                                                                                      E:creciendo1917@hotmail.com                                                                                                                           0001700000000000000000000000000000000079CAARS           ARS12345678912345678                                                                                NN               001
PR0040000000000000146000000002000000ARS2020072220160314428       RIBOLDI HUGO MARCELO                                        20160314428                                                                                                                                                      E:pino_elprofe@hotmail.com                                                                                                                            0001500000000000000000000000000000000823CAARS           ARS12345678912345678                                                                                NN               001
PR0040000000000000147000000005000000ARS2020072220202695583       RICCARDI NELSON                                             20202695583                                                                                                                                                      E:Nelsonricardi@hotmail.com                                                                                                                           0007200000000000000000000000000000000464CAARS           ARS12345678912345678                                                                                NN               001
PR0040000000000000148000000002000000ARS2020072227225886798       RIPA CARINA                                                 27225886798                                                                                                                                                      E:ripacarina@hotmail.com                                                                                                                              0033000000000000000000000000000000000021CAARS           ARS12345678912345678                                                                                NN               001
PR0040000000000000149000000003000000ARS2020072227326518544       RISKIN PERALTA EMILSE AYELEN                                27326518544                                                                                                                                                      E:emilserp@hotmail.com                                                                                                                                0001700000000000000000000000000000000201CAARS           ARS12345678912345678                                                                                NN               001
PR0040000000000000150000000004000000ARS2020072220169351997       RIVARDO CLAUDIO DOMINGO                                     20169351997                                                                                                                                                      E:claudiorivardo@gmail.com                                                                                                                            0033000000000000000000000000000000000553CAARS           ARS12345678912345678                                                                                NN               001
PR0040000000000000151000000005000000ARS2020072220145176213       RIVAS SERGIO ROBERTO                                        20145176213                                                                                                                                                      E:serorivas@hotmail.com                                                                                                                               0004400000000000000000000000000000000027CAARS           ARS12345678912345678                                                                                NN               001
PR0040000000000000152000000002000000ARS2020072220291357262       RODRIGUEZ MARIA CELESTE                                     20291357262                                                                                                                                                      E:mccollavini82@gmail.com                                                                                                                             0004400000000000000000000000000000000027CAARS           ARS12345678912345678                                                                                NN               001
PR0040000000000000153000000002000000ARS2020072220169483583       RODRIGUEZ HECTOR NEMESIO                                    20169483583                                                                                                                                                      E:rodriguezhectornemesio@gmail.com                                                                                                                    0042600000000000000000000000000000000010CAARS           ARS12345678912345678                                                                                NN               001
PR0040000000000000154000000002000000ARS2020072220289680331       RODRIGUEZ LEANDRO JOSE                                      20289680331                                                                                                                                                      E:contadorarosario@yahoo.com.ar                                                                                                                       0006500000000000000000000000000000000060CAARS           ARS12345678912345678                                                                                NN               001
PR0040000000000000155000000005000000ARS2020072227273202817       RODRIGUEZ  CLAUDIA VERONICA                                 27273202817                                                                                                                                                      E:claukarodriguez@hotmail.com                                                                                                                         0000700000000000000000000000000000000380CAARS           ARS12345678912345678                                                                                NN               001
PR0040000000000000156000000003000000ARS2020072227244470977       ROJAS RAQUEL RAMONA                                         27244470977                                                                                                                                                      E:raulocampo35@gmail.com                                                                                                                              0001100000000000000000000000000000000470CAARS           ARS12345678912345678                                                                                NN               001
PR0040000000000000157000000002000000ARS2020072227269897053       ROJAS VERNETTO NATALIA SOLEDAD                              27269897053                                                                                                                                                      E:agarimos_x@hotmail.com                                                                                                                              0001100000000000000000000000000000000144CAARS           ARS12345678912345678                                                                                NN               001
PR0040000000000000158000000005000000ARS2020072227247844657       ROSARIO ARTE SRL BONO ROCIO SOLEDAD                         27247844657                                                                                                                                                      E:rocio@pintarenrosarioarte.com.ar                                                                                                                    0028500000000000000000000000000000000842CAARS           ARS12345678912345678                                                                                NN               001
PR0040000000000000159000000002000000ARS2020072220263780230       ROVERE DIEGO LUIS                                           20263780230                                                                                                                                                      E:fotorovere@yahoo.com.ar                                                                                                                             0001100000000000000000000000000000000567CAARS           ARS12345678912345678                                                                                NN               001
PR0040000000000000160000000005000000ARS2020072223306231324       RUIZ CELINA ANGELA                                          23306231324                                                                                                                                                      E:roxanabasso_776@hotmail.com                                                                                                                         0033000000000000000000000000000000000058CAARS           ARS12345678912345678                                                                                NN               001
PR0040000000000000161000000005000000ARS2020072227307632743       RUIZ BRIZUELA SEL ELIANA LEILEN                             27307632743                                                                                                                                                      E:selruizbrizuela@hotmail.com                                                                                                                         0019100000000000000000000000000000000091CAARS           ARS12345678912345678                                                                                NN               001
PR0040000000000000162000000003000000ARS2020072227228311729       SAAVEDRA SANDRA ISABEL JULIANA                              27228311729                                                                                                                                                      E:kindergarten2003@gmail.com                                                                                                                          0033000000000000000000000000000000000028CAARS           ARS12345678912345678                                                                                NN               001
PR0040000000000000163000000002000000ARS2020072227-22040927       SANALITRO CARINA ANDREA                                     02722040927                                                                                                                                                      E:carinasanalitro@hotmail.com                                                                                                                         0000700000000000000000000000000000000267CAARS           ARS12345678912345678                                                                                NN               001
