PR0040000000000000001000000005000000ARS2020072120251760250       PAYNTER GERMAN ARIEL                                        20251760250
PR0040000000000000002000000005000000ARS2020072130714810436       DE LA CALLE LORENA GISELA                                   30714810436
PR0040000000000000003000000003000000ARS2020072127326537379       BARRIONUEVO MAIRA YANINA                                    27326537379
PR0040000000000000004000000002000000ARS2020072127301951111       RANIERI VIRGINIA                                            27301951111
PR0040000000000000005000000002000000ARS2020072120301678488       Daddate Francisco                                           20301678488
PR0040000000000000006000000003000000ARS2020072127217186175       Ramirez Mariela                                             27217186175
PR0040000000000000007000000005000000ARS2020072120311032748       FALCHINI NICOLAS, AMADEO                                    20311032748
PR0040000000000000008000000002000000ARS2020072127307470301       DIAZ ANELEY ESTEFANIA                                       27307470301
PR0040000000000000009000000002000000ARS2020072120267200913       Poletta Alejandro Gabriel                                   20267200913
PR0040000000000000010000000002000000ARS2020072127292204669       PENNISI CECILIA BEATRIZ                                     27292204669
PR0040000000000000011000000002000000ARS2020072127328606408       Garcia Ileana leticia                                       27328606408
PR0040000000000000012000000002000000ARS2020072123330682809       FERNANDEZ LUCIANO JOSE                                      23330682809
PR0040000000000000013000000002000000ARS2020072127266141802       Cáceres Daniela                                            27266141802
PR0040000000000000014000000002000000ARS2020072127125302101       TRULLET SILVIA PILAR                                        27125302101
PR0040000000000000015000000002000000ARS2020072127164555467       JORTACK MARIA ALEJANDRA                                     27164555467
PR0040000000000000016000000002000000ARS2020072127250632032       CASALEGNO CARLA                                             27250632032
PR0040000000000000017000000002000000ARS2020072127301664570       Stinson Silvana Elizabeth                                   27301664570
PR0040000000000000018000000002000000ARS2020072127289472822       martinez vanina gisela                                      27289472822
PR0040000000000000019000000005000000ARS2020072120268600273       Porretti Juan Pablo                                         20268600273
PR0040000000000000020000000002000000ARS2020072120330712598       Cañete Carlos Melciades                                    20330712598
PR0040000000000000021000000002000000ARS2020072127250774163       RIVA FABIANA INES                                           27250774163
PR0040000000000000022000000002000000ARS2020072120122023142       Pellegrino Edgardo Antonio Justino                          20122023142
PR0040000000000000023000000002000000ARS2020072120381340458       Marquez Juan cruz                                           20381340458
PR0040000000000000024000000004000000ARS2020072127147065812       ALONSO LAURA AIDEE                                          27147065812
PR0040000000000000025000000002000000ARS2020072120143972276       Lascurain Roque Alfredo                                     20143972276
PR0040000000000000026000000002000000ARS2020072120209483794       ESCOBAR DANIEL ROBERTO                                      20209483794
PR0040000000000000027000000002000000ARS2020072127341097644       LESCANO CECILIA                                             27341097644
PR0040000000000000028000000002000000ARS2020072120240485983       SCATIZZA FABIAN ANDRES                                      20240485983
PR0040000000000000029000000002000000ARS2020072127340380741       Schvindt Gabriela                                           27340380741
PR0040000000000000030000000002000000ARS2020072127343795284       López María Camila                                        27343795284
PR0040000000000000031000000002000000ARS2020072123334963594       Medina Maria Belen                                          23334963594
PR0040000000000000032000000002000000ARS2020072127241564067       Leones Stella Maris                                         27241564067
PR0040000000000000033000000002000000ARS2020072120259758689       Bertona Gustavo Emilio                                      20259758689
PR0040000000000000034000000002000000ARS2020072120336648751       Ostta Matías Jesus                                         20336648751
PR0040000000000000035000000002000000ARS2020072120242497288       ZURBRIGGEN ANDRES RODOLFO                                   20242497288
PR0040000000000000036000000002000000ARS2020072120365455423       Peresson Adrian                                             20365455423
PR0040000000000000037000000002000000ARS2020072127327137625       PADRON LISI LORELEY                                         27327137625
PR0040000000000000038000000003000000ARS2020072127241948507       Calvo Rocio                                                 27241948507
PR0040000000000000039000000002000000ARS2020072120220772277       SAUCEDO IVES RAMON ALEJANDRO                                20220772277
PR0040000000000000040000000002000000ARS2020072127203641783       Pochettino Marta                                            27203641783
PR0040000000000000041000000002000000ARS2020072127315367382       graff valeria                                               27315367382
PR0040000000000000042000000003000000ARS2020072120179141494       RIGHI FABIAN ARIEL                                          20179141494
PR0040000000000000043000000002000000ARS2020072120363029303       Brarda Facundo                                              20363029303
PR0040000000000000044000000002000000ARS2020072120291482512       Forlin Pablo Alberto                                        20291482512
PR0040000000000000045000000002000000ARS2020072127313646063       Vaudagna Jesica Paula                                       27313646063
PR0040000000000000046000000002000000ARS2020072123201905834       Festi Claudia Alejandra                                     23201905834
PR0040000000000000047000000002000000ARS2020072127303603528       Balleis Carla                                               27303603528
PR0040000000000000048000000002000000ARS2020072127233507070       Tomba Laura Inés                                           27233507070
PR0040000000000000049000000002000000ARS2020072123373298514       Kloster Camila Andrea                                       23373298514
PR0040000000000000050000000002000000ARS2020072120270444513       kahlow fernando                                             20270444513
PR0040000000000000051000000003000000ARS2020072120144553552       GARCIA RENE NORBERTO                                        20144553552
PR0040000000000000052000000002000000ARS2020072127321849119       VILLEGAS PINO MELISA ELISABET                               27321849119
PR0040000000000000053000000002000000ARS2020072127215447516       Salinas Mónica isabel                                      27215447516
PR0040000000000000054000000002000000ARS2020072120341147906       Acosta Joaquín Gabriel                                     20341147906
PR0040000000000000055000000003000000ARS2020072127245594645       DIAZ ADRIANA ALICIA                                         27245594645
PR0040000000000000056000000002000000ARS2020072123336407354       Liberatti Maria Lara                                        23336407354
PR0040000000000000057000000002000000ARS2020072127249520565       Gomez Claudia Betina                                        27249520565
PR0040000000000000058000000002000000ARS2020072120388191997       Lattuada Gabriel Gonzalo                                    20388191997
PR0040000000000000059000000002000000ARS2020072120062484498       RIVERA JULIO CESAR                                          20062484498
PR0040000000000000060000000003000000ARS2020072120360014879       Bianco Juan Ignacio                                         20360014879
PR0040000000000000061000000002000000ARS2020072127323711408       Lucca Maria Florencia                                       27323711408
PR0040000000000000062000000002000000ARS2020072120117905862       BLESA JORGE                                                 20117905862
PR0040000000000000063000000003000000ARS2020072127331614594       Cicerchia Yamila Belén                                     27331614594
PR0040000000000000064000000002000000ARS2020072127105247775       blaser nora luisa                                           27105247775
PR0040000000000000065000000002000000ARS2020072127214114998       Salas Gladis margarita                                      27214114998
PR0040000000000000066000000002000000ARS2020072127182422407       Siluk Viviana Guadalupe                                     27182422407
PR0040000000000000067000000003000000ARS2020072127267165098       Mantaras Maria soledad                                      27267165098
PR0040000000000000068000000003000000ARS2020072120262523161       TREVISAN DIEGO ERNESTO                                      20262523161
PR0040000000000000069000000005000000ARS2020072120282171555       Poletti Matias                                              20282171555
PR0040000000000000070000000003000000ARS2020072127138300183       decolatti liliana                                           27138300183
PR0040000000000000071000000003000000ARS2020072127220708522       Ferrero Nora Violeta                                        27220708522
PR0040000000000000072000000005000000ARS2020072130715679317       Savignano Juan Pablo                                        30715679317
PR0040000000000000073000000003000000ARS2020072120221934777       Descalzo Daniel antonio                                     20221934777
PR0040000000000000074000000002000000ARS2020072120251577189       CANAL ADRIAN ALDO                                           20251577189
PR0040000000000000075000000002000000ARS2020072120139251890       DOLDAN RICARDO JORGE                                        20139251890
PR0040000000000000076000000002000000ARS2020072127303795540       Tuttolomondo Carolina Andrea                                27303795540
PR0040000000000000077000000003000000ARS2020072123278820424       matassa maria laura lourdes                                 23278820424
PR0040000000000000078000000002000000ARS2020072127265028069       Unrein Lorena Elisabet                                      27265028069
PR0040000000000000079000000002000000ARS2020072127323068645       Santana Maria emilia                                        27323068645
PR0040000000000000080000000002000000ARS2020072127256742735       Mandolesi Maria Luz                                         27256742735
PR0040000000000000081000000002000000ARS2020072127265144751       Aresu Liliana                                               27265144751
PR0040000000000000082000000002000000ARS2020072127318978684       TARDINI LUCIANA                                             27318978684
PR0040000000000000083000000002000000ARS2020072127352917147       moriena ana                                                 27352917147
PR0040000000000000084000000002000000ARS2020072127283922397       PEZZOTA YANINA LEILA                                        27283922397
PR0040000000000000085000000002000000ARS2020072120308021352       FANTONI CLAUDIO                                             20308021352
PR0040000000000000086000000002000000ARS2020072127347164122       HOYOS FLAVIA BETIANA                                        27347164122
PR0040000000000000087000000002000000ARS2020072120296877949       Buzzi Javier Horacio                                        20296877949
PR0040000000000000088000000002000000ARS2020072127343397440       Falconi Wanda                                               27343397440
PR0040000000000000089000000002000000ARS2020072127339340922       RUBINICH GEORGINA NOELIA                                    27339340922
PR0040000000000000090000000002000000ARS2020072127321888300       Tordini Luciana                                             27321888300
PR0040000000000000091000000002000000ARS2020072123-28556904       TABORDA VERONICA ANALIA                                     02328556904
PR0040000000000000092000000003000000ARS2020072127234824843       Baldani Erica Guadalupe                                     27234824843
PR0040000000000000093000000002000000ARS2020072127356452858       GALLISSO PAULA                                              27356452858
PR0040000000000000094000000002000000ARS2020072120307018714       Colombini Gabriel                                           20307018714
PR0040000000000000095000000002000000ARS2020072127220399546       Rangel María José                                         27220399546
PR0040000000000000096000000002000000ARS2020072127244113260       HERNANDEZ VERONICA MARIA                                    27244113260
PR0040000000000000097000000002000000ARS2020072127377120774       Zilli ORNELLA SOFIA                                         27377120774
PR0040000000000000098000000002000000ARS2020072127215836180       Marinelli Milva                                             27215836180
PR0040000000000000099000000002000000ARS2020072120369136330       D'Ostuni Agustín                                           20369136330
PR0040000000000000100000000002000000ARS2020072123292163304       GENTILI MARÍA FERNANDA                                     23292163304
PR0040000000000000101000000002000000ARS2020072127271152839       MORICONI NATALIA GISELA                                     27271152839
PR0040000000000000102000000002000000ARS2020072127231582423       Ledezma Silvana                                             27231582423
PR0040000000000000103000000002000000ARS2020072123171024064       Moncada María Marcela Beatriz                              23171024064
PR0040000000000000104000000003000000ARS2020072127255249229       Juárez Flavia Lorena                                       27255249229
PR0040000000000000105000000002000000ARS2020072120220913415       BUSTAMANTE ANGEL DANIEL                                     20220913415
PR0040000000000000106000000003000000ARS2020072120160765837       lopiccolo horacio ruben                                     20160765837
PR0040000000000000107000000002000000ARS2020072127181935990       Musco Andrea                                                27181935990
PR0040000000000000108000000002000000ARS2020072120403123529       Figgini Lucas Marcelo                                       20403123529
PR0040000000000000109000000005000000ARS2020072123125263704       Carbone adriana mabel                                       23125263704
PR0040000000000000110000000002000000ARS2020072127276800197       colman María Lorena                                        27276800197
PR0040000000000000111000000005000000ARS2020072120243228795       Morlupi Hernán                                             20243228795
PR0040000000000000112000000002000000ARS2020072127203546330       PETRACCI SILVINA MARIANA                                    27203546330
PR0040000000000000113000000002000000ARS2020072120177164411       MILIOTO Marcelo Sergio                                      20177164411
PR0040000000000000114000000002000000ARS2020072127343433420       SALFI ANGELA CAROLINA                                       27343433420
PR0040000000000000115000000003000000ARS2020072127201749056       CRIBB MARIA ALEJANDRA                                       27201749056
PR0040000000000000116000000002000000ARS2020072127222449001       CROCCO MARIELA ALEJANDRA                                    27222449001
PR0040000000000000117000000003000000ARS2020072120125775404       Ranciari Enzo                                               20125775404
PR0040000000000000118000000003000000ARS2020072127240637818       Anania Daniela laura                                        27240637818
PR0040000000000000119000000002000000ARS2020072127223003678       Gallardo Gabriela Analia Fabriciana                         27223003678
PR0040000000000000120000000003000000ARS2020072127247329108       LUGONES vilma del valle                                     27247329108
PR0040000000000000121000000002000000ARS2020072120214142067       garcia montero joaquin francisco                            20214142067
PR0040000000000000122000000005000000ARS2020072130715313053       romero sabrina vanesa                                       30715313053
PR0040000000000000123000000002000000ARS2020072127283987367       BALESTRAZZI PAMELA SABRINA                                  27283987367
PR0040000000000000124000000002000000ARS2020072127281488568       NUCIFORA NERINA                                             27281488568
PR0040000000000000125000000002000000ARS2020072127135881347       Jaime Ana María                                            27135881347
PR0040000000000000126000000003000000ARS2020072120202075216       TUTTOLOMONDO CARLOS ALEJANDRO                               20202075216
PR0040000000000000127000000003000000ARS2020072120149819119       ALONSO OSVALDO LUIS                                         20149819119
PR0040000000000000128000000005000000ARS2020072127343379264       Clemente Vanesa                                             27343379264
PR0040000000000000129000000002000000ARS2020072127265647397       Garnica Daniela Silvina                                     27265647397
PR0040000000000000130000000002000000ARS2020072120301680016       BAQUE MARIANO                                               20301680016
PR0040000000000000131000000005000000ARS2020072120268713264       Corte hernan                                                20268713264
PR0040000000000000132000000003000000ARS2020072120280354059       De Agostini Matías                                         20280354059
PR0040000000000000133000000003000000ARS2020072127124040928       HEREDIA LILIANA EDIT                                        27124040928
PR0040000000000000134000000002000000ARS2020072127135026250       gazzola viviana rosario                                     27135026250
PR0040000000000000135000000002000000ARS2020072127343337707       Lacour Gisel                                                27343337707
PR0040000000000000136000000002000000ARS2020072120271805099       LEDDA GUILLERMO JOSE                                        20271805099
PR0040000000000000137000000005000000ARS2020072120179152259       Stiefel Alexis                                              20179152259
PR0040000000000000138000000002000000ARS2020072120364901330       Pérez Gastón Alejandro                                    20364901330
PR0040000000000000139000000002000000ARS2020072127216368768       Manassero Silvia Beatriz                                    27216368768
PR0040000000000000140000000003000000ARS2020072127246357981       Serra Maria Lorena                                          27246357981
PR0040000000000000141000000005000000ARS2020072127290237713       ALBORNOZ ANDREA                                             27290237713
PR0040000000000000142000000003000000ARS2020072127372098584       Pividori Corina                                             27372098584
PR0040000000000000143000000002000000ARS2020072127372817033       Benz Maria de los Milagros                                  27372817033
PR0040000000000000144000000002000000ARS2020072127205505887       Mendicini Alba Alejandra                                    27205505887
PR0040000000000000145000000003000000ARS2020072120263766688       vessella matias                                             20263766688
PR0040000000000000146000000002000000ARS2020072127218149710       De Martini Valeria                                          27218149710
PR0040000000000000147000000004000000ARS2020072127239360667       VAIANA MARÍA JOSÉ                                         27239360667
PR0040000000000000148000000005000000ARS2020072130715078445       HERNANDEZ MARTINEZ (SOCIO GERENTE) HERNANDEZ MARTINEZ (SOCIO30715078445
PR0040000000000000149000000005000000ARS2020072130714383236       RIVAROLA CAROLINA                                           30714383236
PR0040000000000000150000000002000000ARS2020072127283344024       Rivarola Mariana                                            27283344024
PR0040000000000000151000000003000000ARS2020072127201972650       Luque Laura Noemi                                           27201972650
PR0040000000000000152000000002000000ARS2020072120296837602       Jaime Juan Manuel                                           20296837602
PR0040000000000000153000000004000000ARS2020072120267396788       Ventimiglia Guillermo Nestor                                20267396788
PR0040000000000000154000000003000000ARS2020072127294498848       Figueredo agustina                                          27294498848
PR0040000000000000155000000004000000ARS2020072120289126237       Kerckhaert Carlos German                                    20289126237
PR0040000000000000156000000005000000ARS2020072130715506609       RETAMAR CLAUDIA                                             30715506609
PR0040000000000000157000000003000000ARS2020072120287092629       Montiel Sergio omar                                         20287092629
PR0040000000000000158000000005000000ARS2020072127250074285       SANCHEZ LORENA                                              27250074285
PR0040000000000000159000000002000000ARS2020072127320373412       valdez natalia                                              27320373412
PR0040000000000000160000000002000000ARS2020072123322099754       LOMBARDI NATALI PAOLA                                       23322099754
PR0040000000000000161000000005000000ARS2020072130714243108       Mignacco Juan Antonio                                       30714243108
PR0040000000000000162000000003000000ARS2020072127245528278       Suárez Débora                                             27245528278
PR0040000000000000163000000003000000ARS2020072123167282024       Díaz Cristina Rosa                                         23167282024
PR0040000000000000164000000002000000ARS2020072127306896739       PERALTA CAROLINA ANABEL                                     27306896739
PR0040000000000000165000000003000000ARS2020072120242829531       Cué Pablo Cristian                                         20242829531
PR0040000000000000166000000002000000ARS2020072123348316729       RODRIGUEZ SERGIO JESUS                                      23348316729
PR0040000000000000167000000002000000ARS2020072127338738930       Alagi Valeria                                               27338738930
PR0040000000000000168000000002000000ARS2020072120248631083       Pijuan Darío Luciano                                       20248631083
PR0040000000000000169000000002000000ARS2020072127267895363       IOCCO BETIANA LORENA                                        27267895363
PR0040000000000000170000000002000000ARS2020072127300710536       Capponi Sandra Maria de Lujan                               27300710536
PR0040000000000000171000000002000000ARS2020072120162869664       BARRO ORLANDO SANTOS                                        20162869664
PR0040000000000000172000000003000000ARS2020072120271967927       BAIGORRIA IVAN ARIEL                                        20271967927
PR0040000000000000173000000005000000ARS2020072120330557908       Bergese HUGO DAMIAN                                         20330557908
PR0040000000000000174000000003000000ARS2020072123216918894       Rizzotto Dias Susana Eugenia                                23216918894
PR0040000000000000175000000003000000ARS2020072120214230187       GARCIA TROIANO Jorge                                        20214230187
PR0040000000000000176000000003000000ARS2020072120341734615       Viciconte Sebastian                                         20341734615
PR0040000000000000177000000002000000ARS2020072127179660747       Affranchino María Patricia                                 27179660747
PR0040000000000000178000000002000000ARS2020072120238147272       MUFARREGE LEONARDO                                          20238147272
PR0040000000000000179000000005000000ARS2020072127225265475       LEZCANO MARISA                                              27225265475
PR0040000000000000180000000002000000ARS2020072127223579871       destefanis maria jose                                       27223579871
PR0040000000000000181000000003000000ARS2020072127216909629       Kuhn Silvia María                                          27216909629
PR0040000000000000182000000005000000ARS2020072120175149393       GUGLIELMONE CLAUDIO ALBERTO                                 20175149393
PR0040000000000000183000000002000000ARS2020072123169574359       Flores Roberto                                              23169574359
PR0040000000000000184000000002000000ARS2020072127206740545       Indaco Sandra Marcela                                       27206740545
PR0040000000000000185000000002000000ARS2020072127168802337       Irigoyen Maria eugenia                                      27168802337
PR0040000000000000186000000005000000ARS2020072127307861076       martinez gabriela                                           27307861076
PR0040000000000000187000000002000000ARS2020072127202412292       Mendoza Judith Rosalía                                     27202412292
PR0040000000000000188000000002000000ARS2020072123242149254       Diaz Fernanda belen                                         23242149254
PR0040000000000000189000000003000000ARS2020072127285715887       GAGLIARDO MARIANA DEL VALLE                                 27285715887
PR0040000000000000190000000005000000ARS2020072130716224356       CENTRO ROMA SRL Fernando Larrondo (Soc.Gte.)                30716224356
PR0040000000000000191000000005000000ARS2020072130714595810       COLOMBO NORMA ANDREA                                        30714595810
PR0040000000000000192000000002000000ARS2020072123176129409       Coronel Fabián Eduardo                                     23176129409
PR0040000000000000193000000005000000ARS2020072130650116182       Obieta Claudia                                              30650116182
PR0040000000000000194000000002000000ARS2020072123201800919       Dominguez Fabian Alberto                                    23201800919
PR0040000000000000195000000005000000ARS2020072130714384593       AIMA SRL AIMA SRL                                           30714384593
PR0040000000000000196000000003000000ARS2020072120267200417       Liria Marcelo                                               20267200417
PR0040000000000000197000000003000000ARS2020072120345227769       BRATEN BRIAN                                                20345227769
PR0040000000000000198000000002000000ARS2020072120303135422       Testa Federico                                              20303135422
PR0040000000000000199000000002000000ARS2020072127285664387       ESPINOSA MARIA EMILIA                                       27285664387
PR0040000000000000200000000002000000ARS2020072120312900603       Marcuzzi Diego Matias                                       20312900603
PR0040000000000000201000000003000000ARS2020072127148034856       DURAN ADRIANA ROSA                                          27148034856
PR0040000000000000202000000003000000ARS2020072127306707952       Virzi Triana Muriel                                         27306707952
PR0040000000000000203000000003000000ARS2020072123214144379       CALANNI MACCHIO CLAUDIO DANIEL                              23214144379
PR0040000000000000204000000002000000ARS2020072120334530222       Guardia Leonel Hernán                                      20334530222
PR0040000000000000205000000003000000ARS2020072127109878540       Escaparlenda SILVIA clara                                   27109878540
PR0040000000000000206000000002000000ARS2020072123335132459       De soto Luis Alberto                                        23335132459
PR0040000000000000207000000003000000ARS2020072127306864381       Fernández María Victoria                                  27306864381
PR0040000000000000208000000002000000ARS2020072120175191896       Scrivanich Ricardo Ramón                                   20175191896
PR0040000000000000209000000002000000ARS2020072123313392554       fiseres natalia                                             23313392554
PR0040000000000000210000000002000000ARS2020072120179329108       Castillo Ernesto Fabián                                    20179329108
PR0040000000000000211000000002000000ARS2020072120130706348       RICCA ENZO OMAR                                             20130706348
PR0040000000000000212000000002000000ARS2020072127114124384       Gassmann Mónica Beatríz                                   27114124384
PR0040000000000000213000000002000000ARS2020072120301673257       Sacone Ariel                                                20301673257
PR0040000000000000214000000003000000ARS2020072127337306700       brassesco Mariana Graciela                                  27337306700
PR0040000000000000215000000002000000ARS2020072127274479588       Feresin Natalia                                             27274479588
PR0040000000000000216000000002000000ARS2020072127299898194       franzoy veronica                                            27299898194
PR0040000000000000217000000002000000ARS2020072120124719438       GODOY ENRIQUE CLIMACO MANUEL                                20124719438
PR0040000000000000218000000002000000ARS2020072127313860138       Guntern Melina                                              27313860138
PR0040000000000000219000000005000000ARS2020072127236952849       Ignogna Roxana Verónica                                    27236952849
PR0040000000000000220000000002000000ARS2020072120278628052       GHIONE MAGGIO GASTON EZEQUIEL                               20278628052
PR0040000000000000221000000002000000ARS2020072127117910240       VISCA LILIANA BEATRIZ                                       27117910240
PR0040000000000000222000000002000000ARS2020072123135106739       Principe Roberto Luis                                       23135106739
PR0040000000000000223000000002000000ARS2020072127368880294       Vagliente Noelia Maria                                      27368880294
PR0040000000000000224000000003000000ARS2020072120228164306       PIANCATELLI CRISTIAN DAVID                                  20228164306
PR0040000000000000225000000002000000ARS2020072127228910290       PRINCIPI MONICA ANGELICA                                    27228910290
PR0040000000000000226000000005000000ARS2020072130710747861       Club Atletico Defensores de Centeno Club Atletico Defensores30710747861
PR0040000000000000227000000002000000ARS2020072127141803536       lopez gricelda noemi                                        27141803536
PR0040000000000000228000000005000000ARS2020072127058191847       Savoretti Dora Elena                                        27058191847
PR0040000000000000229000000002000000ARS2020072127249435908       Albamonte Karina veronica                                   27249435908
PR0040000000000000230000000002000000ARS2020072120368875482       imhoff sebastian                                            20368875482
PR0040000000000000231000000005000000ARS2020072127335534579       BRUERA LAILA                                                27335534579
PR0040000000000000232000000003000000ARS2020072127133533902       Rabuffetti Maria Lujan                                      27133533902
PR0040000000000000233000000003000000ARS2020072120172222472       INSINGER MARCELO                                            20172222472
PR0040000000000000234000000005000000ARS2020072120291424962       AYALA MARTIN EDUARDO                                        20291424962
PR0040000000000000235000000002000000ARS2020072120206433060       civetta fabian claudio                                      20206433060
PR0040000000000000236000000002000000ARS2020072127366558077       Cavallo Agustina                                            27366558077
PR0040000000000000237000000002000000ARS2020072120278644384       BOZZONI MARIANO NELSON                                      20278644384
PR0040000000000000238000000002000000ARS2020072127349378537       Romina Chan                                                 27349378537
PR0040000000000000239000000003000000ARS2020072120307633982       Ayala Lucas Ignacio                                         20307633982
PR0040000000000000240000000003000000ARS2020072120242522304       AQUINO CRISTIAN TOMAS                                       20242522304
PR0040000000000000241000000002000000ARS2020072127308023686       SIERRA CECILIA                                              27308023686
PR0040000000000000242000000002000000ARS2020072127296860234       Gutierrez Dulcinea Alejandrina                              27296860234
PR0040000000000000243000000003000000ARS2020072120247918125       franceschi marcelo                                          20247918125
PR0040000000000000244000000002000000ARS2020072127942543498       MUSTELIER AQUINET YINNERIS ESPERANZA                        27942543498
PR0040000000000000245000000005000000ARS2020072130712531637       Lifsitz Pablo                                               30712531637
PR0040000000000000246000000002000000ARS2020072127125209357       Taborda Lidia Lucia                                         27125209357
PR0040000000000000247000000002000000ARS2020072120306869095       Lo Presti Sebastian                                         20306869095
PR0040000000000000248000000002000000ARS2020072127227777236       Taffurelli Gabriela                                         27227777236
PR0040000000000000249000000005000000ARS2020072127225424352       Formica Carina Veronica                                     27225424352
PR0040000000000000250000000002000000ARS2020072127316021420       Cesped Virginia Paola                                       27316021420
PR0040000000000000251000000003000000ARS2020072127291404532       NAVEIRA MARIELA                                             27291404532
PR0040000000000000252000000002000000ARS2020072120247204793       Fernández Hernan Ariel                                     20247204793
PR0040000000000000253000000002000000ARS2020072127333617329       FEDELE ANA                                                  27333617329
PR0040000000000000254000000005000000ARS2020072130711597820       Marcato Lucas Martín                                       30711597820
PR0040000000000000255000000004000000ARS2020072120177334805       SANTORO CLAUDIO VICENTE LUJAN                               20177334805
PR0040000000000000256000000003000000ARS2020072127184162895       cuello adriana lucia                                        27184162895
PR0040000000000000257000000003000000ARS2020072120251714216       St mary ALEJANDRO                                           20251714216
PR0040000000000000258000000002000000ARS2020072127319901782       Del Giglio Romina Antonela                                  27319901782
PR0040000000000000259000000002000000ARS2020072127144448974       martinez rosanna asuncion                                   27144448974
PR0040000000000000260000000003000000ARS2020072127310281927       BUSNADIEGO MELISA                                           27310281927
PR0040000000000000261000000003000000ARS2020072120083444011       IMPERIALE HUGO ROBERTO                                      20083444011
PR0040000000000000262000000005000000ARS2020072130710491484       VARELA CARINA ALEJANDRA                                     30710491484
PR0040000000000000263000000005000000ARS2020072130716329719       Huidobro Orellana solange Araceli                           30716329719
PR0040000000000000264000000005000000ARS2020072130714077984       Zuliani Natalia                                             30714077984
PR0040000000000000265000000002000000ARS2020072123243206324       Inostroza Dora Gabriela                                     23243206324
PR0040000000000000266000000003000000ARS2020072120141133641       cavalieri mario fernando                                    20141133641
PR0040000000000000267000000003000000ARS2020072127330323391       Bernal Lucia                                                27330323391
PR0040000000000000268000000002000000ARS2020072120128843850       Lozano Victor Manuel                                        20128843850
PR0040000000000000269000000003000000ARS2020072127312794387       Pellegrini Jorgelina Nadia Pellegrini Jorgelina Nadia       27312794387
PR0040000000000000270000000002000000ARS2020072120923177621       VILLALBA OSORES GUSTAVO JAVIER                              20923177621
PR0040000000000000271000000003000000ARS2020072127338331296       Barbieri Juliana                                            27338331296
PR0040000000000000272000000002000000ARS2020072120333864062       Hervot Emiliano Alejandro                                   20333864062
PR0040000000000000273000000003000000ARS2020072127222188828       PAULUCCI CRISTINA LAURA                                     27222188828
PR0040000000000000274000000002000000ARS2020072127258341185       Atie Maria Teresa                                           27258341185
PR0040000000000000275000000005000000ARS2020072130708909706       jaime camilo                                                30708909706
PR0040000000000000276000000002000000ARS2020072127237907650       castaño andrea                                             27237907650
PR0040000000000000277000000002000000ARS2020072120372280841       Lovey Kevin ivan                                            20372280841
PR0040000000000000278000000002000000ARS2020072120140869210       Dimarco Nestor Adelmo                                       20140869210
PR0040000000000000279000000002000000ARS2020072120203546670       MICHELI DIEGO CESAR                                         20203546670
PR0040000000000000280000000002000000ARS2020072127345574706       Sapp Natalia                                                27345574706
PR0040000000000000281000000003000000ARS2020072127127369289       Martini Monica Elena                                        27127369289
PR0040000000000000282000000003000000ARS2020072127245666298       GIUSTO ZIMMARDO MARIELA                                     27245666298
PR0040000000000000283000000002000000ARS2020072127206744222       INTELISANO SILVINA ANDREA                                   27206744222
PR0040000000000000284000000002000000ARS2020072127374035067       CAÑAS MARIA LUZ                                            27374035067
PR0040000000000000285000000002000000ARS2020072123239143334       Codarín María Sabina                                      23239143334
PR0040000000000000286000000002000000ARS2020072120290466262       Romero juan pablo francisco                                 20290466262
PR0040000000000000287000000002000000ARS2020072120391231681       BRACCO NICOLAS ATILIO                                       20391231681
PR0040000000000000288000000003000000ARS2020072127217222376       Arata Roxana                                                27217222376
PR0040000000000000289000000002000000ARS2020072121523357          prieto alejandro                                            00021523357
PR0040000000000000290000000002000000ARS2020072120296805395       Mendez Pablo                                                20296805395
PR0040000000000000291000000002000000ARS2020072120348278747       Belart Matías Daniel                                       20348278747
PR0040000000000000292000000003000000ARS2020072120131634642       Gonzalez Rodolfo Enrique                                    20131634642
PR0040000000000000293000000003000000ARS2020072123225703124       Moran Diaz Vanesa Karina                                    23225703124
PR0040000000000000294000000002000000ARS2020072127125229455       calvo mirta                                                 27125229455
PR0040000000000000295000000003000000ARS2020072120298325560       marchen emilio nicolas                                      20298325560
PR0040000000000000296000000005000000ARS2020072120220405207       Barrile Diego Ricardo                                       20220405207
PR0040000000000000297000000002000000ARS2020072120354633710       CORACH LUCAS                                                20354633710
PR0040000000000000298000000002000000ARS2020072127342061252       Gazzera Victoria María del Rosario                         27342061252
PR0040000000000000299000000002000000ARS2020072127178505780       Destefanis Fernanda marisa                                  27178505780
PR0040000000000000300000000002000000ARS2020072127294460301       PRINA ANALIA CARINA                                         27294460301
PR0040000000000000301000000003000000ARS2020072120273301810       Dotti Gonzalo Nazareno Javier                               20273301810
PR0040000000000000302000000003000000ARS2020072120289396668       Wedertz Francisco Andres                                    20289396668
PR0040000000000000303000000002000000ARS2020072120115799275       BARRETO BRAULIO DOMINGO                                     20115799275
PR0040000000000000304000000005000000ARS2020072130711793980       Gonzalez Maria Florencia                                    30711793980
PR0040000000000000305000000004000000ARS2020072127184379819       ROSA PATRICIA ALEJANDRA                                     27184379819
PR0040000000000000306000000003000000ARS2020072127173398951       guardia marisa esther                                       27173398951
PR0040000000000000307000000003000000ARS2020072120303414666       López Hayes Fernando Ramón                                20303414666
PR0040000000000000308000000003000000ARS2020072127276600929       Solari Luciana Evelyn                                       27276600929
PR0040000000000000309000000002000000ARS2020072123306152734       Gaiardo Vanesa                                              23306152734
PR0040000000000000310000000003000000ARS2020072127256489274       Fiscella María Florencia                                   27256489274
PR0040000000000000311000000003000000ARS2020072127360028971       ACOSTA MANUELA GALA                                         27360028971
PR0040000000000000312000000003000000ARS2020072127131635953       velozo monica                                               27131635953
PR0040000000000000313000000003000000ARS2020072120223612203       Cornut Miguel Eduardo                                       20223612203
PR0040000000000000314000000002000000ARS2020072120356522916       Garcia Nicolás Exequiel                                    20356522916
PR0040000000000000315000000003000000ARS2020072120356497733       Cifre Martin                                                20356497733
PR0040000000000000316000000003000000ARS2020072120346548844       cavalieri rodrigo fernando                                  20346548844
PR0040000000000000317000000004000000ARS2020072123239294669       Nuñez Cristian Ramon                                       23239294669
PR0040000000000000318000000004000000ARS2020072123254802859       Pereyra Guillermo Alcides                                   23254802859
PR0040000000000000319000000002000000ARS2020072120289687514       Bonaccorso Ignacio                                          20289687514
PR0040000000000000320000000002000000ARS2020072127206740189       MARAGLIANO ADELA MARIELA                                    27206740189
PR0040000000000000321000000003000000ARS2020072123281531344       acevedo Claudina Natalia                                    23281531344
PR0040000000000000322000000002000000ARS2020072127388961258       Colsani Josefina                                            27388961258
PR0040000000000000323000000002000000ARS2020072130715968297       Castro Abdalla Gustavo Pablo                                30715968297
PR0040000000000000324000000005000000ARS2020072120201678723       Alonso Cesar Alejandro                                      20201678723
PR0040000000000000325000000002000000ARS2020072127337345722       Dominguez marilina                                          27337345722
PR0040000000000000326000000003000000ARS2020072127182963467       arata viviana elsa                                          27182963467
PR0040000000000000327000000002000000ARS2020072127185693134       Inga Mercedes Del Valle                                     27185693134
PR0040000000000000328000000002000000ARS2020072120290004528       MERLINI MAURICIO                                            20290004528
PR0040000000000000329000000003000000ARS2020072127246751531       CASTELLI LUCIANA                                            27246751531
PR0040000000000000330000000003000000ARS2020072127301679020       Martinez María Belén                                      27301679020
PR0040000000000000331000000002000000ARS2020072120281992415       Battistoni ariel luis                                       20281992415
PR0040000000000000332000000005000000ARS2020072127167782200       de Miguel Monica Claudia                                    27167782200
PR0040000000000000333000000002000000ARS2020072127283989564       Firpo Natalia                                               27283989564
PR0040000000000000334000000002000000ARS2020072120352903478       Fernandez Nicolas                                           20352903478
PR0040000000000000335000000002000000ARS2020072120171524238       Cuello Nestor Ruben                                         20171524238
PR0040000000000000336000000002000000ARS2020072123178178709       De Bonis Ernesto                                            23178178709
PR0040000000000000337000000002000000ARS2020072124276900974       González Spucches Milton                                   24276900974
PR0040000000000000338000000005000000ARS2020072127201920456       MARINO NORMA                                                27201920456
PR0040000000000000339000000003000000ARS2020072120261596327       OJEDA AMILCAR FABIAN                                        20261596327
PR0040000000000000340000000002000000ARS2020072120282374111       Manassero Pablo Guillermo                                   20282374111
PR0040000000000000341000000002000000ARS2020072127336663410       Gianasi Florencia                                           27336663410
PR0040000000000000342000000003000000ARS2020072120101872352       Cañas Maximo Pedro                                         20101872352
PR0040000000000000343000000003000000ARS2020072127229083428       GRASSI LAURA MARIANA                                        27229083428
PR0040000000000000344000000002000000ARS2020072127281355274       Cabo María Leticia                                         27281355274
PR0040000000000000345000000002000000ARS2020072127311111006       Nava Mercedes                                               27311111006
PR0040000000000000346000000003000000ARS2020072120207252795       Aguirre Oscar Walter                                        20207252795
PR0040000000000000347000000002000000ARS2020072120263823630       Giupponi Diego                                              20263823630
PR0040000000000000348000000002000000ARS2020072120165502486       MAHFOUD RUBEN                                               20165502486
PR0040000000000000349000000003000000ARS2020072120180960075       Agostinelli Jorge Edgardo                                   20180960075
PR0040000000000000350000000003000000ARS2020072127201667696       Chiapello Patricia Guadalupe                                27201667696
PR0040000000000000351000000005000000ARS2020072127249434561       Bonetti Claudia                                             27249434561
PR0040000000000000352000000005000000ARS2020072120293541834       Sanchez Exequiel Alejandro                                  20293541834
PR0040000000000000353000000003000000ARS2020072127230297261       Rivolta Vanina Isabel                                       27230297261
PR0040000000000000354000000002000000ARS2020072120246617806       MONACO ANTONIO                                              20246617806
PR0040000000000000355000000003000000ARS2020072120128849883       Talarico Salvador Luis                                      20128849883
PR0040000000000000356000000002000000ARS2020072127208083118       Arriola Patricia Rosana                                     27208083118
PR0040000000000000357000000002000000ARS2020072120331236048       bayochi mauricio ariel                                      20331236048
PR0040000000000000358000000002000000ARS2020072127330209106       Mezza Andrea                                                27330209106
PR0040000000000000359000000002000000ARS2020072120222077290       Gomez Cristian Ivan                                         20222077290
PR0040000000000000360000000002000000ARS2020072127313841389       Balestra María Laura                                       27313841389
PR0040000000000000361000000002000000ARS2020072120238374422       Alarcón Victor Hugo                                        20238374422
PR0040000000000000362000000002000000ARS2020072127307015035       González Silvana Carolina                                  27307015035
PR0040000000000000363000000002000000ARS2020072127347807856       Palle Daniela Anahi                                         27347807856
PR0040000000000000364000000003000000ARS2020072127277940340       Santacruz Jesica andrea                                     27277940340
PR0040000000000000365000000003000000ARS2020072123327026739       Hurtado Rodrigo Carlos                                      23327026739
PR0040000000000000366000000002000000ARS2020072120222152187       Vitullo Jose Luis                                           20222152187
PR0040000000000000367000000004000000ARS2020072127236887702       OLSINA NURIEL SOLEDAD                                       27236887702
PR0040000000000000368000000002000000ARS2020072127186527084       Zerbonia Adriana del Valle                                  27186527084
PR0040000000000000369000000004000000ARS2020072120362654751       De Petre Facundo                                            20362654751
PR0040000000000000370000000002000000ARS2020072120272373311       Fertonani Pablo Miguel                                      20272373311
PR0040000000000000371000000003000000ARS2020072127175161517       MARIÑO MARIA DEL CARMEN                                    27175161517
PR0040000000000000372000000002000000ARS2020072120262560121       Leclerc Gastón Andrés                                     20262560121
PR0040000000000000373000000002000000ARS2020072127315921827       Gossa Carolina Marisel                                      27315921827
PR0040000000000000374000000002000000ARS2020072127293881133       Díaz Vanesa Alejandra                                      27293881133
PR0040000000000000375000000002000000ARS2020072127340834378       NORANDO MAGALI JOANA                                        27340834378
PR0040000000000000376000000002000000ARS2020072120060780588       Platia Miguel Angel                                         20060780588
PR0040000000000000377000000002000000ARS2020072120247728997       CEJAS RAUL EDUARDO                                          20247728997
PR0040000000000000378000000003000000ARS2020072120230612987       CALZIA DANIEL                                               20230612987
PR0040000000000000379000000002000000ARS2020072127313398698       Italiano María de Lourdes                                  27313398698
PR0040000000000000380000000003000000ARS2020072127239143208       Barzaghi Flavia jesus                                       27239143208
PR0040000000000000381000000003000000ARS2020072120303470515       GOLIA MATIAS MARCELO                                        20303470515
PR0040000000000000382000000003000000ARS2020072120216000227       Henzenn ferrero Jose luis                                   20216000227
PR0040000000000000383000000003000000ARS2020072120331720268       Salcedo Matias                                              20331720268
PR0040000000000000384000000003000000ARS2020072127329859180       Testa Alexandra daniela                                     27329859180
PR0040000000000000385000000002000000ARS2020072120333637791       Acuña Luis Ruben                                           20333637791
PR0040000000000000386000000002000000ARS2020072120143425577       Berutti Carlos Miguel                                       20143425577
PR0040000000000000387000000002000000ARS2020072127245564177       Milacher Daniela                                            27245564177
PR0040000000000000388000000002000000ARS2020072127124344900       Riera Maria Susana                                          27124344900
PR0040000000000000389000000002000000ARS2020072127208899924       GONEM NORMA CARINA                                          27208899924
PR0040000000000000390000000002000000ARS2020072127296253567       PIOLI Andrea                                                27296253567
PR0040000000000000391000000003000000ARS2020072127168303837       Buttarelli Silvina Ana                                      27168303837
PR0040000000000000392000000002000000ARS2020072120265122389       Nicolau maximiliano                                         20265122389
PR0040000000000000393000000002000000ARS2020072120356424647       Di Marco Nicolás                                           20356424647
PR0040000000000000394000000002000000ARS2020072123220953629       Rizzuti Raúl Guillermo                                     23220953629
PR0040000000000000395000000002000000ARS2020072120256612640       Groh Alejandro                                              20256612640
PR0040000000000000396000000003000000ARS2020072123242392434       blanco ligia miriam                                         23242392434
PR0040000000000000397000000003000000ARS2020072127326518242       Salvatierra Brenda                                          27326518242
PR0040000000000000398000000002000000ARS2020072127273186080       Merlini Paola                                               27273186080
PR0040000000000000399000000002000000ARS2020072127268842794       LOPEZ ANALIA BEATRIZ                                        27268842794
PR0040000000000000400000000003000000ARS2020072127250839230       Aguilar Evangelina Roxana                                   27250839230
PR0040000000000000401000000002000000ARS2020072127221043524       Accetta Silvina                                             27221043524
PR0040000000000000402000000005000000ARS2020072120286452435       Basiliades Ulises                                           20286452435
PR0040000000000000403000000003000000ARS2020072120401213016       Franco Alan Joel                                            20401213016
PR0040000000000000404000000003000000ARS2020072123274209054       Dalla Fontana Silvia Analia                                 23274209054
PR0040000000000000405000000002000000ARS2020072120296107442       kern nicolas                                                20296107442
PR0040000000000000406000000002000000ARS2020072120257078974       Segovia Juan Pablo                                          20257078974
PR0040000000000000407000000003000000ARS2020072120215238262       OTAZU GASTON                                                20215238262
PR0040000000000000408000000002000000ARS2020072123304848049       Blangini Paz Lucas Sebastian                                23304848049
PR0040000000000000409000000003000000ARS2020072127215285478       Villegas Gabriela                                           27215285478
PR0040000000000000410000000002000000ARS2020072127230386655       Simon Carina                                                27230386655
PR0040000000000000411000000005000000ARS2020072127299705868       Almazan Lorena Andrea                                       27299705868
PR0040000000000000412000000002000000ARS2020072127203551458       cabiale claudia Patricia                                    27203551458
PR0040000000000000413000000002000000ARS2020072127226794986       Pendino Carina                                              27226794986
PR0040000000000000414000000002000000ARS2020072127279352144       Ragaglia Maria soledad                                      27279352144
PR0040000000000000415000000005000000ARS2020072123203543484       SCRIMIN MARIA EUGENIA                                       23203543484
PR0040000000000000416000000002000000ARS2020072120176686767       Gómez Fabián Roberto Emilio                               20176686767
PR0040000000000000417000000002000000ARS2020072127146847124       Rossi Graciela                                              27146847124
PR0040000000000000418000000003000000ARS2020072120305060764       Basterra Nicolas                                            20305060764
PR0040000000000000419000000005000000ARS2020072120320593523       MENDEZ NICOLAS MATIAS                                       20320593523
PR0040000000000000420000000005000000ARS2020072127249434707       ANDRUSZCZYSZYN Natalia Rita                                 27249434707
PR0040000000000000421000000004000000ARS2020072127062878407       Izquierdo Gladys Raquel                                     27062878407
PR0040000000000000422000000003000000ARS2020072127265506963       Riveros Marina Cristina                                     27265506963
PR0040000000000000423000000002000000ARS2020072127360019867       Gionotti Vargas Aimé Giuliana                              27360019867
PR0040000000000000424000000003000000ARS2020072127332995222       GOMEZ LAURA MELINA                                          27332995222
